{
  "contractName": "Admin",
  "abi": [
    {
      "inputs": [],
      "stateMutability": "nonpayable",
      "type": "constructor"
    },
    {
      "anonymous": false,
      "inputs": [
        {
          "indexed": true,
          "internalType": "address",
          "name": "previousOwner",
          "type": "address"
        },
        {
          "indexed": true,
          "internalType": "address",
          "name": "newOwner",
          "type": "address"
        }
      ],
      "name": "OwnershipTransferred",
      "type": "event"
    },
    {
      "anonymous": false,
      "inputs": [
        {
          "indexed": true,
          "internalType": "bytes32",
          "name": "role",
          "type": "bytes32"
        },
        {
          "indexed": true,
          "internalType": "bytes32",
          "name": "previousAdminRole",
          "type": "bytes32"
        },
        {
          "indexed": true,
          "internalType": "bytes32",
          "name": "newAdminRole",
          "type": "bytes32"
        }
      ],
      "name": "RoleAdminChanged",
      "type": "event"
    },
    {
      "anonymous": false,
      "inputs": [
        {
          "indexed": true,
          "internalType": "bytes32",
          "name": "role",
          "type": "bytes32"
        },
        {
          "indexed": true,
          "internalType": "address",
          "name": "account",
          "type": "address"
        },
        {
          "indexed": true,
          "internalType": "address",
          "name": "sender",
          "type": "address"
        }
      ],
      "name": "RoleGranted",
      "type": "event"
    },
    {
      "anonymous": false,
      "inputs": [
        {
          "indexed": true,
          "internalType": "bytes32",
          "name": "role",
          "type": "bytes32"
        },
        {
          "indexed": true,
          "internalType": "address",
          "name": "account",
          "type": "address"
        },
        {
          "indexed": true,
          "internalType": "address",
          "name": "sender",
          "type": "address"
        }
      ],
      "name": "RoleRevoked",
      "type": "event"
    },
    {
      "inputs": [],
      "name": "DEFAULT_ADMIN_ROLE",
      "outputs": [
        {
          "internalType": "bytes32",
          "name": "",
          "type": "bytes32"
        }
      ],
      "stateMutability": "view",
      "type": "function"
    },
    {
      "inputs": [],
      "name": "EMPLOYEE_ROLE",
      "outputs": [
        {
          "internalType": "bytes32",
          "name": "",
          "type": "bytes32"
        }
      ],
      "stateMutability": "view",
      "type": "function"
    },
    {
      "inputs": [],
      "name": "ORGANIZATION_ROLE",
      "outputs": [
        {
          "internalType": "bytes32",
          "name": "",
          "type": "bytes32"
        }
      ],
      "stateMutability": "view",
      "type": "function"
    },
    {
      "inputs": [],
      "name": "PAYROLL_ADMIN_ROLE",
      "outputs": [
        {
          "internalType": "bytes32",
          "name": "",
          "type": "bytes32"
        }
      ],
      "stateMutability": "view",
      "type": "function"
    },
    {
      "inputs": [],
      "name": "admin",
      "outputs": [
        {
          "internalType": "address",
          "name": "",
          "type": "address"
        }
      ],
      "stateMutability": "view",
      "type": "function"
    },
    {
      "inputs": [
        {
          "internalType": "bytes32",
          "name": "role",
          "type": "bytes32"
        }
      ],
      "name": "getRoleAdmin",
      "outputs": [
        {
          "internalType": "bytes32",
          "name": "",
          "type": "bytes32"
        }
      ],
      "stateMutability": "view",
      "type": "function"
    },
    {
      "inputs": [
        {
          "internalType": "bytes32",
          "name": "role",
          "type": "bytes32"
        },
        {
          "internalType": "address",
          "name": "account",
          "type": "address"
        }
      ],
      "name": "grantRole",
      "outputs": [],
      "stateMutability": "nonpayable",
      "type": "function"
    },
    {
      "inputs": [
        {
          "internalType": "bytes32",
          "name": "role",
          "type": "bytes32"
        },
        {
          "internalType": "address",
          "name": "account",
          "type": "address"
        }
      ],
      "name": "hasRole",
      "outputs": [
        {
          "internalType": "bool",
          "name": "",
          "type": "bool"
        }
      ],
      "stateMutability": "view",
      "type": "function"
    },
    {
      "inputs": [],
      "name": "owner",
      "outputs": [
        {
          "internalType": "address",
          "name": "",
          "type": "address"
        }
      ],
      "stateMutability": "view",
      "type": "function"
    },
    {
      "inputs": [],
      "name": "renounceOwnership",
      "outputs": [],
      "stateMutability": "nonpayable",
      "type": "function"
    },
    {
      "inputs": [
        {
          "internalType": "bytes32",
          "name": "role",
          "type": "bytes32"
        },
        {
          "internalType": "address",
          "name": "account",
          "type": "address"
        }
      ],
      "name": "renounceRole",
      "outputs": [],
      "stateMutability": "nonpayable",
      "type": "function"
    },
    {
      "inputs": [
        {
          "internalType": "bytes32",
          "name": "role",
          "type": "bytes32"
        },
        {
          "internalType": "address",
          "name": "account",
          "type": "address"
        }
      ],
      "name": "revokeRole",
      "outputs": [],
      "stateMutability": "nonpayable",
      "type": "function"
    },
    {
      "inputs": [
        {
          "internalType": "bytes4",
          "name": "interfaceId",
          "type": "bytes4"
        }
      ],
      "name": "supportsInterface",
      "outputs": [
        {
          "internalType": "bool",
          "name": "",
          "type": "bool"
        }
      ],
      "stateMutability": "view",
      "type": "function"
    },
    {
      "inputs": [
        {
          "internalType": "address",
          "name": "newOwner",
          "type": "address"
        }
      ],
      "name": "transferOwnership",
      "outputs": [],
      "stateMutability": "nonpayable",
      "type": "function"
    },
    {
      "inputs": [
        {
          "internalType": "address",
          "name": "EthAddress",
          "type": "address"
        },
        {
          "internalType": "string",
          "name": "Name",
          "type": "string"
        },
        {
          "internalType": "string",
          "name": "Location",
          "type": "string"
        },
        {
          "internalType": "string",
          "name": "Description",
          "type": "string"
        },
        {
          "internalType": "uint256",
          "name": "Role",
          "type": "uint256"
        }
      ],
      "name": "registerUser",
      "outputs": [],
      "stateMutability": "nonpayable",
      "type": "function"
    },
    {
      "inputs": [
        {
          "internalType": "address",
          "name": "_employeeAddress",
          "type": "address"
        }
      ],
      "name": "isEmployee",
      "outputs": [
        {
          "internalType": "bool",
          "name": "",
          "type": "bool"
        }
      ],
      "stateMutability": "view",
      "type": "function"
    },
    {
      "inputs": [
        {
          "internalType": "address",
          "name": "_organizationEndorser",
          "type": "address"
        }
      ],
      "name": "isOrganizationEndorser",
      "outputs": [
        {
          "internalType": "bool",
          "name": "",
          "type": "bool"
        }
      ],
      "stateMutability": "view",
      "type": "function"
    },
    {
      "inputs": [],
      "name": "employeeCount",
      "outputs": [
        {
          "internalType": "uint256",
          "name": "",
          "type": "uint256"
        }
      ],
      "stateMutability": "view",
      "type": "function"
    },
    {
      "inputs": [
        {
          "internalType": "address",
          "name": "_employee",
          "type": "address"
        }
      ],
      "name": "getEmployeeContractByAddress",
      "outputs": [
        {
          "internalType": "address",
          "name": "",
          "type": "address"
        }
      ],
      "stateMutability": "view",
      "type": "function"
    },
    {
      "inputs": [
        {
          "internalType": "uint256",
          "name": "index",
          "type": "uint256"
        }
      ],
      "name": "getEmployeeContractByIndex",
      "outputs": [
        {
          "internalType": "address",
          "name": "",
          "type": "address"
        }
      ],
      "stateMutability": "view",
      "type": "function"
    },
    {
      "inputs": [],
      "name": "OrganizationEndorserCount",
      "outputs": [
        {
          "internalType": "uint256",
          "name": "",
          "type": "uint256"
        }
      ],
      "stateMutability": "view",
      "type": "function"
    },
    {
      "inputs": [
        {
          "internalType": "address",
          "name": "_organization",
          "type": "address"
        }
      ],
      "name": "getOrganizationContractByAddress",
      "outputs": [
        {
          "internalType": "address",
          "name": "",
          "type": "address"
        }
      ],
      "stateMutability": "view",
      "type": "function"
    },
    {
      "inputs": [
        {
          "internalType": "uint256",
          "name": "index",
          "type": "uint256"
        }
      ],
      "name": "getOrganizationContractByIndex",
      "outputs": [
        {
          "internalType": "address",
          "name": "",
          "type": "address"
        }
      ],
      "stateMutability": "view",
      "type": "function"
    },
    {
      "inputs": [
        {
          "internalType": "address",
          "name": "_payrollAddress",
          "type": "address"
        }
      ],
      "name": "isPayrollAdmin",
      "outputs": [
        {
          "internalType": "bool",
          "name": "",
          "type": "bool"
        }
      ],
      "stateMutability": "view",
      "type": "function"
    },
    {
      "inputs": [],
      "name": "payrollAdminCount",
      "outputs": [
        {
          "internalType": "uint256",
          "name": "",
          "type": "uint256"
        }
      ],
      "stateMutability": "view",
      "type": "function"
    },
    {
      "inputs": [
        {
          "internalType": "address",
          "name": "_payrollAdmin",
          "type": "address"
        }
      ],
      "name": "getPayrollContractByAddress",
      "outputs": [
        {
          "internalType": "address",
          "name": "",
          "type": "address"
        }
      ],
      "stateMutability": "view",
      "type": "function"
    },
    {
      "inputs": [
        {
          "internalType": "uint256",
          "name": "index",
          "type": "uint256"
        }
      ],
      "name": "getPayrollContractByIndex",
      "outputs": [
        {
          "internalType": "address",
          "name": "",
          "type": "address"
        }
      ],
      "stateMutability": "view",
      "type": "function"
    }
  ],
  "bytecode": "0x60806040523480156200001157600080fd5b506200003262000026620000b060201b60201c565b620000b860201b60201c565b33600260006101000a81548173ffffffffffffffffffffffffffffffffffffffff021916908373ffffffffffffffffffffffffffffffffffffffff160217905550620000aa6000801b600260009054906101000a900473ffffffffffffffffffffffffffffffffffffffff166200017e60201b60201c565b620002ef565b600033905090565b6000600160009054906101000a900473ffffffffffffffffffffffffffffffffffffffff16905081600160006101000a81548173ffffffffffffffffffffffffffffffffffffffff021916908373ffffffffffffffffffffffffffffffffffffffff1602179055508173ffffffffffffffffffffffffffffffffffffffff168173ffffffffffffffffffffffffffffffffffffffff167f8be0079c531659141344cd1fd0a4f28419497f9722a3daafe3b4186f6b6457e060405160405180910390a35050565b6200019082826200019460201b60201c565b5050565b620001a682826200028560201b60201c565b6200028157600160008084815260200190815260200160002060000160008373ffffffffffffffffffffffffffffffffffffffff1673ffffffffffffffffffffffffffffffffffffffff16815260200190815260200160002060006101000a81548160ff02191690831515021790555062000226620000b060201b60201c565b73ffffffffffffffffffffffffffffffffffffffff168173ffffffffffffffffffffffffffffffffffffffff16837f2f8788117e7eff1d82e926ec794901d17c78024a50270940304540a733656f0d60405160405180910390a45b5050565b600080600084815260200190815260200160002060000160008373ffffffffffffffffffffffffffffffffffffffff1673ffffffffffffffffffffffffffffffffffffffff16815260200190815260200160002060009054906101000a900460ff16905092915050565b61a96980620002ff6000396000f3fe60806040523480156200001157600080fd5b5060043610620001d25760003560e01c80638c9483421162000111578063c25f66f611620000a5578063ea66543f116200007b578063ea66543f146200058f578063f07466e214620005c5578063f2fde38b14620005fb578063f851a440146200061b57620001d2565b8063c25f66f61462000517578063c684ba281462000539578063d547741f146200056f57620001d2565b806391d1485411620000e757806391d148541462000467578063a217fddf146200049d578063aa3758aa14620004bf578063bf5a94b614620004f557620001d2565b80638c94834214620004015780638da5cb5b14620004235780639047bf58146200044557620001d2565b80632f32b5ac1162000189578063447a81fe116200015f578063447a81fe146200037d57806369d7844114620003b35780636f93dc5614620003d5578063715018a614620003f557620001d2565b80632f32b5ac14620002f1578063323ddfc4146200032757806336568abe146200035d57620001d2565b806301ffc9a714620001d757806315d809f9146200020d57806316ab8a351462000243578063248a9ca314620002795780632a4cab9014620002af5780632f2ff15d14620002d1575b600080fd5b620001f56004803603810190620001ef919062001988565b6200063d565b604051620002049190620019d7565b60405180910390f35b6200022b600480360381019062000225919062001a2f565b620006ba565b6040516200023a919062001aa6565b60405180910390f35b6200026160048036038101906200025b919062001af4565b6200070f565b604051620002709190620019d7565b60405180910390f35b62000297600480360381019062000291919062001b61565b620007a3565b604051620002a6919062001ba4565b60405180910390f35b620002b9620007c2565b604051620002c8919062001ba4565b60405180910390f35b620002ef6004803603810190620002e9919062001bc1565b620007e6565b005b6200030f600480360381019062000309919062001a2f565b6200080d565b6040516200031e919062001aa6565b60405180910390f35b6200034560048036038101906200033f919062001af4565b62000862565b60405162000354919062001aa6565b60405180910390f35b6200037b600480360381019062000375919062001bc1565b620008cb565b005b6200039b600480360381019062000395919062001a2f565b62000955565b604051620003aa919062001aa6565b60405180910390f35b620003bd620009aa565b604051620003cc919062001c19565b60405180910390f35b620003f36004803603810190620003ed919062001d98565b620009b7565b005b620003ff62000e4d565b005b6200040b62000e65565b6040516200041a919062001ba4565b60405180910390f35b6200042d62000e89565b6040516200043c919062001aa6565b60405180910390f35b6200044f62000eb3565b6040516200045e919062001c19565b60405180910390f35b6200048560048036038101906200047f919062001bc1565b62000ec0565b604051620004949190620019d7565b60405180910390f35b620004a762000f2a565b604051620004b6919062001ba4565b60405180910390f35b620004dd6004803603810190620004d7919062001af4565b62000f31565b604051620004ec919062001aa6565b60405180910390f35b620004ff62000f9a565b6040516200050e919062001c19565b60405180910390f35b6200052162000fa7565b60405162000530919062001ba4565b60405180910390f35b62000557600480360381019062000551919062001af4565b62000fcb565b60405162000566919062001aa6565b60405180910390f35b6200058d600480360381019062000587919062001bc1565b62001034565b005b620005ad6004803603810190620005a7919062001af4565b6200105b565b604051620005bc9190620019d7565b60405180910390f35b620005e36004803603810190620005dd919062001af4565b620010ef565b604051620005f29190620019d7565b60405180910390f35b62000619600480360381019062000613919062001af4565b62001183565b005b620006256200120d565b60405162000634919062001aa6565b60405180910390f35b60007f7965db0b000000000000000000000000000000000000000000000000000000007bffffffffffffffffffffffffffffffffffffffffffffffffffffffff1916827bffffffffffffffffffffffffffffffffffffffffffffffffffffffff19161480620006b35750620006b28262001233565b5b9050919050565b60006200070860078381548110620006d757620006d662001e7d565b5b9060005260206000200160009054906101000a900473ffffffffffffffffffffffffffffffffffffffff1662000fcb565b9050919050565b60006200079c7fe0ae735793555d3fe7bb9c3f6f29e053c01c45cee237096b99b73ac619531dfb600460008573ffffffffffffffffffffffffffffffffffffffff1673ffffffffffffffffffffffffffffffffffffffff16815260200190815260200160002060009054906101000a900473ffffffffffffffffffffffffffffffffffffffff1662000ec0565b9050919050565b6000806000838152602001908152602001600020600101549050919050565b7f5a3425ea67e73c95853ecfc0c443062de292a303c186bc2aac1178ae1b86c62a81565b620007f182620007a3565b620007fc816200129d565b620008088383620012b5565b505050565b60006200085b600883815481106200082a576200082962001e7d565b5b9060005260206000200160009054906101000a900473ffffffffffffffffffffffffffffffffffffffff1662000f31565b9050919050565b6000600360008373ffffffffffffffffffffffffffffffffffffffff1673ffffffffffffffffffffffffffffffffffffffff16815260200190815260200160002060009054906101000a900473ffffffffffffffffffffffffffffffffffffffff169050919050565b620008d56200139a565b73ffffffffffffffffffffffffffffffffffffffff168173ffffffffffffffffffffffffffffffffffffffff161462000945576040517f08c379a00000000000000000000000000000000000000000000000000000000081526004016200093c9062001f33565b60405180910390fd5b620009518282620013a2565b5050565b6000620009a36006838154811062000972576200097162001e7d565b5b9060005260206000200160009054906101000a900473ffffffffffffffffffffffffffffffffffffffff1662000862565b9050919050565b6000600880549050905090565b620009c162001488565b6001810362000b45576000600260009054906101000a900473ffffffffffffffffffffffffffffffffffffffff168686868660405162000a0190620018ed565b62000a1195949392919062001fcd565b604051809103906000f08015801562000a2e573d6000803e3d6000fd5b50905080600360008873ffffffffffffffffffffffffffffffffffffffff1673ffffffffffffffffffffffffffffffffffffffff16815260200190815260200160002060006101000a81548173ffffffffffffffffffffffffffffffffffffffff021916908373ffffffffffffffffffffffffffffffffffffffff1602179055506006869080600181540180825580915050600190039060005260206000200160009091909190916101000a81548173ffffffffffffffffffffffffffffffffffffffff021916908373ffffffffffffffffffffffffffffffffffffffff16021790555062000b3e7f5a3425ea67e73c95853ecfc0c443062de292a303c186bc2aac1178ae1b86c62a82620007e6565b5062000e46565b6002810362000cc9576000600260009054906101000a900473ffffffffffffffffffffffffffffffffffffffff168686868660405162000b8590620018fb565b62000b9595949392919062001fcd565b604051809103906000f08015801562000bb2573d6000803e3d6000fd5b50905080600460008873ffffffffffffffffffffffffffffffffffffffff1673ffffffffffffffffffffffffffffffffffffffff16815260200190815260200160002060006101000a81548173ffffffffffffffffffffffffffffffffffffffff021916908373ffffffffffffffffffffffffffffffffffffffff1602179055506007869080600181540180825580915050600190039060005260206000200160009091909190916101000a81548173ffffffffffffffffffffffffffffffffffffffff021916908373ffffffffffffffffffffffffffffffffffffffff16021790555062000cc27fe0ae735793555d3fe7bb9c3f6f29e053c01c45cee237096b99b73ac619531dfb82620007e6565b5062000e45565b6003810362000e44576000600260009054906101000a900473ffffffffffffffffffffffffffffffffffffffff16868660405162000d079062001909565b62000d15939291906200203f565b604051809103906000f08015801562000d32573d6000803e3d6000fd5b50905080600560008873ffffffffffffffffffffffffffffffffffffffff1673ffffffffffffffffffffffffffffffffffffffff16815260200190815260200160002060006101000a81548173ffffffffffffffffffffffffffffffffffffffff021916908373ffffffffffffffffffffffffffffffffffffffff1602179055506008869080600181540180825580915050600190039060005260206000200160009091909190916101000a81548173ffffffffffffffffffffffffffffffffffffffff021916908373ffffffffffffffffffffffffffffffffffffffff16021790555062000e427f351c518a63f302fd3436c2d47c197d41df314c9a32018c5ae62e6d78e068859282620007e6565b505b5b5b5050505050565b62000e5762001488565b62000e6360006200150d565b565b7fe0ae735793555d3fe7bb9c3f6f29e053c01c45cee237096b99b73ac619531dfb81565b6000600160009054906101000a900473ffffffffffffffffffffffffffffffffffffffff16905090565b6000600680549050905090565b600080600084815260200190815260200160002060000160008373ffffffffffffffffffffffffffffffffffffffff1673ffffffffffffffffffffffffffffffffffffffff16815260200190815260200160002060009054906101000a900460ff16905092915050565b6000801b81565b6000600560008373ffffffffffffffffffffffffffffffffffffffff1673ffffffffffffffffffffffffffffffffffffffff16815260200190815260200160002060009054906101000a900473ffffffffffffffffffffffffffffffffffffffff169050919050565b6000600780549050905090565b7f351c518a63f302fd3436c2d47c197d41df314c9a32018c5ae62e6d78e068859281565b6000600460008373ffffffffffffffffffffffffffffffffffffffff1673ffffffffffffffffffffffffffffffffffffffff16815260200190815260200160002060009054906101000a900473ffffffffffffffffffffffffffffffffffffffff169050919050565b6200103f82620007a3565b6200104a816200129d565b620010568383620013a2565b505050565b6000620010e87f5a3425ea67e73c95853ecfc0c443062de292a303c186bc2aac1178ae1b86c62a600360008573ffffffffffffffffffffffffffffffffffffffff1673ffffffffffffffffffffffffffffffffffffffff16815260200190815260200160002060009054906101000a900473ffffffffffffffffffffffffffffffffffffffff1662000ec0565b9050919050565b60006200117c7f351c518a63f302fd3436c2d47c197d41df314c9a32018c5ae62e6d78e0688592600560008573ffffffffffffffffffffffffffffffffffffffff1673ffffffffffffffffffffffffffffffffffffffff16815260200190815260200160002060009054906101000a900473ffffffffffffffffffffffffffffffffffffffff1662000ec0565b9050919050565b6200118d62001488565b600073ffffffffffffffffffffffffffffffffffffffff168173ffffffffffffffffffffffffffffffffffffffff1603620011ff576040517f08c379a0000000000000000000000000000000000000000000000000000000008152600401620011f690620020d3565b60405180910390fd5b6200120a816200150d565b50565b600260009054906101000a900473ffffffffffffffffffffffffffffffffffffffff1681565b60007f01ffc9a7000000000000000000000000000000000000000000000000000000007bffffffffffffffffffffffffffffffffffffffffffffffffffffffff1916827bffffffffffffffffffffffffffffffffffffffffffffffffffffffff1916149050919050565b620012b281620012ac6200139a565b620015d3565b50565b620012c1828262000ec0565b6200139657600160008084815260200190815260200160002060000160008373ffffffffffffffffffffffffffffffffffffffff1673ffffffffffffffffffffffffffffffffffffffff16815260200190815260200160002060006101000a81548160ff0219169083151502179055506200133b6200139a565b73ffffffffffffffffffffffffffffffffffffffff168173ffffffffffffffffffffffffffffffffffffffff16837f2f8788117e7eff1d82e926ec794901d17c78024a50270940304540a733656f0d60405160405180910390a45b5050565b600033905090565b620013ae828262000ec0565b156200148457600080600084815260200190815260200160002060000160008373ffffffffffffffffffffffffffffffffffffffff1673ffffffffffffffffffffffffffffffffffffffff16815260200190815260200160002060006101000a81548160ff021916908315150217905550620014296200139a565b73ffffffffffffffffffffffffffffffffffffffff168173ffffffffffffffffffffffffffffffffffffffff16837ff6391f5c32d9c69d2a47ea670b442974b53935d1edc7fd64eb21e047a839171b60405160405180910390a45b5050565b620014926200139a565b73ffffffffffffffffffffffffffffffffffffffff16620014b262000e89565b73ffffffffffffffffffffffffffffffffffffffff16146200150b576040517f08c379a0000000000000000000000000000000000000000000000000000000008152600401620015029062002145565b60405180910390fd5b565b6000600160009054906101000a900473ffffffffffffffffffffffffffffffffffffffff16905081600160006101000a81548173ffffffffffffffffffffffffffffffffffffffff021916908373ffffffffffffffffffffffffffffffffffffffff1602179055508173ffffffffffffffffffffffffffffffffffffffff168173ffffffffffffffffffffffffffffffffffffffff167f8be0079c531659141344cd1fd0a4f28419497f9722a3daafe3b4186f6b6457e060405160405180910390a35050565b620015df828262000ec0565b6200165f57620015ef8162001663565b620015ff8360001c602062001692565b6040516020016200161292919062002249565b6040516020818303038152906040526040517f08c379a00000000000000000000000000000000000000000000000000000000081526004016200165691906200228b565b60405180910390fd5b5050565b60606200168b8273ffffffffffffffffffffffffffffffffffffffff16601460ff1662001692565b9050919050565b606060006002836002620016a79190620022de565b620016b3919062002329565b67ffffffffffffffff811115620016cf57620016ce62001c51565b5b6040519080825280601f01601f191660200182016040528015620017025781602001600182028036833780820191505090505b5090507f3000000000000000000000000000000000000000000000000000000000000000816000815181106200173d576200173c62001e7d565b5b60200101907effffffffffffffffffffffffffffffffffffffffffffffffffffffffffffff1916908160001a9053507f780000000000000000000000000000000000000000000000000000000000000081600181518110620017a457620017a362001e7d565b5b60200101907effffffffffffffffffffffffffffffffffffffffffffffffffffffffffffff1916908160001a90535060006001846002620017e69190620022de565b620017f2919062002329565b90505b60018111156200189c577f3031323334353637383961626364656600000000000000000000000000000000600f86166010811062001838576200183762001e7d565b5b1a60f81b82828151811062001852576200185162001e7d565b5b60200101907effffffffffffffffffffffffffffffffffffffffffffffffffffffffffffff1916908160001a905350600485901c945080620018949062002364565b9050620017f5565b5060008414620018e3576040517f08c379a0000000000000000000000000000000000000000000000000000000008152600401620018da90620023e2565b60405180910390fd5b8091505092915050565b614c50806200240583390190565b611d60806200705583390190565b611b7f8062008db583390190565b6000604051905090565b600080fd5b600080fd5b60007fffffffff0000000000000000000000000000000000000000000000000000000082169050919050565b62001962816200192b565b81146200196e57600080fd5b50565b600081359050620019828162001957565b92915050565b600060208284031215620019a157620019a062001921565b5b6000620019b18482850162001971565b91505092915050565b60008115159050919050565b620019d181620019ba565b82525050565b6000602082019050620019ee6000830184620019c6565b92915050565b6000819050919050565b62001a0981620019f4565b811462001a1557600080fd5b50565b60008135905062001a2981620019fe565b92915050565b60006020828403121562001a485762001a4762001921565b5b600062001a588482850162001a18565b91505092915050565b600073ffffffffffffffffffffffffffffffffffffffff82169050919050565b600062001a8e8262001a61565b9050919050565b62001aa08162001a81565b82525050565b600060208201905062001abd600083018462001a95565b92915050565b62001ace8162001a81565b811462001ada57600080fd5b50565b60008135905062001aee8162001ac3565b92915050565b60006020828403121562001b0d5762001b0c62001921565b5b600062001b1d8482850162001add565b91505092915050565b6000819050919050565b62001b3b8162001b26565b811462001b4757600080fd5b50565b60008135905062001b5b8162001b30565b92915050565b60006020828403121562001b7a5762001b7962001921565b5b600062001b8a8482850162001b4a565b91505092915050565b62001b9e8162001b26565b82525050565b600060208201905062001bbb600083018462001b93565b92915050565b6000806040838503121562001bdb5762001bda62001921565b5b600062001beb8582860162001b4a565b925050602062001bfe8582860162001add565b9150509250929050565b62001c1381620019f4565b82525050565b600060208201905062001c30600083018462001c08565b92915050565b600080fd5b600080fd5b6000601f19601f8301169050919050565b7f4e487b7100000000000000000000000000000000000000000000000000000000600052604160045260246000fd5b62001c8b8262001c40565b810181811067ffffffffffffffff8211171562001cad5762001cac62001c51565b5b80604052505050565b600062001cc262001917565b905062001cd0828262001c80565b919050565b600067ffffffffffffffff82111562001cf35762001cf262001c51565b5b62001cfe8262001c40565b9050602081019050919050565b82818337600083830152505050565b600062001d3162001d2b8462001cd5565b62001cb6565b90508281526020810184848401111562001d505762001d4f62001c3b565b5b62001d5d84828562001d0b565b509392505050565b600082601f83011262001d7d5762001d7c62001c36565b5b813562001d8f84826020860162001d1a565b91505092915050565b600080600080600060a0868803121562001db75762001db662001921565b5b600062001dc78882890162001add565b955050602086013567ffffffffffffffff81111562001deb5762001dea62001926565b5b62001df98882890162001d65565b945050604086013567ffffffffffffffff81111562001e1d5762001e1c62001926565b5b62001e2b8882890162001d65565b935050606086013567ffffffffffffffff81111562001e4f5762001e4e62001926565b5b62001e5d8882890162001d65565b925050608062001e708882890162001a18565b9150509295509295909350565b7f4e487b7100000000000000000000000000000000000000000000000000000000600052603260045260246000fd5b600082825260208201905092915050565b7f416363657373436f6e74726f6c3a2063616e206f6e6c792072656e6f756e636560008201527f20726f6c657320666f722073656c660000000000000000000000000000000000602082015250565b600062001f1b602f8362001eac565b915062001f288262001ebd565b604082019050919050565b6000602082019050818103600083015262001f4e8162001f0c565b9050919050565b600081519050919050565b60005b8381101562001f8057808201518184015260208101905062001f63565b60008484015250505050565b600062001f998262001f55565b62001fa5818562001eac565b935062001fb781856020860162001f60565b62001fc28162001c40565b840191505092915050565b600060a08201905062001fe4600083018862001a95565b62001ff3602083018762001a95565b818103604083015262002007818662001f8c565b905081810360608301526200201d818562001f8c565b9050818103608083015262002033818462001f8c565b90509695505050505050565b600060608201905062002056600083018662001a95565b62002065602083018562001a95565b818103604083015262002079818462001f8c565b9050949350505050565b7f496e76616c696420616464726573730000000000000000000000000000000000600082015250565b6000620020bb600f8362001eac565b9150620020c88262002083565b602082019050919050565b60006020820190508181036000830152620020ee81620020ac565b9050919050565b7f4f776e61626c653a2063616c6c6572206973206e6f7420746865206f776e6572600082015250565b60006200212d60208362001eac565b91506200213a82620020f5565b602082019050919050565b6000602082019050818103600083015262002160816200211e565b9050919050565b600081905092915050565b7f416363657373436f6e74726f6c3a206163636f756e7420000000000000000000600082015250565b6000620021aa60178362002167565b9150620021b78262002172565b601782019050919050565b6000620021cf8262001f55565b620021db818562002167565b9350620021ed81856020860162001f60565b80840191505092915050565b7f206973206d697373696e6720726f6c6520000000000000000000000000000000600082015250565b60006200223160118362002167565b91506200223e82620021f9565b601182019050919050565b600062002256826200219b565b9150620022648285620021c2565b9150620022718262002222565b91506200227f8284620021c2565b91508190509392505050565b60006020820190508181036000830152620022a7818462001f8c565b905092915050565b7f4e487b7100000000000000000000000000000000000000000000000000000000600052601160045260246000fd5b6000620022eb82620019f4565b9150620022f883620019f4565b92508282026200230881620019f4565b91508282048414831517620023225762002321620022af565b5b5092915050565b60006200233682620019f4565b91506200234383620019f4565b92508282019050808211156200235e576200235d620022af565b5b92915050565b60006200237182620019f4565b915060008203620023875762002386620022af565b5b600182039050919050565b7f537472696e67733a20686578206c656e67746820696e73756666696369656e74600082015250565b6000620023ca60208362001eac565b9150620023d78262002392565b602082019050919050565b60006020820190508181036000830152620023fd81620023bb565b905091905056fe60806040523480156200001157600080fd5b5060405162004c5038038062004c50833981810160405281019062000037919062000479565b6200004c6000801b866200010860201b60201c565b6200007e7f5a3425ea67e73c95853ecfc0c443062de292a303c186bc2aac1178ae1b86c62a856200010860201b60201c565b82600690816200008f9190620007a9565b5083600160006101000a81548173ffffffffffffffffffffffffffffffffffffffff021916908373ffffffffffffffffffffffffffffffffffffffff1602179055508160029081620000e29190620007a9565b508060039081620000f49190620007a9565b506000600581905550505050505062000890565b6200011a82826200011e60201b60201c565b5050565b6200013082826200020f60201b60201c565b6200020b57600160008084815260200190815260200160002060000160008373ffffffffffffffffffffffffffffffffffffffff1673ffffffffffffffffffffffffffffffffffffffff16815260200190815260200160002060006101000a81548160ff021916908315150217905550620001b06200027960201b60201c565b73ffffffffffffffffffffffffffffffffffffffff168173ffffffffffffffffffffffffffffffffffffffff16837f2f8788117e7eff1d82e926ec794901d17c78024a50270940304540a733656f0d60405160405180910390a45b5050565b600080600084815260200190815260200160002060000160008373ffffffffffffffffffffffffffffffffffffffff1673ffffffffffffffffffffffffffffffffffffffff16815260200190815260200160002060009054906101000a900460ff16905092915050565b600033905090565b6000604051905090565b600080fd5b600080fd5b600073ffffffffffffffffffffffffffffffffffffffff82169050919050565b6000620002c28262000295565b9050919050565b620002d481620002b5565b8114620002e057600080fd5b50565b600081519050620002f481620002c9565b92915050565b600080fd5b600080fd5b6000601f19601f8301169050919050565b7f4e487b7100000000000000000000000000000000000000000000000000000000600052604160045260246000fd5b6200034f8262000304565b810181811067ffffffffffffffff8211171562000371576200037062000315565b5b80604052505050565b60006200038662000281565b905062000394828262000344565b919050565b600067ffffffffffffffff821115620003b757620003b662000315565b5b620003c28262000304565b9050602081019050919050565b60005b83811015620003ef578082015181840152602081019050620003d2565b60008484015250505050565b6000620004126200040c8462000399565b6200037a565b905082815260208101848484011115620004315762000430620002ff565b5b6200043e848285620003cf565b509392505050565b600082601f8301126200045e576200045d620002fa565b5b815162000470848260208601620003fb565b91505092915050565b600080600080600060a086880312156200049857620004976200028b565b5b6000620004a888828901620002e3565b9550506020620004bb88828901620002e3565b945050604086015167ffffffffffffffff811115620004df57620004de62000290565b5b620004ed8882890162000446565b935050606086015167ffffffffffffffff81111562000511576200051062000290565b5b6200051f8882890162000446565b925050608086015167ffffffffffffffff81111562000543576200054262000290565b5b620005518882890162000446565b9150509295509295909350565b600081519050919050565b7f4e487b7100000000000000000000000000000000000000000000000000000000600052602260045260246000fd5b60006002820490506001821680620005b157607f821691505b602082108103620005c757620005c662000569565b5b50919050565b60008190508160005260206000209050919050565b60006020601f8301049050919050565b600082821b905092915050565b600060088302620006317fffffffffffffffffffffffffffffffffffffffffffffffffffffffffffffffff82620005f2565b6200063d8683620005f2565b95508019841693508086168417925050509392505050565b6000819050919050565b6000819050919050565b60006200068a620006846200067e8462000655565b6200065f565b62000655565b9050919050565b6000819050919050565b620006a68362000669565b620006be620006b58262000691565b848454620005ff565b825550505050565b600090565b620006d5620006c6565b620006e28184846200069b565b505050565b5b818110156200070a57620006fe600082620006cb565b600181019050620006e8565b5050565b601f82111562000759576200072381620005cd565b6200072e84620005e2565b810160208510156200073e578190505b620007566200074d85620005e2565b830182620006e7565b50505b505050565b600082821c905092915050565b60006200077e600019846008026200075e565b1980831691505092915050565b60006200079983836200076b565b9150826002028217905092915050565b620007b4826200055e565b67ffffffffffffffff811115620007d057620007cf62000315565b5b620007dc825462000598565b620007e98282856200070e565b600060209050601f8311600181146200082157600084156200080c578287015190505b6200081885826200078b565b86555062000888565b601f1984166200083186620005cd565b60005b828110156200085b5784890151825560018201915060208501945060208101905062000834565b868310156200087b578489015162000877601f8916826200076b565b8355505b6001600288020188555050505b505050505050565b6143b080620008a06000396000f3fe608060405234801561001057600080fd5b50600436106101da5760003560e01c806394fb3da711610104578063d862ae87116100a2578063f5e616a611610071578063f5e616a614610554578063fc017f251461055e578063fdb103611461057a578063fee7989e14610596576101da565b8063d862ae87146104e4578063e260175114610500578063eda3467c1461051c578063f1d9efb214610538576101da565b8063c07f7d16116100de578063c07f7d161461045a578063cf6431c614610476578063d547741f14610492578063d57e0ad6146104ae576101da565b806394fb3da7146103fb578063a217fddf14610419578063a3e3bf7d14610437576101da565b8063444fc6621161017c578063645f29a81161014b578063645f29a81461034b5780637b1d2d001461037f5780637c067d8d1461039b57806391d14854146103cb576101da565b8063444fc662146102cf57806344afd1341461030557806344f034ae146103235780636212fa021461032d576101da565b8063248a9ca3116101b8578063248a9ca3146102495780632a4cab90146102795780632f2ff15d1461029757806336568abe146102b3576101da565b806301ffc9a7146101df57806305f53b291461020f5780632186879c1461022d575b600080fd5b6101f960048036038101906101f491906130d3565b6105ca565b604051610206919061311b565b60405180910390f35b610217610644565b604051610224919061314f565b60405180910390f35b610247600480360381019061024291906132b0565b610651565b005b610263600480360381019061025e919061332f565b610747565b604051610270919061336b565b60405180910390f35b610281610766565b60405161028e919061336b565b60405180910390f35b6102b160048036038101906102ac91906133e4565b61078a565b005b6102cd60048036038101906102c891906133e4565b6107ab565b005b6102e960048036038101906102e49190613450565b61082e565b6040516102fc979695949392919061350b565b60405180910390f35b61030d610903565b60405161031a919061314f565b60405180910390f35b61032b610910565b005b610335610a3e565b604051610342919061314f565b60405180910390f35b61036560048036038101906103609190613450565b610a4b565b60405161037695949392919061358f565b60405180910390f35b610399600480360381019061039491906135f7565b610aae565b005b6103b560048036038101906103b09190613450565b610cb2565b6040516103c2919061314f565b60405180910390f35b6103e560048036038101906103e091906133e4565b610cd6565b6040516103f2919061311b565b60405180910390f35b610403610d40565b604051610410919061314f565b60405180910390f35b610421610d4d565b60405161042e919061336b565b60405180910390f35b61043f610d54565b60405161045196959493929190613666565b60405180910390f35b610474600480360381019061046f91906136dc565b610f44565b005b610490600480360381019061048b91906132b0565b611191565b005b6104ac60048036038101906104a791906133e4565b61127d565b005b6104c860048036038101906104c39190613450565b61129e565b6040516104db9796959493929190613797565b60405180910390f35b6104fe60048036038101906104f99190613822565b61130b565b005b61051a6004803603810190610515919061389a565b61150c565b005b610536600480360381019061053191906132b0565b6115f5565b005b610552600480360381019061054d91906138c7565b6116eb565b005b61055c611989565b005b610578600480360381019061057391906139b2565b611ab7565b005b610594600480360381019061058f9190613a59565b611b77565b005b6105b060048036038101906105ab9190613450565b611d17565b6040516105c1959493929190613ae4565b60405180910390f35b60007f7965db0b000000000000000000000000000000000000000000000000000000007bffffffffffffffffffffffffffffffffffffffffffffffffffffffff1916827bffffffffffffffffffffffffffffffffffffffffffffffffffffffff1916148061063d575061063c82611de1565b5b9050919050565b6000600880549050905090565b61069d7f5a3425ea67e73c95853ecfc0c443062de292a303c186bc2aac1178ae1b86c62a600160009054906101000a900473ffffffffffffffffffffffffffffffffffffffff16610cd6565b6106dc576040517f08c379a00000000000000000000000000000000000000000000000000000000081526004016106d390613b8a565b60405180910390fd5b6009816040516106ec9190613be6565b908152602001604051809103902060030160019054906101000a900460ff161560098260405161071c9190613be6565b908152602001604051809103902060030160016101000a81548160ff02191690831515021790555050565b6000806000838152602001908152602001600020600101549050919050565b7f5a3425ea67e73c95853ecfc0c443062de292a303c186bc2aac1178ae1b86c62a81565b61079382610747565b61079c81611e4b565b6107a68383611e5f565b505050565b6107b3611f3f565b73ffffffffffffffffffffffffffffffffffffffff168173ffffffffffffffffffffffffffffffffffffffff1614610820576040517f08c379a000000000000000000000000000000000000000000000000000000000815260040161081790613c6f565b60405180910390fd5b61082a8282611f47565b5050565b606060006060600080606060006108ea6008898154811061085257610851613c8f565b5b90600052602060002001805461086790613ced565b80601f016020809104026020016040519081016040528092919081815260200182805461089390613ced565b80156108e05780601f106108b5576101008083540402835291602001916108e0565b820191906000526020600020905b8154815290600101906020018083116108c357829003601f168201915b5050505050612028565b9650965096509650965096509650919395979092949650565b6000600a80549050905090565b600073ffffffffffffffffffffffffffffffffffffffff16600b60003373ffffffffffffffffffffffffffffffffffffffff1673ffffffffffffffffffffffffffffffffffffffff16815260200190815260200160002060010160009054906101000a900473ffffffffffffffffffffffffffffffffffffffff1673ffffffffffffffffffffffffffffffffffffffff16036109e1576040517f08c379a00000000000000000000000000000000000000000000000000000000081526004016109d890613d6a565b60405180910390fd5b6001600b60003373ffffffffffffffffffffffffffffffffffffffff1673ffffffffffffffffffffffffffffffffffffffff16815260200190815260200160002060040160006101000a81548160ff021916908315150217905550565b6000600e80549050905090565b600060608060006060610a9b600e8781548110610a6b57610a6a613c8f565b5b9060005260206000200160009054906101000a900473ffffffffffffffffffffffffffffffffffffffff16612317565b9450945094509450945091939590929450565b610afa7f5a3425ea67e73c95853ecfc0c443062de292a303c186bc2aac1178ae1b86c62a600160009054906101000a900473ffffffffffffffffffffffffffffffffffffffff16610cd6565b610b39576040517f08c379a0000000000000000000000000000000000000000000000000000000008152600401610b3090613b8a565b60405180910390fd5b610b41612f29565b83816000018190525082816020019073ffffffffffffffffffffffffffffffffffffffff16908173ffffffffffffffffffffffffffffffffffffffff1681525050818160400181815250506000816060019015159081151581525050600181608001901515908115158152505080600985604051610bbf9190613be6565b90815260200160405180910390206000820151816000019081610be29190613f36565b5060208201518160010160006101000a81548173ffffffffffffffffffffffffffffffffffffffff021916908373ffffffffffffffffffffffffffffffffffffffff1602179055506040820151816002015560608201518160030160006101000a81548160ff02191690831515021790555060808201518160030160016101000a81548160ff021916908315150217905550905050600a84908060018154018082558091505060019003906000526020600020016000909190919091509081610cab9190613f36565b5050505050565b60048181548110610cc257600080fd5b906000526020600020016000915090505481565b600080600084815260200190815260200160002060000160008373ffffffffffffffffffffffffffffffffffffffff1673ffffffffffffffffffffffffffffffffffffffff16815260200190815260200160002060009054906101000a900460ff16905092915050565b6000600c80549050905090565b6000801b81565b60006060806060600080600160009054906101000a900473ffffffffffffffffffffffffffffffffffffffff166006600260036000600554848054610d9890613ced565b80601f0160208091040260200160405190810160405280929190818152602001828054610dc490613ced565b8015610e115780601f10610de657610100808354040283529160200191610e11565b820191906000526020600020905b815481529060010190602001808311610df457829003601f168201915b50505050509450838054610e2490613ced565b80601f0160208091040260200160405190810160405280929190818152602001828054610e5090613ced565b8015610e9d5780601f10610e7257610100808354040283529160200191610e9d565b820191906000526020600020905b815481529060010190602001808311610e8057829003601f168201915b50505050509350828054610eb090613ced565b80601f0160208091040260200160405190810160405280929190818152602001828054610edc90613ced565b8015610f295780601f10610efe57610100808354040283529160200191610f29565b820191906000526020600020905b815481529060010190602001808311610f0c57829003601f168201915b50505050509250955095509550955095509550909192939495565b610f907f5a3425ea67e73c95853ecfc0c443062de292a303c186bc2aac1178ae1b86c62a600160009054906101000a900473ffffffffffffffffffffffffffffffffffffffff16610cd6565b610fcf576040517f08c379a0000000000000000000000000000000000000000000000000000000008152600401610fc690613b8a565b60405180910390fd5b610fd7612f72565b84816000019073ffffffffffffffffffffffffffffffffffffffff16908173ffffffffffffffffffffffffffffffffffffffff1681525050838160200181905250828160400181905250600081606001901515908115158152505081816080018190525080600d60008773ffffffffffffffffffffffffffffffffffffffff1673ffffffffffffffffffffffffffffffffffffffff16815260200190815260200160002060008201518160000160006101000a81548173ffffffffffffffffffffffffffffffffffffffff021916908373ffffffffffffffffffffffffffffffffffffffff16021790555060208201518160010190816110d79190613f36565b5060408201518160020190816110ed9190613f36565b5060608201518160030160006101000a81548160ff02191690831515021790555060808201518160040190816111239190613f36565b50905050600e859080600181540180825580915050600190039060005260206000200160009091909190916101000a81548173ffffffffffffffffffffffffffffffffffffffff021916908373ffffffffffffffffffffffffffffffffffffffff1602179055505050505050565b6009816040516111a19190613be6565b908152602001604051809103902060010160009054906101000a900473ffffffffffffffffffffffffffffffffffffffff1673ffffffffffffffffffffffffffffffffffffffff163373ffffffffffffffffffffffffffffffffffffffff1614611240576040517f08c379a000000000000000000000000000000000000000000000000000000000815260040161123790614054565b60405180910390fd5b60016009826040516112529190613be6565b908152602001604051809103902060030160006101000a81548160ff02191690831515021790555050565b61128682610747565b61128f81611e4b565b6112998383611f47565b505050565b606060006060806000606060006112f2600c89815481106112c2576112c1613c8f565b5b9060005260206000200160009054906101000a900473ffffffffffffffffffffffffffffffffffffffff16612650565b9650965096509650965096509650919395979092949650565b6113577f5a3425ea67e73c95853ecfc0c443062de292a303c186bc2aac1178ae1b86c62a600160009054906101000a900473ffffffffffffffffffffffffffffffffffffffff16610cd6565b611396576040517f08c379a000000000000000000000000000000000000000000000000000000000815260040161138d90613b8a565b60405180910390fd5b61139e612fb9565b8281600001819052508181604001819052506000816020018181525050600081606001901515908115158152505060018160c0019015159081151581525050806007846040516113ee9190613be6565b908152602001604051809103902060008201518160000190816114119190613f36565b506020820151816001015560408201518160020190816114319190613f36565b5060608201518160030160006101000a81548160ff02191690831515021790555060808201518160030160016101000a81548173ffffffffffffffffffffffffffffffffffffffff021916908373ffffffffffffffffffffffffffffffffffffffff16021790555060a08201518160040190816114ae9190613f36565b5060c08201518160050160006101000a81548160ff0219169083151502179055509050506008839080600181540180825580915050600190039060005260206000200160009091909190915090816115069190613f36565b50505050565b6115587f5a3425ea67e73c95853ecfc0c443062de292a303c186bc2aac1178ae1b86c62a600160009054906101000a900473ffffffffffffffffffffffffffffffffffffffff16610cd6565b611597576040517f08c379a000000000000000000000000000000000000000000000000000000000815260040161158e90613b8a565b60405180910390fd5b6000600b60008373ffffffffffffffffffffffffffffffffffffffff1673ffffffffffffffffffffffffffffffffffffffff16815260200190815260200160002060060160006101000a81548160ff02191690831515021790555050565b6116417f5a3425ea67e73c95853ecfc0c443062de292a303c186bc2aac1178ae1b86c62a600160009054906101000a900473ffffffffffffffffffffffffffffffffffffffff16610cd6565b611680576040517f08c379a000000000000000000000000000000000000000000000000000000000815260040161167790613b8a565b60405180910390fd5b6007816040516116909190613be6565b908152602001604051809103902060050160009054906101000a900460ff16156007826040516116c09190613be6565b908152602001604051809103902060050160006101000a81548160ff02191690831515021790555050565b6117377f5a3425ea67e73c95853ecfc0c443062de292a303c186bc2aac1178ae1b86c62a600160009054906101000a900473ffffffffffffffffffffffffffffffffffffffff16610cd6565b611776576040517f08c379a000000000000000000000000000000000000000000000000000000000815260040161176d90613b8a565b60405180910390fd5b61177e613010565b85816000018190525084816020019073ffffffffffffffffffffffffffffffffffffffff16908173ffffffffffffffffffffffffffffffffffffffff1681525050838160400181905250828160600181905250600081608001901515908115158152505060018160c0019015159081151581525050818160a0018190525080600b60008773ffffffffffffffffffffffffffffffffffffffff1673ffffffffffffffffffffffffffffffffffffffff16815260200190815260200160002060008201518160000190816118519190613f36565b5060208201518160010160006101000a81548173ffffffffffffffffffffffffffffffffffffffff021916908373ffffffffffffffffffffffffffffffffffffffff16021790555060408201518160020190816118ae9190613f36565b5060608201518160030190816118c49190613f36565b5060808201518160040160006101000a81548160ff02191690831515021790555060a08201518160050190816118fa9190613f36565b5060c08201518160060160006101000a81548160ff021916908315150217905550905050600c859080600181540180825580915050600190039060005260206000200160009091909190916101000a81548173ffffffffffffffffffffffffffffffffffffffff021916908373ffffffffffffffffffffffffffffffffffffffff160217905550505050505050565b600073ffffffffffffffffffffffffffffffffffffffff16600d60003373ffffffffffffffffffffffffffffffffffffffff1673ffffffffffffffffffffffffffffffffffffffff16815260200190815260200160002060000160009054906101000a900473ffffffffffffffffffffffffffffffffffffffff1673ffffffffffffffffffffffffffffffffffffffff1603611a5a576040517f08c379a0000000000000000000000000000000000000000000000000000000008152600401611a51906140c0565b60405180910390fd5b6001600d60003373ffffffffffffffffffffffffffffffffffffffff1673ffffffffffffffffffffffffffffffffffffffff16815260200190815260200160002060030160006101000a81548160ff021916908315150217905550565b611b037f5a3425ea67e73c95853ecfc0c443062de292a303c186bc2aac1178ae1b86c62a600160009054906101000a900473ffffffffffffffffffffffffffffffffffffffff16610cd6565b611b42576040517f08c379a0000000000000000000000000000000000000000000000000000000008152600401611b3990613b8a565b60405180910390fd5b8260069081611b519190613f36565b508160029081611b619190613f36565b508060039081611b719190613f36565b50505050565b600783604051611b879190613be6565b908152602001604051809103902060050160009054906101000a900460ff16611be5576040517f08c379a0000000000000000000000000000000000000000000000000000000008152600401611bdc9061412c565b60405180910390fd5b81600784604051611bf69190613be6565b90815260200160405180910390206001018190555060048290806001815401808255809150506001900390600052602060002001600090919091909150556001600554611c43919061417b565b6005819055506001600784604051611c5b9190613be6565b908152602001604051809103902060030160006101000a81548160ff02191690831515021790555033600784604051611c949190613be6565b908152602001604051809103902060030160016101000a81548173ffffffffffffffffffffffffffffffffffffffff021916908373ffffffffffffffffffffffffffffffffffffffff16021790555080600784604051611cf49190613be6565b90815260200160405180910390206004019081611d119190613f36565b50505050565b6060600080600080611dce600a8781548110611d3657611d35613c8f565b5b906000526020600020018054611d4b90613ced565b80601f0160208091040260200160405190810160405280929190818152602001828054611d7790613ced565b8015611dc45780601f10611d9957610100808354040283529160200191611dc4565b820191906000526020600020905b815481529060010190602001808311611da757829003601f168201915b5050505050612ab1565b9450945094509450945091939590929450565b60007f01ffc9a7000000000000000000000000000000000000000000000000000000007bffffffffffffffffffffffffffffffffffffffffffffffffffffffff1916827bffffffffffffffffffffffffffffffffffffffffffffffffffffffff1916149050919050565b611e5c81611e57611f3f565b612c3b565b50565b611e698282610cd6565b611f3b57600160008084815260200190815260200160002060000160008373ffffffffffffffffffffffffffffffffffffffff1673ffffffffffffffffffffffffffffffffffffffff16815260200190815260200160002060006101000a81548160ff021916908315150217905550611ee0611f3f565b73ffffffffffffffffffffffffffffffffffffffff168173ffffffffffffffffffffffffffffffffffffffff16837f2f8788117e7eff1d82e926ec794901d17c78024a50270940304540a733656f0d60405160405180910390a45b5050565b600033905090565b611f518282610cd6565b1561202457600080600084815260200190815260200160002060000160008373ffffffffffffffffffffffffffffffffffffffff1673ffffffffffffffffffffffffffffffffffffffff16815260200190815260200160002060006101000a81548160ff021916908315150217905550611fc9611f3f565b73ffffffffffffffffffffffffffffffffffffffff168173ffffffffffffffffffffffffffffffffffffffff16837ff6391f5c32d9c69d2a47ea670b442974b53935d1edc7fd64eb21e047a839171b60405160405180910390a45b5050565b606060006060600080606060006007886040516120459190613be6565b90815260200160405180910390206000016007896040516120669190613be6565b90815260200160405180910390206001015460078a6040516120889190613be6565b908152602001604051809103902060020160078b6040516120a99190613be6565b908152602001604051809103902060030160009054906101000a900460ff1660078c6040516120d89190613be6565b908152602001604051809103902060030160019054906101000a900473ffffffffffffffffffffffffffffffffffffffff1660078d60405161211a9190613be6565b908152602001604051809103902060040160078e60405161213b9190613be6565b908152602001604051809103902060050160009054906101000a900460ff1686805461216690613ced565b80601f016020809104026020016040519081016040528092919081815260200182805461219290613ced565b80156121df5780601f106121b4576101008083540402835291602001916121df565b820191906000526020600020905b8154815290600101906020018083116121c257829003601f168201915b505050505096508480546121f290613ced565b80601f016020809104026020016040519081016040528092919081815260200182805461221e90613ced565b801561226b5780601f106122405761010080835404028352916020019161226b565b820191906000526020600020905b81548152906001019060200180831161224e57829003601f168201915b5050505050945081805461227e90613ced565b80601f01602080910402602001604051908101604052809291908181526020018280546122aa90613ced565b80156122f75780601f106122cc576101008083540402835291602001916122f7565b820191906000526020600020905b8154815290600101906020018083116122da57829003601f168201915b505050505091509650965096509650965096509650919395979092949650565b600060608060006060600d60008773ffffffffffffffffffffffffffffffffffffffff1673ffffffffffffffffffffffffffffffffffffffff16815260200190815260200160002060000160009054906101000a900473ffffffffffffffffffffffffffffffffffffffff16600d60008873ffffffffffffffffffffffffffffffffffffffff1673ffffffffffffffffffffffffffffffffffffffff168152602001908152602001600020600101600d60008973ffffffffffffffffffffffffffffffffffffffff1673ffffffffffffffffffffffffffffffffffffffff168152602001908152602001600020600201600d60008a73ffffffffffffffffffffffffffffffffffffffff1673ffffffffffffffffffffffffffffffffffffffff16815260200190815260200160002060030160009054906101000a900460ff16600d60008b73ffffffffffffffffffffffffffffffffffffffff1673ffffffffffffffffffffffffffffffffffffffff1681526020019081526020016000206004018380546124a590613ced565b80601f01602080910402602001604051908101604052809291908181526020018280546124d190613ced565b801561251e5780601f106124f35761010080835404028352916020019161251e565b820191906000526020600020905b81548152906001019060200180831161250157829003601f168201915b5050505050935082805461253190613ced565b80601f016020809104026020016040519081016040528092919081815260200182805461255d90613ced565b80156125aa5780601f1061257f576101008083540402835291602001916125aa565b820191906000526020600020905b81548152906001019060200180831161258d57829003601f168201915b505050505092508080546125bd90613ced565b80601f01602080910402602001604051908101604052809291908181526020018280546125e990613ced565b80156126365780601f1061260b57610100808354040283529160200191612636565b820191906000526020600020905b81548152906001019060200180831161261957829003601f168201915b505050505090509450945094509450945091939590929450565b60606000606080600060606000600b60008973ffffffffffffffffffffffffffffffffffffffff1673ffffffffffffffffffffffffffffffffffffffff168152602001908152602001600020600001600b60008a73ffffffffffffffffffffffffffffffffffffffff1673ffffffffffffffffffffffffffffffffffffffff16815260200190815260200160002060010160009054906101000a900473ffffffffffffffffffffffffffffffffffffffff16600b60008b73ffffffffffffffffffffffffffffffffffffffff1673ffffffffffffffffffffffffffffffffffffffff168152602001908152602001600020600201600b60008c73ffffffffffffffffffffffffffffffffffffffff1673ffffffffffffffffffffffffffffffffffffffff168152602001908152602001600020600301600b60008d73ffffffffffffffffffffffffffffffffffffffff1673ffffffffffffffffffffffffffffffffffffffff16815260200190815260200160002060040160009054906101000a900460ff16600b60008e73ffffffffffffffffffffffffffffffffffffffff1673ffffffffffffffffffffffffffffffffffffffff168152602001908152602001600020600501600b60008f73ffffffffffffffffffffffffffffffffffffffff1673ffffffffffffffffffffffffffffffffffffffff16815260200190815260200160002060060160009054906101000a900460ff1686805461287490613ced565b80601f01602080910402602001604051908101604052809291908181526020018280546128a090613ced565b80156128ed5780601f106128c2576101008083540402835291602001916128ed565b820191906000526020600020905b8154815290600101906020018083116128d057829003601f168201915b5050505050965084805461290090613ced565b80601f016020809104026020016040519081016040528092919081815260200182805461292c90613ced565b80156129795780601f1061294e57610100808354040283529160200191612979565b820191906000526020600020905b81548152906001019060200180831161295c57829003601f168201915b5050505050945083805461298c90613ced565b80601f01602080910402602001604051908101604052809291908181526020018280546129b890613ced565b8015612a055780601f106129da57610100808354040283529160200191612a05565b820191906000526020600020905b8154815290600101906020018083116129e857829003601f168201915b50505050509350818054612a1890613ced565b80601f0160208091040260200160405190810160405280929190818152602001828054612a4490613ced565b8015612a915780601f10612a6657610100808354040283529160200191612a91565b820191906000526020600020905b815481529060010190602001808311612a7457829003601f168201915b505050505091509650965096509650965096509650919395979092949650565b6060600080600080600986604051612ac99190613be6565b9081526020016040518091039020600001600987604051612aea9190613be6565b908152602001604051809103902060010160009054906101000a900473ffffffffffffffffffffffffffffffffffffffff16600988604051612b2c9190613be6565b908152602001604051809103902060020154600989604051612b4e9190613be6565b908152602001604051809103902060030160009054906101000a900460ff1660098a604051612b7d9190613be6565b908152602001604051809103902060030160019054906101000a900460ff16848054612ba890613ced565b80601f0160208091040260200160405190810160405280929190818152602001828054612bd490613ced565b8015612c215780601f10612bf657610100808354040283529160200191612c21565b820191906000526020600020905b815481529060010190602001808311612c0457829003601f168201915b505050505094509450945094509450945091939590929450565b612c458282610cd6565b612cbc57612c5281612cc0565b612c608360001c6020612ced565b604051602001612c71929190614247565b6040516020818303038152906040526040517f08c379a0000000000000000000000000000000000000000000000000000000008152600401612cb39190614281565b60405180910390fd5b5050565b6060612ce68273ffffffffffffffffffffffffffffffffffffffff16601460ff16612ced565b9050919050565b606060006002836002612d0091906142a3565b612d0a919061417b565b67ffffffffffffffff811115612d2357612d22613185565b5b6040519080825280601f01601f191660200182016040528015612d555781602001600182028036833780820191505090505b5090507f300000000000000000000000000000000000000000000000000000000000000081600081518110612d8d57612d8c613c8f565b5b60200101907effffffffffffffffffffffffffffffffffffffffffffffffffffffffffffff1916908160001a9053507f780000000000000000000000000000000000000000000000000000000000000081600181518110612df157612df0613c8f565b5b60200101907effffffffffffffffffffffffffffffffffffffffffffffffffffffffffffff1916908160001a90535060006001846002612e3191906142a3565b612e3b919061417b565b90505b6001811115612edb577f3031323334353637383961626364656600000000000000000000000000000000600f861660108110612e7d57612e7c613c8f565b5b1a60f81b828281518110612e9457612e93613c8f565b5b60200101907effffffffffffffffffffffffffffffffffffffffffffffffffffffffffffff1916908160001a905350600485901c945080612ed4906142e5565b9050612e3e565b5060008414612f1f576040517f08c379a0000000000000000000000000000000000000000000000000000000008152600401612f169061435a565b60405180910390fd5b8091505092915050565b6040518060a0016040528060608152602001600073ffffffffffffffffffffffffffffffffffffffff168152602001600081526020016000151581526020016000151581525090565b6040518060a00160405280600073ffffffffffffffffffffffffffffffffffffffff1681526020016060815260200160608152602001600015158152602001606081525090565b6040518060e00160405280606081526020016000815260200160608152602001600015158152602001600073ffffffffffffffffffffffffffffffffffffffff168152602001606081526020016000151581525090565b6040518060e0016040528060608152602001600073ffffffffffffffffffffffffffffffffffffffff1681526020016060815260200160608152602001600015158152602001606081526020016000151581525090565b6000604051905090565b600080fd5b600080fd5b60007fffffffff0000000000000000000000000000000000000000000000000000000082169050919050565b6130b08161307b565b81146130bb57600080fd5b50565b6000813590506130cd816130a7565b92915050565b6000602082840312156130e9576130e8613071565b5b60006130f7848285016130be565b91505092915050565b60008115159050919050565b61311581613100565b82525050565b6000602082019050613130600083018461310c565b92915050565b6000819050919050565b61314981613136565b82525050565b60006020820190506131646000830184613140565b92915050565b600080fd5b600080fd5b6000601f19601f8301169050919050565b7f4e487b7100000000000000000000000000000000000000000000000000000000600052604160045260246000fd5b6131bd82613174565b810181811067ffffffffffffffff821117156131dc576131db613185565b5b80604052505050565b60006131ef613067565b90506131fb82826131b4565b919050565b600067ffffffffffffffff82111561321b5761321a613185565b5b61322482613174565b9050602081019050919050565b82818337600083830152505050565b600061325361324e84613200565b6131e5565b90508281526020810184848401111561326f5761326e61316f565b5b61327a848285613231565b509392505050565b600082601f8301126132975761329661316a565b5b81356132a7848260208601613240565b91505092915050565b6000602082840312156132c6576132c5613071565b5b600082013567ffffffffffffffff8111156132e4576132e3613076565b5b6132f084828501613282565b91505092915050565b6000819050919050565b61330c816132f9565b811461331757600080fd5b50565b60008135905061332981613303565b92915050565b60006020828403121561334557613344613071565b5b60006133538482850161331a565b91505092915050565b613365816132f9565b82525050565b6000602082019050613380600083018461335c565b92915050565b600073ffffffffffffffffffffffffffffffffffffffff82169050919050565b60006133b182613386565b9050919050565b6133c1816133a6565b81146133cc57600080fd5b50565b6000813590506133de816133b8565b92915050565b600080604083850312156133fb576133fa613071565b5b60006134098582860161331a565b925050602061341a858286016133cf565b9150509250929050565b61342d81613136565b811461343857600080fd5b50565b60008135905061344a81613424565b92915050565b60006020828403121561346657613465613071565b5b60006134748482850161343b565b91505092915050565b600081519050919050565b600082825260208201905092915050565b60005b838110156134b757808201518184015260208101905061349c565b60008484015250505050565b60006134ce8261347d565b6134d88185613488565b93506134e8818560208601613499565b6134f181613174565b840191505092915050565b613505816133a6565b82525050565b600060e0820190508181036000830152613525818a6134c3565b90506135346020830189613140565b818103604083015261354681886134c3565b9050613555606083018761310c565b61356260808301866134fc565b81810360a083015261357481856134c3565b905061358360c083018461310c565b98975050505050505050565b600060a0820190506135a460008301886134fc565b81810360208301526135b681876134c3565b905081810360408301526135ca81866134c3565b90506135d9606083018561310c565b81810360808301526135eb81846134c3565b90509695505050505050565b6000806000606084860312156136105761360f613071565b5b600084013567ffffffffffffffff81111561362e5761362d613076565b5b61363a86828701613282565b935050602061364b868287016133cf565b925050604061365c8682870161343b565b9150509250925092565b600060c08201905061367b60008301896134fc565b818103602083015261368d81886134c3565b905081810360408301526136a181876134c3565b905081810360608301526136b581866134c3565b90506136c46080830185613140565b6136d160a0830184613140565b979650505050505050565b600080600080608085870312156136f6576136f5613071565b5b6000613704878288016133cf565b945050602085013567ffffffffffffffff81111561372557613724613076565b5b61373187828801613282565b935050604085013567ffffffffffffffff81111561375257613751613076565b5b61375e87828801613282565b925050606085013567ffffffffffffffff81111561377f5761377e613076565b5b61378b87828801613282565b91505092959194509250565b600060e08201905081810360008301526137b1818a6134c3565b90506137c060208301896134fc565b81810360408301526137d281886134c3565b905081810360608301526137e681876134c3565b90506137f5608083018661310c565b81810360a083015261380781856134c3565b905061381660c083018461310c565b98975050505050505050565b6000806040838503121561383957613838613071565b5b600083013567ffffffffffffffff81111561385757613856613076565b5b61386385828601613282565b925050602083013567ffffffffffffffff81111561388457613883613076565b5b61389085828601613282565b9150509250929050565b6000602082840312156138b0576138af613071565b5b60006138be848285016133cf565b91505092915050565b600080600080600060a086880312156138e3576138e2613071565b5b600086013567ffffffffffffffff81111561390157613900613076565b5b61390d88828901613282565b955050602061391e888289016133cf565b945050604086013567ffffffffffffffff81111561393f5761393e613076565b5b61394b88828901613282565b935050606086013567ffffffffffffffff81111561396c5761396b613076565b5b61397888828901613282565b925050608086013567ffffffffffffffff81111561399957613998613076565b5b6139a588828901613282565b9150509295509295909350565b6000806000606084860312156139cb576139ca613071565b5b600084013567ffffffffffffffff8111156139e9576139e8613076565b5b6139f586828701613282565b935050602084013567ffffffffffffffff811115613a1657613a15613076565b5b613a2286828701613282565b925050604084013567ffffffffffffffff811115613a4357613a42613076565b5b613a4f86828701613282565b9150509250925092565b600080600060608486031215613a7257613a71613071565b5b600084013567ffffffffffffffff811115613a9057613a8f613076565b5b613a9c86828701613282565b9350506020613aad8682870161343b565b925050604084013567ffffffffffffffff811115613ace57613acd613076565b5b613ada86828701613282565b9150509250925092565b600060a0820190508181036000830152613afe81886134c3565b9050613b0d60208301876134fc565b613b1a6040830186613140565b613b27606083018561310c565b613b34608083018461310c565b9695505050505050565b7f43616c6c6572206973206e6f7420616e20656d706c6f79656500000000000000600082015250565b6000613b74601983613488565b9150613b7f82613b3e565b602082019050919050565b60006020820190508181036000830152613ba381613b67565b9050919050565b600081905092915050565b6000613bc08261347d565b613bca8185613baa565b9350613bda818560208601613499565b80840191505092915050565b6000613bf28284613bb5565b915081905092915050565b7f416363657373436f6e74726f6c3a2063616e206f6e6c792072656e6f756e636560008201527f20726f6c657320666f722073656c660000000000000000000000000000000000602082015250565b6000613c59602f83613488565b9150613c6482613bfd565b604082019050919050565b60006020820190508181036000830152613c8881613c4c565b9050919050565b7f4e487b7100000000000000000000000000000000000000000000000000000000600052603260045260246000fd5b7f4e487b7100000000000000000000000000000000000000000000000000000000600052602260045260246000fd5b60006002820490506001821680613d0557607f821691505b602082108103613d1857613d17613cbe565b5b50919050565b7f4f7267616e697a6174696f6e20646f6573206e6f742065786973742100000000600082015250565b6000613d54601c83613488565b9150613d5f82613d1e565b602082019050919050565b60006020820190508181036000830152613d8381613d47565b9050919050565b60008190508160005260206000209050919050565b60006020601f8301049050919050565b600082821b905092915050565b600060088302613dec7fffffffffffffffffffffffffffffffffffffffffffffffffffffffffffffffff82613daf565b613df68683613daf565b95508019841693508086168417925050509392505050565b6000819050919050565b6000613e33613e2e613e2984613136565b613e0e565b613136565b9050919050565b6000819050919050565b613e4d83613e18565b613e61613e5982613e3a565b848454613dbc565b825550505050565b600090565b613e76613e69565b613e81818484613e44565b505050565b5b81811015613ea557613e9a600082613e6e565b600181019050613e87565b5050565b601f821115613eea57613ebb81613d8a565b613ec484613d9f565b81016020851015613ed3578190505b613ee7613edf85613d9f565b830182613e86565b50505b505050565b600082821c905092915050565b6000613f0d60001984600802613eef565b1980831691505092915050565b6000613f268383613efc565b9150826002028217905092915050565b613f3f8261347d565b67ffffffffffffffff811115613f5857613f57613185565b5b613f628254613ced565b613f6d828285613ea9565b600060209050601f831160018114613fa05760008415613f8e578287015190505b613f988582613f1a565b865550614000565b601f198416613fae86613d8a565b60005b82811015613fd657848901518255600182019150602085019450602081019050613fb1565b86831015613ff35784890151613fef601f891682613efc565b8355505b6001600288020188555050505b505050505050565b7f43616c6c6572206973206e6f74206f7267616e697a6174696f6e000000000000600082015250565b600061403e601a83613488565b915061404982614008565b602082019050919050565b6000602082019050818103600083015261406d81614031565b9050919050565b7f696e7374697475746520646f6573206e6f742065786973742100000000000000600082015250565b60006140aa601983613488565b91506140b582614074565b602082019050919050565b600060208201905081810360008301526140d98161409d565b9050919050565b7f536b696c6c206973206e6f742076697369626c65210000000000000000000000600082015250565b6000614116601583613488565b9150614121826140e0565b602082019050919050565b6000602082019050818103600083015261414581614109565b9050919050565b7f4e487b7100000000000000000000000000000000000000000000000000000000600052601160045260246000fd5b600061418682613136565b915061419183613136565b92508282019050808211156141a9576141a861414c565b5b92915050565b7f416363657373436f6e74726f6c3a206163636f756e7420000000000000000000600082015250565b60006141e5601783613baa565b91506141f0826141af565b601782019050919050565b7f206973206d697373696e6720726f6c6520000000000000000000000000000000600082015250565b6000614231601183613baa565b915061423c826141fb565b601182019050919050565b6000614252826141d8565b915061425e8285613bb5565b915061426982614224565b91506142758284613bb5565b91508190509392505050565b6000602082019050818103600083015261429b81846134c3565b905092915050565b60006142ae82613136565b91506142b983613136565b92508282026142c781613136565b915082820484148315176142de576142dd61414c565b5b5092915050565b60006142f082613136565b9150600082036143035761430261414c565b5b600182039050919050565b7f537472696e67733a20686578206c656e67746820696e73756666696369656e74600082015250565b6000614344602083613488565b915061434f8261430e565b602082019050919050565b6000602082019050818103600083015261437381614337565b905091905056fea264697066735822122027febe5d0869c15a329dbb9ba335cd84554b922811a8e2f6a055c282930890de64736f6c6343000813003360806040523480156200001157600080fd5b5060405162001d6038038062001d60833981810160405281019062000037919062000471565b6200004c6000801b866200010060201b60201c565b6200007e7fe0ae735793555d3fe7bb9c3f6f29e053c01c45cee237096b99b73ac619531dfb856200010060201b60201c565b82600190816200008f9190620007a1565b5083600260006101000a81548173ffffffffffffffffffffffffffffffffffffffff021916908373ffffffffffffffffffffffffffffffffffffffff1602179055508160039081620000e29190620007a1565b508060049081620000f49190620007a1565b50505050505062000888565b6200011282826200011660201b60201c565b5050565b6200012882826200020760201b60201c565b6200020357600160008084815260200190815260200160002060000160008373ffffffffffffffffffffffffffffffffffffffff1673ffffffffffffffffffffffffffffffffffffffff16815260200190815260200160002060006101000a81548160ff021916908315150217905550620001a86200027160201b60201c565b73ffffffffffffffffffffffffffffffffffffffff168173ffffffffffffffffffffffffffffffffffffffff16837f2f8788117e7eff1d82e926ec794901d17c78024a50270940304540a733656f0d60405160405180910390a45b5050565b600080600084815260200190815260200160002060000160008373ffffffffffffffffffffffffffffffffffffffff1673ffffffffffffffffffffffffffffffffffffffff16815260200190815260200160002060009054906101000a900460ff16905092915050565b600033905090565b6000604051905090565b600080fd5b600080fd5b600073ffffffffffffffffffffffffffffffffffffffff82169050919050565b6000620002ba826200028d565b9050919050565b620002cc81620002ad565b8114620002d857600080fd5b50565b600081519050620002ec81620002c1565b92915050565b600080fd5b600080fd5b6000601f19601f8301169050919050565b7f4e487b7100000000000000000000000000000000000000000000000000000000600052604160045260246000fd5b6200034782620002fc565b810181811067ffffffffffffffff821117156200036957620003686200030d565b5b80604052505050565b60006200037e62000279565b90506200038c82826200033c565b919050565b600067ffffffffffffffff821115620003af57620003ae6200030d565b5b620003ba82620002fc565b9050602081019050919050565b60005b83811015620003e7578082015181840152602081019050620003ca565b60008484015250505050565b60006200040a620004048462000391565b62000372565b905082815260208101848484011115620004295762000428620002f7565b5b62000436848285620003c7565b509392505050565b600082601f830112620004565762000455620002f2565b5b815162000468848260208601620003f3565b91505092915050565b600080600080600060a0868803121562000490576200048f62000283565b5b6000620004a088828901620002db565b9550506020620004b388828901620002db565b945050604086015167ffffffffffffffff811115620004d757620004d662000288565b5b620004e5888289016200043e565b935050606086015167ffffffffffffffff81111562000509576200050862000288565b5b62000517888289016200043e565b925050608086015167ffffffffffffffff8111156200053b576200053a62000288565b5b62000549888289016200043e565b9150509295509295909350565b600081519050919050565b7f4e487b7100000000000000000000000000000000000000000000000000000000600052602260045260246000fd5b60006002820490506001821680620005a957607f821691505b602082108103620005bf57620005be62000561565b5b50919050565b60008190508160005260206000209050919050565b60006020601f8301049050919050565b600082821b905092915050565b600060088302620006297fffffffffffffffffffffffffffffffffffffffffffffffffffffffffffffffff82620005ea565b620006358683620005ea565b95508019841693508086168417925050509392505050565b6000819050919050565b6000819050919050565b6000620006826200067c62000676846200064d565b62000657565b6200064d565b9050919050565b6000819050919050565b6200069e8362000661565b620006b6620006ad8262000689565b848454620005f7565b825550505050565b600090565b620006cd620006be565b620006da81848462000693565b505050565b5b818110156200070257620006f6600082620006c3565b600181019050620006e0565b5050565b601f82111562000751576200071b81620005c5565b6200072684620005da565b8101602085101562000736578190505b6200074e6200074585620005da565b830182620006df565b50505b505050565b600082821c905092915050565b6000620007766000198460080262000756565b1980831691505092915050565b600062000791838362000763565b9150826002028217905092915050565b620007ac8262000556565b67ffffffffffffffff811115620007c857620007c76200030d565b5b620007d4825462000590565b620007e182828562000706565b600060209050601f83116001811462000819576000841562000804578287015190505b62000810858262000783565b86555062000880565b601f1984166200082986620005c5565b60005b8281101562000853578489015182556001820191506020850194506020810190506200082c565b868310156200087357848901516200086f601f89168262000763565b8355505b6001600288020188555050505b505050505050565b6114c880620008986000396000f3fe608060405234801561001057600080fd5b50600436106100b35760003560e01c806359420e481161007157806359420e481461018a5780638c948342146101ba57806391d14854146101d8578063a217fddf14610208578063d547741f14610226578063e894d0a214610242576100b3565b8062ac8095146100b857806301ffc9a7146100d4578063248a9ca3146101045780632f2ff15d1461013457806336568abe1461015057806352b9b9731461016c575b600080fd5b6100d260048036038101906100cd9190610d16565b610263565b005b6100ee60048036038101906100e99190610d9b565b610354565b6040516100fb9190610de3565b60405180910390f35b61011e60048036038101906101199190610e34565b6103ce565b60405161012b9190610e70565b60405180910390f35b61014e60048036038101906101499190610e8b565b6103ed565b005b61016a60048036038101906101659190610e8b565b61040e565b005b610174610491565b6040516101819190610ee4565b60405180910390f35b6101a4600480360381019061019f9190610f2b565b61049e565b6040516101b19190610f67565b60405180910390f35b6101c26104e6565b6040516101cf9190610e70565b60405180910390f35b6101f260048036038101906101ed9190610e8b565b61050a565b6040516101ff9190610de3565b60405180910390f35b610210610574565b60405161021d9190610e70565b60405180910390f35b610240600480360381019061023b9190610e8b565b61057b565b005b61024a61059c565b60405161025a9493929190611012565b60405180910390f35b6102af7fe0ae735793555d3fe7bb9c3f6f29e053c01c45cee237096b99b73ac619531dfb600260009054906101000a900473ffffffffffffffffffffffffffffffffffffffff1661050a565b6102ee576040517f08c379a00000000000000000000000000000000000000000000000000000000081526004016102e5906110b8565b60405180910390fd5b6005819080600181540180825580915050600190039060005260206000200160009091909190916101000a81548173ffffffffffffffffffffffffffffffffffffffff021916908373ffffffffffffffffffffffffffffffffffffffff16021790555050565b60007f7965db0b000000000000000000000000000000000000000000000000000000007bffffffffffffffffffffffffffffffffffffffffffffffffffffffff1916827bffffffffffffffffffffffffffffffffffffffffffffffffffffffff191614806103c757506103c68261077e565b5b9050919050565b6000806000838152602001908152602001600020600101549050919050565b6103f6826103ce565b6103ff816107e8565b61040983836107fc565b505050565b6104166108dc565b73ffffffffffffffffffffffffffffffffffffffff168173ffffffffffffffffffffffffffffffffffffffff1614610483576040517f08c379a000000000000000000000000000000000000000000000000000000000815260040161047a9061114a565b60405180910390fd5b61048d82826108e4565b5050565b6000600580549050905090565b6000600582815481106104b4576104b361116a565b5b9060005260206000200160009054906101000a900473ffffffffffffffffffffffffffffffffffffffff169050919050565b7fe0ae735793555d3fe7bb9c3f6f29e053c01c45cee237096b99b73ac619531dfb81565b600080600084815260200190815260200160002060000160008373ffffffffffffffffffffffffffffffffffffffff1673ffffffffffffffffffffffffffffffffffffffff16815260200190815260200160002060009054906101000a900460ff16905092915050565b6000801b81565b610584826103ce565b61058d816107e8565b61059783836108e4565b505050565b606060006060806001600260009054906101000a900473ffffffffffffffffffffffffffffffffffffffff16600360048380546105d8906111c8565b80601f0160208091040260200160405190810160405280929190818152602001828054610604906111c8565b80156106515780601f1061062657610100808354040283529160200191610651565b820191906000526020600020905b81548152906001019060200180831161063457829003601f168201915b50505050509350818054610664906111c8565b80601f0160208091040260200160405190810160405280929190818152602001828054610690906111c8565b80156106dd5780601f106106b2576101008083540402835291602001916106dd565b820191906000526020600020905b8154815290600101906020018083116106c057829003601f168201915b505050505091508080546106f0906111c8565b80601f016020809104026020016040519081016040528092919081815260200182805461071c906111c8565b80156107695780601f1061073e57610100808354040283529160200191610769565b820191906000526020600020905b81548152906001019060200180831161074c57829003601f168201915b50505050509050935093509350935090919293565b60007f01ffc9a7000000000000000000000000000000000000000000000000000000007bffffffffffffffffffffffffffffffffffffffffffffffffffffffff1916827bffffffffffffffffffffffffffffffffffffffffffffffffffffffff1916149050919050565b6107f9816107f46108dc565b6109c5565b50565b610806828261050a565b6108d857600160008084815260200190815260200160002060000160008373ffffffffffffffffffffffffffffffffffffffff1673ffffffffffffffffffffffffffffffffffffffff16815260200190815260200160002060006101000a81548160ff02191690831515021790555061087d6108dc565b73ffffffffffffffffffffffffffffffffffffffff168173ffffffffffffffffffffffffffffffffffffffff16837f2f8788117e7eff1d82e926ec794901d17c78024a50270940304540a733656f0d60405160405180910390a45b5050565b600033905090565b6108ee828261050a565b156109c157600080600084815260200190815260200160002060000160008373ffffffffffffffffffffffffffffffffffffffff1673ffffffffffffffffffffffffffffffffffffffff16815260200190815260200160002060006101000a81548160ff0219169083151502179055506109666108dc565b73ffffffffffffffffffffffffffffffffffffffff168173ffffffffffffffffffffffffffffffffffffffff16837ff6391f5c32d9c69d2a47ea670b442974b53935d1edc7fd64eb21e047a839171b60405160405180910390a45b5050565b6109cf828261050a565b610a46576109dc81610a4a565b6109ea8360001c6020610a77565b6040516020016109fb9291906112cd565b6040516020818303038152906040526040517f08c379a0000000000000000000000000000000000000000000000000000000008152600401610a3d9190611307565b60405180910390fd5b5050565b6060610a708273ffffffffffffffffffffffffffffffffffffffff16601460ff16610a77565b9050919050565b606060006002836002610a8a9190611358565b610a94919061139a565b67ffffffffffffffff811115610aad57610aac6113ce565b5b6040519080825280601f01601f191660200182016040528015610adf5781602001600182028036833780820191505090505b5090507f300000000000000000000000000000000000000000000000000000000000000081600081518110610b1757610b1661116a565b5b60200101907effffffffffffffffffffffffffffffffffffffffffffffffffffffffffffff1916908160001a9053507f780000000000000000000000000000000000000000000000000000000000000081600181518110610b7b57610b7a61116a565b5b60200101907effffffffffffffffffffffffffffffffffffffffffffffffffffffffffffff1916908160001a90535060006001846002610bbb9190611358565b610bc5919061139a565b90505b6001811115610c65577f3031323334353637383961626364656600000000000000000000000000000000600f861660108110610c0757610c0661116a565b5b1a60f81b828281518110610c1e57610c1d61116a565b5b60200101907effffffffffffffffffffffffffffffffffffffffffffffffffffffffffffff1916908160001a905350600485901c945080610c5e906113fd565b9050610bc8565b5060008414610ca9576040517f08c379a0000000000000000000000000000000000000000000000000000000008152600401610ca090611472565b60405180910390fd5b8091505092915050565b600080fd5b600073ffffffffffffffffffffffffffffffffffffffff82169050919050565b6000610ce382610cb8565b9050919050565b610cf381610cd8565b8114610cfe57600080fd5b50565b600081359050610d1081610cea565b92915050565b600060208284031215610d2c57610d2b610cb3565b5b6000610d3a84828501610d01565b91505092915050565b60007fffffffff0000000000000000000000000000000000000000000000000000000082169050919050565b610d7881610d43565b8114610d8357600080fd5b50565b600081359050610d9581610d6f565b92915050565b600060208284031215610db157610db0610cb3565b5b6000610dbf84828501610d86565b91505092915050565b60008115159050919050565b610ddd81610dc8565b82525050565b6000602082019050610df86000830184610dd4565b92915050565b6000819050919050565b610e1181610dfe565b8114610e1c57600080fd5b50565b600081359050610e2e81610e08565b92915050565b600060208284031215610e4a57610e49610cb3565b5b6000610e5884828501610e1f565b91505092915050565b610e6a81610dfe565b82525050565b6000602082019050610e856000830184610e61565b92915050565b60008060408385031215610ea257610ea1610cb3565b5b6000610eb085828601610e1f565b9250506020610ec185828601610d01565b9150509250929050565b6000819050919050565b610ede81610ecb565b82525050565b6000602082019050610ef96000830184610ed5565b92915050565b610f0881610ecb565b8114610f1357600080fd5b50565b600081359050610f2581610eff565b92915050565b600060208284031215610f4157610f40610cb3565b5b6000610f4f84828501610f16565b91505092915050565b610f6181610cd8565b82525050565b6000602082019050610f7c6000830184610f58565b92915050565b600081519050919050565b600082825260208201905092915050565b60005b83811015610fbc578082015181840152602081019050610fa1565b60008484015250505050565b6000601f19601f8301169050919050565b6000610fe482610f82565b610fee8185610f8d565b9350610ffe818560208601610f9e565b61100781610fc8565b840191505092915050565b6000608082019050818103600083015261102c8187610fd9565b905061103b6020830186610f58565b818103604083015261104d8185610fd9565b905081810360608301526110618184610fd9565b905095945050505050565b7f43616c6c6572206973206e6f7420616e206f7267616e697a6174696f6e000000600082015250565b60006110a2601d83610f8d565b91506110ad8261106c565b602082019050919050565b600060208201905081810360008301526110d181611095565b9050919050565b7f416363657373436f6e74726f6c3a2063616e206f6e6c792072656e6f756e636560008201527f20726f6c657320666f722073656c660000000000000000000000000000000000602082015250565b6000611134602f83610f8d565b915061113f826110d8565b604082019050919050565b6000602082019050818103600083015261116381611127565b9050919050565b7f4e487b7100000000000000000000000000000000000000000000000000000000600052603260045260246000fd5b7f4e487b7100000000000000000000000000000000000000000000000000000000600052602260045260246000fd5b600060028204905060018216806111e057607f821691505b6020821081036111f3576111f2611199565b5b50919050565b600081905092915050565b7f416363657373436f6e74726f6c3a206163636f756e7420000000000000000000600082015250565b600061123a6017836111f9565b915061124582611204565b601782019050919050565b600061125b82610f82565b61126581856111f9565b9350611275818560208601610f9e565b80840191505092915050565b7f206973206d697373696e6720726f6c6520000000000000000000000000000000600082015250565b60006112b76011836111f9565b91506112c282611281565b601182019050919050565b60006112d88261122d565b91506112e48285611250565b91506112ef826112aa565b91506112fb8284611250565b91508190509392505050565b600060208201905081810360008301526113218184610fd9565b905092915050565b7f4e487b7100000000000000000000000000000000000000000000000000000000600052601160045260246000fd5b600061136382610ecb565b915061136e83610ecb565b925082820261137c81610ecb565b9150828204841483151761139357611392611329565b5b5092915050565b60006113a582610ecb565b91506113b083610ecb565b92508282019050808211156113c8576113c7611329565b5b92915050565b7f4e487b7100000000000000000000000000000000000000000000000000000000600052604160045260246000fd5b600061140882610ecb565b91506000820361141b5761141a611329565b5b600182039050919050565b7f537472696e67733a20686578206c656e67746820696e73756666696369656e74600082015250565b600061145c602083610f8d565b915061146782611426565b602082019050919050565b6000602082019050818103600083015261148b8161144f565b905091905056fea26469706673582212201c7d9362522ee6fb5db7d2fb24d65efe86b947e0ecf5e3455d2657cd6c3044c564736f6c6343000813003360806040523480156200001157600080fd5b5060405162001b7f38038062001b7f83398181016040528101906200003791906200044b565b6200004c6000801b84620000da60201b60201c565b6200007e7f351c518a63f302fd3436c2d47c197d41df314c9a32018c5ae62e6d78e068859283620000da60201b60201c565b80600190816200008f919062000711565b5081600260006101000a81548173ffffffffffffffffffffffffffffffffffffffff021916908373ffffffffffffffffffffffffffffffffffffffff160217905550505050620007f8565b620000ec8282620000f060201b60201c565b5050565b620001028282620001e160201b60201c565b620001dd57600160008084815260200190815260200160002060000160008373ffffffffffffffffffffffffffffffffffffffff1673ffffffffffffffffffffffffffffffffffffffff16815260200190815260200160002060006101000a81548160ff021916908315150217905550620001826200024b60201b60201c565b73ffffffffffffffffffffffffffffffffffffffff168173ffffffffffffffffffffffffffffffffffffffff16837f2f8788117e7eff1d82e926ec794901d17c78024a50270940304540a733656f0d60405160405180910390a45b5050565b600080600084815260200190815260200160002060000160008373ffffffffffffffffffffffffffffffffffffffff1673ffffffffffffffffffffffffffffffffffffffff16815260200190815260200160002060009054906101000a900460ff16905092915050565b600033905090565b6000604051905090565b600080fd5b600080fd5b600073ffffffffffffffffffffffffffffffffffffffff82169050919050565b6000620002948262000267565b9050919050565b620002a68162000287565b8114620002b257600080fd5b50565b600081519050620002c6816200029b565b92915050565b600080fd5b600080fd5b6000601f19601f8301169050919050565b7f4e487b7100000000000000000000000000000000000000000000000000000000600052604160045260246000fd5b6200032182620002d6565b810181811067ffffffffffffffff82111715620003435762000342620002e7565b5b80604052505050565b60006200035862000253565b905062000366828262000316565b919050565b600067ffffffffffffffff821115620003895762000388620002e7565b5b6200039482620002d6565b9050602081019050919050565b60005b83811015620003c1578082015181840152602081019050620003a4565b60008484015250505050565b6000620003e4620003de846200036b565b6200034c565b905082815260208101848484011115620004035762000402620002d1565b5b62000410848285620003a1565b509392505050565b600082601f83011262000430576200042f620002cc565b5b815162000442848260208601620003cd565b91505092915050565b6000806000606084860312156200046757620004666200025d565b5b60006200047786828701620002b5565b93505060206200048a86828701620002b5565b925050604084015167ffffffffffffffff811115620004ae57620004ad62000262565b5b620004bc8682870162000418565b9150509250925092565b600081519050919050565b7f4e487b7100000000000000000000000000000000000000000000000000000000600052602260045260246000fd5b600060028204905060018216806200051957607f821691505b6020821081036200052f576200052e620004d1565b5b50919050565b60008190508160005260206000209050919050565b60006020601f8301049050919050565b600082821b905092915050565b600060088302620005997fffffffffffffffffffffffffffffffffffffffffffffffffffffffffffffffff826200055a565b620005a586836200055a565b95508019841693508086168417925050509392505050565b6000819050919050565b6000819050919050565b6000620005f2620005ec620005e684620005bd565b620005c7565b620005bd565b9050919050565b6000819050919050565b6200060e83620005d1565b620006266200061d82620005f9565b84845462000567565b825550505050565b600090565b6200063d6200062e565b6200064a81848462000603565b505050565b5b8181101562000672576200066660008262000633565b60018101905062000650565b5050565b601f821115620006c1576200068b8162000535565b62000696846200054a565b81016020851015620006a6578190505b620006be620006b5856200054a565b8301826200064f565b50505b505050565b600082821c905092915050565b6000620006e660001984600802620006c6565b1980831691505092915050565b6000620007018383620006d3565b9150826002028217905092915050565b6200071c82620004c6565b67ffffffffffffffff811115620007385762000737620002e7565b5b62000744825462000500565b6200075182828562000676565b600060209050601f83116001811462000789576000841562000774578287015190505b620007808582620006f3565b865550620007f0565b601f198416620007998662000535565b60005b82811015620007c3578489015182556001820191506020850194506020810190506200079c565b86831015620007e35784890151620007df601f891682620006d3565b8355505b6001600288020188555050505b505050505050565b61137780620008086000396000f3fe608060405234801561001057600080fd5b50600436106100b35760003560e01c806352b9b9731161007157806352b9b9731461018b57806359420e48146101a957806391d14854146101d9578063a217fddf14610209578063c25f66f614610227578063d547741f14610245576100b3565b8062ac8095146100b857806301ffc9a7146100d45780632352b7b314610104578063248a9ca3146101235780632f2ff15d1461015357806336568abe1461016f575b600080fd5b6100d260048036038101906100cd9190610bef565b610261565b005b6100ee60048036038101906100e99190610c74565b610352565b6040516100fb9190610cbc565b60405180910390f35b61010c6103cc565b60405161011a929190610d76565b60405180910390f35b61013d60048036038101906101389190610ddc565b610489565b60405161014a9190610e18565b60405180910390f35b61016d60048036038101906101689190610e33565b6104a8565b005b61018960048036038101906101849190610e33565b6104c9565b005b61019361054c565b6040516101a09190610e8c565b60405180910390f35b6101c360048036038101906101be9190610ed3565b610559565b6040516101d09190610f00565b60405180910390f35b6101f360048036038101906101ee9190610e33565b6105a1565b6040516102009190610cbc565b60405180910390f35b61021161060b565b60405161021e9190610e18565b60405180910390f35b61022f610612565b60405161023c9190610e18565b60405180910390f35b61025f600480360381019061025a9190610e33565b610636565b005b6102ad7f351c518a63f302fd3436c2d47c197d41df314c9a32018c5ae62e6d78e0688592600260009054906101000a900473ffffffffffffffffffffffffffffffffffffffff166105a1565b6102ec576040517f08c379a00000000000000000000000000000000000000000000000000000000081526004016102e390610f67565b60405180910390fd5b6003819080600181540180825580915050600190039060005260206000200160009091909190916101000a81548173ffffffffffffffffffffffffffffffffffffffff021916908373ffffffffffffffffffffffffffffffffffffffff16021790555050565b60007f7965db0b000000000000000000000000000000000000000000000000000000007bffffffffffffffffffffffffffffffffffffffffffffffffffffffff1916827bffffffffffffffffffffffffffffffffffffffffffffffffffffffff191614806103c557506103c482610657565b5b9050919050565b606060006001600260009054906101000a900473ffffffffffffffffffffffffffffffffffffffff1681805461040190610fb6565b80601f016020809104026020016040519081016040528092919081815260200182805461042d90610fb6565b801561047a5780601f1061044f5761010080835404028352916020019161047a565b820191906000526020600020905b81548152906001019060200180831161045d57829003601f168201915b50505050509150915091509091565b6000806000838152602001908152602001600020600101549050919050565b6104b182610489565b6104ba816106c1565b6104c483836106d5565b505050565b6104d16107b5565b73ffffffffffffffffffffffffffffffffffffffff168173ffffffffffffffffffffffffffffffffffffffff161461053e576040517f08c379a000000000000000000000000000000000000000000000000000000000815260040161053590611059565b60405180910390fd5b61054882826107bd565b5050565b6000600380549050905090565b60006003828154811061056f5761056e611079565b5b9060005260206000200160009054906101000a900473ffffffffffffffffffffffffffffffffffffffff169050919050565b600080600084815260200190815260200160002060000160008373ffffffffffffffffffffffffffffffffffffffff1673ffffffffffffffffffffffffffffffffffffffff16815260200190815260200160002060009054906101000a900460ff16905092915050565b6000801b81565b7f351c518a63f302fd3436c2d47c197d41df314c9a32018c5ae62e6d78e068859281565b61063f82610489565b610648816106c1565b61065283836107bd565b505050565b60007f01ffc9a7000000000000000000000000000000000000000000000000000000007bffffffffffffffffffffffffffffffffffffffffffffffffffffffff1916827bffffffffffffffffffffffffffffffffffffffffffffffffffffffff1916149050919050565b6106d2816106cd6107b5565b61089e565b50565b6106df82826105a1565b6107b157600160008084815260200190815260200160002060000160008373ffffffffffffffffffffffffffffffffffffffff1673ffffffffffffffffffffffffffffffffffffffff16815260200190815260200160002060006101000a81548160ff0219169083151502179055506107566107b5565b73ffffffffffffffffffffffffffffffffffffffff168173ffffffffffffffffffffffffffffffffffffffff16837f2f8788117e7eff1d82e926ec794901d17c78024a50270940304540a733656f0d60405160405180910390a45b5050565b600033905090565b6107c782826105a1565b1561089a57600080600084815260200190815260200160002060000160008373ffffffffffffffffffffffffffffffffffffffff1673ffffffffffffffffffffffffffffffffffffffff16815260200190815260200160002060006101000a81548160ff02191690831515021790555061083f6107b5565b73ffffffffffffffffffffffffffffffffffffffff168173ffffffffffffffffffffffffffffffffffffffff16837ff6391f5c32d9c69d2a47ea670b442974b53935d1edc7fd64eb21e047a839171b60405160405180910390a45b5050565b6108a882826105a1565b61091f576108b581610923565b6108c38360001c6020610950565b6040516020016108d492919061117c565b6040516020818303038152906040526040517f08c379a000000000000000000000000000000000000000000000000000000000815260040161091691906111b6565b60405180910390fd5b5050565b60606109498273ffffffffffffffffffffffffffffffffffffffff16601460ff16610950565b9050919050565b6060600060028360026109639190611207565b61096d9190611249565b67ffffffffffffffff8111156109865761098561127d565b5b6040519080825280601f01601f1916602001820160405280156109b85781602001600182028036833780820191505090505b5090507f3000000000000000000000000000000000000000000000000000000000000000816000815181106109f0576109ef611079565b5b60200101907effffffffffffffffffffffffffffffffffffffffffffffffffffffffffffff1916908160001a9053507f780000000000000000000000000000000000000000000000000000000000000081600181518110610a5457610a53611079565b5b60200101907effffffffffffffffffffffffffffffffffffffffffffffffffffffffffffff1916908160001a90535060006001846002610a949190611207565b610a9e9190611249565b90505b6001811115610b3e577f3031323334353637383961626364656600000000000000000000000000000000600f861660108110610ae057610adf611079565b5b1a60f81b828281518110610af757610af6611079565b5b60200101907effffffffffffffffffffffffffffffffffffffffffffffffffffffffffffff1916908160001a905350600485901c945080610b37906112ac565b9050610aa1565b5060008414610b82576040517f08c379a0000000000000000000000000000000000000000000000000000000008152600401610b7990611321565b60405180910390fd5b8091505092915050565b600080fd5b600073ffffffffffffffffffffffffffffffffffffffff82169050919050565b6000610bbc82610b91565b9050919050565b610bcc81610bb1565b8114610bd757600080fd5b50565b600081359050610be981610bc3565b92915050565b600060208284031215610c0557610c04610b8c565b5b6000610c1384828501610bda565b91505092915050565b60007fffffffff0000000000000000000000000000000000000000000000000000000082169050919050565b610c5181610c1c565b8114610c5c57600080fd5b50565b600081359050610c6e81610c48565b92915050565b600060208284031215610c8a57610c89610b8c565b5b6000610c9884828501610c5f565b91505092915050565b60008115159050919050565b610cb681610ca1565b82525050565b6000602082019050610cd16000830184610cad565b92915050565b600081519050919050565b600082825260208201905092915050565b60005b83811015610d11578082015181840152602081019050610cf6565b60008484015250505050565b6000601f19601f8301169050919050565b6000610d3982610cd7565b610d438185610ce2565b9350610d53818560208601610cf3565b610d5c81610d1d565b840191505092915050565b610d7081610bb1565b82525050565b60006040820190508181036000830152610d908185610d2e565b9050610d9f6020830184610d67565b9392505050565b6000819050919050565b610db981610da6565b8114610dc457600080fd5b50565b600081359050610dd681610db0565b92915050565b600060208284031215610df257610df1610b8c565b5b6000610e0084828501610dc7565b91505092915050565b610e1281610da6565b82525050565b6000602082019050610e2d6000830184610e09565b92915050565b60008060408385031215610e4a57610e49610b8c565b5b6000610e5885828601610dc7565b9250506020610e6985828601610bda565b9150509250929050565b6000819050919050565b610e8681610e73565b82525050565b6000602082019050610ea16000830184610e7d565b92915050565b610eb081610e73565b8114610ebb57600080fd5b50565b600081359050610ecd81610ea7565b92915050565b600060208284031215610ee957610ee8610b8c565b5b6000610ef784828501610ebe565b91505092915050565b6000602082019050610f156000830184610d67565b92915050565b7f43616c6c6572206973206e6f7420616e20706179726f6c6c2061646d696e0000600082015250565b6000610f51601e83610ce2565b9150610f5c82610f1b565b602082019050919050565b60006020820190508181036000830152610f8081610f44565b9050919050565b7f4e487b7100000000000000000000000000000000000000000000000000000000600052602260045260246000fd5b60006002820490506001821680610fce57607f821691505b602082108103610fe157610fe0610f87565b5b50919050565b7f416363657373436f6e74726f6c3a2063616e206f6e6c792072656e6f756e636560008201527f20726f6c657320666f722073656c660000000000000000000000000000000000602082015250565b6000611043602f83610ce2565b915061104e82610fe7565b604082019050919050565b6000602082019050818103600083015261107281611036565b9050919050565b7f4e487b7100000000000000000000000000000000000000000000000000000000600052603260045260246000fd5b600081905092915050565b7f416363657373436f6e74726f6c3a206163636f756e7420000000000000000000600082015250565b60006110e96017836110a8565b91506110f4826110b3565b601782019050919050565b600061110a82610cd7565b61111481856110a8565b9350611124818560208601610cf3565b80840191505092915050565b7f206973206d697373696e6720726f6c6520000000000000000000000000000000600082015250565b60006111666011836110a8565b915061117182611130565b601182019050919050565b6000611187826110dc565b915061119382856110ff565b915061119e82611159565b91506111aa82846110ff565b91508190509392505050565b600060208201905081810360008301526111d08184610d2e565b905092915050565b7f4e487b7100000000000000000000000000000000000000000000000000000000600052601160045260246000fd5b600061121282610e73565b915061121d83610e73565b925082820261122b81610e73565b91508282048414831517611242576112416111d8565b5b5092915050565b600061125482610e73565b915061125f83610e73565b9250828201905080821115611277576112766111d8565b5b92915050565b7f4e487b7100000000000000000000000000000000000000000000000000000000600052604160045260246000fd5b60006112b782610e73565b9150600082036112ca576112c96111d8565b5b600182039050919050565b7f537472696e67733a20686578206c656e67746820696e73756666696369656e74600082015250565b600061130b602083610ce2565b9150611316826112d5565b602082019050919050565b6000602082019050818103600083015261133a816112fe565b905091905056fea2646970667358221220cae8264e69cc26694a51cd8e6ded64251e5930b361e97a30761e67e278cf68e064736f6c63430008130033a26469706673582212209549e283ddd742a5c2494a7005ee7e06eaeb19b3b6a4016330faf4eb30e1762464736f6c63430008130033",
  "immutableReferences": {},
  "source": "//SPDX-License-Identifier: MIT\npragma solidity >=0.5.0 <0.9.0;\nimport \"@openzeppelin/contracts/access/AccessControl.sol\";\nimport \"@openzeppelin/contracts/access/Ownable.sol\";\nimport \"./Employee.sol\";\nimport \"./OrganizationEndorser.sol\";\nimport \"./PayrollAdmin.sol\";\n\ncontract Admin is AccessControl, Ownable {\naddress public admin;\nbytes32 public constant EMPLOYEE_ROLE = keccak256(\"EMPLOYEE_ROLE\");\nbytes32 public constant ORGANIZATION_ROLE = keccak256(\"ORGANIZATION_ROLE\");\nbytes32 public constant PAYROLL_ADMIN_ROLE = keccak256(\"PAYROLL_ADMIN_ROLE\");\n\n  constructor() public {\n    admin = msg.sender;\n    _setupRole(DEFAULT_ADMIN_ROLE, admin);\n    // _setupRole(ADMIN_ROLE, _admin);\n  }\n\n  function transferOwnership(address newOwner) public override onlyOwner {\n    require(newOwner != address(0), \"Invalid address\");\n    _transferOwnership(newOwner);\n  }\n\n  mapping(address => address) registeredEmployeesmap;\n  mapping(address => address) registeredOrganizationmap;\n  mapping(address => address) registeredPayrollAdminmap;\n  address[] registeredEmployees;\n  address[] registeredOrganization;\n  address[] registeredPayrollAdmin;\n\n  function registerUser(\n    address EthAddress,\n    string memory Name,\n    string memory Location,\n    string memory Description,\n    uint256 Role\n  ) public onlyOwner {\n    if (Role == 1) {\n      Employee newEmployee = new Employee(\n        admin,\n        EthAddress,\n        Name,\n        Location,\n        Description\n      );\n      registeredEmployeesmap[EthAddress] = address(newEmployee);\n      registeredEmployees.push(EthAddress);\n      grantRole(EMPLOYEE_ROLE, address(newEmployee));\n    } else if(Role == 2) {\n      OrganizationEndorser newOrganizationEndorser = new OrganizationEndorser(\n        admin,\n        EthAddress,\n        Name,\n        Location,\n        Description\n      );\n      registeredOrganizationmap[EthAddress] = address(newOrganizationEndorser);\n      registeredOrganization.push(EthAddress);\n      grantRole(ORGANIZATION_ROLE, address(newOrganizationEndorser));\n    }else if(Role == 3){\n      PayrollAdmin newPayrollAdmin = new PayrollAdmin(\n        admin,\n        EthAddress,\n        Name\n      );\n      registeredPayrollAdminmap[EthAddress] = address(newPayrollAdmin);\n      registeredPayrollAdmin.push(EthAddress);\n      grantRole(PAYROLL_ADMIN_ROLE, address(newPayrollAdmin));\n    }\n  }\n\n  /****************************************************************USER SECTION**************************************************/\n\n  function isEmployee(address _employeeAddress) public view returns (bool) {\n    // return registeredEmployeesmap[_employeeAddress] != address(0x0);\n    return hasRole(EMPLOYEE_ROLE, registeredEmployeesmap[_employeeAddress]);\n  }\n\n  function isOrganizationEndorser(address _organizationEndorser)\n    public\n    view\n    returns (bool)\n  {\n    // return registeredOrganizationmap[_organizationEndorser] != address(0x0);\n      return hasRole(ORGANIZATION_ROLE, registeredOrganizationmap[_organizationEndorser]);\n  }\n\n  function employeeCount() public view returns (uint256) {\n    return registeredEmployees.length;\n  }\n\n  function getEmployeeContractByAddress(address _employee)\n    public\n    view\n    returns (address)\n  {\n    return registeredEmployeesmap[_employee];\n  }\n\n  function getEmployeeContractByIndex(uint256 index)\n    public\n    view\n    returns (address)\n  {\n    return getEmployeeContractByAddress(registeredEmployees[index]);\n  }\n\n  function OrganizationEndorserCount() public view returns (uint256) {\n    return registeredOrganization.length;\n  }\n\n  function getOrganizationContractByAddress(address _organization)\n    public\n    view\n    returns (address)\n  {\n    return registeredOrganizationmap[_organization];\n  }\n\n  function getOrganizationContractByIndex(uint256 index)\n    public\n    view\n    returns (address)\n  {\n    return getOrganizationContractByAddress(registeredOrganization[index]);\n  }\n\n  function isPayrollAdmin(address _payrollAddress) public view returns (bool) {\n    // return registeredEmployeesmap[_employeeAddress] != address(0x0);\n    return hasRole(PAYROLL_ADMIN_ROLE, registeredPayrollAdminmap[_payrollAddress]);\n  }\n\n  function payrollAdminCount() public view returns (uint256) {\n    return registeredPayrollAdmin.length;\n  }\n\n  function getPayrollContractByAddress(address _payrollAdmin)\n    public\n    view\n    returns (address)\n  {\n    return registeredPayrollAdminmap[_payrollAdmin];\n  }\n\n  function getPayrollContractByIndex(uint256 index)\n    public\n    view\n    returns (address)\n  {\n    return getPayrollContractByAddress(registeredPayrollAdmin[index]);\n  }\n  \n}\n",
  "sourcePath": "/Users/mobilelive/Work/mobileLIVE/hrms-blockchain-app/src/contracts/Admin.sol",
  "compiler": {
    "name": "solc",
    "version": "0.8.19+commit.7dd6d404.Emscripten.clang"
  },
  "schemaVersion": "3.4.13",
  "updatedAt": "2023-04-11T20:40:04.615Z",
  "devdoc": {
    "events": {
      "RoleAdminChanged(bytes32,bytes32,bytes32)": {
        "details": "Emitted when `newAdminRole` is set as ``role``'s admin role, replacing `previousAdminRole` `DEFAULT_ADMIN_ROLE` is the starting admin for all roles, despite {RoleAdminChanged} not being emitted signaling this. _Available since v3.1._"
      },
      "RoleGranted(bytes32,address,address)": {
        "details": "Emitted when `account` is granted `role`. `sender` is the account that originated the contract call, an admin role bearer except when using {AccessControl-_setupRole}."
      },
      "RoleRevoked(bytes32,address,address)": {
        "details": "Emitted when `account` is revoked `role`. `sender` is the account that originated the contract call:   - if using `revokeRole`, it is the admin role bearer   - if using `renounceRole`, it is the role bearer (i.e. `account`)"
      }
    },
    "kind": "dev",
    "methods": {
      "getRoleAdmin(bytes32)": {
        "details": "Returns the admin role that controls `role`. See {grantRole} and {revokeRole}. To change a role's admin, use {_setRoleAdmin}."
      },
      "grantRole(bytes32,address)": {
        "details": "Grants `role` to `account`. If `account` had not been already granted `role`, emits a {RoleGranted} event. Requirements: - the caller must have ``role``'s admin role. May emit a {RoleGranted} event."
      },
      "hasRole(bytes32,address)": {
        "details": "Returns `true` if `account` has been granted `role`."
      },
      "owner()": {
        "details": "Returns the address of the current owner."
      },
      "renounceOwnership()": {
        "details": "Leaves the contract without owner. It will not be possible to call `onlyOwner` functions anymore. Can only be called by the current owner. NOTE: Renouncing ownership will leave the contract without an owner, thereby removing any functionality that is only available to the owner."
      },
      "renounceRole(bytes32,address)": {
        "details": "Revokes `role` from the calling account. Roles are often managed via {grantRole} and {revokeRole}: this function's purpose is to provide a mechanism for accounts to lose their privileges if they are compromised (such as when a trusted device is misplaced). If the calling account had been revoked `role`, emits a {RoleRevoked} event. Requirements: - the caller must be `account`. May emit a {RoleRevoked} event."
      },
      "revokeRole(bytes32,address)": {
        "details": "Revokes `role` from `account`. If `account` had been granted `role`, emits a {RoleRevoked} event. Requirements: - the caller must have ``role``'s admin role. May emit a {RoleRevoked} event."
      },
      "supportsInterface(bytes4)": {
        "details": "See {IERC165-supportsInterface}."
      },
      "transferOwnership(address)": {
        "details": "Transfers ownership of the contract to a new account (`newOwner`). Can only be called by the current owner."
      }
    },
    "version": 1
  },
  "userdoc": {
    "kind": "user",
    "methods": {},
    "version": 1
  }
}