{
  "contractName": "Admin",
  "abi": [
    {
      "inputs": [],
      "stateMutability": "nonpayable",
      "type": "constructor"
    },
    {
      "anonymous": false,
      "inputs": [
        {
          "indexed": true,
          "internalType": "address",
          "name": "previousOwner",
          "type": "address"
        },
        {
          "indexed": true,
          "internalType": "address",
          "name": "newOwner",
          "type": "address"
        }
      ],
      "name": "OwnershipTransferred",
      "type": "event"
    },
    {
      "anonymous": false,
      "inputs": [
        {
          "indexed": true,
          "internalType": "bytes32",
          "name": "role",
          "type": "bytes32"
        },
        {
          "indexed": true,
          "internalType": "bytes32",
          "name": "previousAdminRole",
          "type": "bytes32"
        },
        {
          "indexed": true,
          "internalType": "bytes32",
          "name": "newAdminRole",
          "type": "bytes32"
        }
      ],
      "name": "RoleAdminChanged",
      "type": "event"
    },
    {
      "anonymous": false,
      "inputs": [
        {
          "indexed": true,
          "internalType": "bytes32",
          "name": "role",
          "type": "bytes32"
        },
        {
          "indexed": true,
          "internalType": "address",
          "name": "account",
          "type": "address"
        },
        {
          "indexed": true,
          "internalType": "address",
          "name": "sender",
          "type": "address"
        }
      ],
      "name": "RoleGranted",
      "type": "event"
    },
    {
      "anonymous": false,
      "inputs": [
        {
          "indexed": true,
          "internalType": "bytes32",
          "name": "role",
          "type": "bytes32"
        },
        {
          "indexed": true,
          "internalType": "address",
          "name": "account",
          "type": "address"
        },
        {
          "indexed": true,
          "internalType": "address",
          "name": "sender",
          "type": "address"
        }
      ],
      "name": "RoleRevoked",
      "type": "event"
    },
    {
      "inputs": [],
      "name": "DEFAULT_ADMIN_ROLE",
      "outputs": [
        {
          "internalType": "bytes32",
          "name": "",
          "type": "bytes32"
        }
      ],
      "stateMutability": "view",
      "type": "function",
      "constant": true
    },
    {
      "inputs": [],
      "name": "admin",
      "outputs": [
        {
          "internalType": "address",
          "name": "",
          "type": "address"
        }
      ],
      "stateMutability": "view",
      "type": "function",
      "constant": true
    },
    {
      "inputs": [],
      "name": "employeeRegistry",
      "outputs": [
        {
          "internalType": "contract EmployeeRegistry",
          "name": "",
          "type": "address"
        }
      ],
      "stateMutability": "view",
      "type": "function",
      "constant": true
    },
    {
      "inputs": [
        {
          "internalType": "bytes32",
          "name": "role",
          "type": "bytes32"
        }
      ],
      "name": "getRoleAdmin",
      "outputs": [
        {
          "internalType": "bytes32",
          "name": "",
          "type": "bytes32"
        }
      ],
      "stateMutability": "view",
      "type": "function",
      "constant": true
    },
    {
      "inputs": [
        {
          "internalType": "bytes32",
          "name": "role",
          "type": "bytes32"
        },
        {
          "internalType": "address",
          "name": "account",
          "type": "address"
        }
      ],
      "name": "grantRole",
      "outputs": [],
      "stateMutability": "nonpayable",
      "type": "function"
    },
    {
      "inputs": [
        {
          "internalType": "bytes32",
          "name": "role",
          "type": "bytes32"
        },
        {
          "internalType": "address",
          "name": "account",
          "type": "address"
        }
      ],
      "name": "hasRole",
      "outputs": [
        {
          "internalType": "bool",
          "name": "",
          "type": "bool"
        }
      ],
      "stateMutability": "view",
      "type": "function",
      "constant": true
    },
    {
      "inputs": [],
      "name": "organizationRegistry",
      "outputs": [
        {
          "internalType": "contract OrganizationRegistry",
          "name": "",
          "type": "address"
        }
      ],
      "stateMutability": "view",
      "type": "function",
      "constant": true
    },
    {
      "inputs": [],
      "name": "owner",
      "outputs": [
        {
          "internalType": "address",
          "name": "",
          "type": "address"
        }
      ],
      "stateMutability": "view",
      "type": "function",
      "constant": true
    },
    {
      "inputs": [],
      "name": "payrollAdminRegistry",
      "outputs": [
        {
          "internalType": "contract PayrollAdminRegistry",
          "name": "",
          "type": "address"
        }
      ],
      "stateMutability": "view",
      "type": "function",
      "constant": true
    },
    {
      "inputs": [],
      "name": "renounceOwnership",
      "outputs": [],
      "stateMutability": "nonpayable",
      "type": "function"
    },
    {
      "inputs": [
        {
          "internalType": "bytes32",
          "name": "role",
          "type": "bytes32"
        },
        {
          "internalType": "address",
          "name": "account",
          "type": "address"
        }
      ],
      "name": "renounceRole",
      "outputs": [],
      "stateMutability": "nonpayable",
      "type": "function"
    },
    {
      "inputs": [
        {
          "internalType": "bytes32",
          "name": "role",
          "type": "bytes32"
        },
        {
          "internalType": "address",
          "name": "account",
          "type": "address"
        }
      ],
      "name": "revokeRole",
      "outputs": [],
      "stateMutability": "nonpayable",
      "type": "function"
    },
    {
      "inputs": [
        {
          "internalType": "bytes4",
          "name": "interfaceId",
          "type": "bytes4"
        }
      ],
      "name": "supportsInterface",
      "outputs": [
        {
          "internalType": "bool",
          "name": "",
          "type": "bool"
        }
      ],
      "stateMutability": "view",
      "type": "function",
      "constant": true
    },
    {
      "inputs": [
        {
          "internalType": "address",
          "name": "newOwner",
          "type": "address"
        }
      ],
      "name": "transferOwnership",
      "outputs": [],
      "stateMutability": "nonpayable",
      "type": "function"
    },
    {
      "inputs": [
        {
          "internalType": "address",
          "name": "EthAddress",
          "type": "address"
        },
        {
          "internalType": "string",
          "name": "Name",
          "type": "string"
        },
        {
          "internalType": "string",
          "name": "Location",
          "type": "string"
        },
        {
          "internalType": "string",
          "name": "Description",
          "type": "string"
        },
        {
          "internalType": "uint256",
          "name": "Role",
          "type": "uint256"
        }
      ],
      "name": "registerUser",
      "outputs": [],
      "stateMutability": "nonpayable",
      "type": "function"
    },
    {
      "inputs": [
        {
          "internalType": "address",
          "name": "_employeeAddress",
          "type": "address"
        }
      ],
      "name": "isEmployee",
      "outputs": [
        {
          "internalType": "bool",
          "name": "",
          "type": "bool"
        }
      ],
      "stateMutability": "view",
      "type": "function",
      "constant": true
    },
    {
      "inputs": [
        {
          "internalType": "address",
          "name": "_organizationEndorser",
          "type": "address"
        }
      ],
      "name": "isOrganizationEndorser",
      "outputs": [
        {
          "internalType": "bool",
          "name": "",
          "type": "bool"
        }
      ],
      "stateMutability": "view",
      "type": "function",
      "constant": true
    },
    {
      "inputs": [],
      "name": "employeeCount",
      "outputs": [
        {
          "internalType": "uint256",
          "name": "",
          "type": "uint256"
        }
      ],
      "stateMutability": "view",
      "type": "function",
      "constant": true
    },
    {
      "inputs": [
        {
          "internalType": "address",
          "name": "_employee",
          "type": "address"
        }
      ],
      "name": "getEmployeeContractByAddress",
      "outputs": [
        {
          "internalType": "address",
          "name": "",
          "type": "address"
        }
      ],
      "stateMutability": "view",
      "type": "function",
      "constant": true
    },
    {
      "inputs": [
        {
          "internalType": "uint256",
          "name": "index",
          "type": "uint256"
        }
      ],
      "name": "getEmployeeContractByIndex",
      "outputs": [
        {
          "internalType": "address",
          "name": "",
          "type": "address"
        }
      ],
      "stateMutability": "view",
      "type": "function",
      "constant": true
    },
    {
      "inputs": [],
      "name": "OrganizationEndorserCount",
      "outputs": [
        {
          "internalType": "uint256",
          "name": "",
          "type": "uint256"
        }
      ],
      "stateMutability": "view",
      "type": "function",
      "constant": true
    },
    {
      "inputs": [
        {
          "internalType": "address",
          "name": "_organization",
          "type": "address"
        }
      ],
      "name": "getOrganizationContractByAddress",
      "outputs": [
        {
          "internalType": "address",
          "name": "",
          "type": "address"
        }
      ],
      "stateMutability": "view",
      "type": "function",
      "constant": true
    },
    {
      "inputs": [
        {
          "internalType": "uint256",
          "name": "index",
          "type": "uint256"
        }
      ],
      "name": "getOrganizationContractByIndex",
      "outputs": [
        {
          "internalType": "address",
          "name": "",
          "type": "address"
        }
      ],
      "stateMutability": "view",
      "type": "function",
      "constant": true
    },
    {
      "inputs": [
        {
          "internalType": "address",
          "name": "_payrollAddress",
          "type": "address"
        }
      ],
      "name": "isPayrollAdmin",
      "outputs": [
        {
          "internalType": "bool",
          "name": "",
          "type": "bool"
        }
      ],
      "stateMutability": "view",
      "type": "function",
      "constant": true
    },
    {
      "inputs": [],
      "name": "payrollAdminCount",
      "outputs": [
        {
          "internalType": "uint256",
          "name": "",
          "type": "uint256"
        }
      ],
      "stateMutability": "view",
      "type": "function",
      "constant": true
    },
    {
      "inputs": [
        {
          "internalType": "address",
          "name": "_payrollAdmin",
          "type": "address"
        }
      ],
      "name": "getPayrollContractByAddress",
      "outputs": [
        {
          "internalType": "address",
          "name": "",
          "type": "address"
        }
      ],
      "stateMutability": "view",
      "type": "function",
      "constant": true
    },
    {
      "inputs": [
        {
          "internalType": "uint256",
          "name": "index",
          "type": "uint256"
        }
      ],
      "name": "getPayrollContractByIndex",
      "outputs": [
        {
          "internalType": "address",
          "name": "",
          "type": "address"
        }
      ],
      "stateMutability": "view",
      "type": "function",
      "constant": true
    }
  ],
  "bytecode": "0x60806040523480156200001157600080fd5b506200003262000026620001f460201b60201c565b620001fc60201b60201c565b33600260006101000a81548173ffffffffffffffffffffffffffffffffffffffff021916908373ffffffffffffffffffffffffffffffffffffffff160217905550620000aa6000801b600260009054906101000a900473ffffffffffffffffffffffffffffffffffffffff16620002c260201b60201c565b604051620000b89062000433565b604051809103906000f080158015620000d5573d6000803e3d6000fd5b50600360006101000a81548173ffffffffffffffffffffffffffffffffffffffff021916908373ffffffffffffffffffffffffffffffffffffffff160217905550604051620001249062000441565b604051809103906000f08015801562000141573d6000803e3d6000fd5b50600460006101000a81548173ffffffffffffffffffffffffffffffffffffffff021916908373ffffffffffffffffffffffffffffffffffffffff16021790555060405162000190906200044f565b604051809103906000f080158015620001ad573d6000803e3d6000fd5b50600560006101000a81548173ffffffffffffffffffffffffffffffffffffffff021916908373ffffffffffffffffffffffffffffffffffffffff1602179055506200045d565b600033905090565b6000600160009054906101000a900473ffffffffffffffffffffffffffffffffffffffff16905081600160006101000a81548173ffffffffffffffffffffffffffffffffffffffff021916908373ffffffffffffffffffffffffffffffffffffffff1602179055508173ffffffffffffffffffffffffffffffffffffffff168173ffffffffffffffffffffffffffffffffffffffff167f8be0079c531659141344cd1fd0a4f28419497f9722a3daafe3b4186f6b6457e060405160405180910390a35050565b620002d48282620002d860201b60201c565b5050565b620002ea8282620003c960201b60201c565b620003c557600160008084815260200190815260200160002060000160008373ffffffffffffffffffffffffffffffffffffffff1673ffffffffffffffffffffffffffffffffffffffff16815260200190815260200160002060006101000a81548160ff0219169083151502179055506200036a620001f460201b60201c565b73ffffffffffffffffffffffffffffffffffffffff168173ffffffffffffffffffffffffffffffffffffffff16837f2f8788117e7eff1d82e926ec794901d17c78024a50270940304540a733656f0d60405160405180910390a45b5050565b600080600084815260200190815260200160002060000160008373ffffffffffffffffffffffffffffffffffffffff1673ffffffffffffffffffffffffffffffffffffffff16815260200190815260200160002060009054906101000a900460ff16905092915050565b61579d80620029eb83390190565b6139d8806200818883390190565b61385b806200bb6083390190565b61257e806200046d6000396000f3fe608060405234801561001057600080fd5b50600436106101a95760003560e01c8063836c5f10116100f9578063bf5a94b611610097578063ea66543f11610071578063ea66543f146104f8578063f07466e214610528578063f2fde38b14610558578063f851a44014610574576101a9565b8063bf5a94b61461048e578063c684ba28146104ac578063d547741f146104dc576101a9565b80639047bf58116100d35780639047bf58146103f257806391d1485414610410578063a217fddf14610440578063aa3758aa1461045e576101a9565b8063836c5f10146103985780638cafab7f146103b65780638da5cb5b146103d4576101a9565b8063323ddfc41161016657806369d784411161014057806369d78441146103365780636ddc9425146103545780636f93dc5614610372578063715018a61461038e576101a9565b8063323ddfc4146102ba57806336568abe146102ea578063447a81fe14610306576101a9565b806301ffc9a7146101ae57806315d809f9146101de57806316ab8a351461020e578063248a9ca31461023e5780632f2ff15d1461026e5780632f32b5ac1461028a575b600080fd5b6101c860048036038101906101c39190611cc1565b610592565b6040516101d59190612094565b60405180910390f35b6101f860048036038101906101f39190611cea565b61060c565b6040516102059190611fef565b60405180910390f35b61022860048036038101906102239190611b22565b6106c0565b6040516102359190612094565b60405180910390f35b61025860048036038101906102539190611c5c565b610774565b60405161026591906120af565b60405180910390f35b61028860048036038101906102839190611c85565b610793565b005b6102a4600480360381019061029f9190611cea565b6107b4565b6040516102b19190611fef565b60405180910390f35b6102d460048036038101906102cf9190611b22565b610868565b6040516102e19190611fef565b60405180910390f35b61030460048036038101906102ff9190611c85565b61091c565b005b610320600480360381019061031b9190611cea565b61099f565b60405161032d9190611fef565b60405180910390f35b61033e610a53565b60405161034b91906121bd565b60405180910390f35b61035c610afa565b60405161036991906120ca565b60405180910390f35b61038c60048036038101906103879190611b74565b610b20565b005b610396610d0c565b005b6103a0610d20565b6040516103ad9190612100565b60405180910390f35b6103be610d46565b6040516103cb91906120e5565b60405180910390f35b6103dc610d6c565b6040516103e99190611fef565b60405180910390f35b6103fa610d96565b60405161040791906121bd565b60405180910390f35b61042a60048036038101906104259190611c85565b610e3d565b6040516104379190612094565b60405180910390f35b610448610ea7565b60405161045591906120af565b60405180910390f35b61047860048036038101906104739190611b22565b610eae565b6040516104859190611fef565b60405180910390f35b610496610f62565b6040516104a391906121bd565b60405180910390f35b6104c660048036038101906104c19190611b22565b611009565b6040516104d39190611fef565b60405180910390f35b6104f660048036038101906104f19190611c85565b6110bd565b005b610512600480360381019061050d9190611b22565b6110de565b60405161051f9190612094565b60405180910390f35b610542600480360381019061053d9190611b22565b611192565b60405161054f9190612094565b60405180910390f35b610572600480360381019061056d9190611b22565b611246565b005b61057c6112ca565b6040516105899190611fef565b60405180910390f35b60007f7965db0b000000000000000000000000000000000000000000000000000000007bffffffffffffffffffffffffffffffffffffffffffffffffffffffff1916827bffffffffffffffffffffffffffffffffffffffffffffffffffffffff191614806106055750610604826112f0565b5b9050919050565b6000600460009054906101000a900473ffffffffffffffffffffffffffffffffffffffff1673ffffffffffffffffffffffffffffffffffffffff166365f4f805836040518263ffffffff1660e01b815260040161066991906121bd565b60206040518083038186803b15801561068157600080fd5b505afa158015610695573d6000803e3d6000fd5b505050506040513d601f19601f820116820180604052508101906106b99190611b4b565b9050919050565b6000600460009054906101000a900473ffffffffffffffffffffffffffffffffffffffff1673ffffffffffffffffffffffffffffffffffffffff166316ab8a35836040518263ffffffff1660e01b815260040161071d9190611fef565b60206040518083038186803b15801561073557600080fd5b505afa158015610749573d6000803e3d6000fd5b505050506040513d601f19601f8201168201806040525081019061076d9190611c33565b9050919050565b6000806000838152602001908152602001600020600101549050919050565b61079c82610774565b6107a58161135a565b6107af838361136e565b505050565b6000600560009054906101000a900473ffffffffffffffffffffffffffffffffffffffff1673ffffffffffffffffffffffffffffffffffffffff1663ead3a9ed836040518263ffffffff1660e01b815260040161081191906121bd565b60206040518083038186803b15801561082957600080fd5b505afa15801561083d573d6000803e3d6000fd5b505050506040513d601f19601f820116820180604052508101906108619190611b4b565b9050919050565b6000600360009054906101000a900473ffffffffffffffffffffffffffffffffffffffff1673ffffffffffffffffffffffffffffffffffffffff1663323ddfc4836040518263ffffffff1660e01b81526004016108c59190611fef565b60206040518083038186803b1580156108dd57600080fd5b505afa1580156108f1573d6000803e3d6000fd5b505050506040513d601f19601f820116820180604052508101906109159190611b4b565b9050919050565b61092461144e565b73ffffffffffffffffffffffffffffffffffffffff168173ffffffffffffffffffffffffffffffffffffffff1614610991576040517f08c379a00000000000000000000000000000000000000000000000000000000081526004016109889061219d565b60405180910390fd5b61099b8282611456565b5050565b6000600360009054906101000a900473ffffffffffffffffffffffffffffffffffffffff1673ffffffffffffffffffffffffffffffffffffffff1663447a81fe836040518263ffffffff1660e01b81526004016109fc91906121bd565b60206040518083038186803b158015610a1457600080fd5b505afa158015610a28573d6000803e3d6000fd5b505050506040513d601f19601f82011682018060405250810190610a4c9190611b4b565b9050919050565b6000600560009054906101000a900473ffffffffffffffffffffffffffffffffffffffff1673ffffffffffffffffffffffffffffffffffffffff166369d784416040518163ffffffff1660e01b815260040160206040518083038186803b158015610abd57600080fd5b505afa158015610ad1573d6000803e3d6000fd5b505050506040513d601f19601f82011682018060405250810190610af59190611d13565b905090565b600360009054906101000a900473ffffffffffffffffffffffffffffffffffffffff1681565b610b28611537565b6001811415610bc957600360009054906101000a900473ffffffffffffffffffffffffffffffffffffffff1673ffffffffffffffffffffffffffffffffffffffff1663a29bed50868686866040518563ffffffff1660e01b8152600401610b92949392919061203a565b600060405180830381600087803b158015610bac57600080fd5b505af1158015610bc0573d6000803e3d6000fd5b50505050610d05565b6002811415610c6a57600460009054906101000a900473ffffffffffffffffffffffffffffffffffffffff1673ffffffffffffffffffffffffffffffffffffffff166322db53f8868686866040518563ffffffff1660e01b8152600401610c33949392919061203a565b600060405180830381600087803b158015610c4d57600080fd5b505af1158015610c61573d6000803e3d6000fd5b50505050610d04565b6003811415610d0357600560009054906101000a900473ffffffffffffffffffffffffffffffffffffffff1673ffffffffffffffffffffffffffffffffffffffff166354f17b2186866040518363ffffffff1660e01b8152600401610cd092919061200a565b600060405180830381600087803b158015610cea57600080fd5b505af1158015610cfe573d6000803e3d6000fd5b505050505b5b5b5050505050565b610d14611537565b610d1e60006115b5565b565b600560009054906101000a900473ffffffffffffffffffffffffffffffffffffffff1681565b600460009054906101000a900473ffffffffffffffffffffffffffffffffffffffff1681565b6000600160009054906101000a900473ffffffffffffffffffffffffffffffffffffffff16905090565b6000600360009054906101000a900473ffffffffffffffffffffffffffffffffffffffff1673ffffffffffffffffffffffffffffffffffffffff16639047bf586040518163ffffffff1660e01b815260040160206040518083038186803b158015610e0057600080fd5b505afa158015610e14573d6000803e3d6000fd5b505050506040513d601f19601f82011682018060405250810190610e389190611d13565b905090565b600080600084815260200190815260200160002060000160008373ffffffffffffffffffffffffffffffffffffffff1673ffffffffffffffffffffffffffffffffffffffff16815260200190815260200160002060009054906101000a900460ff16905092915050565b6000801b81565b6000600560009054906101000a900473ffffffffffffffffffffffffffffffffffffffff1673ffffffffffffffffffffffffffffffffffffffff166310701658836040518263ffffffff1660e01b8152600401610f0b9190611fef565b60206040518083038186803b158015610f2357600080fd5b505afa158015610f37573d6000803e3d6000fd5b505050506040513d601f19601f82011682018060405250810190610f5b9190611b4b565b9050919050565b6000600460009054906101000a900473ffffffffffffffffffffffffffffffffffffffff1673ffffffffffffffffffffffffffffffffffffffff1663dc2f41c86040518163ffffffff1660e01b815260040160206040518083038186803b158015610fcc57600080fd5b505afa158015610fe0573d6000803e3d6000fd5b505050506040513d601f19601f820116820180604052508101906110049190611d13565b905090565b6000600460009054906101000a900473ffffffffffffffffffffffffffffffffffffffff1673ffffffffffffffffffffffffffffffffffffffff1663d3233f94836040518263ffffffff1660e01b81526004016110669190611fef565b60206040518083038186803b15801561107e57600080fd5b505afa158015611092573d6000803e3d6000fd5b505050506040513d601f19601f820116820180604052508101906110b69190611b4b565b9050919050565b6110c682610774565b6110cf8161135a565b6110d98383611456565b505050565b6000600360009054906101000a900473ffffffffffffffffffffffffffffffffffffffff1673ffffffffffffffffffffffffffffffffffffffff1663ea66543f836040518263ffffffff1660e01b815260040161113b9190611fef565b60206040518083038186803b15801561115357600080fd5b505afa158015611167573d6000803e3d6000fd5b505050506040513d601f19601f8201168201806040525081019061118b9190611c33565b9050919050565b6000600560009054906101000a900473ffffffffffffffffffffffffffffffffffffffff1673ffffffffffffffffffffffffffffffffffffffff1663f07466e2836040518263ffffffff1660e01b81526004016111ef9190611fef565b60206040518083038186803b15801561120757600080fd5b505afa15801561121b573d6000803e3d6000fd5b505050506040513d601f19601f8201168201806040525081019061123f9190611c33565b9050919050565b61124e611537565b600073ffffffffffffffffffffffffffffffffffffffff168173ffffffffffffffffffffffffffffffffffffffff1614156112be576040517f08c379a00000000000000000000000000000000000000000000000000000000081526004016112b59061215d565b60405180910390fd5b6112c7816115b5565b50565b600260009054906101000a900473ffffffffffffffffffffffffffffffffffffffff1681565b60007f01ffc9a7000000000000000000000000000000000000000000000000000000007bffffffffffffffffffffffffffffffffffffffffffffffffffffffff1916827bffffffffffffffffffffffffffffffffffffffffffffffffffffffff1916149050919050565b61136b8161136661144e565b61167b565b50565b6113788282610e3d565b61144a57600160008084815260200190815260200160002060000160008373ffffffffffffffffffffffffffffffffffffffff1673ffffffffffffffffffffffffffffffffffffffff16815260200190815260200160002060006101000a81548160ff0219169083151502179055506113ef61144e565b73ffffffffffffffffffffffffffffffffffffffff168173ffffffffffffffffffffffffffffffffffffffff16837f2f8788117e7eff1d82e926ec794901d17c78024a50270940304540a733656f0d60405160405180910390a45b5050565b600033905090565b6114608282610e3d565b1561153357600080600084815260200190815260200160002060000160008373ffffffffffffffffffffffffffffffffffffffff1673ffffffffffffffffffffffffffffffffffffffff16815260200190815260200160002060006101000a81548160ff0219169083151502179055506114d861144e565b73ffffffffffffffffffffffffffffffffffffffff168173ffffffffffffffffffffffffffffffffffffffff16837ff6391f5c32d9c69d2a47ea670b442974b53935d1edc7fd64eb21e047a839171b60405160405180910390a45b5050565b61153f61144e565b73ffffffffffffffffffffffffffffffffffffffff1661155d610d6c565b73ffffffffffffffffffffffffffffffffffffffff16146115b3576040517f08c379a00000000000000000000000000000000000000000000000000000000081526004016115aa9061217d565b60405180910390fd5b565b6000600160009054906101000a900473ffffffffffffffffffffffffffffffffffffffff16905081600160006101000a81548173ffffffffffffffffffffffffffffffffffffffff021916908373ffffffffffffffffffffffffffffffffffffffff1602179055508173ffffffffffffffffffffffffffffffffffffffff168173ffffffffffffffffffffffffffffffffffffffff167f8be0079c531659141344cd1fd0a4f28419497f9722a3daafe3b4186f6b6457e060405160405180910390a35050565b6116858282610e3d565b6116fc5761169281611700565b6116a08360001c602061172d565b6040516020016116b1929190611fb5565b6040516020818303038152906040526040517f08c379a00000000000000000000000000000000000000000000000000000000081526004016116f3919061211b565b60405180910390fd5b5050565b60606117268273ffffffffffffffffffffffffffffffffffffffff16601460ff1661172d565b9050919050565b60606000600283600261174091906122b6565b61174a9190612260565b67ffffffffffffffff811115611789577f4e487b7100000000000000000000000000000000000000000000000000000000600052604160045260246000fd5b6040519080825280601f01601f1916602001820160405280156117bb5781602001600182028036833780820191505090505b5090507f300000000000000000000000000000000000000000000000000000000000000081600081518110611819577f4e487b7100000000000000000000000000000000000000000000000000000000600052603260045260246000fd5b60200101907effffffffffffffffffffffffffffffffffffffffffffffffffffffffffffff1916908160001a9053507f7800000000000000000000000000000000000000000000000000000000000000816001815181106118a3577f4e487b7100000000000000000000000000000000000000000000000000000000600052603260045260246000fd5b60200101907effffffffffffffffffffffffffffffffffffffffffffffffffffffffffffff1916908160001a905350600060018460026118e391906122b6565b6118ed9190612260565b90505b60018111156119d9577f3031323334353637383961626364656600000000000000000000000000000000600f861660108110611955577f4e487b7100000000000000000000000000000000000000000000000000000000600052603260045260246000fd5b1a60f81b828281518110611992577f4e487b7100000000000000000000000000000000000000000000000000000000600052603260045260246000fd5b60200101907effffffffffffffffffffffffffffffffffffffffffffffffffffffffffffff1916908160001a905350600485901c9450806119d29061243c565b90506118f0565b5060008414611a1d576040517f08c379a0000000000000000000000000000000000000000000000000000000008152600401611a149061213d565b60405180910390fd5b8091505092915050565b6000611a3a611a3584612209565b6121d8565b905082815260208101848484011115611a5257600080fd5b611a5d8482856123fa565b509392505050565b600081359050611a74816124d5565b92915050565b600081519050611a89816124d5565b92915050565b600081519050611a9e816124ec565b92915050565b600081359050611ab381612503565b92915050565b600081359050611ac88161251a565b92915050565b600082601f830112611adf57600080fd5b8135611aef848260208601611a27565b91505092915050565b600081359050611b0781612531565b92915050565b600081519050611b1c81612531565b92915050565b600060208284031215611b3457600080fd5b6000611b4284828501611a65565b91505092915050565b600060208284031215611b5d57600080fd5b6000611b6b84828501611a7a565b91505092915050565b600080600080600060a08688031215611b8c57600080fd5b6000611b9a88828901611a65565b955050602086013567ffffffffffffffff811115611bb757600080fd5b611bc388828901611ace565b945050604086013567ffffffffffffffff811115611be057600080fd5b611bec88828901611ace565b935050606086013567ffffffffffffffff811115611c0957600080fd5b611c1588828901611ace565b9250506080611c2688828901611af8565b9150509295509295909350565b600060208284031215611c4557600080fd5b6000611c5384828501611a8f565b91505092915050565b600060208284031215611c6e57600080fd5b6000611c7c84828501611aa4565b91505092915050565b60008060408385031215611c9857600080fd5b6000611ca685828601611aa4565b9250506020611cb785828601611a65565b9150509250929050565b600060208284031215611cd357600080fd5b6000611ce184828501611ab9565b91505092915050565b600060208284031215611cfc57600080fd5b6000611d0a84828501611af8565b91505092915050565b600060208284031215611d2557600080fd5b6000611d3384828501611b0d565b91505092915050565b611d4581612310565b82525050565b611d5481612322565b82525050565b611d638161232e565b82525050565b611d728161238e565b82525050565b611d81816123b2565b82525050565b611d90816123d6565b82525050565b6000611da182612239565b611dab8185612244565b9350611dbb818560208601612409565b611dc4816124c4565b840191505092915050565b6000611dda82612239565b611de48185612255565b9350611df4818560208601612409565b80840191505092915050565b6000611e0d602083612244565b91507f537472696e67733a20686578206c656e67746820696e73756666696369656e746000830152602082019050919050565b6000611e4d600f83612244565b91507f496e76616c6964206164647265737300000000000000000000000000000000006000830152602082019050919050565b6000611e8d602083612244565b91507f4f776e61626c653a2063616c6c6572206973206e6f7420746865206f776e65726000830152602082019050919050565b6000611ecd601783612255565b91507f416363657373436f6e74726f6c3a206163636f756e74200000000000000000006000830152601782019050919050565b6000611f0d601183612255565b91507f206973206d697373696e6720726f6c65200000000000000000000000000000006000830152601182019050919050565b6000611f4d602f83612244565b91507f416363657373436f6e74726f6c3a2063616e206f6e6c792072656e6f756e636560008301527f20726f6c657320666f722073656c6600000000000000000000000000000000006020830152604082019050919050565b611faf81612384565b82525050565b6000611fc082611ec0565b9150611fcc8285611dcf565b9150611fd782611f00565b9150611fe38284611dcf565b91508190509392505050565b60006020820190506120046000830184611d3c565b92915050565b600060408201905061201f6000830185611d3c565b81810360208301526120318184611d96565b90509392505050565b600060808201905061204f6000830187611d3c565b81810360208301526120618186611d96565b905081810360408301526120758185611d96565b905081810360608301526120898184611d96565b905095945050505050565b60006020820190506120a96000830184611d4b565b92915050565b60006020820190506120c46000830184611d5a565b92915050565b60006020820190506120df6000830184611d69565b92915050565b60006020820190506120fa6000830184611d78565b92915050565b60006020820190506121156000830184611d87565b92915050565b600060208201905081810360008301526121358184611d96565b905092915050565b6000602082019050818103600083015261215681611e00565b9050919050565b6000602082019050818103600083015261217681611e40565b9050919050565b6000602082019050818103600083015261219681611e80565b9050919050565b600060208201905081810360008301526121b681611f40565b9050919050565b60006020820190506121d26000830184611fa6565b92915050565b6000604051905081810181811067ffffffffffffffff821117156121ff576121fe612495565b5b8060405250919050565b600067ffffffffffffffff82111561222457612223612495565b5b601f19601f8301169050602081019050919050565b600081519050919050565b600082825260208201905092915050565b600081905092915050565b600061226b82612384565b915061227683612384565b9250827fffffffffffffffffffffffffffffffffffffffffffffffffffffffffffffffff038211156122ab576122aa612466565b5b828201905092915050565b60006122c182612384565b91506122cc83612384565b9250817fffffffffffffffffffffffffffffffffffffffffffffffffffffffffffffffff048311821515161561230557612304612466565b5b828202905092915050565b600061231b82612364565b9050919050565b60008115159050919050565b6000819050919050565b60007fffffffff0000000000000000000000000000000000000000000000000000000082169050919050565b600073ffffffffffffffffffffffffffffffffffffffff82169050919050565b6000819050919050565b6000612399826123a0565b9050919050565b60006123ab82612364565b9050919050565b60006123bd826123c4565b9050919050565b60006123cf82612364565b9050919050565b60006123e1826123e8565b9050919050565b60006123f382612364565b9050919050565b82818337600083830152505050565b60005b8381101561242757808201518184015260208101905061240c565b83811115612436576000848401525b50505050565b600061244782612384565b9150600082141561245b5761245a612466565b5b600182039050919050565b7f4e487b7100000000000000000000000000000000000000000000000000000000600052601160045260246000fd5b7f4e487b7100000000000000000000000000000000000000000000000000000000600052604160045260246000fd5b6000601f19601f8301169050919050565b6124de81612310565b81146124e957600080fd5b50565b6124f581612322565b811461250057600080fd5b50565b61250c8161232e565b811461251757600080fd5b50565b61252381612338565b811461252e57600080fd5b50565b61253a81612384565b811461254557600080fd5b5056fea2646970667358221220425b1ccac989600cbe06e40b7db13fcd7a10cffe4f3cecdca0f8d1a15983c10664736f6c6343000800003360806040523480156200001157600080fd5b506200003262000026620000b060201b60201c565b620000b860201b60201c565b33600260006101000a81548173ffffffffffffffffffffffffffffffffffffffff021916908373ffffffffffffffffffffffffffffffffffffffff160217905550620000aa6000801b600260009054906101000a900473ffffffffffffffffffffffffffffffffffffffff166200017e60201b60201c565b620002ef565b600033905090565b6000600160009054906101000a900473ffffffffffffffffffffffffffffffffffffffff16905081600160006101000a81548173ffffffffffffffffffffffffffffffffffffffff021916908373ffffffffffffffffffffffffffffffffffffffff1602179055508173ffffffffffffffffffffffffffffffffffffffff168173ffffffffffffffffffffffffffffffffffffffff167f8be0079c531659141344cd1fd0a4f28419497f9722a3daafe3b4186f6b6457e060405160405180910390a35050565b6200019082826200019460201b60201c565b5050565b620001a682826200028560201b60201c565b6200028157600160008084815260200190815260200160002060000160008373ffffffffffffffffffffffffffffffffffffffff1673ffffffffffffffffffffffffffffffffffffffff16815260200190815260200160002060006101000a81548160ff02191690831515021790555062000226620000b060201b60201c565b73ffffffffffffffffffffffffffffffffffffffff168173ffffffffffffffffffffffffffffffffffffffff16837f2f8788117e7eff1d82e926ec794901d17c78024a50270940304540a733656f0d60405160405180910390a45b5050565b600080600084815260200190815260200160002060000160008373ffffffffffffffffffffffffffffffffffffffff1673ffffffffffffffffffffffffffffffffffffffff16815260200190815260200160002060009054906101000a900460ff16905092915050565b61549e80620002ff6000396000f3fe60806040523480156200001157600080fd5b5060043610620001245760003560e01c80638da5cb5b11620000b1578063a29bed50116200007b578063a29bed50146200030b578063d547741f146200032b578063ea66543f146200034b578063f2fde38b1462000381578063f851a44014620003a15762000124565b80638da5cb5b146200026f5780639047bf58146200029157806391d1485414620002b3578063a217fddf14620002e95762000124565b8063323ddfc411620000f3578063323ddfc414620001d757806336568abe146200020d578063447a81fe146200022d578063715018a614620002635762000124565b806301ffc9a71462000129578063248a9ca3146200015f5780632a4cab9014620001955780632f2ff15d14620001b7575b600080fd5b62000147600480360381019062000141919062001361565b620003c3565b6040516200015691906200171e565b60405180910390f35b6200017d6004803603810190620001779190620012f4565b62000440565b6040516200018c91906200173b565b60405180910390f35b6200019f6200045f565b604051620001ae91906200173b565b60405180910390f35b620001d56004803603810190620001cf919062001320565b62000483565b005b620001f56004803603810190620001ef919062001211565b620004aa565b6040516200020491906200168f565b60405180910390f35b6200022b600480360381019062000225919062001320565b62000513565b005b6200024b60048036038101906200024591906200138d565b6200059d565b6040516200025a91906200168f565b60405180910390f35b6200026d62000616565b005b620002796200062e565b6040516200028891906200168f565b60405180910390f35b6200029b62000658565b604051620002aa919062001804565b60405180910390f35b620002d16004803603810190620002cb919062001320565b62000665565b604051620002e091906200171e565b60405180910390f35b620002f3620006cf565b6040516200030291906200173b565b60405180910390f35b6200032960048036038101906200032391906200123d565b620006d6565b005b62000349600480360381019062000343919062001320565b6200085b565b005b62000369600480360381019062000363919062001211565b62000882565b6040516200037891906200171e565b60405180910390f35b6200039f600480360381019062000399919062001211565b62000916565b005b620003ab620009a1565b604051620003ba91906200168f565b60405180910390f35b60007f7965db0b000000000000000000000000000000000000000000000000000000007bffffffffffffffffffffffffffffffffffffffffffffffffffffffff1916827bffffffffffffffffffffffffffffffffffffffffffffffffffffffff191614806200043957506200043882620009c7565b5b9050919050565b6000806000838152602001908152602001600020600101549050919050565b7f5a3425ea67e73c95853ecfc0c443062de292a303c186bc2aac1178ae1b86c62a81565b6200048e8262000440565b620004998162000a31565b620004a5838362000a49565b505050565b6000600360008373ffffffffffffffffffffffffffffffffffffffff1673ffffffffffffffffffffffffffffffffffffffff16815260200190815260200160002060009054906101000a900473ffffffffffffffffffffffffffffffffffffffff169050919050565b6200051d62000b2e565b73ffffffffffffffffffffffffffffffffffffffff168173ffffffffffffffffffffffffffffffffffffffff16146200058d576040517f08c379a00000000000000000000000000000000000000000000000000000000081526004016200058490620017e2565b60405180910390fd5b62000599828262000b36565b5050565b60006200060f60048381548110620005de577f4e487b7100000000000000000000000000000000000000000000000000000000600052603260045260246000fd5b9060005260206000200160009054906101000a900473ffffffffffffffffffffffffffffffffffffffff16620004aa565b9050919050565b6200062062000c1c565b6200062c600062000ca1565b565b6000600160009054906101000a900473ffffffffffffffffffffffffffffffffffffffff16905090565b6000600480549050905090565b600080600084815260200190815260200160002060000160008373ffffffffffffffffffffffffffffffffffffffff1673ffffffffffffffffffffffffffffffffffffffff16815260200190815260200160002060009054906101000a900460ff16905092915050565b6000801b81565b620006e062000c1c565b6000600260009054906101000a900473ffffffffffffffffffffffffffffffffffffffff1685858585604051620007179062001135565b62000727959493929190620016ac565b604051809103906000f08015801562000744573d6000803e3d6000fd5b50905080600360008773ffffffffffffffffffffffffffffffffffffffff1673ffffffffffffffffffffffffffffffffffffffff16815260200190815260200160002060006101000a81548173ffffffffffffffffffffffffffffffffffffffff021916908373ffffffffffffffffffffffffffffffffffffffff1602179055506004859080600181540180825580915050600190039060005260206000200160009091909190916101000a81548173ffffffffffffffffffffffffffffffffffffffff021916908373ffffffffffffffffffffffffffffffffffffffff160217905550620008547f5a3425ea67e73c95853ecfc0c443062de292a303c186bc2aac1178ae1b86c62a8262000483565b5050505050565b620008668262000440565b620008718162000a31565b6200087d838362000b36565b505050565b60006200090f7f5a3425ea67e73c95853ecfc0c443062de292a303c186bc2aac1178ae1b86c62a600360008573ffffffffffffffffffffffffffffffffffffffff1673ffffffffffffffffffffffffffffffffffffffff16815260200190815260200160002060009054906101000a900473ffffffffffffffffffffffffffffffffffffffff1662000665565b9050919050565b6200092062000c1c565b600073ffffffffffffffffffffffffffffffffffffffff168173ffffffffffffffffffffffffffffffffffffffff16141562000993576040517f08c379a00000000000000000000000000000000000000000000000000000000081526004016200098a906200179e565b60405180910390fd5b6200099e8162000ca1565b50565b600260009054906101000a900473ffffffffffffffffffffffffffffffffffffffff1681565b60007f01ffc9a7000000000000000000000000000000000000000000000000000000007bffffffffffffffffffffffffffffffffffffffffffffffffffffffff1916827bffffffffffffffffffffffffffffffffffffffffffffffffffffffff1916149050919050565b62000a468162000a4062000b2e565b62000d67565b50565b62000a55828262000665565b62000b2a57600160008084815260200190815260200160002060000160008373ffffffffffffffffffffffffffffffffffffffff1673ffffffffffffffffffffffffffffffffffffffff16815260200190815260200160002060006101000a81548160ff02191690831515021790555062000acf62000b2e565b73ffffffffffffffffffffffffffffffffffffffff168173ffffffffffffffffffffffffffffffffffffffff16837f2f8788117e7eff1d82e926ec794901d17c78024a50270940304540a733656f0d60405160405180910390a45b5050565b600033905090565b62000b42828262000665565b1562000c1857600080600084815260200190815260200160002060000160008373ffffffffffffffffffffffffffffffffffffffff1673ffffffffffffffffffffffffffffffffffffffff16815260200190815260200160002060006101000a81548160ff02191690831515021790555062000bbd62000b2e565b73ffffffffffffffffffffffffffffffffffffffff168173ffffffffffffffffffffffffffffffffffffffff16837ff6391f5c32d9c69d2a47ea670b442974b53935d1edc7fd64eb21e047a839171b60405160405180910390a45b5050565b62000c2662000b2e565b73ffffffffffffffffffffffffffffffffffffffff1662000c466200062e565b73ffffffffffffffffffffffffffffffffffffffff161462000c9f576040517f08c379a000000000000000000000000000000000000000000000000000000000815260040162000c9690620017c0565b60405180910390fd5b565b6000600160009054906101000a900473ffffffffffffffffffffffffffffffffffffffff16905081600160006101000a81548173ffffffffffffffffffffffffffffffffffffffff021916908373ffffffffffffffffffffffffffffffffffffffff1602179055508173ffffffffffffffffffffffffffffffffffffffff168173ffffffffffffffffffffffffffffffffffffffff167f8be0079c531659141344cd1fd0a4f28419497f9722a3daafe3b4186f6b6457e060405160405180910390a35050565b62000d73828262000665565b62000df35762000d838162000df7565b62000d938360001c602062000e26565b60405160200162000da69291906200164d565b6040516020818303038152906040526040517f08c379a000000000000000000000000000000000000000000000000000000000815260040162000dea919062001758565b60405180910390fd5b5050565b606062000e1f8273ffffffffffffffffffffffffffffffffffffffff16601460ff1662000e26565b9050919050565b60606000600283600262000e3b91906200190c565b62000e479190620018af565b67ffffffffffffffff81111562000e87577f4e487b7100000000000000000000000000000000000000000000000000000000600052604160045260246000fd5b6040519080825280601f01601f19166020018201604052801562000eba5781602001600182028036833780820191505090505b5090507f30000000000000000000000000000000000000000000000000000000000000008160008151811062000f19577f4e487b7100000000000000000000000000000000000000000000000000000000600052603260045260246000fd5b60200101907effffffffffffffffffffffffffffffffffffffffffffffffffffffffffffff1916908160001a9053507f78000000000000000000000000000000000000000000000000000000000000008160018151811062000fa4577f4e487b7100000000000000000000000000000000000000000000000000000000600052603260045260246000fd5b60200101907effffffffffffffffffffffffffffffffffffffffffffffffffffffffffffff1916908160001a9053506000600184600262000fe691906200190c565b62000ff29190620018af565b90505b6001811115620010e4577f3031323334353637383961626364656600000000000000000000000000000000600f8616601081106200105c577f4e487b7100000000000000000000000000000000000000000000000000000000600052603260045260246000fd5b1a60f81b8282815181106200109a577f4e487b7100000000000000000000000000000000000000000000000000000000600052603260045260246000fd5b60200101907effffffffffffffffffffffffffffffffffffffffffffffffffffffffffffff1916908160001a905350600485901c945080620010dc9062001a32565b905062000ff5565b50600084146200112b576040517f08c379a000000000000000000000000000000000000000000000000000000000815260040162001122906200177c565b60405180910390fd5b8091505092915050565b6139308062001b3983390190565b60006200115a620011548462001855565b62001821565b9050828152602081018484840111156200117357600080fd5b62001180848285620019ed565b509392505050565b600081359050620011998162001ad0565b92915050565b600081359050620011b08162001aea565b92915050565b600081359050620011c78162001b04565b92915050565b600082601f830112620011df57600080fd5b8135620011f184826020860162001143565b91505092915050565b6000813590506200120b8162001b1e565b92915050565b6000602082840312156200122457600080fd5b6000620012348482850162001188565b91505092915050565b600080600080608085870312156200125457600080fd5b6000620012648782880162001188565b945050602085013567ffffffffffffffff8111156200128257600080fd5b6200129087828801620011cd565b935050604085013567ffffffffffffffff811115620012ae57600080fd5b620012bc87828801620011cd565b925050606085013567ffffffffffffffff811115620012da57600080fd5b620012e887828801620011cd565b91505092959194509250565b6000602082840312156200130757600080fd5b600062001317848285016200119f565b91505092915050565b600080604083850312156200133457600080fd5b600062001344858286016200119f565b9250506020620013578582860162001188565b9150509250929050565b6000602082840312156200137457600080fd5b60006200138484828501620011b6565b91505092915050565b600060208284031215620013a057600080fd5b6000620013b084828501620011fa565b91505092915050565b620013c4816200196d565b82525050565b620013d58162001981565b82525050565b620013e6816200198d565b82525050565b6000620013f98262001888565b62001405818562001893565b935062001417818560208601620019fc565b620014228162001abf565b840191505092915050565b60006200143a8262001888565b620014468185620018a4565b935062001458818560208601620019fc565b80840191505092915050565b60006200147360208362001893565b91507f537472696e67733a20686578206c656e67746820696e73756666696369656e746000830152602082019050919050565b6000620014b560268362001893565b91507f4f776e61626c653a206e6577206f776e657220697320746865207a65726f206160008301527f64647265737300000000000000000000000000000000000000000000000000006020830152604082019050919050565b60006200151d60208362001893565b91507f4f776e61626c653a2063616c6c6572206973206e6f7420746865206f776e65726000830152602082019050919050565b60006200155f601783620018a4565b91507f416363657373436f6e74726f6c3a206163636f756e74200000000000000000006000830152601782019050919050565b6000620015a1601183620018a4565b91507f206973206d697373696e6720726f6c65200000000000000000000000000000006000830152601182019050919050565b6000620015e3602f8362001893565b91507f416363657373436f6e74726f6c3a2063616e206f6e6c792072656e6f756e636560008301527f20726f6c657320666f722073656c6600000000000000000000000000000000006020830152604082019050919050565b6200164781620019e3565b82525050565b60006200165a8262001550565b91506200166882856200142d565b9150620016758262001592565b91506200168382846200142d565b91508190509392505050565b6000602082019050620016a66000830184620013b9565b92915050565b600060a082019050620016c36000830188620013b9565b620016d26020830187620013b9565b8181036040830152620016e68186620013ec565b90508181036060830152620016fc8185620013ec565b90508181036080830152620017128184620013ec565b90509695505050505050565b6000602082019050620017356000830184620013ca565b92915050565b6000602082019050620017526000830184620013db565b92915050565b60006020820190508181036000830152620017748184620013ec565b905092915050565b60006020820190508181036000830152620017978162001464565b9050919050565b60006020820190508181036000830152620017b981620014a6565b9050919050565b60006020820190508181036000830152620017db816200150e565b9050919050565b60006020820190508181036000830152620017fd81620015d4565b9050919050565b60006020820190506200181b60008301846200163c565b92915050565b6000604051905081810181811067ffffffffffffffff821117156200184b576200184a62001a90565b5b8060405250919050565b600067ffffffffffffffff82111562001873576200187262001a90565b5b601f19601f8301169050602081019050919050565b600081519050919050565b600082825260208201905092915050565b600081905092915050565b6000620018bc82620019e3565b9150620018c983620019e3565b9250827fffffffffffffffffffffffffffffffffffffffffffffffffffffffffffffffff0382111562001901576200190062001a61565b5b828201905092915050565b60006200191982620019e3565b91506200192683620019e3565b9250817fffffffffffffffffffffffffffffffffffffffffffffffffffffffffffffffff048311821515161562001962576200196162001a61565b5b828202905092915050565b60006200197a82620019c3565b9050919050565b60008115159050919050565b6000819050919050565b60007fffffffff0000000000000000000000000000000000000000000000000000000082169050919050565b600073ffffffffffffffffffffffffffffffffffffffff82169050919050565b6000819050919050565b82818337600083830152505050565b60005b8381101562001a1c578082015181840152602081019050620019ff565b8381111562001a2c576000848401525b50505050565b600062001a3f82620019e3565b9150600082141562001a565762001a5562001a61565b5b600182039050919050565b7f4e487b7100000000000000000000000000000000000000000000000000000000600052601160045260246000fd5b7f4e487b7100000000000000000000000000000000000000000000000000000000600052604160045260246000fd5b6000601f19601f8301169050919050565b62001adb816200196d565b811462001ae757600080fd5b50565b62001af5816200198d565b811462001b0157600080fd5b50565b62001b0f8162001997565b811462001b1b57600080fd5b50565b62001b2981620019e3565b811462001b3557600080fd5b5056fe60806040523480156200001157600080fd5b5060405162003930380380620039308339818101604052810190620000379190620003cf565b6200004c6000801b866200011d60201b60201c565b6200007e7f5a3425ea67e73c95853ecfc0c443062de292a303c186bc2aac1178ae1b86c62a856200011d60201b60201c565b82600690805190602001906200009692919062000296565b5083600160006101000a81548173ffffffffffffffffffffffffffffffffffffffff021916908373ffffffffffffffffffffffffffffffffffffffff1602179055508160029080519060200190620000f092919062000296565b5080600390805190602001906200010992919062000296565b50600060058190555050505050506200061b565b6200012f82826200013360201b60201c565b5050565b6200014582826200022460201b60201c565b6200022057600160008084815260200190815260200160002060000160008373ffffffffffffffffffffffffffffffffffffffff1673ffffffffffffffffffffffffffffffffffffffff16815260200190815260200160002060006101000a81548160ff021916908315150217905550620001c56200028e60201b60201c565b73ffffffffffffffffffffffffffffffffffffffff168173ffffffffffffffffffffffffffffffffffffffff16837f2f8788117e7eff1d82e926ec794901d17c78024a50270940304540a733656f0d60405160405180910390a45b5050565b600080600084815260200190815260200160002060000160008373ffffffffffffffffffffffffffffffffffffffff1673ffffffffffffffffffffffffffffffffffffffff16815260200190815260200160002060009054906101000a900460ff16905092915050565b600033905090565b828054620002a4906200056d565b90600052602060002090601f016020900481019282620002c8576000855562000314565b82601f10620002e357805160ff191683800117855562000314565b8280016001018555821562000314579182015b8281111562000313578251825591602001919060010190620002f6565b5b50905062000323919062000327565b5090565b5b808211156200034257600081600090555060010162000328565b5090565b60006200035d6200035784620004d0565b6200049c565b9050828152602081018484840111156200037657600080fd5b6200038384828562000537565b509392505050565b6000815190506200039c8162000601565b92915050565b600082601f830112620003b457600080fd5b8151620003c684826020860162000346565b91505092915050565b600080600080600060a08688031215620003e857600080fd5b6000620003f8888289016200038b565b95505060206200040b888289016200038b565b945050604086015167ffffffffffffffff8111156200042957600080fd5b6200043788828901620003a2565b935050606086015167ffffffffffffffff8111156200045557600080fd5b6200046388828901620003a2565b925050608086015167ffffffffffffffff8111156200048157600080fd5b6200048f88828901620003a2565b9150509295509295909350565b6000604051905081810181811067ffffffffffffffff82111715620004c657620004c5620005d2565b5b8060405250919050565b600067ffffffffffffffff821115620004ee57620004ed620005d2565b5b601f19601f8301169050602081019050919050565b6000620005108262000517565b9050919050565b600073ffffffffffffffffffffffffffffffffffffffff82169050919050565b60005b83811015620005575780820151818401526020810190506200053a565b8381111562000567576000848401525b50505050565b600060028204905060018216806200058657607f821691505b602082108114156200059d576200059c620005a3565b5b50919050565b7f4e487b7100000000000000000000000000000000000000000000000000000000600052602260045260246000fd5b7f4e487b7100000000000000000000000000000000000000000000000000000000600052604160045260246000fd5b6200060c8162000503565b81146200061857600080fd5b50565b613305806200062b6000396000f3fe608060405234801561001057600080fd5b50600436106101735760003560e01c80637c067d8d116100de578063d547741f11610097578063f5e616a611610071578063f5e616a614610457578063fc017f2514610461578063fdb103611461047d578063fee7989e1461049957610173565b8063d547741f14610403578063d862ae871461041f578063eda3467c1461043b57610173565b80637c067d8d1461032a57806391d148541461035a578063a217fddf1461038a578063a3e3bf7d146103a8578063c07f7d16146103cb578063cf6431c6146103e757610173565b806336568abe1161013057806336568abe1461024c578063444fc6621461026857806344afd1341461029e5780636212fa02146102bc578063645f29a8146102da5780637b1d2d001461030e57610173565b806301ffc9a71461017857806305f53b29146101a85780632186879c146101c6578063248a9ca3146101e25780632a4cab90146102125780632f2ff15d14610230575b600080fd5b610192600480360381019061018d91906126f9565b6104cd565b60405161019f9190612d70565b60405180910390f35b6101b0610547565b6040516101bd9190612f66565b60405180910390f35b6101e060048036038101906101db9190612722565b610554565b005b6101fc60048036038101906101f79190612694565b6105c7565b6040516102099190612d8b565b60405180910390f35b61021a6105e6565b6040516102279190612d8b565b60405180910390f35b61024a600480360381019061024591906126bd565b61060a565b005b610266600480360381019061026191906126bd565b61062b565b005b610282600480360381019061027d919061294c565b6106ae565b6040516102959796959493929190612e22565b60405180910390f35b6102a66107a9565b6040516102b39190612f66565b60405180910390f35b6102c46107b6565b6040516102d19190612f66565b60405180910390f35b6102f460048036038101906102ef919061294c565b6107c3565b604051610305959493929190612c92565b60405180910390f35b61032860048036038101906103239190612763565b61084c565b005b610344600480360381019061033f919061294c565b6109db565b6040516103519190612f66565b60405180910390f35b610374600480360381019061036f91906126bd565b6109ff565b6040516103819190612d70565b60405180910390f35b610392610a69565b60405161039f9190612d8b565b60405180910390f35b6103b0610a70565b6040516103c296959493929190612cfa565b60405180910390f35b6103e560048036038101906103e091906125e9565b610c60565b005b61040160048036038101906103fc9190612722565b610e3f565b005b61041d600480360381019061041891906126bd565b610f2b565b005b610439600480360381019061043491906127ca565b610f4c565b005b61045560048036038101906104509190612722565b6110e6565b005b61045f611159565b005b61047b60048036038101906104769190612836565b611288565b005b610497600480360381019061049291906128cd565b6112da565b005b6104b360048036038101906104ae919061294c565b611481565b6040516104c4959493929190612dc8565b60405180910390f35b60007f7965db0b000000000000000000000000000000000000000000000000000000007bffffffffffffffffffffffffffffffffffffffffffffffffffffffff1916827bffffffffffffffffffffffffffffffffffffffffffffffffffffffff19161480610540575061053f82611571565b5b9050919050565b6000600880549050905090565b61055c6115db565b60098160405161056c9190612c41565b908152602001604051809103902060030160019054906101000a900460ff161560098260405161059c9190612c41565b908152602001604051809103902060030160016101000a81548160ff02191690831515021790555050565b6000806000838152602001908152602001600020600101549050919050565b7f5a3425ea67e73c95853ecfc0c443062de292a303c186bc2aac1178ae1b86c62a81565b610613826105c7565b61061c81611668565b610626838361167c565b505050565b61063361175c565b73ffffffffffffffffffffffffffffffffffffffff168173ffffffffffffffffffffffffffffffffffffffff16146106a0576040517f08c379a000000000000000000000000000000000000000000000000000000000815260040161069790612f46565b60405180910390fd5b6106aa8282611764565b5050565b60606000606060008060606000610790600889815481106106f8577f4e487b7100000000000000000000000000000000000000000000000000000000600052603260045260246000fd5b90600052602060002001805461070d906131a3565b80601f0160208091040260200160405190810160405280929190818152602001828054610739906131a3565b80156107865780601f1061075b57610100808354040283529160200191610786565b820191906000526020600020905b81548152906001019060200180831161076957829003601f168201915b5050505050611845565b9650965096509650965096509650919395979092949650565b6000600a80549050905090565b6000600c80549050905090565b600060608060006060610839600c8781548110610809577f4e487b7100000000000000000000000000000000000000000000000000000000600052603260045260246000fd5b9060005260206000200160009054906101000a900473ffffffffffffffffffffffffffffffffffffffff16611b34565b9450945094509450945091939590929450565b6108546115db565b61085c6123a3565b83816000018190525082816020019073ffffffffffffffffffffffffffffffffffffffff16908173ffffffffffffffffffffffffffffffffffffffff16815250508181604001818152505060008160600190151590811515815250506001816080019015159081151581525050806009856040516108da9190612c41565b908152602001604051809103902060008201518160000190805190602001906109049291906123ec565b5060208201518160010160006101000a81548173ffffffffffffffffffffffffffffffffffffffff021916908373ffffffffffffffffffffffffffffffffffffffff1602179055506040820151816002015560608201518160030160006101000a81548160ff02191690831515021790555060808201518160030160016101000a81548160ff021916908315150217905550905050600a849080600181540180825580915050600190039060005260206000200160009091909190915090805190602001906109d49291906123ec565b5050505050565b600481815481106109eb57600080fd5b906000526020600020016000915090505481565b600080600084815260200190815260200160002060000160008373ffffffffffffffffffffffffffffffffffffffff1673ffffffffffffffffffffffffffffffffffffffff16815260200190815260200160002060009054906101000a900460ff16905092915050565b6000801b81565b60006060806060600080600160009054906101000a900473ffffffffffffffffffffffffffffffffffffffff166006600260036000600554848054610ab4906131a3565b80601f0160208091040260200160405190810160405280929190818152602001828054610ae0906131a3565b8015610b2d5780601f10610b0257610100808354040283529160200191610b2d565b820191906000526020600020905b815481529060010190602001808311610b1057829003601f168201915b50505050509450838054610b40906131a3565b80601f0160208091040260200160405190810160405280929190818152602001828054610b6c906131a3565b8015610bb95780601f10610b8e57610100808354040283529160200191610bb9565b820191906000526020600020905b815481529060010190602001808311610b9c57829003601f168201915b50505050509350828054610bcc906131a3565b80601f0160208091040260200160405190810160405280929190818152602001828054610bf8906131a3565b8015610c455780601f10610c1a57610100808354040283529160200191610c45565b820191906000526020600020905b815481529060010190602001808311610c2857829003601f168201915b50505050509250955095509550955095509550909192939495565b610c686115db565b610c70612472565b84816000019073ffffffffffffffffffffffffffffffffffffffff16908173ffffffffffffffffffffffffffffffffffffffff1681525050838160200181905250828160400181905250600081606001901515908115158152505081816080018190525080600b60008773ffffffffffffffffffffffffffffffffffffffff1673ffffffffffffffffffffffffffffffffffffffff16815260200190815260200160002060008201518160000160006101000a81548173ffffffffffffffffffffffffffffffffffffffff021916908373ffffffffffffffffffffffffffffffffffffffff1602179055506020820151816001019080519060200190610d779291906123ec565b506040820151816002019080519060200190610d949291906123ec565b5060608201518160030160006101000a81548160ff0219169083151502179055506080820151816004019080519060200190610dd19291906123ec565b50905050600c859080600181540180825580915050600190039060005260206000200160009091909190916101000a81548173ffffffffffffffffffffffffffffffffffffffff021916908373ffffffffffffffffffffffffffffffffffffffff1602179055505050505050565b600981604051610e4f9190612c41565b908152602001604051809103902060010160009054906101000a900473ffffffffffffffffffffffffffffffffffffffff1673ffffffffffffffffffffffffffffffffffffffff163373ffffffffffffffffffffffffffffffffffffffff1614610eee576040517f08c379a0000000000000000000000000000000000000000000000000000000008152600401610ee590612f06565b60405180910390fd5b6001600982604051610f009190612c41565b908152602001604051809103902060030160006101000a81548160ff02191690831515021790555050565b610f34826105c7565b610f3d81611668565b610f478383611764565b505050565b610f546115db565b610f5c6124b9565b8281600001819052508181604001819052506000816020018181525050600081606001901515908115158152505060018160c001901515908115158152505080600784604051610fac9190612c41565b90815260200160405180910390206000820151816000019080519060200190610fd69291906123ec565b50602082015181600101556040820151816002019080519060200190610ffd9291906123ec565b5060608201518160030160006101000a81548160ff02191690831515021790555060808201518160030160016101000a81548173ffffffffffffffffffffffffffffffffffffffff021916908373ffffffffffffffffffffffffffffffffffffffff16021790555060a08201518160040190805190602001906110819291906123ec565b5060c08201518160050160006101000a81548160ff0219169083151502179055509050506008839080600181540180825580915050600190039060005260206000200160009091909190915090805190602001906110e09291906123ec565b50505050565b6110ee6115db565b6007816040516110fe9190612c41565b908152602001604051809103902060050160009054906101000a900460ff161560078260405161112e9190612c41565b908152602001604051809103902060050160006101000a81548160ff02191690831515021790555050565b600073ffffffffffffffffffffffffffffffffffffffff16600b60003373ffffffffffffffffffffffffffffffffffffffff1673ffffffffffffffffffffffffffffffffffffffff16815260200190815260200160002060000160009054906101000a900473ffffffffffffffffffffffffffffffffffffffff1673ffffffffffffffffffffffffffffffffffffffff16141561122b576040517f08c379a000000000000000000000000000000000000000000000000000000000815260040161122290612ee6565b60405180910390fd5b6001600b60003373ffffffffffffffffffffffffffffffffffffffff1673ffffffffffffffffffffffffffffffffffffffff16815260200190815260200160002060030160006101000a81548160ff021916908315150217905550565b6112906115db565b82600690805190602001906112a69291906123ec565b5081600290805190602001906112bd9291906123ec565b5080600390805190602001906112d49291906123ec565b50505050565b6007836040516112ea9190612c41565b908152602001604051809103902060050160009054906101000a900460ff16611348576040517f08c379a000000000000000000000000000000000000000000000000000000000815260040161133f90612ec6565b60405180910390fd5b816007846040516113599190612c41565b908152602001604051809103902060010181905550600482908060018154018082558091505060019003906000526020600020016000909190919091505560016005546113a69190613009565b60058190555060016007846040516113be9190612c41565b908152602001604051809103902060030160006101000a81548160ff021916908315150217905550336007846040516113f79190612c41565b908152602001604051809103902060030160016101000a81548173ffffffffffffffffffffffffffffffffffffffff021916908373ffffffffffffffffffffffffffffffffffffffff160217905550806007846040516114579190612c41565b9081526020016040518091039020600401908051906020019061147b9291906123ec565b50505050565b606060008060008061155e600a87815481106114c6577f4e487b7100000000000000000000000000000000000000000000000000000000600052603260045260246000fd5b9060005260206000200180546114db906131a3565b80601f0160208091040260200160405190810160405280929190818152602001828054611507906131a3565b80156115545780601f1061152957610100808354040283529160200191611554565b820191906000526020600020905b81548152906001019060200180831161153757829003601f168201915b5050505050611e6d565b9450945094509450945091939590929450565b60007f01ffc9a7000000000000000000000000000000000000000000000000000000007bffffffffffffffffffffffffffffffffffffffffffffffffffffffff1916827bffffffffffffffffffffffffffffffffffffffffffffffffffffffff1916149050919050565b6116277f5a3425ea67e73c95853ecfc0c443062de292a303c186bc2aac1178ae1b86c62a600160009054906101000a900473ffffffffffffffffffffffffffffffffffffffff166109ff565b611666576040517f08c379a000000000000000000000000000000000000000000000000000000000815260040161165d90612f26565b60405180910390fd5b565b6116798161167461175c565b611ff7565b50565b61168682826109ff565b61175857600160008084815260200190815260200160002060000160008373ffffffffffffffffffffffffffffffffffffffff1673ffffffffffffffffffffffffffffffffffffffff16815260200190815260200160002060006101000a81548160ff0219169083151502179055506116fd61175c565b73ffffffffffffffffffffffffffffffffffffffff168173ffffffffffffffffffffffffffffffffffffffff16837f2f8788117e7eff1d82e926ec794901d17c78024a50270940304540a733656f0d60405160405180910390a45b5050565b600033905090565b61176e82826109ff565b1561184157600080600084815260200190815260200160002060000160008373ffffffffffffffffffffffffffffffffffffffff1673ffffffffffffffffffffffffffffffffffffffff16815260200190815260200160002060006101000a81548160ff0219169083151502179055506117e661175c565b73ffffffffffffffffffffffffffffffffffffffff168173ffffffffffffffffffffffffffffffffffffffff16837ff6391f5c32d9c69d2a47ea670b442974b53935d1edc7fd64eb21e047a839171b60405160405180910390a45b5050565b606060006060600080606060006007886040516118629190612c41565b90815260200160405180910390206000016007896040516118839190612c41565b90815260200160405180910390206001015460078a6040516118a59190612c41565b908152602001604051809103902060020160078b6040516118c69190612c41565b908152602001604051809103902060030160009054906101000a900460ff1660078c6040516118f59190612c41565b908152602001604051809103902060030160019054906101000a900473ffffffffffffffffffffffffffffffffffffffff1660078d6040516119379190612c41565b908152602001604051809103902060040160078e6040516119589190612c41565b908152602001604051809103902060050160009054906101000a900460ff16868054611983906131a3565b80601f01602080910402602001604051908101604052809291908181526020018280546119af906131a3565b80156119fc5780601f106119d1576101008083540402835291602001916119fc565b820191906000526020600020905b8154815290600101906020018083116119df57829003601f168201915b50505050509650848054611a0f906131a3565b80601f0160208091040260200160405190810160405280929190818152602001828054611a3b906131a3565b8015611a885780601f10611a5d57610100808354040283529160200191611a88565b820191906000526020600020905b815481529060010190602001808311611a6b57829003601f168201915b50505050509450818054611a9b906131a3565b80601f0160208091040260200160405190810160405280929190818152602001828054611ac7906131a3565b8015611b145780601f10611ae957610100808354040283529160200191611b14565b820191906000526020600020905b815481529060010190602001808311611af757829003601f168201915b505050505091509650965096509650965096509650919395979092949650565b600060608060006060600b60008773ffffffffffffffffffffffffffffffffffffffff1673ffffffffffffffffffffffffffffffffffffffff16815260200190815260200160002060000160009054906101000a900473ffffffffffffffffffffffffffffffffffffffff16600b60008873ffffffffffffffffffffffffffffffffffffffff1673ffffffffffffffffffffffffffffffffffffffff168152602001908152602001600020600101600b60008973ffffffffffffffffffffffffffffffffffffffff1673ffffffffffffffffffffffffffffffffffffffff168152602001908152602001600020600201600b60008a73ffffffffffffffffffffffffffffffffffffffff1673ffffffffffffffffffffffffffffffffffffffff16815260200190815260200160002060030160009054906101000a900460ff16600b60008b73ffffffffffffffffffffffffffffffffffffffff1673ffffffffffffffffffffffffffffffffffffffff168152602001908152602001600020600401838054611cc2906131a3565b80601f0160208091040260200160405190810160405280929190818152602001828054611cee906131a3565b8015611d3b5780601f10611d1057610100808354040283529160200191611d3b565b820191906000526020600020905b815481529060010190602001808311611d1e57829003601f168201915b50505050509350828054611d4e906131a3565b80601f0160208091040260200160405190810160405280929190818152602001828054611d7a906131a3565b8015611dc75780601f10611d9c57610100808354040283529160200191611dc7565b820191906000526020600020905b815481529060010190602001808311611daa57829003601f168201915b50505050509250808054611dda906131a3565b80601f0160208091040260200160405190810160405280929190818152602001828054611e06906131a3565b8015611e535780601f10611e2857610100808354040283529160200191611e53565b820191906000526020600020905b815481529060010190602001808311611e3657829003601f168201915b505050505090509450945094509450945091939590929450565b6060600080600080600986604051611e859190612c41565b9081526020016040518091039020600001600987604051611ea69190612c41565b908152602001604051809103902060010160009054906101000a900473ffffffffffffffffffffffffffffffffffffffff16600988604051611ee89190612c41565b908152602001604051809103902060020154600989604051611f0a9190612c41565b908152602001604051809103902060030160009054906101000a900460ff1660098a604051611f399190612c41565b908152602001604051809103902060030160019054906101000a900460ff16848054611f64906131a3565b80601f0160208091040260200160405190810160405280929190818152602001828054611f90906131a3565b8015611fdd5780601f10611fb257610100808354040283529160200191611fdd565b820191906000526020600020905b815481529060010190602001808311611fc057829003601f168201915b505050505094509450945094509450945091939590929450565b61200182826109ff565b6120785761200e8161207c565b61201c8360001c60206120a9565b60405160200161202d929190612c58565b6040516020818303038152906040526040517f08c379a000000000000000000000000000000000000000000000000000000000815260040161206f9190612da6565b60405180910390fd5b5050565b60606120a28273ffffffffffffffffffffffffffffffffffffffff16601460ff166120a9565b9050919050565b6060600060028360026120bc919061305f565b6120c69190613009565b67ffffffffffffffff811115612105577f4e487b7100000000000000000000000000000000000000000000000000000000600052604160045260246000fd5b6040519080825280601f01601f1916602001820160405280156121375781602001600182028036833780820191505090505b5090507f300000000000000000000000000000000000000000000000000000000000000081600081518110612195577f4e487b7100000000000000000000000000000000000000000000000000000000600052603260045260246000fd5b60200101907effffffffffffffffffffffffffffffffffffffffffffffffffffffffffffff1916908160001a9053507f78000000000000000000000000000000000000000000000000000000000000008160018151811061221f577f4e487b7100000000000000000000000000000000000000000000000000000000600052603260045260246000fd5b60200101907effffffffffffffffffffffffffffffffffffffffffffffffffffffffffffff1916908160001a9053506000600184600261225f919061305f565b6122699190613009565b90505b6001811115612355577f3031323334353637383961626364656600000000000000000000000000000000600f8616601081106122d1577f4e487b7100000000000000000000000000000000000000000000000000000000600052603260045260246000fd5b1a60f81b82828151811061230e577f4e487b7100000000000000000000000000000000000000000000000000000000600052603260045260246000fd5b60200101907effffffffffffffffffffffffffffffffffffffffffffffffffffffffffffff1916908160001a905350600485901c94508061234e90613179565b905061226c565b5060008414612399576040517f08c379a000000000000000000000000000000000000000000000000000000000815260040161239090612ea6565b60405180910390fd5b8091505092915050565b6040518060a0016040528060608152602001600073ffffffffffffffffffffffffffffffffffffffff168152602001600081526020016000151581526020016000151581525090565b8280546123f8906131a3565b90600052602060002090601f01602090048101928261241a5760008555612461565b82601f1061243357805160ff1916838001178555612461565b82800160010185558215612461579182015b82811115612460578251825591602001919060010190612445565b5b50905061246e9190612510565b5090565b6040518060a00160405280600073ffffffffffffffffffffffffffffffffffffffff1681526020016060815260200160608152602001600015158152602001606081525090565b6040518060e00160405280606081526020016000815260200160608152602001600015158152602001600073ffffffffffffffffffffffffffffffffffffffff168152602001606081526020016000151581525090565b5b80821115612529576000816000905550600101612511565b5090565b600061254061253b84612fb2565b612f81565b90508281526020810184848401111561255857600080fd5b612563848285613137565b509392505050565b60008135905061257a81613273565b92915050565b60008135905061258f8161328a565b92915050565b6000813590506125a4816132a1565b92915050565b600082601f8301126125bb57600080fd5b81356125cb84826020860161252d565b91505092915050565b6000813590506125e3816132b8565b92915050565b600080600080608085870312156125ff57600080fd5b600061260d8782880161256b565b945050602085013567ffffffffffffffff81111561262a57600080fd5b612636878288016125aa565b935050604085013567ffffffffffffffff81111561265357600080fd5b61265f878288016125aa565b925050606085013567ffffffffffffffff81111561267c57600080fd5b612688878288016125aa565b91505092959194509250565b6000602082840312156126a657600080fd5b60006126b484828501612580565b91505092915050565b600080604083850312156126d057600080fd5b60006126de85828601612580565b92505060206126ef8582860161256b565b9150509250929050565b60006020828403121561270b57600080fd5b600061271984828501612595565b91505092915050565b60006020828403121561273457600080fd5b600082013567ffffffffffffffff81111561274e57600080fd5b61275a848285016125aa565b91505092915050565b60008060006060848603121561277857600080fd5b600084013567ffffffffffffffff81111561279257600080fd5b61279e868287016125aa565b93505060206127af8682870161256b565b92505060406127c0868287016125d4565b9150509250925092565b600080604083850312156127dd57600080fd5b600083013567ffffffffffffffff8111156127f757600080fd5b612803858286016125aa565b925050602083013567ffffffffffffffff81111561282057600080fd5b61282c858286016125aa565b9150509250929050565b60008060006060848603121561284b57600080fd5b600084013567ffffffffffffffff81111561286557600080fd5b612871868287016125aa565b935050602084013567ffffffffffffffff81111561288e57600080fd5b61289a868287016125aa565b925050604084013567ffffffffffffffff8111156128b757600080fd5b6128c3868287016125aa565b9150509250925092565b6000806000606084860312156128e257600080fd5b600084013567ffffffffffffffff8111156128fc57600080fd5b612908868287016125aa565b9350506020612919868287016125d4565b925050604084013567ffffffffffffffff81111561293657600080fd5b612942868287016125aa565b9150509250925092565b60006020828403121561295e57600080fd5b600061296c848285016125d4565b91505092915050565b61297e816130b9565b82525050565b61298d816130cb565b82525050565b61299c816130d7565b82525050565b60006129ad82612fe2565b6129b78185612fed565b93506129c7818560208601613146565b6129d081613262565b840191505092915050565b60006129e682612fe2565b6129f08185612ffe565b9350612a00818560208601613146565b80840191505092915050565b6000612a19602083612fed565b91507f537472696e67733a20686578206c656e67746820696e73756666696369656e746000830152602082019050919050565b6000612a59601583612fed565b91507f536b696c6c206973206e6f742076697369626c652100000000000000000000006000830152602082019050919050565b6000612a99601983612fed565b91507f696e7374697475746520646f6573206e6f7420657869737421000000000000006000830152602082019050919050565b6000612ad9601a83612fed565b91507f43616c6c6572206973206e6f74206f7267616e697a6174696f6e0000000000006000830152602082019050919050565b6000612b19601983612fed565b91507f43616c6c6572206973206e6f7420616e20656d706c6f796565000000000000006000830152602082019050919050565b6000612b59601783612ffe565b91507f416363657373436f6e74726f6c3a206163636f756e74200000000000000000006000830152601782019050919050565b6000612b99601183612ffe565b91507f206973206d697373696e6720726f6c65200000000000000000000000000000006000830152601182019050919050565b6000612bd9602f83612fed565b91507f416363657373436f6e74726f6c3a2063616e206f6e6c792072656e6f756e636560008301527f20726f6c657320666f722073656c6600000000000000000000000000000000006020830152604082019050919050565b612c3b8161312d565b82525050565b6000612c4d82846129db565b915081905092915050565b6000612c6382612b4c565b9150612c6f82856129db565b9150612c7a82612b8c565b9150612c8682846129db565b91508190509392505050565b600060a082019050612ca76000830188612975565b8181036020830152612cb981876129a2565b90508181036040830152612ccd81866129a2565b9050612cdc6060830185612984565b8181036080830152612cee81846129a2565b90509695505050505050565b600060c082019050612d0f6000830189612975565b8181036020830152612d2181886129a2565b90508181036040830152612d3581876129a2565b90508181036060830152612d4981866129a2565b9050612d586080830185612c32565b612d6560a0830184612c32565b979650505050505050565b6000602082019050612d856000830184612984565b92915050565b6000602082019050612da06000830184612993565b92915050565b60006020820190508181036000830152612dc081846129a2565b905092915050565b600060a0820190508181036000830152612de281886129a2565b9050612df16020830187612975565b612dfe6040830186612c32565b612e0b6060830185612984565b612e186080830184612984565b9695505050505050565b600060e0820190508181036000830152612e3c818a6129a2565b9050612e4b6020830189612c32565b8181036040830152612e5d81886129a2565b9050612e6c6060830187612984565b612e796080830186612975565b81810360a0830152612e8b81856129a2565b9050612e9a60c0830184612984565b98975050505050505050565b60006020820190508181036000830152612ebf81612a0c565b9050919050565b60006020820190508181036000830152612edf81612a4c565b9050919050565b60006020820190508181036000830152612eff81612a8c565b9050919050565b60006020820190508181036000830152612f1f81612acc565b9050919050565b60006020820190508181036000830152612f3f81612b0c565b9050919050565b60006020820190508181036000830152612f5f81612bcc565b9050919050565b6000602082019050612f7b6000830184612c32565b92915050565b6000604051905081810181811067ffffffffffffffff82111715612fa857612fa7613233565b5b8060405250919050565b600067ffffffffffffffff821115612fcd57612fcc613233565b5b601f19601f8301169050602081019050919050565b600081519050919050565b600082825260208201905092915050565b600081905092915050565b60006130148261312d565b915061301f8361312d565b9250827fffffffffffffffffffffffffffffffffffffffffffffffffffffffffffffffff03821115613054576130536131d5565b5b828201905092915050565b600061306a8261312d565b91506130758361312d565b9250817fffffffffffffffffffffffffffffffffffffffffffffffffffffffffffffffff04831182151516156130ae576130ad6131d5565b5b828202905092915050565b60006130c48261310d565b9050919050565b60008115159050919050565b6000819050919050565b60007fffffffff0000000000000000000000000000000000000000000000000000000082169050919050565b600073ffffffffffffffffffffffffffffffffffffffff82169050919050565b6000819050919050565b82818337600083830152505050565b60005b83811015613164578082015181840152602081019050613149565b83811115613173576000848401525b50505050565b60006131848261312d565b91506000821415613198576131976131d5565b5b600182039050919050565b600060028204905060018216806131bb57607f821691505b602082108114156131cf576131ce613204565b5b50919050565b7f4e487b7100000000000000000000000000000000000000000000000000000000600052601160045260246000fd5b7f4e487b7100000000000000000000000000000000000000000000000000000000600052602260045260246000fd5b7f4e487b7100000000000000000000000000000000000000000000000000000000600052604160045260246000fd5b6000601f19601f8301169050919050565b61327c816130b9565b811461328757600080fd5b50565b613293816130d7565b811461329e57600080fd5b50565b6132aa816130e1565b81146132b557600080fd5b50565b6132c18161312d565b81146132cc57600080fd5b5056fea2646970667358221220865400e79189dccc1f3e4f639ef5a471e8756f6e7eb7c17a98143110501b55a264736f6c63430008000033a2646970667358221220479eede6dd928e53f941a18272c6c33aec36d336f9dd94c3aeb68e964366821464736f6c6343000800003360806040523480156200001157600080fd5b506200003262000026620000b060201b60201c565b620000b860201b60201c565b33600260006101000a81548173ffffffffffffffffffffffffffffffffffffffff021916908373ffffffffffffffffffffffffffffffffffffffff160217905550620000aa6000801b600260009054906101000a900473ffffffffffffffffffffffffffffffffffffffff166200017e60201b60201c565b620002ef565b600033905090565b6000600160009054906101000a900473ffffffffffffffffffffffffffffffffffffffff16905081600160006101000a81548173ffffffffffffffffffffffffffffffffffffffff021916908373ffffffffffffffffffffffffffffffffffffffff1602179055508173ffffffffffffffffffffffffffffffffffffffff168173ffffffffffffffffffffffffffffffffffffffff167f8be0079c531659141344cd1fd0a4f28419497f9722a3daafe3b4186f6b6457e060405160405180910390a35050565b6200019082826200019460201b60201c565b5050565b620001a682826200028560201b60201c565b6200028157600160008084815260200190815260200160002060000160008373ffffffffffffffffffffffffffffffffffffffff1673ffffffffffffffffffffffffffffffffffffffff16815260200190815260200160002060006101000a81548160ff02191690831515021790555062000226620000b060201b60201c565b73ffffffffffffffffffffffffffffffffffffffff168173ffffffffffffffffffffffffffffffffffffffff16837f2f8788117e7eff1d82e926ec794901d17c78024a50270940304540a733656f0d60405160405180910390a45b5050565b600080600084815260200190815260200160002060000160008373ffffffffffffffffffffffffffffffffffffffff1673ffffffffffffffffffffffffffffffffffffffff16815260200190815260200160002060009054906101000a900460ff16905092915050565b6136d980620002ff6000396000f3fe60806040523480156200001157600080fd5b5060043610620001245760003560e01c80638c94834211620000b1578063d3233f94116200007b578063d3233f941462000309578063d547741f146200033f578063dc2f41c8146200035f578063f2fde38b1462000381578063f851a44014620003a15762000124565b80638c948342146200026d5780638da5cb5b146200028f57806391d1485414620002b1578063a217fddf14620002e75762000124565b80632f2ff15d11620000f35780632f2ff15d14620001eb57806336568abe146200020b57806365f4f805146200022b578063715018a614620002615762000124565b806301ffc9a7146200012957806316ab8a35146200015f57806322db53f81462000195578063248a9ca314620001b5575b600080fd5b62000147600480360381019062000141919062001361565b620003c3565b6040516200015691906200171e565b60405180910390f35b6200017d600480360381019062000177919062001211565b62000440565b6040516200018c91906200171e565b60405180910390f35b620001b36004803603810190620001ad91906200123d565b620004d4565b005b620001d36004803603810190620001cd9190620012f4565b62000659565b604051620001e291906200173b565b60405180910390f35b62000209600480360381019062000203919062001320565b62000678565b005b62000229600480360381019062000223919062001320565b6200069f565b005b6200024960048036038101906200024391906200138d565b62000729565b6040516200025891906200168f565b60405180910390f35b6200026b620007a2565b005b62000277620007ba565b6040516200028691906200173b565b60405180910390f35b62000299620007de565b604051620002a891906200168f565b60405180910390f35b620002cf6004803603810190620002c9919062001320565b62000808565b604051620002de91906200171e565b60405180910390f35b620002f162000872565b6040516200030091906200173b565b60405180910390f35b62000327600480360381019062000321919062001211565b62000879565b6040516200033691906200168f565b60405180910390f35b6200035d600480360381019062000357919062001320565b620008e2565b005b6200036962000909565b60405162000378919062001804565b60405180910390f35b6200039f600480360381019062000399919062001211565b62000916565b005b620003ab620009a1565b604051620003ba91906200168f565b60405180910390f35b60007f7965db0b000000000000000000000000000000000000000000000000000000007bffffffffffffffffffffffffffffffffffffffffffffffffffffffff1916827bffffffffffffffffffffffffffffffffffffffffffffffffffffffff191614806200043957506200043882620009c7565b5b9050919050565b6000620004cd7fe0ae735793555d3fe7bb9c3f6f29e053c01c45cee237096b99b73ac619531dfb600360008573ffffffffffffffffffffffffffffffffffffffff1673ffffffffffffffffffffffffffffffffffffffff16815260200190815260200160002060009054906101000a900473ffffffffffffffffffffffffffffffffffffffff1662000808565b9050919050565b620004de62000a31565b6000600260009054906101000a900473ffffffffffffffffffffffffffffffffffffffff1685858585604051620005159062001135565b62000525959493929190620016ac565b604051809103906000f08015801562000542573d6000803e3d6000fd5b50905080600360008773ffffffffffffffffffffffffffffffffffffffff1673ffffffffffffffffffffffffffffffffffffffff16815260200190815260200160002060006101000a81548173ffffffffffffffffffffffffffffffffffffffff021916908373ffffffffffffffffffffffffffffffffffffffff1602179055506004859080600181540180825580915050600190039060005260206000200160009091909190916101000a81548173ffffffffffffffffffffffffffffffffffffffff021916908373ffffffffffffffffffffffffffffffffffffffff160217905550620006527fe0ae735793555d3fe7bb9c3f6f29e053c01c45cee237096b99b73ac619531dfb8262000678565b5050505050565b6000806000838152602001908152602001600020600101549050919050565b620006838262000659565b6200068e8162000ab6565b6200069a838362000ace565b505050565b620006a962000bb3565b73ffffffffffffffffffffffffffffffffffffffff168173ffffffffffffffffffffffffffffffffffffffff161462000719576040517f08c379a00000000000000000000000000000000000000000000000000000000081526004016200071090620017e2565b60405180910390fd5b62000725828262000bbb565b5050565b60006200079b600483815481106200076a577f4e487b7100000000000000000000000000000000000000000000000000000000600052603260045260246000fd5b9060005260206000200160009054906101000a900473ffffffffffffffffffffffffffffffffffffffff1662000879565b9050919050565b620007ac62000a31565b620007b8600062000ca1565b565b7fe0ae735793555d3fe7bb9c3f6f29e053c01c45cee237096b99b73ac619531dfb81565b6000600160009054906101000a900473ffffffffffffffffffffffffffffffffffffffff16905090565b600080600084815260200190815260200160002060000160008373ffffffffffffffffffffffffffffffffffffffff1673ffffffffffffffffffffffffffffffffffffffff16815260200190815260200160002060009054906101000a900460ff16905092915050565b6000801b81565b6000600360008373ffffffffffffffffffffffffffffffffffffffff1673ffffffffffffffffffffffffffffffffffffffff16815260200190815260200160002060009054906101000a900473ffffffffffffffffffffffffffffffffffffffff169050919050565b620008ed8262000659565b620008f88162000ab6565b62000904838362000bbb565b505050565b6000600480549050905090565b6200092062000a31565b600073ffffffffffffffffffffffffffffffffffffffff168173ffffffffffffffffffffffffffffffffffffffff16141562000993576040517f08c379a00000000000000000000000000000000000000000000000000000000081526004016200098a906200179e565b60405180910390fd5b6200099e8162000ca1565b50565b600260009054906101000a900473ffffffffffffffffffffffffffffffffffffffff1681565b60007f01ffc9a7000000000000000000000000000000000000000000000000000000007bffffffffffffffffffffffffffffffffffffffffffffffffffffffff1916827bffffffffffffffffffffffffffffffffffffffffffffffffffffffff1916149050919050565b62000a3b62000bb3565b73ffffffffffffffffffffffffffffffffffffffff1662000a5b620007de565b73ffffffffffffffffffffffffffffffffffffffff161462000ab4576040517f08c379a000000000000000000000000000000000000000000000000000000000815260040162000aab90620017c0565b60405180910390fd5b565b62000acb8162000ac562000bb3565b62000d67565b50565b62000ada828262000808565b62000baf57600160008084815260200190815260200160002060000160008373ffffffffffffffffffffffffffffffffffffffff1673ffffffffffffffffffffffffffffffffffffffff16815260200190815260200160002060006101000a81548160ff02191690831515021790555062000b5462000bb3565b73ffffffffffffffffffffffffffffffffffffffff168173ffffffffffffffffffffffffffffffffffffffff16837f2f8788117e7eff1d82e926ec794901d17c78024a50270940304540a733656f0d60405160405180910390a45b5050565b600033905090565b62000bc7828262000808565b1562000c9d57600080600084815260200190815260200160002060000160008373ffffffffffffffffffffffffffffffffffffffff1673ffffffffffffffffffffffffffffffffffffffff16815260200190815260200160002060006101000a81548160ff02191690831515021790555062000c4262000bb3565b73ffffffffffffffffffffffffffffffffffffffff168173ffffffffffffffffffffffffffffffffffffffff16837ff6391f5c32d9c69d2a47ea670b442974b53935d1edc7fd64eb21e047a839171b60405160405180910390a45b5050565b6000600160009054906101000a900473ffffffffffffffffffffffffffffffffffffffff16905081600160006101000a81548173ffffffffffffffffffffffffffffffffffffffff021916908373ffffffffffffffffffffffffffffffffffffffff1602179055508173ffffffffffffffffffffffffffffffffffffffff168173ffffffffffffffffffffffffffffffffffffffff167f8be0079c531659141344cd1fd0a4f28419497f9722a3daafe3b4186f6b6457e060405160405180910390a35050565b62000d73828262000808565b62000df35762000d838162000df7565b62000d938360001c602062000e26565b60405160200162000da69291906200164d565b6040516020818303038152906040526040517f08c379a000000000000000000000000000000000000000000000000000000000815260040162000dea919062001758565b60405180910390fd5b5050565b606062000e1f8273ffffffffffffffffffffffffffffffffffffffff16601460ff1662000e26565b9050919050565b60606000600283600262000e3b91906200190c565b62000e479190620018af565b67ffffffffffffffff81111562000e87577f4e487b7100000000000000000000000000000000000000000000000000000000600052604160045260246000fd5b6040519080825280601f01601f19166020018201604052801562000eba5781602001600182028036833780820191505090505b5090507f30000000000000000000000000000000000000000000000000000000000000008160008151811062000f19577f4e487b7100000000000000000000000000000000000000000000000000000000600052603260045260246000fd5b60200101907effffffffffffffffffffffffffffffffffffffffffffffffffffffffffffff1916908160001a9053507f78000000000000000000000000000000000000000000000000000000000000008160018151811062000fa4577f4e487b7100000000000000000000000000000000000000000000000000000000600052603260045260246000fd5b60200101907effffffffffffffffffffffffffffffffffffffffffffffffffffffffffffff1916908160001a9053506000600184600262000fe691906200190c565b62000ff29190620018af565b90505b6001811115620010e4577f3031323334353637383961626364656600000000000000000000000000000000600f8616601081106200105c577f4e487b7100000000000000000000000000000000000000000000000000000000600052603260045260246000fd5b1a60f81b8282815181106200109a577f4e487b7100000000000000000000000000000000000000000000000000000000600052603260045260246000fd5b60200101907effffffffffffffffffffffffffffffffffffffffffffffffffffffffffffff1916908160001a905350600485901c945080620010dc9062001a32565b905062000ff5565b50600084146200112b576040517f08c379a000000000000000000000000000000000000000000000000000000000815260040162001122906200177c565b60405180910390fd5b8091505092915050565b611b6b8062001b3983390190565b60006200115a620011548462001855565b62001821565b9050828152602081018484840111156200117357600080fd5b62001180848285620019ed565b509392505050565b600081359050620011998162001ad0565b92915050565b600081359050620011b08162001aea565b92915050565b600081359050620011c78162001b04565b92915050565b600082601f830112620011df57600080fd5b8135620011f184826020860162001143565b91505092915050565b6000813590506200120b8162001b1e565b92915050565b6000602082840312156200122457600080fd5b6000620012348482850162001188565b91505092915050565b600080600080608085870312156200125457600080fd5b6000620012648782880162001188565b945050602085013567ffffffffffffffff8111156200128257600080fd5b6200129087828801620011cd565b935050604085013567ffffffffffffffff811115620012ae57600080fd5b620012bc87828801620011cd565b925050606085013567ffffffffffffffff811115620012da57600080fd5b620012e887828801620011cd565b91505092959194509250565b6000602082840312156200130757600080fd5b600062001317848285016200119f565b91505092915050565b600080604083850312156200133457600080fd5b600062001344858286016200119f565b9250506020620013578582860162001188565b9150509250929050565b6000602082840312156200137457600080fd5b60006200138484828501620011b6565b91505092915050565b600060208284031215620013a057600080fd5b6000620013b084828501620011fa565b91505092915050565b620013c4816200196d565b82525050565b620013d58162001981565b82525050565b620013e6816200198d565b82525050565b6000620013f98262001888565b62001405818562001893565b935062001417818560208601620019fc565b620014228162001abf565b840191505092915050565b60006200143a8262001888565b620014468185620018a4565b935062001458818560208601620019fc565b80840191505092915050565b60006200147360208362001893565b91507f537472696e67733a20686578206c656e67746820696e73756666696369656e746000830152602082019050919050565b6000620014b560268362001893565b91507f4f776e61626c653a206e6577206f776e657220697320746865207a65726f206160008301527f64647265737300000000000000000000000000000000000000000000000000006020830152604082019050919050565b60006200151d60208362001893565b91507f4f776e61626c653a2063616c6c6572206973206e6f7420746865206f776e65726000830152602082019050919050565b60006200155f601783620018a4565b91507f416363657373436f6e74726f6c3a206163636f756e74200000000000000000006000830152601782019050919050565b6000620015a1601183620018a4565b91507f206973206d697373696e6720726f6c65200000000000000000000000000000006000830152601182019050919050565b6000620015e3602f8362001893565b91507f416363657373436f6e74726f6c3a2063616e206f6e6c792072656e6f756e636560008301527f20726f6c657320666f722073656c6600000000000000000000000000000000006020830152604082019050919050565b6200164781620019e3565b82525050565b60006200165a8262001550565b91506200166882856200142d565b9150620016758262001592565b91506200168382846200142d565b91508190509392505050565b6000602082019050620016a66000830184620013b9565b92915050565b600060a082019050620016c36000830188620013b9565b620016d26020830187620013b9565b8181036040830152620016e68186620013ec565b90508181036060830152620016fc8185620013ec565b90508181036080830152620017128184620013ec565b90509695505050505050565b6000602082019050620017356000830184620013ca565b92915050565b6000602082019050620017526000830184620013db565b92915050565b60006020820190508181036000830152620017748184620013ec565b905092915050565b60006020820190508181036000830152620017978162001464565b9050919050565b60006020820190508181036000830152620017b981620014a6565b9050919050565b60006020820190508181036000830152620017db816200150e565b9050919050565b60006020820190508181036000830152620017fd81620015d4565b9050919050565b60006020820190506200181b60008301846200163c565b92915050565b6000604051905081810181811067ffffffffffffffff821117156200184b576200184a62001a90565b5b8060405250919050565b600067ffffffffffffffff82111562001873576200187262001a90565b5b601f19601f8301169050602081019050919050565b600081519050919050565b600082825260208201905092915050565b600081905092915050565b6000620018bc82620019e3565b9150620018c983620019e3565b9250827fffffffffffffffffffffffffffffffffffffffffffffffffffffffffffffffff0382111562001901576200190062001a61565b5b828201905092915050565b60006200191982620019e3565b91506200192683620019e3565b9250817fffffffffffffffffffffffffffffffffffffffffffffffffffffffffffffffff048311821515161562001962576200196162001a61565b5b828202905092915050565b60006200197a82620019c3565b9050919050565b60008115159050919050565b6000819050919050565b60007fffffffff0000000000000000000000000000000000000000000000000000000082169050919050565b600073ffffffffffffffffffffffffffffffffffffffff82169050919050565b6000819050919050565b82818337600083830152505050565b60005b8381101562001a1c578082015181840152602081019050620019ff565b8381111562001a2c576000848401525b50505050565b600062001a3f82620019e3565b9150600082141562001a565762001a5562001a61565b5b600182039050919050565b7f4e487b7100000000000000000000000000000000000000000000000000000000600052601160045260246000fd5b7f4e487b7100000000000000000000000000000000000000000000000000000000600052604160045260246000fd5b6000601f19601f8301169050919050565b62001adb816200196d565b811462001ae757600080fd5b50565b62001af5816200198d565b811462001b0157600080fd5b50565b62001b0f8162001997565b811462001b1b57600080fd5b50565b62001b2981620019e3565b811462001b3557600080fd5b5056fe60806040523480156200001157600080fd5b5060405162001b6b38038062001b6b8339818101604052810190620000379190620003c7565b6200004c6000801b866200011560201b60201c565b6200007e7fe0ae735793555d3fe7bb9c3f6f29e053c01c45cee237096b99b73ac619531dfb856200011560201b60201c565b8260019080519060200190620000969291906200028e565b5083600260006101000a81548173ffffffffffffffffffffffffffffffffffffffff021916908373ffffffffffffffffffffffffffffffffffffffff1602179055508160039080519060200190620000f09291906200028e565b508060049080519060200190620001099291906200028e565b50505050505062000613565b6200012782826200012b60201b60201c565b5050565b6200013d82826200021c60201b60201c565b6200021857600160008084815260200190815260200160002060000160008373ffffffffffffffffffffffffffffffffffffffff1673ffffffffffffffffffffffffffffffffffffffff16815260200190815260200160002060006101000a81548160ff021916908315150217905550620001bd6200028660201b60201c565b73ffffffffffffffffffffffffffffffffffffffff168173ffffffffffffffffffffffffffffffffffffffff16837f2f8788117e7eff1d82e926ec794901d17c78024a50270940304540a733656f0d60405160405180910390a45b5050565b600080600084815260200190815260200160002060000160008373ffffffffffffffffffffffffffffffffffffffff1673ffffffffffffffffffffffffffffffffffffffff16815260200190815260200160002060009054906101000a900460ff16905092915050565b600033905090565b8280546200029c9062000565565b90600052602060002090601f016020900481019282620002c057600085556200030c565b82601f10620002db57805160ff19168380011785556200030c565b828001600101855582156200030c579182015b828111156200030b578251825591602001919060010190620002ee565b5b5090506200031b91906200031f565b5090565b5b808211156200033a57600081600090555060010162000320565b5090565b6000620003556200034f84620004c8565b62000494565b9050828152602081018484840111156200036e57600080fd5b6200037b8482856200052f565b509392505050565b6000815190506200039481620005f9565b92915050565b600082601f830112620003ac57600080fd5b8151620003be8482602086016200033e565b91505092915050565b600080600080600060a08688031215620003e057600080fd5b6000620003f08882890162000383565b9550506020620004038882890162000383565b945050604086015167ffffffffffffffff8111156200042157600080fd5b6200042f888289016200039a565b935050606086015167ffffffffffffffff8111156200044d57600080fd5b6200045b888289016200039a565b925050608086015167ffffffffffffffff8111156200047957600080fd5b62000487888289016200039a565b9150509295509295909350565b6000604051905081810181811067ffffffffffffffff82111715620004be57620004bd620005ca565b5b8060405250919050565b600067ffffffffffffffff821115620004e657620004e5620005ca565b5b601f19601f8301169050602081019050919050565b600062000508826200050f565b9050919050565b600073ffffffffffffffffffffffffffffffffffffffff82169050919050565b60005b838110156200054f57808201518184015260208101905062000532565b838111156200055f576000848401525b50505050565b600060028204905060018216806200057e57607f821691505b602082108114156200059557620005946200059b565b5b50919050565b7f4e487b7100000000000000000000000000000000000000000000000000000000600052602260045260246000fd5b7f4e487b7100000000000000000000000000000000000000000000000000000000600052604160045260246000fd5b6200060481620004fb565b81146200061057600080fd5b50565b61154880620006236000396000f3fe608060405234801561001057600080fd5b50600436106100b35760003560e01c806359420e481161007157806359420e481461018a5780638c948342146101ba57806391d14854146101d8578063a217fddf14610208578063d547741f14610226578063e894d0a214610242576100b3565b8062ac8095146100b857806301ffc9a7146100d4578063248a9ca3146101045780632f2ff15d1461013457806336568abe1461015057806352b9b9731461016c575b600080fd5b6100d260048036038101906100cd9190610df5565b610263565b005b6100ee60048036038101906100e99190610e83565b6102d1565b6040516100fb9190611136565b60405180910390f35b61011e60048036038101906101199190610e1e565b61034b565b60405161012b9190611151565b60405180910390f35b61014e60048036038101906101499190610e47565b61036a565b005b61016a60048036038101906101659190610e47565b61038b565b005b61017461040e565b6040516101819190611248565b60405180910390f35b6101a4600480360381019061019f9190610eac565b61041b565b6040516101b1919061111b565b60405180910390f35b6101c2610489565b6040516101cf9190611151565b60405180910390f35b6101f260048036038101906101ed9190610e47565b6104ad565b6040516101ff9190611136565b60405180910390f35b610210610517565b60405161021d9190611151565b60405180910390f35b610240600480360381019061023b9190610e47565b61051e565b005b61024a61053f565b60405161025a949392919061118e565b60405180910390f35b61026b610721565b6005819080600181540180825580915050600190039060005260206000200160009091909190916101000a81548173ffffffffffffffffffffffffffffffffffffffff021916908373ffffffffffffffffffffffffffffffffffffffff16021790555050565b60007f7965db0b000000000000000000000000000000000000000000000000000000007bffffffffffffffffffffffffffffffffffffffffffffffffffffffff1916827bffffffffffffffffffffffffffffffffffffffffffffffffffffffff191614806103445750610343826107ae565b5b9050919050565b6000806000838152602001908152602001600020600101549050919050565b6103738261034b565b61037c81610818565b610386838361082c565b505050565b61039361090c565b73ffffffffffffffffffffffffffffffffffffffff168173ffffffffffffffffffffffffffffffffffffffff1614610400576040517f08c379a00000000000000000000000000000000000000000000000000000000081526004016103f790611228565b60405180910390fd5b61040a8282610914565b5050565b6000600580549050905090565b600060058281548110610457577f4e487b7100000000000000000000000000000000000000000000000000000000600052603260045260246000fd5b9060005260206000200160009054906101000a900473ffffffffffffffffffffffffffffffffffffffff169050919050565b7fe0ae735793555d3fe7bb9c3f6f29e053c01c45cee237096b99b73ac619531dfb81565b600080600084815260200190815260200160002060000160008373ffffffffffffffffffffffffffffffffffffffff1673ffffffffffffffffffffffffffffffffffffffff16815260200190815260200160002060009054906101000a900460ff16905092915050565b6000801b81565b6105278261034b565b61053081610818565b61053a8383610914565b505050565b606060006060806001600260009054906101000a900473ffffffffffffffffffffffffffffffffffffffff166003600483805461057b90611415565b80601f01602080910402602001604051908101604052809291908181526020018280546105a790611415565b80156105f45780601f106105c9576101008083540402835291602001916105f4565b820191906000526020600020905b8154815290600101906020018083116105d757829003601f168201915b5050505050935081805461060790611415565b80601f016020809104026020016040519081016040528092919081815260200182805461063390611415565b80156106805780601f1061065557610100808354040283529160200191610680565b820191906000526020600020905b81548152906001019060200180831161066357829003601f168201915b5050505050915080805461069390611415565b80601f01602080910402602001604051908101604052809291908181526020018280546106bf90611415565b801561070c5780601f106106e15761010080835404028352916020019161070c565b820191906000526020600020905b8154815290600101906020018083116106ef57829003601f168201915b50505050509050935093509350935090919293565b61076d7fe0ae735793555d3fe7bb9c3f6f29e053c01c45cee237096b99b73ac619531dfb600260009054906101000a900473ffffffffffffffffffffffffffffffffffffffff166104ad565b6107ac576040517f08c379a00000000000000000000000000000000000000000000000000000000081526004016107a390611208565b60405180910390fd5b565b60007f01ffc9a7000000000000000000000000000000000000000000000000000000007bffffffffffffffffffffffffffffffffffffffffffffffffffffffff1916827bffffffffffffffffffffffffffffffffffffffffffffffffffffffff1916149050919050565b6108298161082461090c565b6109f5565b50565b61083682826104ad565b61090857600160008084815260200190815260200160002060000160008373ffffffffffffffffffffffffffffffffffffffff1673ffffffffffffffffffffffffffffffffffffffff16815260200190815260200160002060006101000a81548160ff0219169083151502179055506108ad61090c565b73ffffffffffffffffffffffffffffffffffffffff168173ffffffffffffffffffffffffffffffffffffffff16837f2f8788117e7eff1d82e926ec794901d17c78024a50270940304540a733656f0d60405160405180910390a45b5050565b600033905090565b61091e82826104ad565b156109f157600080600084815260200190815260200160002060000160008373ffffffffffffffffffffffffffffffffffffffff1673ffffffffffffffffffffffffffffffffffffffff16815260200190815260200160002060006101000a81548160ff02191690831515021790555061099661090c565b73ffffffffffffffffffffffffffffffffffffffff168173ffffffffffffffffffffffffffffffffffffffff16837ff6391f5c32d9c69d2a47ea670b442974b53935d1edc7fd64eb21e047a839171b60405160405180910390a45b5050565b6109ff82826104ad565b610a7657610a0c81610a7a565b610a1a8360001c6020610aa7565b604051602001610a2b9291906110e1565b6040516020818303038152906040526040517f08c379a0000000000000000000000000000000000000000000000000000000008152600401610a6d919061116c565b60405180910390fd5b5050565b6060610aa08273ffffffffffffffffffffffffffffffffffffffff16601460ff16610aa7565b9050919050565b606060006002836002610aba91906112e0565b610ac4919061128a565b67ffffffffffffffff811115610b03577f4e487b7100000000000000000000000000000000000000000000000000000000600052604160045260246000fd5b6040519080825280601f01601f191660200182016040528015610b355781602001600182028036833780820191505090505b5090507f300000000000000000000000000000000000000000000000000000000000000081600081518110610b93577f4e487b7100000000000000000000000000000000000000000000000000000000600052603260045260246000fd5b60200101907effffffffffffffffffffffffffffffffffffffffffffffffffffffffffffff1916908160001a9053507f780000000000000000000000000000000000000000000000000000000000000081600181518110610c1d577f4e487b7100000000000000000000000000000000000000000000000000000000600052603260045260246000fd5b60200101907effffffffffffffffffffffffffffffffffffffffffffffffffffffffffffff1916908160001a90535060006001846002610c5d91906112e0565b610c67919061128a565b90505b6001811115610d53577f3031323334353637383961626364656600000000000000000000000000000000600f861660108110610ccf577f4e487b7100000000000000000000000000000000000000000000000000000000600052603260045260246000fd5b1a60f81b828281518110610d0c577f4e487b7100000000000000000000000000000000000000000000000000000000600052603260045260246000fd5b60200101907effffffffffffffffffffffffffffffffffffffffffffffffffffffffffffff1916908160001a905350600485901c945080610d4c906113eb565b9050610c6a565b5060008414610d97576040517f08c379a0000000000000000000000000000000000000000000000000000000008152600401610d8e906111e8565b60405180910390fd5b8091505092915050565b600081359050610db0816114b6565b92915050565b600081359050610dc5816114cd565b92915050565b600081359050610dda816114e4565b92915050565b600081359050610def816114fb565b92915050565b600060208284031215610e0757600080fd5b6000610e1584828501610da1565b91505092915050565b600060208284031215610e3057600080fd5b6000610e3e84828501610db6565b91505092915050565b60008060408385031215610e5a57600080fd5b6000610e6885828601610db6565b9250506020610e7985828601610da1565b9150509250929050565b600060208284031215610e9557600080fd5b6000610ea384828501610dcb565b91505092915050565b600060208284031215610ebe57600080fd5b6000610ecc84828501610de0565b91505092915050565b610ede8161133a565b82525050565b610eed8161134c565b82525050565b610efc81611358565b82525050565b6000610f0d82611263565b610f17818561126e565b9350610f278185602086016113b8565b610f30816114a5565b840191505092915050565b6000610f4682611263565b610f50818561127f565b9350610f608185602086016113b8565b80840191505092915050565b6000610f7960208361126e565b91507f537472696e67733a20686578206c656e67746820696e73756666696369656e746000830152602082019050919050565b6000610fb960178361127f565b91507f416363657373436f6e74726f6c3a206163636f756e74200000000000000000006000830152601782019050919050565b6000610ff9601d8361126e565b91507f43616c6c6572206973206e6f7420616e206f7267616e697a6174696f6e0000006000830152602082019050919050565b600061103960118361127f565b91507f206973206d697373696e6720726f6c65200000000000000000000000000000006000830152601182019050919050565b6000611079602f8361126e565b91507f416363657373436f6e74726f6c3a2063616e206f6e6c792072656e6f756e636560008301527f20726f6c657320666f722073656c6600000000000000000000000000000000006020830152604082019050919050565b6110db816113ae565b82525050565b60006110ec82610fac565b91506110f88285610f3b565b91506111038261102c565b915061110f8284610f3b565b91508190509392505050565b60006020820190506111306000830184610ed5565b92915050565b600060208201905061114b6000830184610ee4565b92915050565b60006020820190506111666000830184610ef3565b92915050565b600060208201905081810360008301526111868184610f02565b905092915050565b600060808201905081810360008301526111a88187610f02565b90506111b76020830186610ed5565b81810360408301526111c98185610f02565b905081810360608301526111dd8184610f02565b905095945050505050565b6000602082019050818103600083015261120181610f6c565b9050919050565b6000602082019050818103600083015261122181610fec565b9050919050565b600060208201905081810360008301526112418161106c565b9050919050565b600060208201905061125d60008301846110d2565b92915050565b600081519050919050565b600082825260208201905092915050565b600081905092915050565b6000611295826113ae565b91506112a0836113ae565b9250827fffffffffffffffffffffffffffffffffffffffffffffffffffffffffffffffff038211156112d5576112d4611447565b5b828201905092915050565b60006112eb826113ae565b91506112f6836113ae565b9250817fffffffffffffffffffffffffffffffffffffffffffffffffffffffffffffffff048311821515161561132f5761132e611447565b5b828202905092915050565b60006113458261138e565b9050919050565b60008115159050919050565b6000819050919050565b60007fffffffff0000000000000000000000000000000000000000000000000000000082169050919050565b600073ffffffffffffffffffffffffffffffffffffffff82169050919050565b6000819050919050565b60005b838110156113d65780820151818401526020810190506113bb565b838111156113e5576000848401525b50505050565b60006113f6826113ae565b9150600082141561140a57611409611447565b5b600182039050919050565b6000600282049050600182168061142d57607f821691505b6020821081141561144157611440611476565b5b50919050565b7f4e487b7100000000000000000000000000000000000000000000000000000000600052601160045260246000fd5b7f4e487b7100000000000000000000000000000000000000000000000000000000600052602260045260246000fd5b6000601f19601f8301169050919050565b6114bf8161133a565b81146114ca57600080fd5b50565b6114d681611358565b81146114e157600080fd5b50565b6114ed81611362565b81146114f857600080fd5b50565b611504816113ae565b811461150f57600080fd5b5056fea264697066735822122057d5074b24b340ecb125b8e112d44a827ccacc6642955c4b1821cabb1900c76b64736f6c63430008000033a26469706673582212201b2c89d8d8d4e851e8dc42238c847e205f65ecf22a9870c809571026fe9cd15e64736f6c6343000800003360806040523480156200001157600080fd5b506200003262000026620000b060201b60201c565b620000b860201b60201c565b33600260006101000a81548173ffffffffffffffffffffffffffffffffffffffff021916908373ffffffffffffffffffffffffffffffffffffffff160217905550620000aa6000801b600260009054906101000a900473ffffffffffffffffffffffffffffffffffffffff166200017e60201b60201c565b620002ef565b600033905090565b6000600160009054906101000a900473ffffffffffffffffffffffffffffffffffffffff16905081600160006101000a81548173ffffffffffffffffffffffffffffffffffffffff021916908373ffffffffffffffffffffffffffffffffffffffff1602179055508173ffffffffffffffffffffffffffffffffffffffff168173ffffffffffffffffffffffffffffffffffffffff167f8be0079c531659141344cd1fd0a4f28419497f9722a3daafe3b4186f6b6457e060405160405180910390a35050565b6200019082826200019460201b60201c565b5050565b620001a682826200028560201b60201c565b6200028157600160008084815260200190815260200160002060000160008373ffffffffffffffffffffffffffffffffffffffff1673ffffffffffffffffffffffffffffffffffffffff16815260200190815260200160002060006101000a81548160ff02191690831515021790555062000226620000b060201b60201c565b73ffffffffffffffffffffffffffffffffffffffff168173ffffffffffffffffffffffffffffffffffffffff16837f2f8788117e7eff1d82e926ec794901d17c78024a50270940304540a733656f0d60405160405180910390a45b5050565b600080600084815260200190815260200160002060000160008373ffffffffffffffffffffffffffffffffffffffff1673ffffffffffffffffffffffffffffffffffffffff16815260200190815260200160002060009054906101000a900460ff16905092915050565b61355c80620002ff6000396000f3fe60806040523480156200001157600080fd5b50600436106200013c5760003560e01c80638da5cb5b11620000bd578063d547741f116200007b578063d547741f1462000379578063ead3a9ed1462000399578063f07466e214620003cf578063f2fde38b1462000405578063f851a4401462000425576200013c565b80638da5cb5b14620002a757806391d1485414620002c9578063a217fddf14620002ff578063c25f66f61462000321578063d462d1b21462000343576200013c565b806336568abe116200010b57806336568abe146200020357806354f17b21146200022357806369d784411462000243578063715018a614620002655780638059c5d51462000271576200013c565b806301ffc9a71462000141578063107016581462000177578063248a9ca314620001ad5780632f2ff15d14620001e3575b600080fd5b6200015f6004803603810190620001599190620013f5565b62000447565b6040516200016e919062001784565b60405180910390f35b6200019560048036038101906200018f919062001302565b620004c4565b604051620001a4919062001723565b60405180910390f35b620001cb6004803603810190620001c5919062001388565b6200052d565b604051620001da9190620017a1565b60405180910390f35b620002016004803603810190620001fb9190620013b4565b6200054c565b005b6200022160048036038101906200021b9190620013b4565b62000573565b005b6200024160048036038101906200023b91906200132e565b620005fd565b005b6200024d6200077c565b6040516200025c91906200186a565b60405180910390f35b6200026f62000789565b005b6200028f600480360381019062000289919062001302565b620007a1565b6040516200029e919062001723565b60405180910390f35b620002b1620007d4565b604051620002c0919062001723565b60405180910390f35b620002e76004803603810190620002e19190620013b4565b620007fe565b604051620002f6919062001784565b60405180910390f35b6200030962000868565b604051620003189190620017a1565b60405180910390f35b6200032b6200086f565b6040516200033a9190620017a1565b60405180910390f35b6200036160048036038101906200035b919062001421565b62000893565b60405162000370919062001723565b60405180910390f35b620003976004803603810190620003919190620013b4565b620008d3565b005b620003b76004803603810190620003b1919062001421565b620008fa565b604051620003c6919062001723565b60405180910390f35b620003ed6004803603810190620003e7919062001302565b62000973565b604051620003fc919062001784565b60405180910390f35b6200042360048036038101906200041d919062001302565b62000a07565b005b6200042f62000a92565b6040516200043e919062001723565b60405180910390f35b60007f7965db0b000000000000000000000000000000000000000000000000000000007bffffffffffffffffffffffffffffffffffffffffffffffffffffffff1916827bffffffffffffffffffffffffffffffffffffffffffffffffffffffff19161480620004bd5750620004bc8262000ab8565b5b9050919050565b6000600360008373ffffffffffffffffffffffffffffffffffffffff1673ffffffffffffffffffffffffffffffffffffffff16815260200190815260200160002060009054906101000a900473ffffffffffffffffffffffffffffffffffffffff169050919050565b6000806000838152602001908152602001600020600101549050919050565b62000557826200052d565b620005628162000b22565b6200056e838362000b3a565b505050565b6200057d62000c1f565b73ffffffffffffffffffffffffffffffffffffffff168173ffffffffffffffffffffffffffffffffffffffff1614620005ed576040517f08c379a0000000000000000000000000000000000000000000000000000000008152600401620005e49062001848565b60405180910390fd5b620005f9828262000c27565b5050565b6200060762000d0d565b6000600260009054906101000a900473ffffffffffffffffffffffffffffffffffffffff1683836040516200063c9062001226565b6200064a9392919062001740565b604051809103906000f08015801562000667573d6000803e3d6000fd5b50905080600360008573ffffffffffffffffffffffffffffffffffffffff1673ffffffffffffffffffffffffffffffffffffffff16815260200190815260200160002060006101000a81548173ffffffffffffffffffffffffffffffffffffffff021916908373ffffffffffffffffffffffffffffffffffffffff1602179055506004839080600181540180825580915050600190039060005260206000200160009091909190916101000a81548173ffffffffffffffffffffffffffffffffffffffff021916908373ffffffffffffffffffffffffffffffffffffffff160217905550620007777f351c518a63f302fd3436c2d47c197d41df314c9a32018c5ae62e6d78e0688592826200054c565b505050565b6000600480549050905090565b6200079362000d0d565b6200079f600062000d92565b565b60036020528060005260406000206000915054906101000a900473ffffffffffffffffffffffffffffffffffffffff1681565b6000600160009054906101000a900473ffffffffffffffffffffffffffffffffffffffff16905090565b600080600084815260200190815260200160002060000160008373ffffffffffffffffffffffffffffffffffffffff1673ffffffffffffffffffffffffffffffffffffffff16815260200190815260200160002060009054906101000a900460ff16905092915050565b6000801b81565b7f351c518a63f302fd3436c2d47c197d41df314c9a32018c5ae62e6d78e068859281565b60048181548110620008a457600080fd5b906000526020600020016000915054906101000a900473ffffffffffffffffffffffffffffffffffffffff1681565b620008de826200052d565b620008e98162000b22565b620008f5838362000c27565b505050565b60006200096c600483815481106200093b577f4e487b7100000000000000000000000000000000000000000000000000000000600052603260045260246000fd5b9060005260206000200160009054906101000a900473ffffffffffffffffffffffffffffffffffffffff16620004c4565b9050919050565b600062000a007f351c518a63f302fd3436c2d47c197d41df314c9a32018c5ae62e6d78e0688592600360008573ffffffffffffffffffffffffffffffffffffffff1673ffffffffffffffffffffffffffffffffffffffff16815260200190815260200160002060009054906101000a900473ffffffffffffffffffffffffffffffffffffffff16620007fe565b9050919050565b62000a1162000d0d565b600073ffffffffffffffffffffffffffffffffffffffff168173ffffffffffffffffffffffffffffffffffffffff16141562000a84576040517f08c379a000000000000000000000000000000000000000000000000000000000815260040162000a7b9062001804565b60405180910390fd5b62000a8f8162000d92565b50565b600260009054906101000a900473ffffffffffffffffffffffffffffffffffffffff1681565b60007f01ffc9a7000000000000000000000000000000000000000000000000000000007bffffffffffffffffffffffffffffffffffffffffffffffffffffffff1916827bffffffffffffffffffffffffffffffffffffffffffffffffffffffff1916149050919050565b62000b378162000b3162000c1f565b62000e58565b50565b62000b468282620007fe565b62000c1b57600160008084815260200190815260200160002060000160008373ffffffffffffffffffffffffffffffffffffffff1673ffffffffffffffffffffffffffffffffffffffff16815260200190815260200160002060006101000a81548160ff02191690831515021790555062000bc062000c1f565b73ffffffffffffffffffffffffffffffffffffffff168173ffffffffffffffffffffffffffffffffffffffff16837f2f8788117e7eff1d82e926ec794901d17c78024a50270940304540a733656f0d60405160405180910390a45b5050565b600033905090565b62000c338282620007fe565b1562000d0957600080600084815260200190815260200160002060000160008373ffffffffffffffffffffffffffffffffffffffff1673ffffffffffffffffffffffffffffffffffffffff16815260200190815260200160002060006101000a81548160ff02191690831515021790555062000cae62000c1f565b73ffffffffffffffffffffffffffffffffffffffff168173ffffffffffffffffffffffffffffffffffffffff16837ff6391f5c32d9c69d2a47ea670b442974b53935d1edc7fd64eb21e047a839171b60405160405180910390a45b5050565b62000d1762000c1f565b73ffffffffffffffffffffffffffffffffffffffff1662000d37620007d4565b73ffffffffffffffffffffffffffffffffffffffff161462000d90576040517f08c379a000000000000000000000000000000000000000000000000000000000815260040162000d879062001826565b60405180910390fd5b565b6000600160009054906101000a900473ffffffffffffffffffffffffffffffffffffffff16905081600160006101000a81548173ffffffffffffffffffffffffffffffffffffffff021916908373ffffffffffffffffffffffffffffffffffffffff1602179055508173ffffffffffffffffffffffffffffffffffffffff168173ffffffffffffffffffffffffffffffffffffffff167f8be0079c531659141344cd1fd0a4f28419497f9722a3daafe3b4186f6b6457e060405160405180910390a35050565b62000e648282620007fe565b62000ee45762000e748162000ee8565b62000e848360001c602062000f17565b60405160200162000e97929190620016e1565b6040516020818303038152906040526040517f08c379a000000000000000000000000000000000000000000000000000000000815260040162000edb9190620017be565b60405180910390fd5b5050565b606062000f108273ffffffffffffffffffffffffffffffffffffffff16601460ff1662000f17565b9050919050565b60606000600283600262000f2c919062001972565b62000f38919062001915565b67ffffffffffffffff81111562000f78577f4e487b7100000000000000000000000000000000000000000000000000000000600052604160045260246000fd5b6040519080825280601f01601f19166020018201604052801562000fab5781602001600182028036833780820191505090505b5090507f3000000000000000000000000000000000000000000000000000000000000000816000815181106200100a577f4e487b7100000000000000000000000000000000000000000000000000000000600052603260045260246000fd5b60200101907effffffffffffffffffffffffffffffffffffffffffffffffffffffffffffff1916908160001a9053507f78000000000000000000000000000000000000000000000000000000000000008160018151811062001095577f4e487b7100000000000000000000000000000000000000000000000000000000600052603260045260246000fd5b60200101907effffffffffffffffffffffffffffffffffffffffffffffffffffffffffffff1916908160001a90535060006001846002620010d7919062001972565b620010e3919062001915565b90505b6001811115620011d5577f3031323334353637383961626364656600000000000000000000000000000000600f8616601081106200114d577f4e487b7100000000000000000000000000000000000000000000000000000000600052603260045260246000fd5b1a60f81b8282815181106200118b577f4e487b7100000000000000000000000000000000000000000000000000000000600052603260045260246000fd5b60200101907effffffffffffffffffffffffffffffffffffffffffffffffffffffffffffff1916908160001a905350600485901c945080620011cd9062001a98565b9050620010e6565b50600084146200121c576040517f08c379a00000000000000000000000000000000000000000000000000000000081526004016200121390620017e2565b60405180910390fd5b8091505092915050565b6119888062001b9f83390190565b60006200124b6200124584620018bb565b62001887565b9050828152602081018484840111156200126457600080fd5b6200127184828562001a53565b509392505050565b6000813590506200128a8162001b36565b92915050565b600081359050620012a18162001b50565b92915050565b600081359050620012b88162001b6a565b92915050565b600082601f830112620012d057600080fd5b8135620012e284826020860162001234565b91505092915050565b600081359050620012fc8162001b84565b92915050565b6000602082840312156200131557600080fd5b6000620013258482850162001279565b91505092915050565b600080604083850312156200134257600080fd5b6000620013528582860162001279565b925050602083013567ffffffffffffffff8111156200137057600080fd5b6200137e85828601620012be565b9150509250929050565b6000602082840312156200139b57600080fd5b6000620013ab8482850162001290565b91505092915050565b60008060408385031215620013c857600080fd5b6000620013d88582860162001290565b9250506020620013eb8582860162001279565b9150509250929050565b6000602082840312156200140857600080fd5b60006200141884828501620012a7565b91505092915050565b6000602082840312156200143457600080fd5b60006200144484828501620012eb565b91505092915050565b6200145881620019d3565b82525050565b6200146981620019e7565b82525050565b6200147a81620019f3565b82525050565b60006200148d82620018ee565b620014998185620018f9565b9350620014ab81856020860162001a62565b620014b68162001b25565b840191505092915050565b6000620014ce82620018ee565b620014da81856200190a565b9350620014ec81856020860162001a62565b80840191505092915050565b600062001507602083620018f9565b91507f537472696e67733a20686578206c656e67746820696e73756666696369656e746000830152602082019050919050565b600062001549602683620018f9565b91507f4f776e61626c653a206e6577206f776e657220697320746865207a65726f206160008301527f64647265737300000000000000000000000000000000000000000000000000006020830152604082019050919050565b6000620015b1602083620018f9565b91507f4f776e61626c653a2063616c6c6572206973206e6f7420746865206f776e65726000830152602082019050919050565b6000620015f36017836200190a565b91507f416363657373436f6e74726f6c3a206163636f756e74200000000000000000006000830152601782019050919050565b6000620016356011836200190a565b91507f206973206d697373696e6720726f6c65200000000000000000000000000000006000830152601182019050919050565b600062001677602f83620018f9565b91507f416363657373436f6e74726f6c3a2063616e206f6e6c792072656e6f756e636560008301527f20726f6c657320666f722073656c6600000000000000000000000000000000006020830152604082019050919050565b620016db8162001a49565b82525050565b6000620016ee82620015e4565b9150620016fc8285620014c1565b9150620017098262001626565b9150620017178284620014c1565b91508190509392505050565b60006020820190506200173a60008301846200144d565b92915050565b60006060820190506200175760008301866200144d565b6200176660208301856200144d565b81810360408301526200177a818462001480565b9050949350505050565b60006020820190506200179b60008301846200145e565b92915050565b6000602082019050620017b860008301846200146f565b92915050565b60006020820190508181036000830152620017da818462001480565b905092915050565b60006020820190508181036000830152620017fd81620014f8565b9050919050565b600060208201905081810360008301526200181f816200153a565b9050919050565b600060208201905081810360008301526200184181620015a2565b9050919050565b60006020820190508181036000830152620018638162001668565b9050919050565b6000602082019050620018816000830184620016d0565b92915050565b6000604051905081810181811067ffffffffffffffff82111715620018b157620018b062001af6565b5b8060405250919050565b600067ffffffffffffffff821115620018d957620018d862001af6565b5b601f19601f8301169050602081019050919050565b600081519050919050565b600082825260208201905092915050565b600081905092915050565b6000620019228262001a49565b91506200192f8362001a49565b9250827fffffffffffffffffffffffffffffffffffffffffffffffffffffffffffffffff0382111562001967576200196662001ac7565b5b828201905092915050565b60006200197f8262001a49565b91506200198c8362001a49565b9250817fffffffffffffffffffffffffffffffffffffffffffffffffffffffffffffffff0483118215151615620019c857620019c762001ac7565b5b828202905092915050565b6000620019e08262001a29565b9050919050565b60008115159050919050565b6000819050919050565b60007fffffffff0000000000000000000000000000000000000000000000000000000082169050919050565b600073ffffffffffffffffffffffffffffffffffffffff82169050919050565b6000819050919050565b82818337600083830152505050565b60005b8381101562001a8257808201518184015260208101905062001a65565b8381111562001a92576000848401525b50505050565b600062001aa58262001a49565b9150600082141562001abc5762001abb62001ac7565b5b600182039050919050565b7f4e487b7100000000000000000000000000000000000000000000000000000000600052601160045260246000fd5b7f4e487b7100000000000000000000000000000000000000000000000000000000600052604160045260246000fd5b6000601f19601f8301169050919050565b62001b4181620019d3565b811462001b4d57600080fd5b50565b62001b5b81620019f3565b811462001b6757600080fd5b50565b62001b7581620019fd565b811462001b8157600080fd5b50565b62001b8f8162001a49565b811462001b9b57600080fd5b5056fe60806040523480156200001157600080fd5b506040516200198838038062001988833981810160405281019062000037919062000393565b6200004c6000801b84620000e160201b60201c565b6200007e7f351c518a63f302fd3436c2d47c197d41df314c9a32018c5ae62e6d78e068859283620000e160201b60201c565b8060019080519060200190620000969291906200025a565b5081600260006101000a81548173ffffffffffffffffffffffffffffffffffffffff021916908373ffffffffffffffffffffffffffffffffffffffff16021790555050505062000581565b620000f38282620000f760201b60201c565b5050565b620001098282620001e860201b60201c565b620001e457600160008084815260200190815260200160002060000160008373ffffffffffffffffffffffffffffffffffffffff1673ffffffffffffffffffffffffffffffffffffffff16815260200190815260200160002060006101000a81548160ff021916908315150217905550620001896200025260201b60201c565b73ffffffffffffffffffffffffffffffffffffffff168173ffffffffffffffffffffffffffffffffffffffff16837f2f8788117e7eff1d82e926ec794901d17c78024a50270940304540a733656f0d60405160405180910390a45b5050565b600080600084815260200190815260200160002060000160008373ffffffffffffffffffffffffffffffffffffffff1673ffffffffffffffffffffffffffffffffffffffff16815260200190815260200160002060009054906101000a900460ff16905092915050565b600033905090565b8280546200026890620004d3565b90600052602060002090601f0160209004810192826200028c5760008555620002d8565b82601f10620002a757805160ff1916838001178555620002d8565b82800160010185558215620002d8579182015b82811115620002d7578251825591602001919060010190620002ba565b5b509050620002e79190620002eb565b5090565b5b8082111562000306576000816000905550600101620002ec565b5090565b6000620003216200031b8462000436565b62000402565b9050828152602081018484840111156200033a57600080fd5b620003478482856200049d565b509392505050565b600081519050620003608162000567565b92915050565b600082601f8301126200037857600080fd5b81516200038a8482602086016200030a565b91505092915050565b600080600060608486031215620003a957600080fd5b6000620003b9868287016200034f565b9350506020620003cc868287016200034f565b925050604084015167ffffffffffffffff811115620003ea57600080fd5b620003f88682870162000366565b9150509250925092565b6000604051905081810181811067ffffffffffffffff821117156200042c576200042b62000538565b5b8060405250919050565b600067ffffffffffffffff82111562000454576200045362000538565b5b601f19601f8301169050602081019050919050565b600062000476826200047d565b9050919050565b600073ffffffffffffffffffffffffffffffffffffffff82169050919050565b60005b83811015620004bd578082015181840152602081019050620004a0565b83811115620004cd576000848401525b50505050565b60006002820490506001821680620004ec57607f821691505b6020821081141562000503576200050262000509565b5b50919050565b7f4e487b7100000000000000000000000000000000000000000000000000000000600052602260045260246000fd5b7f4e487b7100000000000000000000000000000000000000000000000000000000600052604160045260246000fd5b620005728162000469565b81146200057e57600080fd5b50565b6113f780620005916000396000f3fe608060405234801561001057600080fd5b50600436106100b35760003560e01c806352b9b9731161007157806352b9b9731461018b57806359420e48146101a957806391d14854146101d9578063a217fddf14610209578063c25f66f614610227578063d547741f14610245576100b3565b8062ac8095146100b857806301ffc9a7146100d45780632352b7b314610104578063248a9ca3146101235780632f2ff15d1461015357806336568abe1461016f575b600080fd5b6100d260048036038101906100cd9190610cce565b610261565b005b6100ee60048036038101906100e99190610d5c565b6102cf565b6040516100fb919061100f565b60405180910390f35b61010c610349565b60405161011a929190611067565b60405180910390f35b61013d60048036038101906101389190610cf7565b610406565b60405161014a919061102a565b60405180910390f35b61016d60048036038101906101689190610d20565b610425565b005b61018960048036038101906101849190610d20565b610446565b005b6101936104c9565b6040516101a091906110f7565b60405180910390f35b6101c360048036038101906101be9190610d85565b6104d6565b6040516101d09190610ff4565b60405180910390f35b6101f360048036038101906101ee9190610d20565b610544565b604051610200919061100f565b60405180910390f35b6102116105ae565b60405161021e919061102a565b60405180910390f35b61022f6105b5565b60405161023c919061102a565b60405180910390f35b61025f600480360381019061025a9190610d20565b6105d9565b005b6102696105fa565b6003819080600181540180825580915050600190039060005260206000200160009091909190916101000a81548173ffffffffffffffffffffffffffffffffffffffff021916908373ffffffffffffffffffffffffffffffffffffffff16021790555050565b60007f7965db0b000000000000000000000000000000000000000000000000000000007bffffffffffffffffffffffffffffffffffffffffffffffffffffffff1916827bffffffffffffffffffffffffffffffffffffffffffffffffffffffff19161480610342575061034182610687565b5b9050919050565b606060006001600260009054906101000a900473ffffffffffffffffffffffffffffffffffffffff1681805461037e906112c4565b80601f01602080910402602001604051908101604052809291908181526020018280546103aa906112c4565b80156103f75780601f106103cc576101008083540402835291602001916103f7565b820191906000526020600020905b8154815290600101906020018083116103da57829003601f168201915b50505050509150915091509091565b6000806000838152602001908152602001600020600101549050919050565b61042e82610406565b610437816106f1565b6104418383610705565b505050565b61044e6107e5565b73ffffffffffffffffffffffffffffffffffffffff168173ffffffffffffffffffffffffffffffffffffffff16146104bb576040517f08c379a00000000000000000000000000000000000000000000000000000000081526004016104b2906110d7565b60405180910390fd5b6104c582826107ed565b5050565b6000600380549050905090565b600060038281548110610512577f4e487b7100000000000000000000000000000000000000000000000000000000600052603260045260246000fd5b9060005260206000200160009054906101000a900473ffffffffffffffffffffffffffffffffffffffff169050919050565b600080600084815260200190815260200160002060000160008373ffffffffffffffffffffffffffffffffffffffff1673ffffffffffffffffffffffffffffffffffffffff16815260200190815260200160002060009054906101000a900460ff16905092915050565b6000801b81565b7f351c518a63f302fd3436c2d47c197d41df314c9a32018c5ae62e6d78e068859281565b6105e282610406565b6105eb816106f1565b6105f583836107ed565b505050565b6106467f351c518a63f302fd3436c2d47c197d41df314c9a32018c5ae62e6d78e0688592600260009054906101000a900473ffffffffffffffffffffffffffffffffffffffff16610544565b610685576040517f08c379a000000000000000000000000000000000000000000000000000000000815260040161067c906110b7565b60405180910390fd5b565b60007f01ffc9a7000000000000000000000000000000000000000000000000000000007bffffffffffffffffffffffffffffffffffffffffffffffffffffffff1916827bffffffffffffffffffffffffffffffffffffffffffffffffffffffff1916149050919050565b610702816106fd6107e5565b6108ce565b50565b61070f8282610544565b6107e157600160008084815260200190815260200160002060000160008373ffffffffffffffffffffffffffffffffffffffff1673ffffffffffffffffffffffffffffffffffffffff16815260200190815260200160002060006101000a81548160ff0219169083151502179055506107866107e5565b73ffffffffffffffffffffffffffffffffffffffff168173ffffffffffffffffffffffffffffffffffffffff16837f2f8788117e7eff1d82e926ec794901d17c78024a50270940304540a733656f0d60405160405180910390a45b5050565b600033905090565b6107f78282610544565b156108ca57600080600084815260200190815260200160002060000160008373ffffffffffffffffffffffffffffffffffffffff1673ffffffffffffffffffffffffffffffffffffffff16815260200190815260200160002060006101000a81548160ff02191690831515021790555061086f6107e5565b73ffffffffffffffffffffffffffffffffffffffff168173ffffffffffffffffffffffffffffffffffffffff16837ff6391f5c32d9c69d2a47ea670b442974b53935d1edc7fd64eb21e047a839171b60405160405180910390a45b5050565b6108d88282610544565b61094f576108e581610953565b6108f38360001c6020610980565b604051602001610904929190610fba565b6040516020818303038152906040526040517f08c379a00000000000000000000000000000000000000000000000000000000081526004016109469190611045565b60405180910390fd5b5050565b60606109798273ffffffffffffffffffffffffffffffffffffffff16601460ff16610980565b9050919050565b606060006002836002610993919061118f565b61099d9190611139565b67ffffffffffffffff8111156109dc577f4e487b7100000000000000000000000000000000000000000000000000000000600052604160045260246000fd5b6040519080825280601f01601f191660200182016040528015610a0e5781602001600182028036833780820191505090505b5090507f300000000000000000000000000000000000000000000000000000000000000081600081518110610a6c577f4e487b7100000000000000000000000000000000000000000000000000000000600052603260045260246000fd5b60200101907effffffffffffffffffffffffffffffffffffffffffffffffffffffffffffff1916908160001a9053507f780000000000000000000000000000000000000000000000000000000000000081600181518110610af6577f4e487b7100000000000000000000000000000000000000000000000000000000600052603260045260246000fd5b60200101907effffffffffffffffffffffffffffffffffffffffffffffffffffffffffffff1916908160001a90535060006001846002610b36919061118f565b610b409190611139565b90505b6001811115610c2c577f3031323334353637383961626364656600000000000000000000000000000000600f861660108110610ba8577f4e487b7100000000000000000000000000000000000000000000000000000000600052603260045260246000fd5b1a60f81b828281518110610be5577f4e487b7100000000000000000000000000000000000000000000000000000000600052603260045260246000fd5b60200101907effffffffffffffffffffffffffffffffffffffffffffffffffffffffffffff1916908160001a905350600485901c945080610c259061129a565b9050610b43565b5060008414610c70576040517f08c379a0000000000000000000000000000000000000000000000000000000008152600401610c6790611097565b60405180910390fd5b8091505092915050565b600081359050610c8981611365565b92915050565b600081359050610c9e8161137c565b92915050565b600081359050610cb381611393565b92915050565b600081359050610cc8816113aa565b92915050565b600060208284031215610ce057600080fd5b6000610cee84828501610c7a565b91505092915050565b600060208284031215610d0957600080fd5b6000610d1784828501610c8f565b91505092915050565b60008060408385031215610d3357600080fd5b6000610d4185828601610c8f565b9250506020610d5285828601610c7a565b9150509250929050565b600060208284031215610d6e57600080fd5b6000610d7c84828501610ca4565b91505092915050565b600060208284031215610d9757600080fd5b6000610da584828501610cb9565b91505092915050565b610db7816111e9565b82525050565b610dc6816111fb565b82525050565b610dd581611207565b82525050565b6000610de682611112565b610df0818561111d565b9350610e00818560208601611267565b610e0981611354565b840191505092915050565b6000610e1f82611112565b610e29818561112e565b9350610e39818560208601611267565b80840191505092915050565b6000610e5260208361111d565b91507f537472696e67733a20686578206c656e67746820696e73756666696369656e746000830152602082019050919050565b6000610e92601e8361111d565b91507f43616c6c6572206973206e6f7420616e20706179726f6c6c2061646d696e00006000830152602082019050919050565b6000610ed260178361112e565b91507f416363657373436f6e74726f6c3a206163636f756e74200000000000000000006000830152601782019050919050565b6000610f1260118361112e565b91507f206973206d697373696e6720726f6c65200000000000000000000000000000006000830152601182019050919050565b6000610f52602f8361111d565b91507f416363657373436f6e74726f6c3a2063616e206f6e6c792072656e6f756e636560008301527f20726f6c657320666f722073656c6600000000000000000000000000000000006020830152604082019050919050565b610fb48161125d565b82525050565b6000610fc582610ec5565b9150610fd18285610e14565b9150610fdc82610f05565b9150610fe88284610e14565b91508190509392505050565b60006020820190506110096000830184610dae565b92915050565b60006020820190506110246000830184610dbd565b92915050565b600060208201905061103f6000830184610dcc565b92915050565b6000602082019050818103600083015261105f8184610ddb565b905092915050565b600060408201905081810360008301526110818185610ddb565b90506110906020830184610dae565b9392505050565b600060208201905081810360008301526110b081610e45565b9050919050565b600060208201905081810360008301526110d081610e85565b9050919050565b600060208201905081810360008301526110f081610f45565b9050919050565b600060208201905061110c6000830184610fab565b92915050565b600081519050919050565b600082825260208201905092915050565b600081905092915050565b60006111448261125d565b915061114f8361125d565b9250827fffffffffffffffffffffffffffffffffffffffffffffffffffffffffffffffff03821115611184576111836112f6565b5b828201905092915050565b600061119a8261125d565b91506111a58361125d565b9250817fffffffffffffffffffffffffffffffffffffffffffffffffffffffffffffffff04831182151516156111de576111dd6112f6565b5b828202905092915050565b60006111f48261123d565b9050919050565b60008115159050919050565b6000819050919050565b60007fffffffff0000000000000000000000000000000000000000000000000000000082169050919050565b600073ffffffffffffffffffffffffffffffffffffffff82169050919050565b6000819050919050565b60005b8381101561128557808201518184015260208101905061126a565b83811115611294576000848401525b50505050565b60006112a58261125d565b915060008214156112b9576112b86112f6565b5b600182039050919050565b600060028204905060018216806112dc57607f821691505b602082108114156112f0576112ef611325565b5b50919050565b7f4e487b7100000000000000000000000000000000000000000000000000000000600052601160045260246000fd5b7f4e487b7100000000000000000000000000000000000000000000000000000000600052602260045260246000fd5b6000601f19601f8301169050919050565b61136e816111e9565b811461137957600080fd5b50565b61138581611207565b811461139057600080fd5b50565b61139c81611211565b81146113a757600080fd5b50565b6113b38161125d565b81146113be57600080fd5b5056fea2646970667358221220fe702ce9f45e7ce08e3b62aa48395307fa58af6efd399f174d69a036ec9886e864736f6c63430008000033a2646970667358221220eada08d8394aade361bb352e9883b23153d849b05c2e744aa606b6452aece15f64736f6c63430008000033",
  "immutableReferences": {},
  "source": "//SPDX-License-Identifier: MIT\npragma solidity >=0.5.0 <0.9.0;\nimport \"@openzeppelin/contracts/access/AccessControl.sol\";\nimport \"@openzeppelin/contracts/access/Ownable.sol\";\nimport \"./Registry/EmployeeRegistry.sol\";\nimport \"./Registry/OrganizationRegistry.sol\";\nimport \"./Registry/PayrollAdminRegistry.sol\";\n\ncontract Admin is AccessControl, Ownable {\naddress public admin;\nEmployeeRegistry public employeeRegistry;\nOrganizationRegistry public organizationRegistry;\nPayrollAdminRegistry public payrollAdminRegistry;\n\n  constructor()  {\n    admin = msg.sender;\n    _setupRole(DEFAULT_ADMIN_ROLE, admin);\n    employeeRegistry = new EmployeeRegistry();\n    organizationRegistry = new OrganizationRegistry();\n    payrollAdminRegistry = new PayrollAdminRegistry();\n  }\n\n  function transferOwnership(address newOwner) public override onlyOwner {\n    require(newOwner != address(0), \"Invalid address\");\n    _transferOwnership(newOwner);\n  }\n\n  function registerUser(\n    address EthAddress,\n    string memory Name,\n    string memory Location,\n    string memory Description,\n    uint256 Role\n  ) public onlyOwner {\n\n    if (Role == 1) {\n        employeeRegistry.registerEmployee(EthAddress, Name, Location, Description);\n    } else if (Role == 2) {\n        organizationRegistry.registerOrganizationEndorser(EthAddress, Name, Location, Description);\n    } else if (Role == 3) {\n        payrollAdminRegistry.registerPayrollAdmin(EthAddress, Name);\n    }\n  }\n\n  /****************************************************************USER SECTION**************************************************/\n\n  function isEmployee(address _employeeAddress) public view returns (bool) {\n    return employeeRegistry.isEmployee(_employeeAddress);\n  }\n\n  function isOrganizationEndorser(address _organizationEndorser)\n    public\n    view\n    returns (bool)\n  {\n    return organizationRegistry.isOrganizationEndorser(_organizationEndorser);\n  }\n\n  function employeeCount() public view returns (uint256) {\n    return employeeRegistry.employeeCount();\n  }\n\n  function getEmployeeContractByAddress(address _employee)\n    public\n    view\n    returns (address)\n  {\n    return employeeRegistry.getEmployeeContractByAddress(_employee);\n  }\n\n  function getEmployeeContractByIndex(uint256 index)\n    public\n    view\n    returns (address)\n  {\n    return employeeRegistry.getEmployeeContractByIndex(index);\n  }\n\n  function OrganizationEndorserCount() public view returns (uint256) {\n    return organizationRegistry.organizationEndorserCount();\n  }\n\n  function getOrganizationContractByAddress(address _organization)\n    public\n    view\n    returns (address)\n  {\n    return organizationRegistry.getOrganizationEndorserContractByAddress(_organization);\n  }\n\n  function getOrganizationContractByIndex(uint256 index)\n    public\n    view\n    returns (address)\n  {\n    return organizationRegistry.getOrganizationEndorserContractByIndex(index);\n  }\n\n  function isPayrollAdmin(address _payrollAddress) public view returns (bool) {\n    return payrollAdminRegistry.isPayrollAdmin(_payrollAddress);\n  }\n\n  function payrollAdminCount() public view returns (uint256) {\n    return payrollAdminRegistry.payrollAdminCount();\n  }\n\n  function getPayrollContractByAddress(address _payrollAdmin)\n    public\n    view\n    returns (address)\n  {\n    return payrollAdminRegistry.getPayrollAdminContractByAddress(_payrollAdmin);\n  }\n\n  function getPayrollContractByIndex(uint256 index)\n    public\n    view\n    returns (address)\n  {\n    return payrollAdminRegistry.getPayrollAdminContractByIndex(index);\n  }\n  \n}\n",
  "sourcePath": "/Users/mobilelive/Work/mobileLIVE/hrms-blockchain-app/src/contracts/Admin.sol",
  "compiler": {
    "name": "solc",
    "version": "0.8.0+commit.c7dfd78e.Emscripten.clang"
  },
  "schemaVersion": "3.4.3",
  "updatedAt": "2023-04-20T20:55:29.662Z",
  "networkType": "ethereum",
  "devdoc": {
    "kind": "dev",
    "methods": {
      "getRoleAdmin(bytes32)": {
        "details": "Returns the admin role that controls `role`. See {grantRole} and {revokeRole}. To change a role's admin, use {_setRoleAdmin}."
      },
      "grantRole(bytes32,address)": {
        "details": "Grants `role` to `account`. If `account` had not been already granted `role`, emits a {RoleGranted} event. Requirements: - the caller must have ``role``'s admin role. May emit a {RoleGranted} event."
      },
      "hasRole(bytes32,address)": {
        "details": "Returns `true` if `account` has been granted `role`."
      },
      "owner()": {
        "details": "Returns the address of the current owner."
      },
      "renounceOwnership()": {
        "details": "Leaves the contract without owner. It will not be possible to call `onlyOwner` functions anymore. Can only be called by the current owner. NOTE: Renouncing ownership will leave the contract without an owner, thereby removing any functionality that is only available to the owner."
      },
      "renounceRole(bytes32,address)": {
        "details": "Revokes `role` from the calling account. Roles are often managed via {grantRole} and {revokeRole}: this function's purpose is to provide a mechanism for accounts to lose their privileges if they are compromised (such as when a trusted device is misplaced). If the calling account had been revoked `role`, emits a {RoleRevoked} event. Requirements: - the caller must be `account`. May emit a {RoleRevoked} event."
      },
      "revokeRole(bytes32,address)": {
        "details": "Revokes `role` from `account`. If `account` had been granted `role`, emits a {RoleRevoked} event. Requirements: - the caller must have ``role``'s admin role. May emit a {RoleRevoked} event."
      },
      "supportsInterface(bytes4)": {
        "details": "See {IERC165-supportsInterface}."
      },
      "transferOwnership(address)": {
        "details": "Transfers ownership of the contract to a new account (`newOwner`). Can only be called by the current owner."
      }
    },
    "version": 1
  },
  "userdoc": {
    "kind": "user",
    "methods": {},
    "version": 1
  }
}