{
  "contractName": "Admin",
  "abi": [
    {
      "inputs": [],
      "payable": false,
      "stateMutability": "nonpayable",
      "type": "constructor"
    },
    {
      "constant": true,
      "inputs": [],
      "name": "owner",
      "outputs": [
        {
          "internalType": "address",
          "name": "",
          "type": "address"
        }
      ],
      "payable": false,
      "stateMutability": "view",
      "type": "function"
    },
    {
      "constant": false,
      "inputs": [
        {
          "internalType": "address",
          "name": "EthAddress",
          "type": "address"
        },
        {
          "internalType": "string",
          "name": "Name",
          "type": "string"
        },
        {
          "internalType": "string",
          "name": "Location",
          "type": "string"
        },
        {
          "internalType": "string",
          "name": "Description",
          "type": "string"
        },
        {
          "internalType": "uint256",
          "name": "Role",
          "type": "uint256"
        }
      ],
      "name": "registerUser",
      "outputs": [],
      "payable": false,
      "stateMutability": "nonpayable",
      "type": "function"
    },
    {
      "constant": true,
      "inputs": [
        {
          "internalType": "address",
          "name": "_employeeAddress",
          "type": "address"
        }
      ],
      "name": "isEmployee",
      "outputs": [
        {
          "internalType": "bool",
          "name": "",
          "type": "bool"
        }
      ],
      "payable": false,
      "stateMutability": "view",
      "type": "function"
    },
    {
      "constant": true,
      "inputs": [
        {
          "internalType": "address",
          "name": "_organizationEndorser",
          "type": "address"
        }
      ],
      "name": "isOrganizationEndorser",
      "outputs": [
        {
          "internalType": "bool",
          "name": "",
          "type": "bool"
        }
      ],
      "payable": false,
      "stateMutability": "view",
      "type": "function"
    },
    {
      "constant": true,
      "inputs": [],
      "name": "employeeCount",
      "outputs": [
        {
          "internalType": "uint256",
          "name": "",
          "type": "uint256"
        }
      ],
      "payable": false,
      "stateMutability": "view",
      "type": "function"
    },
    {
      "constant": true,
      "inputs": [
        {
          "internalType": "address",
          "name": "_employee",
          "type": "address"
        }
      ],
      "name": "getEmployeeContractByAddress",
      "outputs": [
        {
          "internalType": "address",
          "name": "",
          "type": "address"
        }
      ],
      "payable": false,
      "stateMutability": "view",
      "type": "function"
    },
    {
      "constant": true,
      "inputs": [
        {
          "internalType": "uint256",
          "name": "index",
          "type": "uint256"
        }
      ],
      "name": "getEmployeeContractByIndex",
      "outputs": [
        {
          "internalType": "address",
          "name": "",
          "type": "address"
        }
      ],
      "payable": false,
      "stateMutability": "view",
      "type": "function"
    },
    {
      "constant": true,
      "inputs": [],
      "name": "OrganizationEndorserCount",
      "outputs": [
        {
          "internalType": "uint256",
          "name": "",
          "type": "uint256"
        }
      ],
      "payable": false,
      "stateMutability": "view",
      "type": "function"
    },
    {
      "constant": true,
      "inputs": [
        {
          "internalType": "address",
          "name": "_organization",
          "type": "address"
        }
      ],
      "name": "getOrganizationContractByAddress",
      "outputs": [
        {
          "internalType": "address",
          "name": "",
          "type": "address"
        }
      ],
      "payable": false,
      "stateMutability": "view",
      "type": "function"
    },
    {
      "constant": true,
      "inputs": [
        {
          "internalType": "uint256",
          "name": "index",
          "type": "uint256"
        }
      ],
      "name": "getOrganizationContractByIndex",
      "outputs": [
        {
          "internalType": "address",
          "name": "",
          "type": "address"
        }
      ],
      "payable": false,
      "stateMutability": "view",
      "type": "function"
    },
    {
      "constant": true,
      "inputs": [
        {
          "internalType": "address",
          "name": "_payrollAdmin",
          "type": "address"
        }
      ],
      "name": "isPayrollAdmin",
      "outputs": [
        {
          "internalType": "bool",
          "name": "",
          "type": "bool"
        }
      ],
      "payable": false,
      "stateMutability": "view",
      "type": "function"
    },
    {
      "constant": true,
      "inputs": [],
      "name": "PayrollAdminCount",
      "outputs": [
        {
          "internalType": "uint256",
          "name": "",
          "type": "uint256"
        }
      ],
      "payable": false,
      "stateMutability": "view",
      "type": "function"
    },
    {
      "constant": true,
      "inputs": [
        {
          "internalType": "address",
          "name": "_payroll_admin",
          "type": "address"
        }
      ],
      "name": "getPayrollAdminContractByAddress",
      "outputs": [
        {
          "internalType": "address",
          "name": "",
          "type": "address"
        }
      ],
      "payable": false,
      "stateMutability": "view",
      "type": "function"
    },
    {
      "constant": true,
      "inputs": [
        {
          "internalType": "uint256",
          "name": "index",
          "type": "uint256"
        }
      ],
      "name": "getPayrollAdminContractByIndex",
      "outputs": [
        {
          "internalType": "address",
          "name": "",
          "type": "address"
        }
      ],
      "payable": false,
      "stateMutability": "view",
      "type": "function"
    }
  ],
  "bytecode": "0x608060405234801561001057600080fd5b50336000806101000a81548173ffffffffffffffffffffffffffffffffffffffff021916908373ffffffffffffffffffffffffffffffffffffffff160217905550616b6c806100606000396000f3fe60806040523480156200001157600080fd5b5060043610620001005760003560e01c80638da5cb5b1162000099578063c684ba28116200006f578063c684ba28146200061f578063ea66543f14620006a6578063ead3a9ed1462000705578063f07466e214620007765762000100565b80638da5cb5b14620005935780639047bf5814620005df578063bf5a94b614620005ff5762000100565b8063323ddfc411620000db578063323ddfc4146200025c578063447a81fe14620002e35780635f311c7914620003545780636f93dc5614620003745762000100565b806310701658146200010557806315d809f9146200018c57806316ab8a3514620001fd575b600080fd5b6200014a600480360360208110156200011d57600080fd5b81019080803573ffffffffffffffffffffffffffffffffffffffff169060200190929190505050620007d5565b604051808273ffffffffffffffffffffffffffffffffffffffff1673ffffffffffffffffffffffffffffffffffffffff16815260200191505060405180910390f35b620001bb60048036036020811015620001a457600080fd5b81019080803590602001909291905050506200083e565b604051808273ffffffffffffffffffffffffffffffffffffffff1673ffffffffffffffffffffffffffffffffffffffff16815260200191505060405180910390f35b62000242600480360360208110156200021557600080fd5b81019080803573ffffffffffffffffffffffffffffffffffffffff1690602001909291905050506200088a565b604051808215151515815260200191505060405180910390f35b620002a1600480360360208110156200027457600080fd5b81019080803573ffffffffffffffffffffffffffffffffffffffff16906020019092919050505062000922565b604051808273ffffffffffffffffffffffffffffffffffffffff1673ffffffffffffffffffffffffffffffffffffffff16815260200191505060405180910390f35b6200031260048036036020811015620002fb57600080fd5b81019080803590602001909291905050506200098b565b604051808273ffffffffffffffffffffffffffffffffffffffff1673ffffffffffffffffffffffffffffffffffffffff16815260200191505060405180910390f35b6200035e620009d7565b6040518082815260200191505060405180910390f35b62000591600480360360a08110156200038c57600080fd5b81019080803573ffffffffffffffffffffffffffffffffffffffff16906020019092919080359060200190640100000000811115620003ca57600080fd5b820183602082011115620003dd57600080fd5b803590602001918460018302840111640100000000831117156200040057600080fd5b91908080601f016020809104026020016040519081016040528093929190818152602001838380828437600081840152601f19601f820116905080830192505050505050509192919290803590602001906401000000008111156200046457600080fd5b8201836020820111156200047757600080fd5b803590602001918460018302840111640100000000831117156200049a57600080fd5b91908080601f016020809104026020016040519081016040528093929190818152602001838380828437600081840152601f19601f82011690508083019250505050505050919291929080359060200190640100000000811115620004fe57600080fd5b8201836020820111156200051157600080fd5b803590602001918460018302840111640100000000831117156200053457600080fd5b91908080601f016020809104026020016040519081016040528093929190818152602001838380828437600081840152601f19601f82011690508083019250505050505050919291929080359060200190929190505050620009e4565b005b6200059d62001265565b604051808273ffffffffffffffffffffffffffffffffffffffff1673ffffffffffffffffffffffffffffffffffffffff16815260200191505060405180910390f35b620005e96200128a565b6040518082815260200191505060405180910390f35b6200060962001297565b6040518082815260200191505060405180910390f35b62000664600480360360208110156200063757600080fd5b81019080803573ffffffffffffffffffffffffffffffffffffffff169060200190929190505050620012a4565b604051808273ffffffffffffffffffffffffffffffffffffffff1673ffffffffffffffffffffffffffffffffffffffff16815260200191505060405180910390f35b620006eb60048036036020811015620006be57600080fd5b81019080803573ffffffffffffffffffffffffffffffffffffffff1690602001909291905050506200130d565b604051808215151515815260200191505060405180910390f35b62000734600480360360208110156200071d57600080fd5b8101908080359060200190929190505050620013a5565b604051808273ffffffffffffffffffffffffffffffffffffffff1673ffffffffffffffffffffffffffffffffffffffff16815260200191505060405180910390f35b620007bb600480360360208110156200078e57600080fd5b81019080803573ffffffffffffffffffffffffffffffffffffffff169060200190929190505050620013f1565b604051808215151515815260200191505060405180910390f35b6000600360008373ffffffffffffffffffffffffffffffffffffffff1673ffffffffffffffffffffffffffffffffffffffff16815260200190815260200160002060009054906101000a900473ffffffffffffffffffffffffffffffffffffffff169050919050565b600062000883600583815481106200085257fe5b9060005260206000200160009054906101000a900473ffffffffffffffffffffffffffffffffffffffff16620012a4565b9050919050565b60008073ffffffffffffffffffffffffffffffffffffffff16600260008473ffffffffffffffffffffffffffffffffffffffff1673ffffffffffffffffffffffffffffffffffffffff16815260200190815260200160002060009054906101000a900473ffffffffffffffffffffffffffffffffffffffff1673ffffffffffffffffffffffffffffffffffffffff1614159050919050565b6000600160008373ffffffffffffffffffffffffffffffffffffffff1673ffffffffffffffffffffffffffffffffffffffff16815260200190815260200160002060009054906101000a900473ffffffffffffffffffffffffffffffffffffffff169050919050565b6000620009d0600483815481106200099f57fe5b9060005260206000200160009054906101000a900473ffffffffffffffffffffffffffffffffffffffff1662000922565b9050919050565b6000600680549050905090565b6000809054906101000a900473ffffffffffffffffffffffffffffffffffffffff1673ffffffffffffffffffffffffffffffffffffffff163373ffffffffffffffffffffffffffffffffffffffff161462000a3e57600080fd5b600181141562000d3f5760008060009054906101000a900473ffffffffffffffffffffffffffffffffffffffff168686868660405162000a7e9062001489565b808673ffffffffffffffffffffffffffffffffffffffff1673ffffffffffffffffffffffffffffffffffffffff1681526020018573ffffffffffffffffffffffffffffffffffffffff1673ffffffffffffffffffffffffffffffffffffffff168152602001806020018060200180602001848103845287818151815260200191508051906020019080838360005b8381101562000b2957808201518184015260208101905062000b0c565b50505050905090810190601f16801562000b575780820380516001836020036101000a031916815260200191505b50848103835286818151815260200191508051906020019080838360005b8381101562000b9257808201518184015260208101905062000b75565b50505050905090810190601f16801562000bc05780820380516001836020036101000a031916815260200191505b50848103825285818151815260200191508051906020019080838360005b8381101562000bfb57808201518184015260208101905062000bde565b50505050905090810190601f16801562000c295780820380516001836020036101000a031916815260200191505b5098505050505050505050604051809103906000f08015801562000c51573d6000803e3d6000fd5b50905080600160008873ffffffffffffffffffffffffffffffffffffffff1673ffffffffffffffffffffffffffffffffffffffff16815260200190815260200160002060006101000a81548173ffffffffffffffffffffffffffffffffffffffff021916908373ffffffffffffffffffffffffffffffffffffffff16021790555060048690806001815401808255809150509060018203906000526020600020016000909192909190916101000a81548173ffffffffffffffffffffffffffffffffffffffff021916908373ffffffffffffffffffffffffffffffffffffffff16021790555050506200125e565b6002811415620010405760008060009054906101000a900473ffffffffffffffffffffffffffffffffffffffff168686868660405162000d7f9062001497565b808673ffffffffffffffffffffffffffffffffffffffff1673ffffffffffffffffffffffffffffffffffffffff1681526020018573ffffffffffffffffffffffffffffffffffffffff1673ffffffffffffffffffffffffffffffffffffffff168152602001806020018060200180602001848103845287818151815260200191508051906020019080838360005b8381101562000e2a57808201518184015260208101905062000e0d565b50505050905090810190601f16801562000e585780820380516001836020036101000a031916815260200191505b50848103835286818151815260200191508051906020019080838360005b8381101562000e9357808201518184015260208101905062000e76565b50505050905090810190601f16801562000ec15780820380516001836020036101000a031916815260200191505b50848103825285818151815260200191508051906020019080838360005b8381101562000efc57808201518184015260208101905062000edf565b50505050905090810190601f16801562000f2a5780820380516001836020036101000a031916815260200191505b5098505050505050505050604051809103906000f08015801562000f52573d6000803e3d6000fd5b50905080600260008873ffffffffffffffffffffffffffffffffffffffff1673ffffffffffffffffffffffffffffffffffffffff16815260200190815260200160002060006101000a81548173ffffffffffffffffffffffffffffffffffffffff021916908373ffffffffffffffffffffffffffffffffffffffff16021790555060058690806001815401808255809150509060018203906000526020600020016000909192909190916101000a81548173ffffffffffffffffffffffffffffffffffffffff021916908373ffffffffffffffffffffffffffffffffffffffff16021790555050506200125d565b60038114156200125c5760008060009054906101000a900473ffffffffffffffffffffffffffffffffffffffff1686866040516200107e90620014a5565b808473ffffffffffffffffffffffffffffffffffffffff1673ffffffffffffffffffffffffffffffffffffffff1681526020018373ffffffffffffffffffffffffffffffffffffffff1673ffffffffffffffffffffffffffffffffffffffff16815260200180602001828103825283818151815260200191508051906020019080838360005b838110156200112157808201518184015260208101905062001104565b50505050905090810190601f1680156200114f5780820380516001836020036101000a031916815260200191505b50945050505050604051809103906000f08015801562001173573d6000803e3d6000fd5b50905080600360008873ffffffffffffffffffffffffffffffffffffffff1673ffffffffffffffffffffffffffffffffffffffff16815260200190815260200160002060006101000a81548173ffffffffffffffffffffffffffffffffffffffff021916908373ffffffffffffffffffffffffffffffffffffffff16021790555060068690806001815401808255809150509060018203906000526020600020016000909192909190916101000a81548173ffffffffffffffffffffffffffffffffffffffff021916908373ffffffffffffffffffffffffffffffffffffffff16021790555050505b5b5b5050505050565b6000809054906101000a900473ffffffffffffffffffffffffffffffffffffffff1681565b6000600480549050905090565b6000600580549050905090565b6000600260008373ffffffffffffffffffffffffffffffffffffffff1673ffffffffffffffffffffffffffffffffffffffff16815260200190815260200160002060009054906101000a900473ffffffffffffffffffffffffffffffffffffffff169050919050565b60008073ffffffffffffffffffffffffffffffffffffffff16600160008473ffffffffffffffffffffffffffffffffffffffff1673ffffffffffffffffffffffffffffffffffffffff16815260200190815260200160002060009054906101000a900473ffffffffffffffffffffffffffffffffffffffff1673ffffffffffffffffffffffffffffffffffffffff1614159050919050565b6000620013ea60068381548110620013b957fe5b9060005260206000200160009054906101000a900473ffffffffffffffffffffffffffffffffffffffff16620007d5565b9050919050565b60008073ffffffffffffffffffffffffffffffffffffffff16600360008473ffffffffffffffffffffffffffffffffffffffff1673ffffffffffffffffffffffffffffffffffffffff16815260200190815260200160002060009054906101000a900473ffffffffffffffffffffffffffffffffffffffff1673ffffffffffffffffffffffffffffffffffffffff1614159050919050565b61464b80620014b483390190565b6109fa8062005aff83390190565b61063f80620064f98339019056fe60806040523480156200001157600080fd5b506040516200464b3803806200464b833981810160405260a08110156200003757600080fd5b810190808051906020019092919080519060200190929190805160405193929190846401000000008211156200006c57600080fd5b838201915060208201858111156200008357600080fd5b8251866001820283011164010000000082111715620000a157600080fd5b8083526020830192505050908051906020019080838360005b83811015620000d7578082015181840152602081019050620000ba565b50505050905090810190601f168015620001055780820380516001836020036101000a031916815260200191505b50604052602001805160405193929190846401000000008211156200012957600080fd5b838201915060208201858111156200014057600080fd5b82518660018202830111640100000000821117156200015e57600080fd5b8083526020830192505050908051906020019080838360005b838110156200019457808201518184015260208101905062000177565b50505050905090810190601f168015620001c25780820380516001836020036101000a031916815260200191505b5060405260200180516040519392919084640100000000821115620001e657600080fd5b83820191506020820185811115620001fd57600080fd5b82518660018202830111640100000000821117156200021b57600080fd5b8083526020830192505050908051906020019080838360005b838110156200025157808201518184015260208101905062000234565b50505050905090810190601f1680156200027f5780820380516001836020036101000a031916815260200191505b50604052505050846000806101000a81548173ffffffffffffffffffffffffffffffffffffffff021916908373ffffffffffffffffffffffffffffffffffffffff1602179055508260069080519060200190620002de92919062000365565b5083600160006101000a81548173ffffffffffffffffffffffffffffffffffffffff021916908373ffffffffffffffffffffffffffffffffffffffff16021790555081600290805190602001906200033892919062000365565b5080600390805190602001906200035192919062000365565b506000600581905550505050505062000414565b828054600181600116156101000203166002900490600052602060002090601f016020900481019282601f10620003a857805160ff1916838001178555620003d9565b82800160010185558215620003d9579182015b82811115620003d8578251825591602001919060010190620003bb565b5b509050620003e89190620003ec565b5090565b6200041191905b808211156200040d576000816000905550600101620003f3565b5090565b90565b61422780620004246000396000f3fe608060405234801561001057600080fd5b50600436106101425760003560e01c8063c07f7d16116100b8578063eda3467c1161007c578063eda3467c14610f61578063f1d9efb21461101c578063f5e616a6146112bc578063fc017f25146112c6578063fdb10361146114af578063fee7989e1461160b57610142565b8063c07f7d16146108d3578063cf6431c614610adc578063d57e0ad614610b97578063d862ae8714610dcb578063e260175114610f1d57610142565b80636212fa021161010a5780636212fa0214610417578063645f29a8146104355780637b1d2d00146105f25780637c067d8d146106d757806394fb3da714610719578063a3e3bf7d1461073757610142565b806305f53b29146101475780632186879c14610165578063444fc6621461022057806344afd134146103ef57806344f034ae1461040d575b600080fd5b61014f611702565b6040518082815260200191505060405180910390f35b61021e6004803603602081101561017b57600080fd5b810190808035906020019064010000000081111561019857600080fd5b8201836020820111156101aa57600080fd5b803590602001918460018302840111640100000000831117156101cc57600080fd5b91908080601f016020809104026020016040519081016040528093929190818152602001838380828437600081840152601f19601f82011690508083019250505050505050919291929050505061170f565b005b61024c6004803603602081101561023657600080fd5b810190808035906020019092919050505061186a565b604051808060200188815260200180602001871515151581526020018673ffffffffffffffffffffffffffffffffffffffff1673ffffffffffffffffffffffffffffffffffffffff168152602001806020018515151515815260200184810384528b818151815260200191508051906020019080838360005b838110156102e05780820151818401526020810190506102c5565b50505050905090810190601f16801561030d5780820380516001836020036101000a031916815260200191505b50848103835289818151815260200191508051906020019080838360005b8381101561034657808201518184015260208101905061032b565b50505050905090810190601f1680156103735780820380516001836020036101000a031916815260200191505b50848103825286818151815260200191508051906020019080838360005b838110156103ac578082015181840152602081019050610391565b50505050905090810190601f1680156103d95780820380516001836020036101000a031916815260200191505b509a505050505050505050505060405180910390f35b6103f7611948565b6040518082815260200191505060405180910390f35b610415611955565b005b61041f611a4e565b6040518082815260200191505060405180910390f35b6104616004803603602081101561044b57600080fd5b8101908080359060200190929190505050611a5b565b604051808673ffffffffffffffffffffffffffffffffffffffff1673ffffffffffffffffffffffffffffffffffffffff16815260200180602001806020018515151515815260200180602001848103845288818151815260200191508051906020019080838360005b838110156104e55780820151818401526020810190506104ca565b50505050905090810190601f1680156105125780820380516001836020036101000a031916815260200191505b50848103835287818151815260200191508051906020019080838360005b8381101561054b578082015181840152602081019050610530565b50505050905090810190601f1680156105785780820380516001836020036101000a031916815260200191505b50848103825285818151815260200191508051906020019080838360005b838110156105b1578082015181840152602081019050610596565b50505050905090810190601f1680156105de5780820380516001836020036101000a031916815260200191505b509850505050505050505060405180910390f35b6106d56004803603606081101561060857600080fd5b810190808035906020019064010000000081111561062557600080fd5b82018360208201111561063757600080fd5b8035906020019184600183028401116401000000008311171561065957600080fd5b91908080601f016020809104026020016040519081016040528093929190818152602001838380828437600081840152601f19601f820116905080830192505050505050509192919290803573ffffffffffffffffffffffffffffffffffffffff16906020019092919080359060200190929190505050611ab7565b005b610703600480360360208110156106ed57600080fd5b8101908080359060200190929190505050611ce6565b6040518082815260200191505060405180910390f35b610721611d07565b6040518082815260200191505060405180910390f35b61073f611d14565b604051808773ffffffffffffffffffffffffffffffffffffffff1673ffffffffffffffffffffffffffffffffffffffff168152602001806020018060200180602001868152602001858152602001848103845289818151815260200191508051906020019080838360005b838110156107c55780820151818401526020810190506107aa565b50505050905090810190601f1680156107f25780820380516001836020036101000a031916815260200191505b50848103835288818151815260200191508051906020019080838360005b8381101561082b578082015181840152602081019050610810565b50505050905090810190601f1680156108585780820380516001836020036101000a031916815260200191505b50848103825287818151815260200191508051906020019080838360005b83811015610891578082015181840152602081019050610876565b50505050905090810190601f1680156108be5780820380516001836020036101000a031916815260200191505b50995050505050505050505060405180910390f35b610ada600480360360808110156108e957600080fd5b81019080803573ffffffffffffffffffffffffffffffffffffffff1690602001909291908035906020019064010000000081111561092657600080fd5b82018360208201111561093857600080fd5b8035906020019184600183028401116401000000008311171561095a57600080fd5b91908080601f016020809104026020016040519081016040528093929190818152602001838380828437600081840152601f19601f820116905080830192505050505050509192919290803590602001906401000000008111156109bd57600080fd5b8201836020820111156109cf57600080fd5b803590602001918460018302840111640100000000831117156109f157600080fd5b91908080601f016020809104026020016040519081016040528093929190818152602001838380828437600081840152601f19601f82011690508083019250505050505050919291929080359060200190640100000000811115610a5457600080fd5b820183602082011115610a6657600080fd5b80359060200191846001830284011164010000000083111715610a8857600080fd5b91908080601f016020809104026020016040519081016040528093929190818152602001838380828437600081840152601f19601f820116905080830192505050505050509192919290505050611f37565b005b610b9560048036036020811015610af257600080fd5b8101908080359060200190640100000000811115610b0f57600080fd5b820183602082011115610b2157600080fd5b80359060200191846001830284011164010000000083111715610b4357600080fd5b91908080601f016020809104026020016040519081016040528093929190818152602001838380828437600081840152601f19601f82011690508083019250505050505050919291929050505061216b565b005b610bc360048036036020811015610bad57600080fd5b81019080803590602001909291905050506122b7565b60405180806020018873ffffffffffffffffffffffffffffffffffffffff1673ffffffffffffffffffffffffffffffffffffffff168152602001806020018060200187151515158152602001806020018615151515815260200185810385528c818151815260200191508051906020019080838360005b83811015610c55578082015181840152602081019050610c3a565b50505050905090810190601f168015610c825780820380516001836020036101000a031916815260200191505b5085810384528a818151815260200191508051906020019080838360005b83811015610cbb578082015181840152602081019050610ca0565b50505050905090810190601f168015610ce85780820380516001836020036101000a031916815260200191505b50858103835289818151815260200191508051906020019080838360005b83811015610d21578082015181840152602081019050610d06565b50505050905090810190601f168015610d4e5780820380516001836020036101000a031916815260200191505b50858103825287818151815260200191508051906020019080838360005b83811015610d87578082015181840152602081019050610d6c565b50505050905090810190601f168015610db45780820380516001836020036101000a031916815260200191505b509b50505050505050505050505060405180910390f35b610f1b60048036036040811015610de157600080fd5b8101908080359060200190640100000000811115610dfe57600080fd5b820183602082011115610e1057600080fd5b80359060200191846001830284011164010000000083111715610e3257600080fd5b91908080601f016020809104026020016040519081016040528093929190818152602001838380828437600081840152601f19601f82011690508083019250505050505050919291929080359060200190640100000000811115610e9557600080fd5b820183602082011115610ea757600080fd5b80359060200191846001830284011164010000000083111715610ec957600080fd5b91908080601f016020809104026020016040519081016040528093929190818152602001838380828437600081840152601f19601f82011690508083019250505050505050919291929050505061231d565b005b610f5f60048036036020811015610f3357600080fd5b81019080803573ffffffffffffffffffffffffffffffffffffffff169060200190929190505050612557565b005b61101a60048036036020811015610f7757600080fd5b8101908080359060200190640100000000811115610f9457600080fd5b820183602082011115610fa657600080fd5b80359060200191846001830284011164010000000083111715610fc857600080fd5b91908080601f016020809104026020016040519081016040528093929190818152602001838380828437600081840152601f19601f82011690508083019250505050505050919291929050505061260f565b005b6112ba600480360360a081101561103257600080fd5b810190808035906020019064010000000081111561104f57600080fd5b82018360208201111561106157600080fd5b8035906020019184600183028401116401000000008311171561108357600080fd5b91908080601f016020809104026020016040519081016040528093929190818152602001838380828437600081840152601f19601f820116905080830192505050505050509192919290803573ffffffffffffffffffffffffffffffffffffffff1690602001909291908035906020019064010000000081111561110657600080fd5b82018360208201111561111857600080fd5b8035906020019184600183028401116401000000008311171561113a57600080fd5b91908080601f016020809104026020016040519081016040528093929190818152602001838380828437600081840152601f19601f8201169050808301925050505050505091929192908035906020019064010000000081111561119d57600080fd5b8201836020820111156111af57600080fd5b803590602001918460018302840111640100000000831117156111d157600080fd5b91908080601f016020809104026020016040519081016040528093929190818152602001838380828437600081840152601f19601f8201169050808301925050505050505091929192908035906020019064010000000081111561123457600080fd5b82018360208201111561124657600080fd5b8035906020019184600183028401116401000000008311171561126857600080fd5b91908080601f016020809104026020016040519081016040528093929190818152602001838380828437600081840152601f19601f82011690508083019250505050505050919291929050505061276a565b005b6112c46129f6565b005b6114ad600480360360608110156112dc57600080fd5b81019080803590602001906401000000008111156112f957600080fd5b82018360208201111561130b57600080fd5b8035906020019184600183028401116401000000008311171561132d57600080fd5b91908080601f016020809104026020016040519081016040528093929190818152602001838380828437600081840152601f19601f8201169050808301925050505050505091929192908035906020019064010000000081111561139057600080fd5b8201836020820111156113a257600080fd5b803590602001918460018302840111640100000000831117156113c457600080fd5b91908080601f016020809104026020016040519081016040528093929190818152602001838380828437600081840152601f19601f8201169050808301925050505050505091929192908035906020019064010000000081111561142757600080fd5b82018360208201111561143957600080fd5b8035906020019184600183028401116401000000008311171561145b57600080fd5b91908080601f016020809104026020016040519081016040528093929190818152602001838380828437600081840152601f19601f820116905080830192505050505050509192919290505050612aef565b005b611609600480360360608110156114c557600080fd5b81019080803590602001906401000000008111156114e257600080fd5b8201836020820111156114f457600080fd5b8035906020019184600183028401116401000000008311171561151657600080fd5b91908080601f016020809104026020016040519081016040528093929190818152602001838380828437600081840152601f19601f820116905080830192505050505050509192919290803590602001909291908035906020019064010000000081111561158357600080fd5b82018360208201111561159557600080fd5b803590602001918460018302840111640100000000831117156115b757600080fd5b91908080601f016020809104026020016040519081016040528093929190818152602001838380828437600081840152601f19601f820116905080830192505050505050509192919290505050612b93565b005b6116376004803603602081101561162157600080fd5b8101908080359060200190929190505050612e75565b60405180806020018673ffffffffffffffffffffffffffffffffffffffff1673ffffffffffffffffffffffffffffffffffffffff1681526020018581526020018415151515815260200183151515158152602001828103825287818151815260200191508051906020019080838360005b838110156116c35780820151818401526020810190506116a8565b50505050905090810190601f1680156116f05780820380516001836020036101000a031916815260200191505b50965050505050505060405180910390f35b6000600880549050905090565b600160009054906101000a900473ffffffffffffffffffffffffffffffffffffffff1673ffffffffffffffffffffffffffffffffffffffff163373ffffffffffffffffffffffffffffffffffffffff161461176957600080fd5b6009816040518082805190602001908083835b6020831061179f578051825260208201915060208101905060208303925061177c565b6001836020036101000a038019825116818451168082178552505050505050905001915050908152602001604051809103902060030160019054906101000a900460ff16156009826040518082805190602001908083835b6020831061181a57805182526020820191506020810190506020830392506117f7565b6001836020036101000a038019825116818451168082178552505050505050905001915050908152602001604051809103902060030160016101000a81548160ff02191690831515021790555050565b6060600060606000806060600061192f6008898154811061188757fe5b906000526020600020018054600181600116156101000203166002900480601f0160208091040260200160405190810160405280929190818152602001828054600181600116156101000203166002900480156119255780601f106118fa57610100808354040283529160200191611925565b820191906000526020600020905b81548152906001019060200180831161190857829003601f168201915b5050505050612f48565b9650965096509650965096509650919395979092949650565b6000600a80549050905090565b600073ffffffffffffffffffffffffffffffffffffffff16600b60003373ffffffffffffffffffffffffffffffffffffffff1673ffffffffffffffffffffffffffffffffffffffff16815260200190815260200160002060010160009054906101000a900473ffffffffffffffffffffffffffffffffffffffff1673ffffffffffffffffffffffffffffffffffffffff1614156119f157600080fd5b6001600b60003373ffffffffffffffffffffffffffffffffffffffff1673ffffffffffffffffffffffffffffffffffffffff16815260200190815260200160002060040160006101000a81548160ff021916908315150217905550565b6000600e80549050905090565b600060608060006060611aa4600e8781548110611a7457fe5b9060005260206000200160009054906101000a900473ffffffffffffffffffffffffffffffffffffffff16613474565b9450945094509450945091939590929450565b600160009054906101000a900473ffffffffffffffffffffffffffffffffffffffff1673ffffffffffffffffffffffffffffffffffffffff163373ffffffffffffffffffffffffffffffffffffffff1614611b1157600080fd5b611b19613f8f565b83816000018190525082816020019073ffffffffffffffffffffffffffffffffffffffff16908173ffffffffffffffffffffffffffffffffffffffff16815250508181604001818152505060008160600190151590811515815250506001816080019015159081151581525050806009856040518082805190602001908083835b60208310611bbd5780518252602082019150602081019050602083039250611b9a565b6001836020036101000a03801982511681845116808217855250505050505090500191505090815260200160405180910390206000820151816000019080519060200190611c0c929190613fd8565b5060208201518160010160006101000a81548173ffffffffffffffffffffffffffffffffffffffff021916908373ffffffffffffffffffffffffffffffffffffffff1602179055506040820151816002015560608201518160030160006101000a81548160ff02191690831515021790555060808201518160030160016101000a81548160ff021916908315150217905550905050600a849080600181540180825580915050906001820390600052602060002001600090919290919091509080519060200190611cde929190614058565b505050505050565b60048181548110611cf357fe5b906000526020600020016000915090505481565b6000600c80549050905090565b60006060806060600080600160009054906101000a900473ffffffffffffffffffffffffffffffffffffffff166006600260036000600554848054600181600116156101000203166002900480601f016020809104026020016040519081016040528092919081815260200182805460018160011615610100020316600290048015611de15780601f10611db657610100808354040283529160200191611de1565b820191906000526020600020905b815481529060010190602001808311611dc457829003601f168201915b50505050509450838054600181600116156101000203166002900480601f016020809104026020016040519081016040528092919081815260200182805460018160011615610100020316600290048015611e7d5780601f10611e5257610100808354040283529160200191611e7d565b820191906000526020600020905b815481529060010190602001808311611e6057829003601f168201915b50505050509350828054600181600116156101000203166002900480601f016020809104026020016040519081016040528092919081815260200182805460018160011615610100020316600290048015611f195780601f10611eee57610100808354040283529160200191611f19565b820191906000526020600020905b815481529060010190602001808311611efc57829003601f168201915b50505050509250819150955095509550955095509550909192939495565b600160009054906101000a900473ffffffffffffffffffffffffffffffffffffffff1673ffffffffffffffffffffffffffffffffffffffff163373ffffffffffffffffffffffffffffffffffffffff1614611f9157600080fd5b611f996140d8565b84816000019073ffffffffffffffffffffffffffffffffffffffff16908173ffffffffffffffffffffffffffffffffffffffff1681525050838160200181905250828160400181905250600081606001901515908115158152505081816080018190525080600d60008773ffffffffffffffffffffffffffffffffffffffff1673ffffffffffffffffffffffffffffffffffffffff16815260200190815260200160002060008201518160000160006101000a81548173ffffffffffffffffffffffffffffffffffffffff021916908373ffffffffffffffffffffffffffffffffffffffff16021790555060208201518160010190805190602001906120a0929190613fd8565b5060408201518160020190805190602001906120bd929190613fd8565b5060608201518160030160006101000a81548160ff02191690831515021790555060808201518160040190805190602001906120fa929190613fd8565b50905050600e8590806001815401808255809150509060018203906000526020600020016000909192909190916101000a81548173ffffffffffffffffffffffffffffffffffffffff021916908373ffffffffffffffffffffffffffffffffffffffff160217905550505050505050565b6009816040518082805190602001908083835b602083106121a1578051825260208201915060208101905060208303925061217e565b6001836020036101000a038019825116818451168082178552505050505050905001915050908152602001604051809103902060010160009054906101000a900473ffffffffffffffffffffffffffffffffffffffff1673ffffffffffffffffffffffffffffffffffffffff163373ffffffffffffffffffffffffffffffffffffffff161461222f57600080fd5b60016009826040518082805190602001908083835b602083106122675780518252602082019150602081019050602083039250612244565b6001836020036101000a038019825116818451168082178552505050505050905001915050908152602001604051809103902060030160006101000a81548160ff02191690831515021790555050565b60606000606080600060606000612304600c89815481106122d457fe5b9060005260206000200160009054906101000a900473ffffffffffffffffffffffffffffffffffffffff166137dd565b9650965096509650965096509650919395979092949650565b600160009054906101000a900473ffffffffffffffffffffffffffffffffffffffff1673ffffffffffffffffffffffffffffffffffffffff163373ffffffffffffffffffffffffffffffffffffffff161461237757600080fd5b61237f61411f565b8281600001819052508181604001819052506000816020018181525050600081606001901515908115158152505060018160c0019015159081151581525050806007846040518082805190602001908083835b602083106123f557805182526020820191506020810190506020830392506123d2565b6001836020036101000a03801982511681845116808217855250505050505090500191505090815260200160405180910390206000820151816000019080519060200190612444929190613fd8565b5060208201518160010155604082015181600201908051906020019061246b929190613fd8565b5060608201518160030160006101000a81548160ff02191690831515021790555060808201518160030160016101000a81548173ffffffffffffffffffffffffffffffffffffffff021916908373ffffffffffffffffffffffffffffffffffffffff16021790555060a08201518160040190805190602001906124ef929190613fd8565b5060c08201518160050160006101000a81548160ff0219169083151502179055509050506008839080600181540180825580915050906001820390600052602060002001600090919290919091509080519060200190612550929190614058565b5050505050565b600160009054906101000a900473ffffffffffffffffffffffffffffffffffffffff1673ffffffffffffffffffffffffffffffffffffffff163373ffffffffffffffffffffffffffffffffffffffff16146125b157600080fd5b6000600b60008373ffffffffffffffffffffffffffffffffffffffff1673ffffffffffffffffffffffffffffffffffffffff16815260200190815260200160002060060160006101000a81548160ff02191690831515021790555050565b600160009054906101000a900473ffffffffffffffffffffffffffffffffffffffff1673ffffffffffffffffffffffffffffffffffffffff163373ffffffffffffffffffffffffffffffffffffffff161461266957600080fd5b6007816040518082805190602001908083835b6020831061269f578051825260208201915060208101905060208303925061267c565b6001836020036101000a038019825116818451168082178552505050505050905001915050908152602001604051809103902060050160009054906101000a900460ff16156007826040518082805190602001908083835b6020831061271a57805182526020820191506020810190506020830392506126f7565b6001836020036101000a038019825116818451168082178552505050505050905001915050908152602001604051809103902060050160006101000a81548160ff02191690831515021790555050565b600160009054906101000a900473ffffffffffffffffffffffffffffffffffffffff1673ffffffffffffffffffffffffffffffffffffffff163373ffffffffffffffffffffffffffffffffffffffff16146127c457600080fd5b6127cc614176565b85816000018190525084816020019073ffffffffffffffffffffffffffffffffffffffff16908173ffffffffffffffffffffffffffffffffffffffff1681525050838160400181905250828160600181905250600081608001901515908115158152505060018160c0019015159081151581525050818160a0018190525080600b60008773ffffffffffffffffffffffffffffffffffffffff1673ffffffffffffffffffffffffffffffffffffffff16815260200190815260200160002060008201518160000190805190602001906128a6929190613fd8565b5060208201518160010160006101000a81548173ffffffffffffffffffffffffffffffffffffffff021916908373ffffffffffffffffffffffffffffffffffffffff160217905550604082015181600201908051906020019061290a929190613fd8565b506060820151816003019080519060200190612927929190613fd8565b5060808201518160040160006101000a81548160ff02191690831515021790555060a0820151816005019080519060200190612964929190613fd8565b5060c08201518160060160006101000a81548160ff021916908315150217905550905050600c8590806001815401808255809150509060018203906000526020600020016000909192909190916101000a81548173ffffffffffffffffffffffffffffffffffffffff021916908373ffffffffffffffffffffffffffffffffffffffff16021790555050505050505050565b600073ffffffffffffffffffffffffffffffffffffffff16600d60003373ffffffffffffffffffffffffffffffffffffffff1673ffffffffffffffffffffffffffffffffffffffff16815260200190815260200160002060000160009054906101000a900473ffffffffffffffffffffffffffffffffffffffff1673ffffffffffffffffffffffffffffffffffffffff161415612a9257600080fd5b6001600d60003373ffffffffffffffffffffffffffffffffffffffff1673ffffffffffffffffffffffffffffffffffffffff16815260200190815260200160002060030160006101000a81548160ff021916908315150217905550565b600160009054906101000a900473ffffffffffffffffffffffffffffffffffffffff1673ffffffffffffffffffffffffffffffffffffffff163373ffffffffffffffffffffffffffffffffffffffff1614612b4957600080fd5b8260069080519060200190612b5f929190614058565b508160029080519060200190612b76929190614058565b508060039080519060200190612b8d929190614058565b50505050565b6007836040518082805190602001908083835b60208310612bc95780518252602082019150602081019050602083039250612ba6565b6001836020036101000a038019825116818451168082178552505050505050905001915050908152602001604051809103902060050160009054906101000a900460ff16612c1657600080fd5b816007846040518082805190602001908083835b60208310612c4d5780518252602082019150602081019050602083039250612c2a565b6001836020036101000a038019825116818451168082178552505050505050905001915050908152602001604051809103902060010181905550600482908060018154018082558091505090600182039060005260206000200160009091929091909150555060016005540160058190555060016007846040518082805190602001908083835b60208310612cf75780518252602082019150602081019050602083039250612cd4565b6001836020036101000a038019825116818451168082178552505050505050905001915050908152602001604051809103902060030160006101000a81548160ff021916908315150217905550336007846040518082805190602001908083835b60208310612d7b5780518252602082019150602081019050602083039250612d58565b6001836020036101000a038019825116818451168082178552505050505050905001915050908152602001604051809103902060030160016101000a81548173ffffffffffffffffffffffffffffffffffffffff021916908373ffffffffffffffffffffffffffffffffffffffff160217905550806007846040518082805190602001908083835b60208310612e265780518252602082019150602081019050602083039250612e03565b6001836020036101000a03801982511681845116808217855250505050505090500191505090815260200160405180910390206004019080519060200190612e6f929190614058565b50505050565b6060600080600080612f35600a8781548110612e8d57fe5b906000526020600020018054600181600116156101000203166002900480601f016020809104026020016040519081016040528092919081815260200182805460018160011615610100020316600290048015612f2b5780601f10612f0057610100808354040283529160200191612f2b565b820191906000526020600020905b815481529060010190602001808311612f0e57829003601f168201915b5050505050613c7e565b9450945094509450945091939590929450565b606060006060600080606060006007886040518082805190602001908083835b60208310612f8b5780518252602082019150602081019050602083039250612f68565b6001836020036101000a03801982511681845116808217855250505050505090500191505090815260200160405180910390206000016007896040518082805190602001908083835b60208310612ff75780518252602082019150602081019050602083039250612fd4565b6001836020036101000a03801982511681845116808217855250505050505090500191505090815260200160405180910390206001015460078a6040518082805190602001908083835b602083106130645780518252602082019150602081019050602083039250613041565b6001836020036101000a038019825116818451168082178552505050505050905001915050908152602001604051809103902060020160078b6040518082805190602001908083835b602083106130d057805182526020820191506020810190506020830392506130ad565b6001836020036101000a038019825116818451168082178552505050505050905001915050908152602001604051809103902060030160009054906101000a900460ff1660078c6040518082805190602001908083835b6020831061314a5780518252602082019150602081019050602083039250613127565b6001836020036101000a038019825116818451168082178552505050505050905001915050908152602001604051809103902060030160019054906101000a900473ffffffffffffffffffffffffffffffffffffffff1660078d6040518082805190602001908083835b602083106131d757805182526020820191506020810190506020830392506131b4565b6001836020036101000a038019825116818451168082178552505050505050905001915050908152602001604051809103902060040160078e6040518082805190602001908083835b602083106132435780518252602082019150602081019050602083039250613220565b6001836020036101000a038019825116818451168082178552505050505050905001915050908152602001604051809103902060050160009054906101000a900460ff16868054600181600116156101000203166002900480601f01602080910402602001604051908101604052809291908181526020018280546001816001161561010002031660029004801561331c5780601f106132f15761010080835404028352916020019161331c565b820191906000526020600020905b8154815290600101906020018083116132ff57829003601f168201915b50505050509650848054600181600116156101000203166002900480601f0160208091040260200160405190810160405280929190818152602001828054600181600116156101000203166002900480156133b85780601f1061338d576101008083540402835291602001916133b8565b820191906000526020600020905b81548152906001019060200180831161339b57829003601f168201915b50505050509450818054600181600116156101000203166002900480601f0160208091040260200160405190810160405280929190818152602001828054600181600116156101000203166002900480156134545780601f1061342957610100808354040283529160200191613454565b820191906000526020600020905b81548152906001019060200180831161343757829003601f168201915b505050505091509650965096509650965096509650919395979092949650565b600060608060006060600d60008773ffffffffffffffffffffffffffffffffffffffff1673ffffffffffffffffffffffffffffffffffffffff16815260200190815260200160002060000160009054906101000a900473ffffffffffffffffffffffffffffffffffffffff16600d60008873ffffffffffffffffffffffffffffffffffffffff1673ffffffffffffffffffffffffffffffffffffffff168152602001908152602001600020600101600d60008973ffffffffffffffffffffffffffffffffffffffff1673ffffffffffffffffffffffffffffffffffffffff168152602001908152602001600020600201600d60008a73ffffffffffffffffffffffffffffffffffffffff1673ffffffffffffffffffffffffffffffffffffffff16815260200190815260200160002060030160009054906101000a900460ff16600d60008b73ffffffffffffffffffffffffffffffffffffffff1673ffffffffffffffffffffffffffffffffffffffff168152602001908152602001600020600401838054600181600116156101000203166002900480601f01602080910402602001604051908101604052809291908181526020018280546001816001161561010002031660029004801561368b5780601f106136605761010080835404028352916020019161368b565b820191906000526020600020905b81548152906001019060200180831161366e57829003601f168201915b50505050509350828054600181600116156101000203166002900480601f0160208091040260200160405190810160405280929190818152602001828054600181600116156101000203166002900480156137275780601f106136fc57610100808354040283529160200191613727565b820191906000526020600020905b81548152906001019060200180831161370a57829003601f168201915b50505050509250808054600181600116156101000203166002900480601f0160208091040260200160405190810160405280929190818152602001828054600181600116156101000203166002900480156137c35780601f10613798576101008083540402835291602001916137c3565b820191906000526020600020905b8154815290600101906020018083116137a657829003601f168201915b505050505090509450945094509450945091939590929450565b60606000606080600060606000600b60008973ffffffffffffffffffffffffffffffffffffffff1673ffffffffffffffffffffffffffffffffffffffff168152602001908152602001600020600001600b60008a73ffffffffffffffffffffffffffffffffffffffff1673ffffffffffffffffffffffffffffffffffffffff16815260200190815260200160002060010160009054906101000a900473ffffffffffffffffffffffffffffffffffffffff16600b60008b73ffffffffffffffffffffffffffffffffffffffff1673ffffffffffffffffffffffffffffffffffffffff168152602001908152602001600020600201600b60008c73ffffffffffffffffffffffffffffffffffffffff1673ffffffffffffffffffffffffffffffffffffffff168152602001908152602001600020600301600b60008d73ffffffffffffffffffffffffffffffffffffffff1673ffffffffffffffffffffffffffffffffffffffff16815260200190815260200160002060040160009054906101000a900460ff16600b60008e73ffffffffffffffffffffffffffffffffffffffff1673ffffffffffffffffffffffffffffffffffffffff168152602001908152602001600020600501600b60008f73ffffffffffffffffffffffffffffffffffffffff1673ffffffffffffffffffffffffffffffffffffffff16815260200190815260200160002060060160009054906101000a900460ff16868054600181600116156101000203166002900480601f016020809104026020016040519081016040528092919081815260200182805460018160011615610100020316600290048015613a8a5780601f10613a5f57610100808354040283529160200191613a8a565b820191906000526020600020905b815481529060010190602001808311613a6d57829003601f168201915b50505050509650848054600181600116156101000203166002900480601f016020809104026020016040519081016040528092919081815260200182805460018160011615610100020316600290048015613b265780601f10613afb57610100808354040283529160200191613b26565b820191906000526020600020905b815481529060010190602001808311613b0957829003601f168201915b50505050509450838054600181600116156101000203166002900480601f016020809104026020016040519081016040528092919081815260200182805460018160011615610100020316600290048015613bc25780601f10613b9757610100808354040283529160200191613bc2565b820191906000526020600020905b815481529060010190602001808311613ba557829003601f168201915b50505050509350818054600181600116156101000203166002900480601f016020809104026020016040519081016040528092919081815260200182805460018160011615610100020316600290048015613c5e5780601f10613c3357610100808354040283529160200191613c5e565b820191906000526020600020905b815481529060010190602001808311613c4157829003601f168201915b505050505091509650965096509650965096509650919395979092949650565b60606000806000806009866040518082805190602001908083835b60208310613cbc5780518252602082019150602081019050602083039250613c99565b6001836020036101000a03801982511681845116808217855250505050505090500191505090815260200160405180910390206000016009876040518082805190602001908083835b60208310613d285780518252602082019150602081019050602083039250613d05565b6001836020036101000a038019825116818451168082178552505050505050905001915050908152602001604051809103902060010160009054906101000a900473ffffffffffffffffffffffffffffffffffffffff166009886040518082805190602001908083835b60208310613db55780518252602082019150602081019050602083039250613d92565b6001836020036101000a0380198251168184511680821785525050505050509050019150509081526020016040518091039020600201546009896040518082805190602001908083835b60208310613e225780518252602082019150602081019050602083039250613dff565b6001836020036101000a038019825116818451168082178552505050505050905001915050908152602001604051809103902060030160009054906101000a900460ff1660098a6040518082805190602001908083835b60208310613e9c5780518252602082019150602081019050602083039250613e79565b6001836020036101000a038019825116818451168082178552505050505050905001915050908152602001604051809103902060030160019054906101000a900460ff16848054600181600116156101000203166002900480601f016020809104026020016040519081016040528092919081815260200182805460018160011615610100020316600290048015613f755780601f10613f4a57610100808354040283529160200191613f75565b820191906000526020600020905b815481529060010190602001808311613f5857829003601f168201915b505050505094509450945094509450945091939590929450565b6040518060a0016040528060608152602001600073ffffffffffffffffffffffffffffffffffffffff168152602001600081526020016000151581526020016000151581525090565b828054600181600116156101000203166002900490600052602060002090601f016020900481019282601f1061401957805160ff1916838001178555614047565b82800160010185558215614047579182015b8281111561404657825182559160200191906001019061402b565b5b50905061405491906141cd565b5090565b828054600181600116156101000203166002900490600052602060002090601f016020900481019282601f1061409957805160ff19168380011785556140c7565b828001600101855582156140c7579182015b828111156140c65782518255916020019190600101906140ab565b5b5090506140d491906141cd565b5090565b6040518060a00160405280600073ffffffffffffffffffffffffffffffffffffffff1681526020016060815260200160608152602001600015158152602001606081525090565b6040518060e00160405280606081526020016000815260200160608152602001600015158152602001600073ffffffffffffffffffffffffffffffffffffffff168152602001606081526020016000151581525090565b6040518060e0016040528060608152602001600073ffffffffffffffffffffffffffffffffffffffff1681526020016060815260200160608152602001600015158152602001606081526020016000151581525090565b6141ef91905b808211156141eb5760008160009055506001016141d3565b5090565b9056fea265627a7a7231582034316e1b94ee30ce7fe5ba618c894f9b3316bb1e05caf15a9bf4e3b215ba3b4e64736f6c63430005100032608060405234801561001057600080fd5b506040516109fa3803806109fa833981810160405260a081101561003357600080fd5b8101908080519060200190929190805190602001909291908051604051939291908464010000000082111561006757600080fd5b8382019150602082018581111561007d57600080fd5b825186600182028301116401000000008211171561009a57600080fd5b8083526020830192505050908051906020019080838360005b838110156100ce5780820151818401526020810190506100b3565b50505050905090810190601f1680156100fb5780820380516001836020036101000a031916815260200191505b506040526020018051604051939291908464010000000082111561011e57600080fd5b8382019150602082018581111561013457600080fd5b825186600182028301116401000000008211171561015157600080fd5b8083526020830192505050908051906020019080838360005b8381101561018557808201518184015260208101905061016a565b50505050905090810190601f1680156101b25780820380516001836020036101000a031916815260200191505b50604052602001805160405193929190846401000000008211156101d557600080fd5b838201915060208201858111156101eb57600080fd5b825186600182028301116401000000008211171561020857600080fd5b8083526020830192505050908051906020019080838360005b8381101561023c578082015181840152602081019050610221565b50505050905090810190601f1680156102695780820380516001836020036101000a031916815260200191505b50604052505050846000806101000a81548173ffffffffffffffffffffffffffffffffffffffff021916908373ffffffffffffffffffffffffffffffffffffffff16021790555082600190805190602001906102c6929190610340565b5083600260006101000a81548173ffffffffffffffffffffffffffffffffffffffff021916908373ffffffffffffffffffffffffffffffffffffffff160217905550816003908051906020019061031e929190610340565b508060049080519060200190610335929190610340565b5050505050506103e5565b828054600181600116156101000203166002900490600052602060002090601f016020900481019282601f1061038157805160ff19168380011785556103af565b828001600101855582156103af579182015b828111156103ae578251825591602001919060010190610393565b5b5090506103bc91906103c0565b5090565b6103e291905b808211156103de5760008160009055506001016103c6565b5090565b90565b610606806103f46000396000f3fe608060405234801561001057600080fd5b506004361061004b5760003560e01c8062ac80951461005057806352b9b9731461009457806359420e48146100b2578063e894d0a214610120575b600080fd5b6100926004803603602081101561006657600080fd5b81019080803573ffffffffffffffffffffffffffffffffffffffff1690602001909291905050506102ae565b005b61009c610371565b6040518082815260200191505060405180910390f35b6100de600480360360208110156100c857600080fd5b810190808035906020019092919050505061037e565b604051808273ffffffffffffffffffffffffffffffffffffffff1673ffffffffffffffffffffffffffffffffffffffff16815260200191505060405180910390f35b6101286103bf565b60405180806020018573ffffffffffffffffffffffffffffffffffffffff1673ffffffffffffffffffffffffffffffffffffffff1681526020018060200180602001848103845288818151815260200191508051906020019080838360005b838110156101a2578082015181840152602081019050610187565b50505050905090810190601f1680156101cf5780820380516001836020036101000a031916815260200191505b50848103835286818151815260200191508051906020019080838360005b838110156102085780820151818401526020810190506101ed565b50505050905090810190601f1680156102355780820380516001836020036101000a031916815260200191505b50848103825285818151815260200191508051906020019080838360005b8381101561026e578082015181840152602081019050610253565b50505050905090810190601f16801561029b5780820380516001836020036101000a031916815260200191505b5097505050505050505060405180910390f35b600260009054906101000a900473ffffffffffffffffffffffffffffffffffffffff1673ffffffffffffffffffffffffffffffffffffffff163373ffffffffffffffffffffffffffffffffffffffff161461030857600080fd5b60058190806001815401808255809150509060018203906000526020600020016000909192909190916101000a81548173ffffffffffffffffffffffffffffffffffffffff021916908373ffffffffffffffffffffffffffffffffffffffff1602179055505050565b6000600580549050905090565b60006005828154811061038d57fe5b9060005260206000200160009054906101000a900473ffffffffffffffffffffffffffffffffffffffff169050919050565b606060006060806001600260009054906101000a900473ffffffffffffffffffffffffffffffffffffffff1660036004838054600181600116156101000203166002900480601f0160208091040260200160405190810160405280929190818152602001828054600181600116156101000203166002900480156104845780601f1061045957610100808354040283529160200191610484565b820191906000526020600020905b81548152906001019060200180831161046757829003601f168201915b50505050509350818054600181600116156101000203166002900480601f0160208091040260200160405190810160405280929190818152602001828054600181600116156101000203166002900480156105205780601f106104f557610100808354040283529160200191610520565b820191906000526020600020905b81548152906001019060200180831161050357829003601f168201915b50505050509150808054600181600116156101000203166002900480601f0160208091040260200160405190810160405280929190818152602001828054600181600116156101000203166002900480156105bc5780601f10610591576101008083540402835291602001916105bc565b820191906000526020600020905b81548152906001019060200180831161059f57829003601f168201915b5050505050905093509350935093509091929356fea265627a7a72315820480390131ca3041be9bd72a874e0f85c24887f2d9ab4466800170bc3b6aea8c664736f6c63430005100032608060405234801561001057600080fd5b5060405161063f38038061063f8339818101604052606081101561003357600080fd5b8101908080519060200190929190805190602001909291908051604051939291908464010000000082111561006757600080fd5b8382019150602082018581111561007d57600080fd5b825186600182028301116401000000008211171561009a57600080fd5b8083526020830192505050908051906020019080838360005b838110156100ce5780820151818401526020810190506100b3565b50505050905090810190601f1680156100fb5780820380516001836020036101000a031916815260200191505b50604052505050826000806101000a81548173ffffffffffffffffffffffffffffffffffffffff021916908373ffffffffffffffffffffffffffffffffffffffff16021790555080600190805190602001906101589291906101a2565b5081600260006101000a81548173ffffffffffffffffffffffffffffffffffffffff021916908373ffffffffffffffffffffffffffffffffffffffff160217905550505050610247565b828054600181600116156101000203166002900490600052602060002090601f016020900481019282601f106101e357805160ff1916838001178555610211565b82800160010185558215610211579182015b828111156102105782518255916020019190600101906101f5565b5b50905061021e9190610222565b5090565b61024491905b80821115610240576000816000905550600101610228565b5090565b90565b6103e9806102566000396000f3fe608060405234801561001057600080fd5b506004361061004b5760003560e01c8062ac8095146100505780632352b7b31461009457806352b9b9731461014a57806359420e4814610168575b600080fd5b6100926004803603602081101561006657600080fd5b81019080803573ffffffffffffffffffffffffffffffffffffffff1690602001909291905050506101d6565b005b61009c610299565b60405180806020018373ffffffffffffffffffffffffffffffffffffffff1673ffffffffffffffffffffffffffffffffffffffff168152602001828103825284818151815260200191508051906020019080838360005b8381101561010e5780820151818401526020810190506100f3565b50505050905090810190601f16801561013b5780820380516001836020036101000a031916815260200191505b50935050505060405180910390f35b610152610366565b6040518082815260200191505060405180910390f35b6101946004803603602081101561017e57600080fd5b8101908080359060200190929190505050610373565b604051808273ffffffffffffffffffffffffffffffffffffffff1673ffffffffffffffffffffffffffffffffffffffff16815260200191505060405180910390f35b600260009054906101000a900473ffffffffffffffffffffffffffffffffffffffff1673ffffffffffffffffffffffffffffffffffffffff163373ffffffffffffffffffffffffffffffffffffffff161461023057600080fd5b60038190806001815401808255809150509060018203906000526020600020016000909192909190916101000a81548173ffffffffffffffffffffffffffffffffffffffff021916908373ffffffffffffffffffffffffffffffffffffffff1602179055505050565b606060006001600260009054906101000a900473ffffffffffffffffffffffffffffffffffffffff16818054600181600116156101000203166002900480601f0160208091040260200160405190810160405280929190818152602001828054600181600116156101000203166002900480156103575780601f1061032c57610100808354040283529160200191610357565b820191906000526020600020905b81548152906001019060200180831161033a57829003601f168201915b50505050509150915091509091565b6000600380549050905090565b60006003828154811061038257fe5b9060005260206000200160009054906101000a900473ffffffffffffffffffffffffffffffffffffffff16905091905056fea265627a7a7231582061164b67dba2685d5ea39425efc40a74d4d5cde6fcad78879ef799b85de37d0564736f6c63430005100032a265627a7a72315820f8a862fa95aa745bb9d613be2e7eee4326d9691814b995d02f9216b42f74d49b64736f6c63430005100032",
  "source": "pragma solidity >=0.5.0 <0.9.0;\nimport \"./Employee.sol\";\nimport \"./OrganizationEndorser.sol\";\nimport \"./PayrollAdmin.sol\";\n\ncontract Admin {\n  address public owner;\n\n  constructor() public {\n    owner = msg.sender;\n  }\n\n  modifier onlyOwner() {\n    require(msg.sender == owner);\n    _;\n  }\n\n  mapping(address => address) registeredEmployeesmap;\n  mapping(address => address) registeredOrganizationmap;\n  mapping(address => address) registeredPayrollAdminmap;\n  address[] registeredEmployees;\n  address[] registeredOrganization;\n  address[] registeredPayrollAdmin;\n\n  function registerUser(\n    address EthAddress,\n    string memory Name,\n    string memory Location,\n    string memory Description,\n    uint256 Role\n  ) public onlyOwner {\n    if (Role == 1) {\n      Employee newEmployee = new Employee(owner, EthAddress, Name, Location, Description);\n      registeredEmployeesmap[EthAddress] = address(newEmployee);\n      registeredEmployees.push(EthAddress);\n    } else if(Role == 2) {\n      OrganizationEndorser newOrganizationEndorser = new OrganizationEndorser(owner, EthAddress, Name, Location, Description);\n      registeredOrganizationmap[EthAddress] = address(newOrganizationEndorser);\n      registeredOrganization.push(EthAddress);\n    }\n    else if(Role == 3) {\n      PayrollAdmin newPayrollAdmin = new PayrollAdmin(owner,EthAddress,Name);\n      registeredPayrollAdminmap[EthAddress] = address(newPayrollAdmin);\n      registeredPayrollAdmin.push(EthAddress);\n    }\n  }\n\n  /****************************************************************USER SECTION**************************************************/\n\n  function isEmployee(address _employeeAddress) public view returns (bool) {\n    return registeredEmployeesmap[_employeeAddress] != address(0x0);\n  }\n\n  function isOrganizationEndorser(address _organizationEndorser) public view returns (bool) {\n    return registeredOrganizationmap[_organizationEndorser] != address(0x0);\n  }\n\n  function employeeCount() public view returns (uint256) {\n    return registeredEmployees.length;\n  }\n\n  function getEmployeeContractByAddress(address _employee) public view returns (address)\n  {\n    return registeredEmployeesmap[_employee];\n  }\n\n  function getEmployeeContractByIndex(uint256 index) public view returns (address)\n  {\n    return getEmployeeContractByAddress(registeredEmployees[index]);\n  }\n\n  function OrganizationEndorserCount() public view returns (uint256) {\n    return registeredOrganization.length;\n  }\n\n  function getOrganizationContractByAddress(address _organization) public view returns (address)\n  {\n    return registeredOrganizationmap[_organization];\n  }\n\n  function getOrganizationContractByIndex(uint256 index) public view returns (address)\n  {\n    return getOrganizationContractByAddress(registeredOrganization[index]);\n  }\n\n  //  Payroll Admin methods added by Junaid\n  function isPayrollAdmin(address _payrollAdmin) public view returns (bool)\n  {\n    return registeredPayrollAdminmap[_payrollAdmin] != address(0x0);\n  }\n\n  function PayrollAdminCount() public view returns (uint256) {\n    return registeredPayrollAdmin.length;\n  }\n\n  function getPayrollAdminContractByAddress(address _payroll_admin) public view returns (address)\n  {\n    return registeredPayrollAdminmap[_payroll_admin];\n  }\n\n  function getPayrollAdminContractByIndex(uint256 index) public view returns (address)\n  {\n    return getPayrollAdminContractByAddress(registeredPayrollAdmin[index]);\n  }\n}\n",
  "sourcePath": "/Users/mobilelive/Work/mobileLIVE/hrms-blockchain-app/src/contracts/Admin.sol",
  "compiler": {
    "name": "solc",
    "version": "0.5.16+commit.9c3226ce.Emscripten.clang"
  },
  "schemaVersion": "3.4.13",
  "updatedAt": "2023-03-31T18:52:18.248Z",
  "devdoc": {
    "methods": {}
  },
  "userdoc": {
    "methods": {
      "isEmployee(address)": {
        "notice": "**************************************************************USER SECTION*************************************************"
      }
    }
  }
}