{
  "contractName": "Employee",
  "abi": [
    {
      "inputs": [
        {
          "internalType": "address",
          "name": "_admin",
          "type": "address"
        },
        {
          "internalType": "address",
          "name": "_employee_address",
          "type": "address"
        },
        {
          "internalType": "string",
          "name": "_name",
          "type": "string"
        },
        {
          "internalType": "string",
          "name": "_description",
          "type": "string"
        },
        {
          "internalType": "string",
          "name": "_location",
          "type": "string"
        }
      ],
      "stateMutability": "nonpayable",
      "type": "constructor"
    },
    {
      "anonymous": false,
      "inputs": [
        {
          "indexed": true,
          "internalType": "bytes32",
          "name": "role",
          "type": "bytes32"
        },
        {
          "indexed": true,
          "internalType": "bytes32",
          "name": "previousAdminRole",
          "type": "bytes32"
        },
        {
          "indexed": true,
          "internalType": "bytes32",
          "name": "newAdminRole",
          "type": "bytes32"
        }
      ],
      "name": "RoleAdminChanged",
      "type": "event"
    },
    {
      "anonymous": false,
      "inputs": [
        {
          "indexed": true,
          "internalType": "bytes32",
          "name": "role",
          "type": "bytes32"
        },
        {
          "indexed": true,
          "internalType": "address",
          "name": "account",
          "type": "address"
        },
        {
          "indexed": true,
          "internalType": "address",
          "name": "sender",
          "type": "address"
        }
      ],
      "name": "RoleGranted",
      "type": "event"
    },
    {
      "anonymous": false,
      "inputs": [
        {
          "indexed": true,
          "internalType": "bytes32",
          "name": "role",
          "type": "bytes32"
        },
        {
          "indexed": true,
          "internalType": "address",
          "name": "account",
          "type": "address"
        },
        {
          "indexed": true,
          "internalType": "address",
          "name": "sender",
          "type": "address"
        }
      ],
      "name": "RoleRevoked",
      "type": "event"
    },
    {
      "inputs": [],
      "name": "DEFAULT_ADMIN_ROLE",
      "outputs": [
        {
          "internalType": "bytes32",
          "name": "",
          "type": "bytes32"
        }
      ],
      "stateMutability": "view",
      "type": "function"
    },
    {
      "inputs": [],
      "name": "EMPLOYEE_ROLE",
      "outputs": [
        {
          "internalType": "bytes32",
          "name": "",
          "type": "bytes32"
        }
      ],
      "stateMutability": "view",
      "type": "function"
    },
    {
      "inputs": [
        {
          "internalType": "bytes32",
          "name": "role",
          "type": "bytes32"
        }
      ],
      "name": "getRoleAdmin",
      "outputs": [
        {
          "internalType": "bytes32",
          "name": "",
          "type": "bytes32"
        }
      ],
      "stateMutability": "view",
      "type": "function"
    },
    {
      "inputs": [
        {
          "internalType": "bytes32",
          "name": "role",
          "type": "bytes32"
        },
        {
          "internalType": "address",
          "name": "account",
          "type": "address"
        }
      ],
      "name": "grantRole",
      "outputs": [],
      "stateMutability": "nonpayable",
      "type": "function"
    },
    {
      "inputs": [
        {
          "internalType": "bytes32",
          "name": "role",
          "type": "bytes32"
        },
        {
          "internalType": "address",
          "name": "account",
          "type": "address"
        }
      ],
      "name": "hasRole",
      "outputs": [
        {
          "internalType": "bool",
          "name": "",
          "type": "bool"
        }
      ],
      "stateMutability": "view",
      "type": "function"
    },
    {
      "inputs": [
        {
          "internalType": "uint256",
          "name": "",
          "type": "uint256"
        }
      ],
      "name": "overallEndorsement",
      "outputs": [
        {
          "internalType": "uint256",
          "name": "",
          "type": "uint256"
        }
      ],
      "stateMutability": "view",
      "type": "function"
    },
    {
      "inputs": [
        {
          "internalType": "bytes32",
          "name": "role",
          "type": "bytes32"
        },
        {
          "internalType": "address",
          "name": "account",
          "type": "address"
        }
      ],
      "name": "renounceRole",
      "outputs": [],
      "stateMutability": "nonpayable",
      "type": "function"
    },
    {
      "inputs": [
        {
          "internalType": "bytes32",
          "name": "role",
          "type": "bytes32"
        },
        {
          "internalType": "address",
          "name": "account",
          "type": "address"
        }
      ],
      "name": "revokeRole",
      "outputs": [],
      "stateMutability": "nonpayable",
      "type": "function"
    },
    {
      "inputs": [
        {
          "internalType": "bytes4",
          "name": "interfaceId",
          "type": "bytes4"
        }
      ],
      "name": "supportsInterface",
      "outputs": [
        {
          "internalType": "bool",
          "name": "",
          "type": "bool"
        }
      ],
      "stateMutability": "view",
      "type": "function"
    },
    {
      "inputs": [],
      "name": "getEmployeeInfo",
      "outputs": [
        {
          "internalType": "address",
          "name": "",
          "type": "address"
        },
        {
          "internalType": "string",
          "name": "",
          "type": "string"
        },
        {
          "internalType": "string",
          "name": "",
          "type": "string"
        },
        {
          "internalType": "string",
          "name": "",
          "type": "string"
        },
        {
          "internalType": "uint256",
          "name": "",
          "type": "uint256"
        },
        {
          "internalType": "uint256",
          "name": "",
          "type": "uint256"
        }
      ],
      "stateMutability": "view",
      "type": "function"
    },
    {
      "inputs": [
        {
          "internalType": "string",
          "name": "_name",
          "type": "string"
        },
        {
          "internalType": "string",
          "name": "_descrip",
          "type": "string"
        },
        {
          "internalType": "string",
          "name": "_location",
          "type": "string"
        }
      ],
      "name": "editInfo",
      "outputs": [],
      "stateMutability": "nonpayable",
      "type": "function"
    },
    {
      "inputs": [
        {
          "internalType": "string",
          "name": "_name",
          "type": "string"
        },
        {
          "internalType": "string",
          "name": "_experience",
          "type": "string"
        }
      ],
      "name": "addSkill",
      "outputs": [],
      "stateMutability": "nonpayable",
      "type": "function"
    },
    {
      "inputs": [
        {
          "internalType": "string",
          "name": "_name",
          "type": "string"
        },
        {
          "internalType": "uint256",
          "name": "_overall_percentage",
          "type": "uint256"
        },
        {
          "internalType": "string",
          "name": "_review",
          "type": "string"
        }
      ],
      "name": "endorseSkill",
      "outputs": [],
      "stateMutability": "nonpayable",
      "type": "function"
    },
    {
      "inputs": [],
      "name": "getSkillCount",
      "outputs": [
        {
          "internalType": "uint256",
          "name": "",
          "type": "uint256"
        }
      ],
      "stateMutability": "view",
      "type": "function"
    },
    {
      "inputs": [
        {
          "internalType": "uint256",
          "name": "_index",
          "type": "uint256"
        }
      ],
      "name": "getSkillByIndex",
      "outputs": [
        {
          "internalType": "string",
          "name": "",
          "type": "string"
        },
        {
          "internalType": "uint256",
          "name": "",
          "type": "uint256"
        },
        {
          "internalType": "string",
          "name": "",
          "type": "string"
        },
        {
          "internalType": "bool",
          "name": "",
          "type": "bool"
        },
        {
          "internalType": "address",
          "name": "",
          "type": "address"
        },
        {
          "internalType": "string",
          "name": "",
          "type": "string"
        },
        {
          "internalType": "bool",
          "name": "",
          "type": "bool"
        }
      ],
      "stateMutability": "view",
      "type": "function"
    },
    {
      "inputs": [
        {
          "internalType": "string",
          "name": "_name",
          "type": "string"
        }
      ],
      "name": "deleteSkill",
      "outputs": [],
      "stateMutability": "nonpayable",
      "type": "function"
    },
    {
      "inputs": [
        {
          "internalType": "string",
          "name": "_name",
          "type": "string"
        },
        {
          "internalType": "address",
          "name": "_organization",
          "type": "address"
        },
        {
          "internalType": "uint256",
          "name": "_score",
          "type": "uint256"
        }
      ],
      "name": "addCertification",
      "outputs": [],
      "stateMutability": "nonpayable",
      "type": "function"
    },
    {
      "inputs": [
        {
          "internalType": "string",
          "name": "_name",
          "type": "string"
        }
      ],
      "name": "endorseCertification",
      "outputs": [],
      "stateMutability": "nonpayable",
      "type": "function"
    },
    {
      "inputs": [],
      "name": "getCertificationCount",
      "outputs": [
        {
          "internalType": "uint256",
          "name": "",
          "type": "uint256"
        }
      ],
      "stateMutability": "view",
      "type": "function"
    },
    {
      "inputs": [
        {
          "internalType": "uint256",
          "name": "_index",
          "type": "uint256"
        }
      ],
      "name": "getCertificationByIndex",
      "outputs": [
        {
          "internalType": "string",
          "name": "",
          "type": "string"
        },
        {
          "internalType": "address",
          "name": "",
          "type": "address"
        },
        {
          "internalType": "uint256",
          "name": "",
          "type": "uint256"
        },
        {
          "internalType": "bool",
          "name": "",
          "type": "bool"
        },
        {
          "internalType": "bool",
          "name": "",
          "type": "bool"
        }
      ],
      "stateMutability": "view",
      "type": "function"
    },
    {
      "inputs": [
        {
          "internalType": "string",
          "name": "_name",
          "type": "string"
        }
      ],
      "name": "deleteCertification",
      "outputs": [],
      "stateMutability": "nonpayable",
      "type": "function"
    },
    {
      "inputs": [
        {
          "internalType": "string",
          "name": "_role",
          "type": "string"
        },
        {
          "internalType": "address",
          "name": "_organization",
          "type": "address"
        },
        {
          "internalType": "string",
          "name": "_startdate",
          "type": "string"
        },
        {
          "internalType": "string",
          "name": "_enddate",
          "type": "string"
        },
        {
          "internalType": "string",
          "name": "_description",
          "type": "string"
        }
      ],
      "name": "addWorkExp",
      "outputs": [],
      "stateMutability": "nonpayable",
      "type": "function"
    },
    {
      "inputs": [],
      "name": "endorseWorkExp",
      "outputs": [],
      "stateMutability": "nonpayable",
      "type": "function"
    },
    {
      "inputs": [],
      "name": "getWorkExpCount",
      "outputs": [
        {
          "internalType": "uint256",
          "name": "",
          "type": "uint256"
        }
      ],
      "stateMutability": "view",
      "type": "function"
    },
    {
      "inputs": [
        {
          "internalType": "uint256",
          "name": "_index",
          "type": "uint256"
        }
      ],
      "name": "getWorkExpByIndex",
      "outputs": [
        {
          "internalType": "string",
          "name": "",
          "type": "string"
        },
        {
          "internalType": "address",
          "name": "",
          "type": "address"
        },
        {
          "internalType": "string",
          "name": "",
          "type": "string"
        },
        {
          "internalType": "string",
          "name": "",
          "type": "string"
        },
        {
          "internalType": "bool",
          "name": "",
          "type": "bool"
        },
        {
          "internalType": "string",
          "name": "",
          "type": "string"
        },
        {
          "internalType": "bool",
          "name": "",
          "type": "bool"
        }
      ],
      "stateMutability": "view",
      "type": "function"
    },
    {
      "inputs": [
        {
          "internalType": "address",
          "name": "org",
          "type": "address"
        }
      ],
      "name": "deleteWorkExp",
      "outputs": [],
      "stateMutability": "nonpayable",
      "type": "function"
    },
    {
      "inputs": [
        {
          "internalType": "address",
          "name": "_institute",
          "type": "address"
        },
        {
          "internalType": "string",
          "name": "_startdate",
          "type": "string"
        },
        {
          "internalType": "string",
          "name": "_enddate",
          "type": "string"
        },
        {
          "internalType": "string",
          "name": "_description",
          "type": "string"
        }
      ],
      "name": "addEducation",
      "outputs": [],
      "stateMutability": "nonpayable",
      "type": "function"
    },
    {
      "inputs": [],
      "name": "endorseEducation",
      "outputs": [],
      "stateMutability": "nonpayable",
      "type": "function"
    },
    {
      "inputs": [],
      "name": "getEducationCount",
      "outputs": [
        {
          "internalType": "uint256",
          "name": "",
          "type": "uint256"
        }
      ],
      "stateMutability": "view",
      "type": "function"
    },
    {
      "inputs": [
        {
          "internalType": "uint256",
          "name": "_index",
          "type": "uint256"
        }
      ],
      "name": "getEducationByIndex",
      "outputs": [
        {
          "internalType": "address",
          "name": "",
          "type": "address"
        },
        {
          "internalType": "string",
          "name": "",
          "type": "string"
        },
        {
          "internalType": "string",
          "name": "",
          "type": "string"
        },
        {
          "internalType": "bool",
          "name": "",
          "type": "bool"
        },
        {
          "internalType": "string",
          "name": "",
          "type": "string"
        }
      ],
      "stateMutability": "view",
      "type": "function"
    }
  ],
  "bytecode": "0x60806040523480156200001157600080fd5b5060405162004c5038038062004c50833981810160405281019062000037919062000479565b6200004c6000801b866200010860201b60201c565b6200007e7f5a3425ea67e73c95853ecfc0c443062de292a303c186bc2aac1178ae1b86c62a856200010860201b60201c565b82600690816200008f9190620007a9565b5083600160006101000a81548173ffffffffffffffffffffffffffffffffffffffff021916908373ffffffffffffffffffffffffffffffffffffffff1602179055508160029081620000e29190620007a9565b508060039081620000f49190620007a9565b506000600581905550505050505062000890565b6200011a82826200011e60201b60201c565b5050565b6200013082826200020f60201b60201c565b6200020b57600160008084815260200190815260200160002060000160008373ffffffffffffffffffffffffffffffffffffffff1673ffffffffffffffffffffffffffffffffffffffff16815260200190815260200160002060006101000a81548160ff021916908315150217905550620001b06200027960201b60201c565b73ffffffffffffffffffffffffffffffffffffffff168173ffffffffffffffffffffffffffffffffffffffff16837f2f8788117e7eff1d82e926ec794901d17c78024a50270940304540a733656f0d60405160405180910390a45b5050565b600080600084815260200190815260200160002060000160008373ffffffffffffffffffffffffffffffffffffffff1673ffffffffffffffffffffffffffffffffffffffff16815260200190815260200160002060009054906101000a900460ff16905092915050565b600033905090565b6000604051905090565b600080fd5b600080fd5b600073ffffffffffffffffffffffffffffffffffffffff82169050919050565b6000620002c28262000295565b9050919050565b620002d481620002b5565b8114620002e057600080fd5b50565b600081519050620002f481620002c9565b92915050565b600080fd5b600080fd5b6000601f19601f8301169050919050565b7f4e487b7100000000000000000000000000000000000000000000000000000000600052604160045260246000fd5b6200034f8262000304565b810181811067ffffffffffffffff8211171562000371576200037062000315565b5b80604052505050565b60006200038662000281565b905062000394828262000344565b919050565b600067ffffffffffffffff821115620003b757620003b662000315565b5b620003c28262000304565b9050602081019050919050565b60005b83811015620003ef578082015181840152602081019050620003d2565b60008484015250505050565b6000620004126200040c8462000399565b6200037a565b905082815260208101848484011115620004315762000430620002ff565b5b6200043e848285620003cf565b509392505050565b600082601f8301126200045e576200045d620002fa565b5b815162000470848260208601620003fb565b91505092915050565b600080600080600060a086880312156200049857620004976200028b565b5b6000620004a888828901620002e3565b9550506020620004bb88828901620002e3565b945050604086015167ffffffffffffffff811115620004df57620004de62000290565b5b620004ed8882890162000446565b935050606086015167ffffffffffffffff81111562000511576200051062000290565b5b6200051f8882890162000446565b925050608086015167ffffffffffffffff81111562000543576200054262000290565b5b620005518882890162000446565b9150509295509295909350565b600081519050919050565b7f4e487b7100000000000000000000000000000000000000000000000000000000600052602260045260246000fd5b60006002820490506001821680620005b157607f821691505b602082108103620005c757620005c662000569565b5b50919050565b60008190508160005260206000209050919050565b60006020601f8301049050919050565b600082821b905092915050565b600060088302620006317fffffffffffffffffffffffffffffffffffffffffffffffffffffffffffffffff82620005f2565b6200063d8683620005f2565b95508019841693508086168417925050509392505050565b6000819050919050565b6000819050919050565b60006200068a620006846200067e8462000655565b6200065f565b62000655565b9050919050565b6000819050919050565b620006a68362000669565b620006be620006b58262000691565b848454620005ff565b825550505050565b600090565b620006d5620006c6565b620006e28184846200069b565b505050565b5b818110156200070a57620006fe600082620006cb565b600181019050620006e8565b5050565b601f82111562000759576200072381620005cd565b6200072e84620005e2565b810160208510156200073e578190505b620007566200074d85620005e2565b830182620006e7565b50505b505050565b600082821c905092915050565b60006200077e600019846008026200075e565b1980831691505092915050565b60006200079983836200076b565b9150826002028217905092915050565b620007b4826200055e565b67ffffffffffffffff811115620007d057620007cf62000315565b5b620007dc825462000598565b620007e98282856200070e565b600060209050601f8311600181146200082157600084156200080c578287015190505b6200081885826200078b565b86555062000888565b601f1984166200083186620005cd565b60005b828110156200085b5784890151825560018201915060208501945060208101905062000834565b868310156200087b578489015162000877601f8916826200076b565b8355505b6001600288020188555050505b505050505050565b6143b080620008a06000396000f3fe608060405234801561001057600080fd5b50600436106101da5760003560e01c806394fb3da711610104578063d862ae87116100a2578063f5e616a611610071578063f5e616a614610554578063fc017f251461055e578063fdb103611461057a578063fee7989e14610596576101da565b8063d862ae87146104e4578063e260175114610500578063eda3467c1461051c578063f1d9efb214610538576101da565b8063c07f7d16116100de578063c07f7d161461045a578063cf6431c614610476578063d547741f14610492578063d57e0ad6146104ae576101da565b806394fb3da7146103fb578063a217fddf14610419578063a3e3bf7d14610437576101da565b8063444fc6621161017c578063645f29a81161014b578063645f29a81461034b5780637b1d2d001461037f5780637c067d8d1461039b57806391d14854146103cb576101da565b8063444fc662146102cf57806344afd1341461030557806344f034ae146103235780636212fa021461032d576101da565b8063248a9ca3116101b8578063248a9ca3146102495780632a4cab90146102795780632f2ff15d1461029757806336568abe146102b3576101da565b806301ffc9a7146101df57806305f53b291461020f5780632186879c1461022d575b600080fd5b6101f960048036038101906101f491906130d3565b6105ca565b604051610206919061311b565b60405180910390f35b610217610644565b604051610224919061314f565b60405180910390f35b610247600480360381019061024291906132b0565b610651565b005b610263600480360381019061025e919061332f565b610747565b604051610270919061336b565b60405180910390f35b610281610766565b60405161028e919061336b565b60405180910390f35b6102b160048036038101906102ac91906133e4565b61078a565b005b6102cd60048036038101906102c891906133e4565b6107ab565b005b6102e960048036038101906102e49190613450565b61082e565b6040516102fc979695949392919061350b565b60405180910390f35b61030d610903565b60405161031a919061314f565b60405180910390f35b61032b610910565b005b610335610a3e565b604051610342919061314f565b60405180910390f35b61036560048036038101906103609190613450565b610a4b565b60405161037695949392919061358f565b60405180910390f35b610399600480360381019061039491906135f7565b610aae565b005b6103b560048036038101906103b09190613450565b610cb2565b6040516103c2919061314f565b60405180910390f35b6103e560048036038101906103e091906133e4565b610cd6565b6040516103f2919061311b565b60405180910390f35b610403610d40565b604051610410919061314f565b60405180910390f35b610421610d4d565b60405161042e919061336b565b60405180910390f35b61043f610d54565b60405161045196959493929190613666565b60405180910390f35b610474600480360381019061046f91906136dc565b610f44565b005b610490600480360381019061048b91906132b0565b611191565b005b6104ac60048036038101906104a791906133e4565b61127d565b005b6104c860048036038101906104c39190613450565b61129e565b6040516104db9796959493929190613797565b60405180910390f35b6104fe60048036038101906104f99190613822565b61130b565b005b61051a6004803603810190610515919061389a565b61150c565b005b610536600480360381019061053191906132b0565b6115f5565b005b610552600480360381019061054d91906138c7565b6116eb565b005b61055c611989565b005b610578600480360381019061057391906139b2565b611ab7565b005b610594600480360381019061058f9190613a59565b611b77565b005b6105b060048036038101906105ab9190613450565b611d17565b6040516105c1959493929190613ae4565b60405180910390f35b60007f7965db0b000000000000000000000000000000000000000000000000000000007bffffffffffffffffffffffffffffffffffffffffffffffffffffffff1916827bffffffffffffffffffffffffffffffffffffffffffffffffffffffff1916148061063d575061063c82611de1565b5b9050919050565b6000600880549050905090565b61069d7f5a3425ea67e73c95853ecfc0c443062de292a303c186bc2aac1178ae1b86c62a600160009054906101000a900473ffffffffffffffffffffffffffffffffffffffff16610cd6565b6106dc576040517f08c379a00000000000000000000000000000000000000000000000000000000081526004016106d390613b8a565b60405180910390fd5b6009816040516106ec9190613be6565b908152602001604051809103902060030160019054906101000a900460ff161560098260405161071c9190613be6565b908152602001604051809103902060030160016101000a81548160ff02191690831515021790555050565b6000806000838152602001908152602001600020600101549050919050565b7f5a3425ea67e73c95853ecfc0c443062de292a303c186bc2aac1178ae1b86c62a81565b61079382610747565b61079c81611e4b565b6107a68383611e5f565b505050565b6107b3611f3f565b73ffffffffffffffffffffffffffffffffffffffff168173ffffffffffffffffffffffffffffffffffffffff1614610820576040517f08c379a000000000000000000000000000000000000000000000000000000000815260040161081790613c6f565b60405180910390fd5b61082a8282611f47565b5050565b606060006060600080606060006108ea6008898154811061085257610851613c8f565b5b90600052602060002001805461086790613ced565b80601f016020809104026020016040519081016040528092919081815260200182805461089390613ced565b80156108e05780601f106108b5576101008083540402835291602001916108e0565b820191906000526020600020905b8154815290600101906020018083116108c357829003601f168201915b5050505050612028565b9650965096509650965096509650919395979092949650565b6000600a80549050905090565b600073ffffffffffffffffffffffffffffffffffffffff16600b60003373ffffffffffffffffffffffffffffffffffffffff1673ffffffffffffffffffffffffffffffffffffffff16815260200190815260200160002060010160009054906101000a900473ffffffffffffffffffffffffffffffffffffffff1673ffffffffffffffffffffffffffffffffffffffff16036109e1576040517f08c379a00000000000000000000000000000000000000000000000000000000081526004016109d890613d6a565b60405180910390fd5b6001600b60003373ffffffffffffffffffffffffffffffffffffffff1673ffffffffffffffffffffffffffffffffffffffff16815260200190815260200160002060040160006101000a81548160ff021916908315150217905550565b6000600e80549050905090565b600060608060006060610a9b600e8781548110610a6b57610a6a613c8f565b5b9060005260206000200160009054906101000a900473ffffffffffffffffffffffffffffffffffffffff16612317565b9450945094509450945091939590929450565b610afa7f5a3425ea67e73c95853ecfc0c443062de292a303c186bc2aac1178ae1b86c62a600160009054906101000a900473ffffffffffffffffffffffffffffffffffffffff16610cd6565b610b39576040517f08c379a0000000000000000000000000000000000000000000000000000000008152600401610b3090613b8a565b60405180910390fd5b610b41612f29565b83816000018190525082816020019073ffffffffffffffffffffffffffffffffffffffff16908173ffffffffffffffffffffffffffffffffffffffff1681525050818160400181815250506000816060019015159081151581525050600181608001901515908115158152505080600985604051610bbf9190613be6565b90815260200160405180910390206000820151816000019081610be29190613f36565b5060208201518160010160006101000a81548173ffffffffffffffffffffffffffffffffffffffff021916908373ffffffffffffffffffffffffffffffffffffffff1602179055506040820151816002015560608201518160030160006101000a81548160ff02191690831515021790555060808201518160030160016101000a81548160ff021916908315150217905550905050600a84908060018154018082558091505060019003906000526020600020016000909190919091509081610cab9190613f36565b5050505050565b60048181548110610cc257600080fd5b906000526020600020016000915090505481565b600080600084815260200190815260200160002060000160008373ffffffffffffffffffffffffffffffffffffffff1673ffffffffffffffffffffffffffffffffffffffff16815260200190815260200160002060009054906101000a900460ff16905092915050565b6000600c80549050905090565b6000801b81565b60006060806060600080600160009054906101000a900473ffffffffffffffffffffffffffffffffffffffff166006600260036000600554848054610d9890613ced565b80601f0160208091040260200160405190810160405280929190818152602001828054610dc490613ced565b8015610e115780601f10610de657610100808354040283529160200191610e11565b820191906000526020600020905b815481529060010190602001808311610df457829003601f168201915b50505050509450838054610e2490613ced565b80601f0160208091040260200160405190810160405280929190818152602001828054610e5090613ced565b8015610e9d5780601f10610e7257610100808354040283529160200191610e9d565b820191906000526020600020905b815481529060010190602001808311610e8057829003601f168201915b50505050509350828054610eb090613ced565b80601f0160208091040260200160405190810160405280929190818152602001828054610edc90613ced565b8015610f295780601f10610efe57610100808354040283529160200191610f29565b820191906000526020600020905b815481529060010190602001808311610f0c57829003601f168201915b50505050509250955095509550955095509550909192939495565b610f907f5a3425ea67e73c95853ecfc0c443062de292a303c186bc2aac1178ae1b86c62a600160009054906101000a900473ffffffffffffffffffffffffffffffffffffffff16610cd6565b610fcf576040517f08c379a0000000000000000000000000000000000000000000000000000000008152600401610fc690613b8a565b60405180910390fd5b610fd7612f72565b84816000019073ffffffffffffffffffffffffffffffffffffffff16908173ffffffffffffffffffffffffffffffffffffffff1681525050838160200181905250828160400181905250600081606001901515908115158152505081816080018190525080600d60008773ffffffffffffffffffffffffffffffffffffffff1673ffffffffffffffffffffffffffffffffffffffff16815260200190815260200160002060008201518160000160006101000a81548173ffffffffffffffffffffffffffffffffffffffff021916908373ffffffffffffffffffffffffffffffffffffffff16021790555060208201518160010190816110d79190613f36565b5060408201518160020190816110ed9190613f36565b5060608201518160030160006101000a81548160ff02191690831515021790555060808201518160040190816111239190613f36565b50905050600e859080600181540180825580915050600190039060005260206000200160009091909190916101000a81548173ffffffffffffffffffffffffffffffffffffffff021916908373ffffffffffffffffffffffffffffffffffffffff1602179055505050505050565b6009816040516111a19190613be6565b908152602001604051809103902060010160009054906101000a900473ffffffffffffffffffffffffffffffffffffffff1673ffffffffffffffffffffffffffffffffffffffff163373ffffffffffffffffffffffffffffffffffffffff1614611240576040517f08c379a000000000000000000000000000000000000000000000000000000000815260040161123790614054565b60405180910390fd5b60016009826040516112529190613be6565b908152602001604051809103902060030160006101000a81548160ff02191690831515021790555050565b61128682610747565b61128f81611e4b565b6112998383611f47565b505050565b606060006060806000606060006112f2600c89815481106112c2576112c1613c8f565b5b9060005260206000200160009054906101000a900473ffffffffffffffffffffffffffffffffffffffff16612650565b9650965096509650965096509650919395979092949650565b6113577f5a3425ea67e73c95853ecfc0c443062de292a303c186bc2aac1178ae1b86c62a600160009054906101000a900473ffffffffffffffffffffffffffffffffffffffff16610cd6565b611396576040517f08c379a000000000000000000000000000000000000000000000000000000000815260040161138d90613b8a565b60405180910390fd5b61139e612fb9565b8281600001819052508181604001819052506000816020018181525050600081606001901515908115158152505060018160c0019015159081151581525050806007846040516113ee9190613be6565b908152602001604051809103902060008201518160000190816114119190613f36565b506020820151816001015560408201518160020190816114319190613f36565b5060608201518160030160006101000a81548160ff02191690831515021790555060808201518160030160016101000a81548173ffffffffffffffffffffffffffffffffffffffff021916908373ffffffffffffffffffffffffffffffffffffffff16021790555060a08201518160040190816114ae9190613f36565b5060c08201518160050160006101000a81548160ff0219169083151502179055509050506008839080600181540180825580915050600190039060005260206000200160009091909190915090816115069190613f36565b50505050565b6115587f5a3425ea67e73c95853ecfc0c443062de292a303c186bc2aac1178ae1b86c62a600160009054906101000a900473ffffffffffffffffffffffffffffffffffffffff16610cd6565b611597576040517f08c379a000000000000000000000000000000000000000000000000000000000815260040161158e90613b8a565b60405180910390fd5b6000600b60008373ffffffffffffffffffffffffffffffffffffffff1673ffffffffffffffffffffffffffffffffffffffff16815260200190815260200160002060060160006101000a81548160ff02191690831515021790555050565b6116417f5a3425ea67e73c95853ecfc0c443062de292a303c186bc2aac1178ae1b86c62a600160009054906101000a900473ffffffffffffffffffffffffffffffffffffffff16610cd6565b611680576040517f08c379a000000000000000000000000000000000000000000000000000000000815260040161167790613b8a565b60405180910390fd5b6007816040516116909190613be6565b908152602001604051809103902060050160009054906101000a900460ff16156007826040516116c09190613be6565b908152602001604051809103902060050160006101000a81548160ff02191690831515021790555050565b6117377f5a3425ea67e73c95853ecfc0c443062de292a303c186bc2aac1178ae1b86c62a600160009054906101000a900473ffffffffffffffffffffffffffffffffffffffff16610cd6565b611776576040517f08c379a000000000000000000000000000000000000000000000000000000000815260040161176d90613b8a565b60405180910390fd5b61177e613010565b85816000018190525084816020019073ffffffffffffffffffffffffffffffffffffffff16908173ffffffffffffffffffffffffffffffffffffffff1681525050838160400181905250828160600181905250600081608001901515908115158152505060018160c0019015159081151581525050818160a0018190525080600b60008773ffffffffffffffffffffffffffffffffffffffff1673ffffffffffffffffffffffffffffffffffffffff16815260200190815260200160002060008201518160000190816118519190613f36565b5060208201518160010160006101000a81548173ffffffffffffffffffffffffffffffffffffffff021916908373ffffffffffffffffffffffffffffffffffffffff16021790555060408201518160020190816118ae9190613f36565b5060608201518160030190816118c49190613f36565b5060808201518160040160006101000a81548160ff02191690831515021790555060a08201518160050190816118fa9190613f36565b5060c08201518160060160006101000a81548160ff021916908315150217905550905050600c859080600181540180825580915050600190039060005260206000200160009091909190916101000a81548173ffffffffffffffffffffffffffffffffffffffff021916908373ffffffffffffffffffffffffffffffffffffffff160217905550505050505050565b600073ffffffffffffffffffffffffffffffffffffffff16600d60003373ffffffffffffffffffffffffffffffffffffffff1673ffffffffffffffffffffffffffffffffffffffff16815260200190815260200160002060000160009054906101000a900473ffffffffffffffffffffffffffffffffffffffff1673ffffffffffffffffffffffffffffffffffffffff1603611a5a576040517f08c379a0000000000000000000000000000000000000000000000000000000008152600401611a51906140c0565b60405180910390fd5b6001600d60003373ffffffffffffffffffffffffffffffffffffffff1673ffffffffffffffffffffffffffffffffffffffff16815260200190815260200160002060030160006101000a81548160ff021916908315150217905550565b611b037f5a3425ea67e73c95853ecfc0c443062de292a303c186bc2aac1178ae1b86c62a600160009054906101000a900473ffffffffffffffffffffffffffffffffffffffff16610cd6565b611b42576040517f08c379a0000000000000000000000000000000000000000000000000000000008152600401611b3990613b8a565b60405180910390fd5b8260069081611b519190613f36565b508160029081611b619190613f36565b508060039081611b719190613f36565b50505050565b600783604051611b879190613be6565b908152602001604051809103902060050160009054906101000a900460ff16611be5576040517f08c379a0000000000000000000000000000000000000000000000000000000008152600401611bdc9061412c565b60405180910390fd5b81600784604051611bf69190613be6565b90815260200160405180910390206001018190555060048290806001815401808255809150506001900390600052602060002001600090919091909150556001600554611c43919061417b565b6005819055506001600784604051611c5b9190613be6565b908152602001604051809103902060030160006101000a81548160ff02191690831515021790555033600784604051611c949190613be6565b908152602001604051809103902060030160016101000a81548173ffffffffffffffffffffffffffffffffffffffff021916908373ffffffffffffffffffffffffffffffffffffffff16021790555080600784604051611cf49190613be6565b90815260200160405180910390206004019081611d119190613f36565b50505050565b6060600080600080611dce600a8781548110611d3657611d35613c8f565b5b906000526020600020018054611d4b90613ced565b80601f0160208091040260200160405190810160405280929190818152602001828054611d7790613ced565b8015611dc45780601f10611d9957610100808354040283529160200191611dc4565b820191906000526020600020905b815481529060010190602001808311611da757829003601f168201915b5050505050612ab1565b9450945094509450945091939590929450565b60007f01ffc9a7000000000000000000000000000000000000000000000000000000007bffffffffffffffffffffffffffffffffffffffffffffffffffffffff1916827bffffffffffffffffffffffffffffffffffffffffffffffffffffffff1916149050919050565b611e5c81611e57611f3f565b612c3b565b50565b611e698282610cd6565b611f3b57600160008084815260200190815260200160002060000160008373ffffffffffffffffffffffffffffffffffffffff1673ffffffffffffffffffffffffffffffffffffffff16815260200190815260200160002060006101000a81548160ff021916908315150217905550611ee0611f3f565b73ffffffffffffffffffffffffffffffffffffffff168173ffffffffffffffffffffffffffffffffffffffff16837f2f8788117e7eff1d82e926ec794901d17c78024a50270940304540a733656f0d60405160405180910390a45b5050565b600033905090565b611f518282610cd6565b1561202457600080600084815260200190815260200160002060000160008373ffffffffffffffffffffffffffffffffffffffff1673ffffffffffffffffffffffffffffffffffffffff16815260200190815260200160002060006101000a81548160ff021916908315150217905550611fc9611f3f565b73ffffffffffffffffffffffffffffffffffffffff168173ffffffffffffffffffffffffffffffffffffffff16837ff6391f5c32d9c69d2a47ea670b442974b53935d1edc7fd64eb21e047a839171b60405160405180910390a45b5050565b606060006060600080606060006007886040516120459190613be6565b90815260200160405180910390206000016007896040516120669190613be6565b90815260200160405180910390206001015460078a6040516120889190613be6565b908152602001604051809103902060020160078b6040516120a99190613be6565b908152602001604051809103902060030160009054906101000a900460ff1660078c6040516120d89190613be6565b908152602001604051809103902060030160019054906101000a900473ffffffffffffffffffffffffffffffffffffffff1660078d60405161211a9190613be6565b908152602001604051809103902060040160078e60405161213b9190613be6565b908152602001604051809103902060050160009054906101000a900460ff1686805461216690613ced565b80601f016020809104026020016040519081016040528092919081815260200182805461219290613ced565b80156121df5780601f106121b4576101008083540402835291602001916121df565b820191906000526020600020905b8154815290600101906020018083116121c257829003601f168201915b505050505096508480546121f290613ced565b80601f016020809104026020016040519081016040528092919081815260200182805461221e90613ced565b801561226b5780601f106122405761010080835404028352916020019161226b565b820191906000526020600020905b81548152906001019060200180831161224e57829003601f168201915b5050505050945081805461227e90613ced565b80601f01602080910402602001604051908101604052809291908181526020018280546122aa90613ced565b80156122f75780601f106122cc576101008083540402835291602001916122f7565b820191906000526020600020905b8154815290600101906020018083116122da57829003601f168201915b505050505091509650965096509650965096509650919395979092949650565b600060608060006060600d60008773ffffffffffffffffffffffffffffffffffffffff1673ffffffffffffffffffffffffffffffffffffffff16815260200190815260200160002060000160009054906101000a900473ffffffffffffffffffffffffffffffffffffffff16600d60008873ffffffffffffffffffffffffffffffffffffffff1673ffffffffffffffffffffffffffffffffffffffff168152602001908152602001600020600101600d60008973ffffffffffffffffffffffffffffffffffffffff1673ffffffffffffffffffffffffffffffffffffffff168152602001908152602001600020600201600d60008a73ffffffffffffffffffffffffffffffffffffffff1673ffffffffffffffffffffffffffffffffffffffff16815260200190815260200160002060030160009054906101000a900460ff16600d60008b73ffffffffffffffffffffffffffffffffffffffff1673ffffffffffffffffffffffffffffffffffffffff1681526020019081526020016000206004018380546124a590613ced565b80601f01602080910402602001604051908101604052809291908181526020018280546124d190613ced565b801561251e5780601f106124f35761010080835404028352916020019161251e565b820191906000526020600020905b81548152906001019060200180831161250157829003601f168201915b5050505050935082805461253190613ced565b80601f016020809104026020016040519081016040528092919081815260200182805461255d90613ced565b80156125aa5780601f1061257f576101008083540402835291602001916125aa565b820191906000526020600020905b81548152906001019060200180831161258d57829003601f168201915b505050505092508080546125bd90613ced565b80601f01602080910402602001604051908101604052809291908181526020018280546125e990613ced565b80156126365780601f1061260b57610100808354040283529160200191612636565b820191906000526020600020905b81548152906001019060200180831161261957829003601f168201915b505050505090509450945094509450945091939590929450565b60606000606080600060606000600b60008973ffffffffffffffffffffffffffffffffffffffff1673ffffffffffffffffffffffffffffffffffffffff168152602001908152602001600020600001600b60008a73ffffffffffffffffffffffffffffffffffffffff1673ffffffffffffffffffffffffffffffffffffffff16815260200190815260200160002060010160009054906101000a900473ffffffffffffffffffffffffffffffffffffffff16600b60008b73ffffffffffffffffffffffffffffffffffffffff1673ffffffffffffffffffffffffffffffffffffffff168152602001908152602001600020600201600b60008c73ffffffffffffffffffffffffffffffffffffffff1673ffffffffffffffffffffffffffffffffffffffff168152602001908152602001600020600301600b60008d73ffffffffffffffffffffffffffffffffffffffff1673ffffffffffffffffffffffffffffffffffffffff16815260200190815260200160002060040160009054906101000a900460ff16600b60008e73ffffffffffffffffffffffffffffffffffffffff1673ffffffffffffffffffffffffffffffffffffffff168152602001908152602001600020600501600b60008f73ffffffffffffffffffffffffffffffffffffffff1673ffffffffffffffffffffffffffffffffffffffff16815260200190815260200160002060060160009054906101000a900460ff1686805461287490613ced565b80601f01602080910402602001604051908101604052809291908181526020018280546128a090613ced565b80156128ed5780601f106128c2576101008083540402835291602001916128ed565b820191906000526020600020905b8154815290600101906020018083116128d057829003601f168201915b5050505050965084805461290090613ced565b80601f016020809104026020016040519081016040528092919081815260200182805461292c90613ced565b80156129795780601f1061294e57610100808354040283529160200191612979565b820191906000526020600020905b81548152906001019060200180831161295c57829003601f168201915b5050505050945083805461298c90613ced565b80601f01602080910402602001604051908101604052809291908181526020018280546129b890613ced565b8015612a055780601f106129da57610100808354040283529160200191612a05565b820191906000526020600020905b8154815290600101906020018083116129e857829003601f168201915b50505050509350818054612a1890613ced565b80601f0160208091040260200160405190810160405280929190818152602001828054612a4490613ced565b8015612a915780601f10612a6657610100808354040283529160200191612a91565b820191906000526020600020905b815481529060010190602001808311612a7457829003601f168201915b505050505091509650965096509650965096509650919395979092949650565b6060600080600080600986604051612ac99190613be6565b9081526020016040518091039020600001600987604051612aea9190613be6565b908152602001604051809103902060010160009054906101000a900473ffffffffffffffffffffffffffffffffffffffff16600988604051612b2c9190613be6565b908152602001604051809103902060020154600989604051612b4e9190613be6565b908152602001604051809103902060030160009054906101000a900460ff1660098a604051612b7d9190613be6565b908152602001604051809103902060030160019054906101000a900460ff16848054612ba890613ced565b80601f0160208091040260200160405190810160405280929190818152602001828054612bd490613ced565b8015612c215780601f10612bf657610100808354040283529160200191612c21565b820191906000526020600020905b815481529060010190602001808311612c0457829003601f168201915b505050505094509450945094509450945091939590929450565b612c458282610cd6565b612cbc57612c5281612cc0565b612c608360001c6020612ced565b604051602001612c71929190614247565b6040516020818303038152906040526040517f08c379a0000000000000000000000000000000000000000000000000000000008152600401612cb39190614281565b60405180910390fd5b5050565b6060612ce68273ffffffffffffffffffffffffffffffffffffffff16601460ff16612ced565b9050919050565b606060006002836002612d0091906142a3565b612d0a919061417b565b67ffffffffffffffff811115612d2357612d22613185565b5b6040519080825280601f01601f191660200182016040528015612d555781602001600182028036833780820191505090505b5090507f300000000000000000000000000000000000000000000000000000000000000081600081518110612d8d57612d8c613c8f565b5b60200101907effffffffffffffffffffffffffffffffffffffffffffffffffffffffffffff1916908160001a9053507f780000000000000000000000000000000000000000000000000000000000000081600181518110612df157612df0613c8f565b5b60200101907effffffffffffffffffffffffffffffffffffffffffffffffffffffffffffff1916908160001a90535060006001846002612e3191906142a3565b612e3b919061417b565b90505b6001811115612edb577f3031323334353637383961626364656600000000000000000000000000000000600f861660108110612e7d57612e7c613c8f565b5b1a60f81b828281518110612e9457612e93613c8f565b5b60200101907effffffffffffffffffffffffffffffffffffffffffffffffffffffffffffff1916908160001a905350600485901c945080612ed4906142e5565b9050612e3e565b5060008414612f1f576040517f08c379a0000000000000000000000000000000000000000000000000000000008152600401612f169061435a565b60405180910390fd5b8091505092915050565b6040518060a0016040528060608152602001600073ffffffffffffffffffffffffffffffffffffffff168152602001600081526020016000151581526020016000151581525090565b6040518060a00160405280600073ffffffffffffffffffffffffffffffffffffffff1681526020016060815260200160608152602001600015158152602001606081525090565b6040518060e00160405280606081526020016000815260200160608152602001600015158152602001600073ffffffffffffffffffffffffffffffffffffffff168152602001606081526020016000151581525090565b6040518060e0016040528060608152602001600073ffffffffffffffffffffffffffffffffffffffff1681526020016060815260200160608152602001600015158152602001606081526020016000151581525090565b6000604051905090565b600080fd5b600080fd5b60007fffffffff0000000000000000000000000000000000000000000000000000000082169050919050565b6130b08161307b565b81146130bb57600080fd5b50565b6000813590506130cd816130a7565b92915050565b6000602082840312156130e9576130e8613071565b5b60006130f7848285016130be565b91505092915050565b60008115159050919050565b61311581613100565b82525050565b6000602082019050613130600083018461310c565b92915050565b6000819050919050565b61314981613136565b82525050565b60006020820190506131646000830184613140565b92915050565b600080fd5b600080fd5b6000601f19601f8301169050919050565b7f4e487b7100000000000000000000000000000000000000000000000000000000600052604160045260246000fd5b6131bd82613174565b810181811067ffffffffffffffff821117156131dc576131db613185565b5b80604052505050565b60006131ef613067565b90506131fb82826131b4565b919050565b600067ffffffffffffffff82111561321b5761321a613185565b5b61322482613174565b9050602081019050919050565b82818337600083830152505050565b600061325361324e84613200565b6131e5565b90508281526020810184848401111561326f5761326e61316f565b5b61327a848285613231565b509392505050565b600082601f8301126132975761329661316a565b5b81356132a7848260208601613240565b91505092915050565b6000602082840312156132c6576132c5613071565b5b600082013567ffffffffffffffff8111156132e4576132e3613076565b5b6132f084828501613282565b91505092915050565b6000819050919050565b61330c816132f9565b811461331757600080fd5b50565b60008135905061332981613303565b92915050565b60006020828403121561334557613344613071565b5b60006133538482850161331a565b91505092915050565b613365816132f9565b82525050565b6000602082019050613380600083018461335c565b92915050565b600073ffffffffffffffffffffffffffffffffffffffff82169050919050565b60006133b182613386565b9050919050565b6133c1816133a6565b81146133cc57600080fd5b50565b6000813590506133de816133b8565b92915050565b600080604083850312156133fb576133fa613071565b5b60006134098582860161331a565b925050602061341a858286016133cf565b9150509250929050565b61342d81613136565b811461343857600080fd5b50565b60008135905061344a81613424565b92915050565b60006020828403121561346657613465613071565b5b60006134748482850161343b565b91505092915050565b600081519050919050565b600082825260208201905092915050565b60005b838110156134b757808201518184015260208101905061349c565b60008484015250505050565b60006134ce8261347d565b6134d88185613488565b93506134e8818560208601613499565b6134f181613174565b840191505092915050565b613505816133a6565b82525050565b600060e0820190508181036000830152613525818a6134c3565b90506135346020830189613140565b818103604083015261354681886134c3565b9050613555606083018761310c565b61356260808301866134fc565b81810360a083015261357481856134c3565b905061358360c083018461310c565b98975050505050505050565b600060a0820190506135a460008301886134fc565b81810360208301526135b681876134c3565b905081810360408301526135ca81866134c3565b90506135d9606083018561310c565b81810360808301526135eb81846134c3565b90509695505050505050565b6000806000606084860312156136105761360f613071565b5b600084013567ffffffffffffffff81111561362e5761362d613076565b5b61363a86828701613282565b935050602061364b868287016133cf565b925050604061365c8682870161343b565b9150509250925092565b600060c08201905061367b60008301896134fc565b818103602083015261368d81886134c3565b905081810360408301526136a181876134c3565b905081810360608301526136b581866134c3565b90506136c46080830185613140565b6136d160a0830184613140565b979650505050505050565b600080600080608085870312156136f6576136f5613071565b5b6000613704878288016133cf565b945050602085013567ffffffffffffffff81111561372557613724613076565b5b61373187828801613282565b935050604085013567ffffffffffffffff81111561375257613751613076565b5b61375e87828801613282565b925050606085013567ffffffffffffffff81111561377f5761377e613076565b5b61378b87828801613282565b91505092959194509250565b600060e08201905081810360008301526137b1818a6134c3565b90506137c060208301896134fc565b81810360408301526137d281886134c3565b905081810360608301526137e681876134c3565b90506137f5608083018661310c565b81810360a083015261380781856134c3565b905061381660c083018461310c565b98975050505050505050565b6000806040838503121561383957613838613071565b5b600083013567ffffffffffffffff81111561385757613856613076565b5b61386385828601613282565b925050602083013567ffffffffffffffff81111561388457613883613076565b5b61389085828601613282565b9150509250929050565b6000602082840312156138b0576138af613071565b5b60006138be848285016133cf565b91505092915050565b600080600080600060a086880312156138e3576138e2613071565b5b600086013567ffffffffffffffff81111561390157613900613076565b5b61390d88828901613282565b955050602061391e888289016133cf565b945050604086013567ffffffffffffffff81111561393f5761393e613076565b5b61394b88828901613282565b935050606086013567ffffffffffffffff81111561396c5761396b613076565b5b61397888828901613282565b925050608086013567ffffffffffffffff81111561399957613998613076565b5b6139a588828901613282565b9150509295509295909350565b6000806000606084860312156139cb576139ca613071565b5b600084013567ffffffffffffffff8111156139e9576139e8613076565b5b6139f586828701613282565b935050602084013567ffffffffffffffff811115613a1657613a15613076565b5b613a2286828701613282565b925050604084013567ffffffffffffffff811115613a4357613a42613076565b5b613a4f86828701613282565b9150509250925092565b600080600060608486031215613a7257613a71613071565b5b600084013567ffffffffffffffff811115613a9057613a8f613076565b5b613a9c86828701613282565b9350506020613aad8682870161343b565b925050604084013567ffffffffffffffff811115613ace57613acd613076565b5b613ada86828701613282565b9150509250925092565b600060a0820190508181036000830152613afe81886134c3565b9050613b0d60208301876134fc565b613b1a6040830186613140565b613b27606083018561310c565b613b34608083018461310c565b9695505050505050565b7f43616c6c6572206973206e6f7420616e20656d706c6f79656500000000000000600082015250565b6000613b74601983613488565b9150613b7f82613b3e565b602082019050919050565b60006020820190508181036000830152613ba381613b67565b9050919050565b600081905092915050565b6000613bc08261347d565b613bca8185613baa565b9350613bda818560208601613499565b80840191505092915050565b6000613bf28284613bb5565b915081905092915050565b7f416363657373436f6e74726f6c3a2063616e206f6e6c792072656e6f756e636560008201527f20726f6c657320666f722073656c660000000000000000000000000000000000602082015250565b6000613c59602f83613488565b9150613c6482613bfd565b604082019050919050565b60006020820190508181036000830152613c8881613c4c565b9050919050565b7f4e487b7100000000000000000000000000000000000000000000000000000000600052603260045260246000fd5b7f4e487b7100000000000000000000000000000000000000000000000000000000600052602260045260246000fd5b60006002820490506001821680613d0557607f821691505b602082108103613d1857613d17613cbe565b5b50919050565b7f4f7267616e697a6174696f6e20646f6573206e6f742065786973742100000000600082015250565b6000613d54601c83613488565b9150613d5f82613d1e565b602082019050919050565b60006020820190508181036000830152613d8381613d47565b9050919050565b60008190508160005260206000209050919050565b60006020601f8301049050919050565b600082821b905092915050565b600060088302613dec7fffffffffffffffffffffffffffffffffffffffffffffffffffffffffffffffff82613daf565b613df68683613daf565b95508019841693508086168417925050509392505050565b6000819050919050565b6000613e33613e2e613e2984613136565b613e0e565b613136565b9050919050565b6000819050919050565b613e4d83613e18565b613e61613e5982613e3a565b848454613dbc565b825550505050565b600090565b613e76613e69565b613e81818484613e44565b505050565b5b81811015613ea557613e9a600082613e6e565b600181019050613e87565b5050565b601f821115613eea57613ebb81613d8a565b613ec484613d9f565b81016020851015613ed3578190505b613ee7613edf85613d9f565b830182613e86565b50505b505050565b600082821c905092915050565b6000613f0d60001984600802613eef565b1980831691505092915050565b6000613f268383613efc565b9150826002028217905092915050565b613f3f8261347d565b67ffffffffffffffff811115613f5857613f57613185565b5b613f628254613ced565b613f6d828285613ea9565b600060209050601f831160018114613fa05760008415613f8e578287015190505b613f988582613f1a565b865550614000565b601f198416613fae86613d8a565b60005b82811015613fd657848901518255600182019150602085019450602081019050613fb1565b86831015613ff35784890151613fef601f891682613efc565b8355505b6001600288020188555050505b505050505050565b7f43616c6c6572206973206e6f74206f7267616e697a6174696f6e000000000000600082015250565b600061403e601a83613488565b915061404982614008565b602082019050919050565b6000602082019050818103600083015261406d81614031565b9050919050565b7f696e7374697475746520646f6573206e6f742065786973742100000000000000600082015250565b60006140aa601983613488565b91506140b582614074565b602082019050919050565b600060208201905081810360008301526140d98161409d565b9050919050565b7f536b696c6c206973206e6f742076697369626c65210000000000000000000000600082015250565b6000614116601583613488565b9150614121826140e0565b602082019050919050565b6000602082019050818103600083015261414581614109565b9050919050565b7f4e487b7100000000000000000000000000000000000000000000000000000000600052601160045260246000fd5b600061418682613136565b915061419183613136565b92508282019050808211156141a9576141a861414c565b5b92915050565b7f416363657373436f6e74726f6c3a206163636f756e7420000000000000000000600082015250565b60006141e5601783613baa565b91506141f0826141af565b601782019050919050565b7f206973206d697373696e6720726f6c6520000000000000000000000000000000600082015250565b6000614231601183613baa565b915061423c826141fb565b601182019050919050565b6000614252826141d8565b915061425e8285613bb5565b915061426982614224565b91506142758284613bb5565b91508190509392505050565b6000602082019050818103600083015261429b81846134c3565b905092915050565b60006142ae82613136565b91506142b983613136565b92508282026142c781613136565b915082820484148315176142de576142dd61414c565b5b5092915050565b60006142f082613136565b9150600082036143035761430261414c565b5b600182039050919050565b7f537472696e67733a20686578206c656e67746820696e73756666696369656e74600082015250565b6000614344602083613488565b915061434f8261430e565b602082019050919050565b6000602082019050818103600083015261437381614337565b905091905056fea264697066735822122027febe5d0869c15a329dbb9ba335cd84554b922811a8e2f6a055c282930890de64736f6c63430008130033",
  "immutableReferences": {},
  "source": "//SPDX-License-Identifier: MIT\npragma solidity >=0.5.0 <0.9.0;\nimport \"@openzeppelin/contracts/access/AccessControl.sol\";\n\ncontract Employee is AccessControl {\n  bytes32 public constant EMPLOYEE_ROLE = keccak256(\"EMPLOYEE_ROLE\");\n\n  // address admin;\n  address employee_address;\n  string description;\n  string location;\n  uint256[] public overallEndorsement;\n  uint256 endorsecount;\n  string name;\n\n  constructor(\n    address _admin,\n    address _employee_address,\n    string memory _name,\n    string memory _description,\n    string memory _location\n  ) public {\n    // admin = _admin;\n    _setupRole(DEFAULT_ADMIN_ROLE,_admin);\n    _setupRole(EMPLOYEE_ROLE,_employee_address);\n    name = _name;\n    employee_address = _employee_address;\n    description = _description;\n    location = _location;\n    endorsecount = 0;\n  }\n\n  modifier OnlyEmployee() {\n    // require(msg.sender == employee_address);\n    require(hasRole(EMPLOYEE_ROLE, employee_address), \"Caller is not an employee\");\n    _;\n  }\n\n  function getEmployeeInfo()\n    public\n    view\n    returns (\n      address,\n      string memory,\n      string memory,\n      string memory,\n      uint256,\n      uint256\n    )\n  {\n    return (employee_address, name, description, location, 0, endorsecount);\n  }\n\n  function editInfo(\n    string memory _name,\n    string memory _descrip,\n    string memory _location\n  ) public OnlyEmployee {\n    name = _name;\n    description = _descrip;\n    location = _location;\n  }\n\n  /*********************************************************SKILLS SECTION**********************************************************/\n\n  struct skillInfo {\n    string name;\n    uint256 overall_percentage;\n    string experience;\n    bool endorsed;\n    address endorser_address;\n    string review;\n    bool visible;\n  }\n\n  mapping(string => skillInfo) skillmap;\n  string[] skills;\n\n  function addSkill(string memory _name, string memory _experience)\n    public\n    OnlyEmployee\n  {\n    skillInfo memory employeeSkillSet;\n    employeeSkillSet.name = _name;\n    employeeSkillSet.experience = _experience;\n    employeeSkillSet.overall_percentage = 0;\n    employeeSkillSet.endorsed = false;\n    employeeSkillSet.visible = true;\n    skillmap[_name] = employeeSkillSet;\n    skills.push(_name);\n  }\n\n  function endorseSkill(\n    string memory _name,\n    uint256 _overall_percentage,\n    string memory _review\n  ) public {\n    require(skillmap[_name].visible, 'Skill is not visible!');\n    skillmap[_name].overall_percentage = _overall_percentage;\n    overallEndorsement.push(_overall_percentage);\n    endorsecount = endorsecount + 1;\n    skillmap[_name].endorsed = true;\n    skillmap[_name].endorser_address = msg.sender;\n    skillmap[_name].review = _review;\n  }\n\n  function getSkillByName(string memory _name)\n    private\n    view\n    returns (\n      string memory,\n      uint256,\n      string memory,\n      bool,\n      address,\n      string memory,\n      bool\n    )\n  {\n    return (\n      skillmap[_name].name,\n      skillmap[_name].overall_percentage,\n      skillmap[_name].experience,\n      skillmap[_name].endorsed,\n      skillmap[_name].endorser_address,\n      skillmap[_name].review,\n      skillmap[_name].visible\n    );\n  }\n\n  function getSkillCount() public view returns (uint256) {\n    return skills.length;\n  }\n\n  function getSkillByIndex(uint256 _index)\n    public\n    view\n    returns (\n      string memory,\n      uint256,\n      string memory,\n      bool,\n      address,\n      string memory,\n      bool\n    )\n  {\n    return getSkillByName(skills[_index]);\n  }\n\n  function deleteSkill(string memory _name) public OnlyEmployee {\n    skillmap[_name].visible = !skillmap[_name].visible;\n  }\n\n  /*********************************************************CERTIFICATION SECTION**********************************************************/\n\n  struct certificationInfo {\n    string name;\n    address organization;\n    uint256 score;\n    bool endorsed;\n    bool visible;\n  }\n\n  mapping(string => certificationInfo) certificationmap;\n  string[] certifications;\n\n  function addCertification(\n    string memory _name,\n    address _organization,\n    uint256 _score\n  ) public OnlyEmployee {\n    certificationInfo memory newcertificationInfo;\n    newcertificationInfo.name = _name;\n    newcertificationInfo.organization = _organization;\n    newcertificationInfo.score = _score;\n    newcertificationInfo.endorsed = false;\n    newcertificationInfo.visible = true;\n    certificationmap[_name] = newcertificationInfo;\n    certifications.push(_name);\n  }\n\n  function endorseCertification(string memory _name) public {\n    require(msg.sender == certificationmap[_name].organization, 'Caller is not organization');\n    certificationmap[_name].endorsed = true;\n  }\n\n  function getCertificationByName(string memory _name)\n    private\n    view\n    returns (\n      string memory,\n      address,\n      uint256,\n      bool,\n      bool\n    )\n  {\n    return (\n      certificationmap[_name].name,\n      certificationmap[_name].organization,\n      certificationmap[_name].score,\n      certificationmap[_name].endorsed,\n      certificationmap[_name].visible\n    );\n  }\n\n  function getCertificationCount() public view returns (uint256) {\n    return certifications.length;\n  }\n\n  function getCertificationByIndex(uint256 _index)\n    public\n    view\n    returns (\n      string memory,\n      address,\n      uint256,\n      bool,\n      bool\n    )\n  {\n    return getCertificationByName(certifications[_index]);\n  }\n\n  function deleteCertification(string memory _name) public OnlyEmployee {\n    certificationmap[_name].visible = !certificationmap[_name].visible;\n  }\n\n  /********************************************************************Work Experience Section********************************************************************/\n\n  struct workexpInfo {\n    string role;\n    address organization;\n    string startdate;\n    string enddate;\n    bool endorsed;\n    string description;\n    bool visible;\n  }\n\n  mapping(address => workexpInfo) workexpmap;\n  address[] workexps;\n\n  function addWorkExp(\n    string memory _role,\n    address _organization,\n    string memory _startdate,\n    string memory _enddate,\n    string memory _description\n  ) public OnlyEmployee {\n    workexpInfo memory newworkexp;\n    newworkexp.role = _role;\n    newworkexp.organization = _organization;\n    newworkexp.startdate = _startdate;\n    newworkexp.enddate = _enddate;\n    newworkexp.endorsed = false;\n    newworkexp.visible = true;\n    newworkexp.description = _description;\n    workexpmap[_organization] = newworkexp;\n    workexps.push(_organization);\n  }\n\n  function endorseWorkExp() public {\n    require(workexpmap[msg.sender].organization != address(0x0), 'Organization does not exist!');\n    workexpmap[msg.sender].endorsed = true;\n  }\n\n  function getWorkExpByAddress(address _organization)\n    private\n    view\n    returns (\n      string memory,\n      address,\n      string memory,\n      string memory,\n      bool,\n      string memory,\n      bool\n    )\n  {\n    return (\n      workexpmap[_organization].role,\n      workexpmap[_organization].organization,\n      workexpmap[_organization].startdate,\n      workexpmap[_organization].enddate,\n      workexpmap[_organization].endorsed,\n      workexpmap[_organization].description,\n      workexpmap[_organization].visible\n    );\n  }\n\n  function getWorkExpCount() public view returns (uint256) {\n    return workexps.length;\n  }\n\n  function getWorkExpByIndex(uint256 _index)\n    public\n    view\n    returns (\n      string memory,\n      address,\n      string memory,\n      string memory,\n      bool,\n      string memory,\n      bool\n    )\n  {\n    return getWorkExpByAddress(workexps[_index]);\n  }\n\n  function deleteWorkExp(address org) public OnlyEmployee {\n    workexpmap[org].visible = false;\n  }\n\n  /********************************************************************Education Section********************************************************************/\n\n  struct educationInfo {\n    address institute;\n    string startdate;\n    string enddate;\n    bool endorsed;\n    string description;\n  }\n\n  mapping(address => educationInfo) educationmap;\n  address[] educations;\n\n  function addEducation(\n    address _institute,\n    string memory _startdate,\n    string memory _enddate,\n    string memory _description\n  ) public OnlyEmployee {\n    educationInfo memory newEducation;\n    newEducation.institute = _institute;\n    newEducation.startdate = _startdate;\n    newEducation.enddate = _enddate;\n    newEducation.endorsed = false;\n    newEducation.description = _description;\n    educationmap[_institute] = newEducation;\n    educations.push(_institute);\n  }\n\n  function endorseEducation() public {\n    require(educationmap[msg.sender].institute != address(0x0), 'institute does not exist!');\n    educationmap[msg.sender].endorsed = true;\n  }\n\n  function getEducationByAddress(address _institute)\n    private\n    view\n    returns (\n      address,\n      string memory,\n      string memory,\n      bool,\n      string memory\n    )\n  {\n    return (\n      educationmap[_institute].institute,\n      educationmap[_institute].startdate,\n      educationmap[_institute].enddate,\n      educationmap[_institute].endorsed,\n      educationmap[_institute].description\n    );\n  }\n\n  function getEducationCount() public view returns (uint256) {\n    return educations.length;\n  }\n\n  function getEducationByIndex(uint256 _index)\n    public\n    view\n    returns (\n      address,\n      string memory,\n      string memory,\n      bool,\n      string memory\n    )\n  {\n    return getEducationByAddress(educations[_index]);\n  }\n}\n",
  "sourcePath": "/Users/mobilelive/Work/mobileLIVE/hrms-blockchain-app/src/contracts/Employee.sol",
  "compiler": {
    "name": "solc",
    "version": "0.8.19+commit.7dd6d404.Emscripten.clang"
  },
  "schemaVersion": "3.4.13",
  "updatedAt": "2023-04-11T20:40:04.621Z",
  "devdoc": {
    "events": {
      "RoleAdminChanged(bytes32,bytes32,bytes32)": {
        "details": "Emitted when `newAdminRole` is set as ``role``'s admin role, replacing `previousAdminRole` `DEFAULT_ADMIN_ROLE` is the starting admin for all roles, despite {RoleAdminChanged} not being emitted signaling this. _Available since v3.1._"
      },
      "RoleGranted(bytes32,address,address)": {
        "details": "Emitted when `account` is granted `role`. `sender` is the account that originated the contract call, an admin role bearer except when using {AccessControl-_setupRole}."
      },
      "RoleRevoked(bytes32,address,address)": {
        "details": "Emitted when `account` is revoked `role`. `sender` is the account that originated the contract call:   - if using `revokeRole`, it is the admin role bearer   - if using `renounceRole`, it is the role bearer (i.e. `account`)"
      }
    },
    "kind": "dev",
    "methods": {
      "getRoleAdmin(bytes32)": {
        "details": "Returns the admin role that controls `role`. See {grantRole} and {revokeRole}. To change a role's admin, use {_setRoleAdmin}."
      },
      "grantRole(bytes32,address)": {
        "details": "Grants `role` to `account`. If `account` had not been already granted `role`, emits a {RoleGranted} event. Requirements: - the caller must have ``role``'s admin role. May emit a {RoleGranted} event."
      },
      "hasRole(bytes32,address)": {
        "details": "Returns `true` if `account` has been granted `role`."
      },
      "renounceRole(bytes32,address)": {
        "details": "Revokes `role` from the calling account. Roles are often managed via {grantRole} and {revokeRole}: this function's purpose is to provide a mechanism for accounts to lose their privileges if they are compromised (such as when a trusted device is misplaced). If the calling account had been revoked `role`, emits a {RoleRevoked} event. Requirements: - the caller must be `account`. May emit a {RoleRevoked} event."
      },
      "revokeRole(bytes32,address)": {
        "details": "Revokes `role` from `account`. If `account` had been granted `role`, emits a {RoleRevoked} event. Requirements: - the caller must have ``role``'s admin role. May emit a {RoleRevoked} event."
      },
      "supportsInterface(bytes4)": {
        "details": "See {IERC165-supportsInterface}."
      }
    },
    "version": 1
  },
  "userdoc": {
    "kind": "user",
    "methods": {},
    "version": 1
  }
}