{
  "contractName": "EmployeeRegistry",
  "abi": [
    {
      "inputs": [],
      "stateMutability": "nonpayable",
      "type": "constructor"
    },
    {
      "anonymous": false,
      "inputs": [
        {
          "indexed": true,
          "internalType": "address",
          "name": "previousOwner",
          "type": "address"
        },
        {
          "indexed": true,
          "internalType": "address",
          "name": "newOwner",
          "type": "address"
        }
      ],
      "name": "OwnershipTransferred",
      "type": "event"
    },
    {
      "anonymous": false,
      "inputs": [
        {
          "indexed": true,
          "internalType": "bytes32",
          "name": "role",
          "type": "bytes32"
        },
        {
          "indexed": true,
          "internalType": "bytes32",
          "name": "previousAdminRole",
          "type": "bytes32"
        },
        {
          "indexed": true,
          "internalType": "bytes32",
          "name": "newAdminRole",
          "type": "bytes32"
        }
      ],
      "name": "RoleAdminChanged",
      "type": "event"
    },
    {
      "anonymous": false,
      "inputs": [
        {
          "indexed": true,
          "internalType": "bytes32",
          "name": "role",
          "type": "bytes32"
        },
        {
          "indexed": true,
          "internalType": "address",
          "name": "account",
          "type": "address"
        },
        {
          "indexed": true,
          "internalType": "address",
          "name": "sender",
          "type": "address"
        }
      ],
      "name": "RoleGranted",
      "type": "event"
    },
    {
      "anonymous": false,
      "inputs": [
        {
          "indexed": true,
          "internalType": "bytes32",
          "name": "role",
          "type": "bytes32"
        },
        {
          "indexed": true,
          "internalType": "address",
          "name": "account",
          "type": "address"
        },
        {
          "indexed": true,
          "internalType": "address",
          "name": "sender",
          "type": "address"
        }
      ],
      "name": "RoleRevoked",
      "type": "event"
    },
    {
      "inputs": [],
      "name": "DEFAULT_ADMIN_ROLE",
      "outputs": [
        {
          "internalType": "bytes32",
          "name": "",
          "type": "bytes32"
        }
      ],
      "stateMutability": "view",
      "type": "function"
    },
    {
      "inputs": [],
      "name": "EMPLOYEE_ROLE",
      "outputs": [
        {
          "internalType": "bytes32",
          "name": "",
          "type": "bytes32"
        }
      ],
      "stateMutability": "view",
      "type": "function"
    },
    {
      "inputs": [],
      "name": "admin",
      "outputs": [
        {
          "internalType": "address",
          "name": "",
          "type": "address"
        }
      ],
      "stateMutability": "view",
      "type": "function"
    },
    {
      "inputs": [
        {
          "internalType": "bytes32",
          "name": "role",
          "type": "bytes32"
        }
      ],
      "name": "getRoleAdmin",
      "outputs": [
        {
          "internalType": "bytes32",
          "name": "",
          "type": "bytes32"
        }
      ],
      "stateMutability": "view",
      "type": "function"
    },
    {
      "inputs": [
        {
          "internalType": "bytes32",
          "name": "role",
          "type": "bytes32"
        },
        {
          "internalType": "address",
          "name": "account",
          "type": "address"
        }
      ],
      "name": "grantRole",
      "outputs": [],
      "stateMutability": "nonpayable",
      "type": "function"
    },
    {
      "inputs": [
        {
          "internalType": "bytes32",
          "name": "role",
          "type": "bytes32"
        },
        {
          "internalType": "address",
          "name": "account",
          "type": "address"
        }
      ],
      "name": "hasRole",
      "outputs": [
        {
          "internalType": "bool",
          "name": "",
          "type": "bool"
        }
      ],
      "stateMutability": "view",
      "type": "function"
    },
    {
      "inputs": [],
      "name": "owner",
      "outputs": [
        {
          "internalType": "address",
          "name": "",
          "type": "address"
        }
      ],
      "stateMutability": "view",
      "type": "function"
    },
    {
      "inputs": [],
      "name": "renounceOwnership",
      "outputs": [],
      "stateMutability": "nonpayable",
      "type": "function"
    },
    {
      "inputs": [
        {
          "internalType": "bytes32",
          "name": "role",
          "type": "bytes32"
        },
        {
          "internalType": "address",
          "name": "account",
          "type": "address"
        }
      ],
      "name": "renounceRole",
      "outputs": [],
      "stateMutability": "nonpayable",
      "type": "function"
    },
    {
      "inputs": [
        {
          "internalType": "bytes32",
          "name": "role",
          "type": "bytes32"
        },
        {
          "internalType": "address",
          "name": "account",
          "type": "address"
        }
      ],
      "name": "revokeRole",
      "outputs": [],
      "stateMutability": "nonpayable",
      "type": "function"
    },
    {
      "inputs": [
        {
          "internalType": "bytes4",
          "name": "interfaceId",
          "type": "bytes4"
        }
      ],
      "name": "supportsInterface",
      "outputs": [
        {
          "internalType": "bool",
          "name": "",
          "type": "bool"
        }
      ],
      "stateMutability": "view",
      "type": "function"
    },
    {
      "inputs": [
        {
          "internalType": "address",
          "name": "newOwner",
          "type": "address"
        }
      ],
      "name": "transferOwnership",
      "outputs": [],
      "stateMutability": "nonpayable",
      "type": "function"
    },
    {
      "inputs": [
        {
          "internalType": "address",
          "name": "EthAddress",
          "type": "address"
        },
        {
          "internalType": "string",
          "name": "Name",
          "type": "string"
        },
        {
          "internalType": "string",
          "name": "Location",
          "type": "string"
        },
        {
          "internalType": "string",
          "name": "Description",
          "type": "string"
        }
      ],
      "name": "registerEmployee",
      "outputs": [],
      "stateMutability": "nonpayable",
      "type": "function"
    },
    {
      "inputs": [
        {
          "internalType": "address",
          "name": "_employeeAddress",
          "type": "address"
        }
      ],
      "name": "isEmployee",
      "outputs": [
        {
          "internalType": "bool",
          "name": "",
          "type": "bool"
        }
      ],
      "stateMutability": "view",
      "type": "function"
    },
    {
      "inputs": [],
      "name": "employeeCount",
      "outputs": [
        {
          "internalType": "uint256",
          "name": "",
          "type": "uint256"
        }
      ],
      "stateMutability": "view",
      "type": "function"
    },
    {
      "inputs": [
        {
          "internalType": "address",
          "name": "_employee",
          "type": "address"
        }
      ],
      "name": "getEmployeeContractByAddress",
      "outputs": [
        {
          "internalType": "address",
          "name": "",
          "type": "address"
        }
      ],
      "stateMutability": "view",
      "type": "function"
    },
    {
      "inputs": [
        {
          "internalType": "uint256",
          "name": "index",
          "type": "uint256"
        }
      ],
      "name": "getEmployeeContractByIndex",
      "outputs": [
        {
          "internalType": "address",
          "name": "",
          "type": "address"
        }
      ],
      "stateMutability": "view",
      "type": "function"
    }
  ],
  "bytecode": "0x60806040523480156200001157600080fd5b506200003262000026620000b060201b60201c565b620000b860201b60201c565b33600260006101000a81548173ffffffffffffffffffffffffffffffffffffffff021916908373ffffffffffffffffffffffffffffffffffffffff160217905550620000aa6000801b600260009054906101000a900473ffffffffffffffffffffffffffffffffffffffff166200017e60201b60201c565b620002ef565b600033905090565b6000600160009054906101000a900473ffffffffffffffffffffffffffffffffffffffff16905081600160006101000a81548173ffffffffffffffffffffffffffffffffffffffff021916908373ffffffffffffffffffffffffffffffffffffffff1602179055508173ffffffffffffffffffffffffffffffffffffffff168173ffffffffffffffffffffffffffffffffffffffff167f8be0079c531659141344cd1fd0a4f28419497f9722a3daafe3b4186f6b6457e060405160405180910390a35050565b6200019082826200019460201b60201c565b5050565b620001a682826200028560201b60201c565b6200028157600160008084815260200190815260200160002060000160008373ffffffffffffffffffffffffffffffffffffffff1673ffffffffffffffffffffffffffffffffffffffff16815260200190815260200160002060006101000a81548160ff02191690831515021790555062000226620000b060201b60201c565b73ffffffffffffffffffffffffffffffffffffffff168173ffffffffffffffffffffffffffffffffffffffff16837f2f8788117e7eff1d82e926ec794901d17c78024a50270940304540a733656f0d60405160405180910390a45b5050565b600080600084815260200190815260200160002060000160008373ffffffffffffffffffffffffffffffffffffffff1673ffffffffffffffffffffffffffffffffffffffff16815260200190815260200160002060009054906101000a900460ff16905092915050565b61549e80620002ff6000396000f3fe60806040523480156200001157600080fd5b5060043610620001245760003560e01c80638da5cb5b11620000b1578063a29bed50116200007b578063a29bed50146200030b578063d547741f146200032b578063ea66543f146200034b578063f2fde38b1462000381578063f851a44014620003a15762000124565b80638da5cb5b146200026f5780639047bf58146200029157806391d1485414620002b3578063a217fddf14620002e95762000124565b8063323ddfc411620000f3578063323ddfc414620001d757806336568abe146200020d578063447a81fe146200022d578063715018a614620002635762000124565b806301ffc9a71462000129578063248a9ca3146200015f5780632a4cab9014620001955780632f2ff15d14620001b7575b600080fd5b62000147600480360381019062000141919062001361565b620003c3565b6040516200015691906200171e565b60405180910390f35b6200017d6004803603810190620001779190620012f4565b62000440565b6040516200018c91906200173b565b60405180910390f35b6200019f6200045f565b604051620001ae91906200173b565b60405180910390f35b620001d56004803603810190620001cf919062001320565b62000483565b005b620001f56004803603810190620001ef919062001211565b620004aa565b6040516200020491906200168f565b60405180910390f35b6200022b600480360381019062000225919062001320565b62000513565b005b6200024b60048036038101906200024591906200138d565b6200059d565b6040516200025a91906200168f565b60405180910390f35b6200026d62000616565b005b620002796200062e565b6040516200028891906200168f565b60405180910390f35b6200029b62000658565b604051620002aa919062001804565b60405180910390f35b620002d16004803603810190620002cb919062001320565b62000665565b604051620002e091906200171e565b60405180910390f35b620002f3620006cf565b6040516200030291906200173b565b60405180910390f35b6200032960048036038101906200032391906200123d565b620006d6565b005b62000349600480360381019062000343919062001320565b6200085b565b005b62000369600480360381019062000363919062001211565b62000882565b6040516200037891906200171e565b60405180910390f35b6200039f600480360381019062000399919062001211565b62000916565b005b620003ab620009a1565b604051620003ba91906200168f565b60405180910390f35b60007f7965db0b000000000000000000000000000000000000000000000000000000007bffffffffffffffffffffffffffffffffffffffffffffffffffffffff1916827bffffffffffffffffffffffffffffffffffffffffffffffffffffffff191614806200043957506200043882620009c7565b5b9050919050565b6000806000838152602001908152602001600020600101549050919050565b7f5a3425ea67e73c95853ecfc0c443062de292a303c186bc2aac1178ae1b86c62a81565b6200048e8262000440565b620004998162000a31565b620004a5838362000a49565b505050565b6000600360008373ffffffffffffffffffffffffffffffffffffffff1673ffffffffffffffffffffffffffffffffffffffff16815260200190815260200160002060009054906101000a900473ffffffffffffffffffffffffffffffffffffffff169050919050565b6200051d62000b2e565b73ffffffffffffffffffffffffffffffffffffffff168173ffffffffffffffffffffffffffffffffffffffff16146200058d576040517f08c379a00000000000000000000000000000000000000000000000000000000081526004016200058490620017e2565b60405180910390fd5b62000599828262000b36565b5050565b60006200060f60048381548110620005de577f4e487b7100000000000000000000000000000000000000000000000000000000600052603260045260246000fd5b9060005260206000200160009054906101000a900473ffffffffffffffffffffffffffffffffffffffff16620004aa565b9050919050565b6200062062000c1c565b6200062c600062000ca1565b565b6000600160009054906101000a900473ffffffffffffffffffffffffffffffffffffffff16905090565b6000600480549050905090565b600080600084815260200190815260200160002060000160008373ffffffffffffffffffffffffffffffffffffffff1673ffffffffffffffffffffffffffffffffffffffff16815260200190815260200160002060009054906101000a900460ff16905092915050565b6000801b81565b620006e062000c1c565b6000600260009054906101000a900473ffffffffffffffffffffffffffffffffffffffff1685858585604051620007179062001135565b62000727959493929190620016ac565b604051809103906000f08015801562000744573d6000803e3d6000fd5b50905080600360008773ffffffffffffffffffffffffffffffffffffffff1673ffffffffffffffffffffffffffffffffffffffff16815260200190815260200160002060006101000a81548173ffffffffffffffffffffffffffffffffffffffff021916908373ffffffffffffffffffffffffffffffffffffffff1602179055506004859080600181540180825580915050600190039060005260206000200160009091909190916101000a81548173ffffffffffffffffffffffffffffffffffffffff021916908373ffffffffffffffffffffffffffffffffffffffff160217905550620008547f5a3425ea67e73c95853ecfc0c443062de292a303c186bc2aac1178ae1b86c62a8262000483565b5050505050565b620008668262000440565b620008718162000a31565b6200087d838362000b36565b505050565b60006200090f7f5a3425ea67e73c95853ecfc0c443062de292a303c186bc2aac1178ae1b86c62a600360008573ffffffffffffffffffffffffffffffffffffffff1673ffffffffffffffffffffffffffffffffffffffff16815260200190815260200160002060009054906101000a900473ffffffffffffffffffffffffffffffffffffffff1662000665565b9050919050565b6200092062000c1c565b600073ffffffffffffffffffffffffffffffffffffffff168173ffffffffffffffffffffffffffffffffffffffff16141562000993576040517f08c379a00000000000000000000000000000000000000000000000000000000081526004016200098a906200179e565b60405180910390fd5b6200099e8162000ca1565b50565b600260009054906101000a900473ffffffffffffffffffffffffffffffffffffffff1681565b60007f01ffc9a7000000000000000000000000000000000000000000000000000000007bffffffffffffffffffffffffffffffffffffffffffffffffffffffff1916827bffffffffffffffffffffffffffffffffffffffffffffffffffffffff1916149050919050565b62000a468162000a4062000b2e565b62000d67565b50565b62000a55828262000665565b62000b2a57600160008084815260200190815260200160002060000160008373ffffffffffffffffffffffffffffffffffffffff1673ffffffffffffffffffffffffffffffffffffffff16815260200190815260200160002060006101000a81548160ff02191690831515021790555062000acf62000b2e565b73ffffffffffffffffffffffffffffffffffffffff168173ffffffffffffffffffffffffffffffffffffffff16837f2f8788117e7eff1d82e926ec794901d17c78024a50270940304540a733656f0d60405160405180910390a45b5050565b600033905090565b62000b42828262000665565b1562000c1857600080600084815260200190815260200160002060000160008373ffffffffffffffffffffffffffffffffffffffff1673ffffffffffffffffffffffffffffffffffffffff16815260200190815260200160002060006101000a81548160ff02191690831515021790555062000bbd62000b2e565b73ffffffffffffffffffffffffffffffffffffffff168173ffffffffffffffffffffffffffffffffffffffff16837ff6391f5c32d9c69d2a47ea670b442974b53935d1edc7fd64eb21e047a839171b60405160405180910390a45b5050565b62000c2662000b2e565b73ffffffffffffffffffffffffffffffffffffffff1662000c466200062e565b73ffffffffffffffffffffffffffffffffffffffff161462000c9f576040517f08c379a000000000000000000000000000000000000000000000000000000000815260040162000c9690620017c0565b60405180910390fd5b565b6000600160009054906101000a900473ffffffffffffffffffffffffffffffffffffffff16905081600160006101000a81548173ffffffffffffffffffffffffffffffffffffffff021916908373ffffffffffffffffffffffffffffffffffffffff1602179055508173ffffffffffffffffffffffffffffffffffffffff168173ffffffffffffffffffffffffffffffffffffffff167f8be0079c531659141344cd1fd0a4f28419497f9722a3daafe3b4186f6b6457e060405160405180910390a35050565b62000d73828262000665565b62000df35762000d838162000df7565b62000d938360001c602062000e26565b60405160200162000da69291906200164d565b6040516020818303038152906040526040517f08c379a000000000000000000000000000000000000000000000000000000000815260040162000dea919062001758565b60405180910390fd5b5050565b606062000e1f8273ffffffffffffffffffffffffffffffffffffffff16601460ff1662000e26565b9050919050565b60606000600283600262000e3b91906200190c565b62000e479190620018af565b67ffffffffffffffff81111562000e87577f4e487b7100000000000000000000000000000000000000000000000000000000600052604160045260246000fd5b6040519080825280601f01601f19166020018201604052801562000eba5781602001600182028036833780820191505090505b5090507f30000000000000000000000000000000000000000000000000000000000000008160008151811062000f19577f4e487b7100000000000000000000000000000000000000000000000000000000600052603260045260246000fd5b60200101907effffffffffffffffffffffffffffffffffffffffffffffffffffffffffffff1916908160001a9053507f78000000000000000000000000000000000000000000000000000000000000008160018151811062000fa4577f4e487b7100000000000000000000000000000000000000000000000000000000600052603260045260246000fd5b60200101907effffffffffffffffffffffffffffffffffffffffffffffffffffffffffffff1916908160001a9053506000600184600262000fe691906200190c565b62000ff29190620018af565b90505b6001811115620010e4577f3031323334353637383961626364656600000000000000000000000000000000600f8616601081106200105c577f4e487b7100000000000000000000000000000000000000000000000000000000600052603260045260246000fd5b1a60f81b8282815181106200109a577f4e487b7100000000000000000000000000000000000000000000000000000000600052603260045260246000fd5b60200101907effffffffffffffffffffffffffffffffffffffffffffffffffffffffffffff1916908160001a905350600485901c945080620010dc9062001a32565b905062000ff5565b50600084146200112b576040517f08c379a000000000000000000000000000000000000000000000000000000000815260040162001122906200177c565b60405180910390fd5b8091505092915050565b6139308062001b3983390190565b60006200115a620011548462001855565b62001821565b9050828152602081018484840111156200117357600080fd5b62001180848285620019ed565b509392505050565b600081359050620011998162001ad0565b92915050565b600081359050620011b08162001aea565b92915050565b600081359050620011c78162001b04565b92915050565b600082601f830112620011df57600080fd5b8135620011f184826020860162001143565b91505092915050565b6000813590506200120b8162001b1e565b92915050565b6000602082840312156200122457600080fd5b6000620012348482850162001188565b91505092915050565b600080600080608085870312156200125457600080fd5b6000620012648782880162001188565b945050602085013567ffffffffffffffff8111156200128257600080fd5b6200129087828801620011cd565b935050604085013567ffffffffffffffff811115620012ae57600080fd5b620012bc87828801620011cd565b925050606085013567ffffffffffffffff811115620012da57600080fd5b620012e887828801620011cd565b91505092959194509250565b6000602082840312156200130757600080fd5b600062001317848285016200119f565b91505092915050565b600080604083850312156200133457600080fd5b600062001344858286016200119f565b9250506020620013578582860162001188565b9150509250929050565b6000602082840312156200137457600080fd5b60006200138484828501620011b6565b91505092915050565b600060208284031215620013a057600080fd5b6000620013b084828501620011fa565b91505092915050565b620013c4816200196d565b82525050565b620013d58162001981565b82525050565b620013e6816200198d565b82525050565b6000620013f98262001888565b62001405818562001893565b935062001417818560208601620019fc565b620014228162001abf565b840191505092915050565b60006200143a8262001888565b620014468185620018a4565b935062001458818560208601620019fc565b80840191505092915050565b60006200147360208362001893565b91507f537472696e67733a20686578206c656e67746820696e73756666696369656e746000830152602082019050919050565b6000620014b560268362001893565b91507f4f776e61626c653a206e6577206f776e657220697320746865207a65726f206160008301527f64647265737300000000000000000000000000000000000000000000000000006020830152604082019050919050565b60006200151d60208362001893565b91507f4f776e61626c653a2063616c6c6572206973206e6f7420746865206f776e65726000830152602082019050919050565b60006200155f601783620018a4565b91507f416363657373436f6e74726f6c3a206163636f756e74200000000000000000006000830152601782019050919050565b6000620015a1601183620018a4565b91507f206973206d697373696e6720726f6c65200000000000000000000000000000006000830152601182019050919050565b6000620015e3602f8362001893565b91507f416363657373436f6e74726f6c3a2063616e206f6e6c792072656e6f756e636560008301527f20726f6c657320666f722073656c6600000000000000000000000000000000006020830152604082019050919050565b6200164781620019e3565b82525050565b60006200165a8262001550565b91506200166882856200142d565b9150620016758262001592565b91506200168382846200142d565b91508190509392505050565b6000602082019050620016a66000830184620013b9565b92915050565b600060a082019050620016c36000830188620013b9565b620016d26020830187620013b9565b8181036040830152620016e68186620013ec565b90508181036060830152620016fc8185620013ec565b90508181036080830152620017128184620013ec565b90509695505050505050565b6000602082019050620017356000830184620013ca565b92915050565b6000602082019050620017526000830184620013db565b92915050565b60006020820190508181036000830152620017748184620013ec565b905092915050565b60006020820190508181036000830152620017978162001464565b9050919050565b60006020820190508181036000830152620017b981620014a6565b9050919050565b60006020820190508181036000830152620017db816200150e565b9050919050565b60006020820190508181036000830152620017fd81620015d4565b9050919050565b60006020820190506200181b60008301846200163c565b92915050565b6000604051905081810181811067ffffffffffffffff821117156200184b576200184a62001a90565b5b8060405250919050565b600067ffffffffffffffff82111562001873576200187262001a90565b5b601f19601f8301169050602081019050919050565b600081519050919050565b600082825260208201905092915050565b600081905092915050565b6000620018bc82620019e3565b9150620018c983620019e3565b9250827fffffffffffffffffffffffffffffffffffffffffffffffffffffffffffffffff0382111562001901576200190062001a61565b5b828201905092915050565b60006200191982620019e3565b91506200192683620019e3565b9250817fffffffffffffffffffffffffffffffffffffffffffffffffffffffffffffffff048311821515161562001962576200196162001a61565b5b828202905092915050565b60006200197a82620019c3565b9050919050565b60008115159050919050565b6000819050919050565b60007fffffffff0000000000000000000000000000000000000000000000000000000082169050919050565b600073ffffffffffffffffffffffffffffffffffffffff82169050919050565b6000819050919050565b82818337600083830152505050565b60005b8381101562001a1c578082015181840152602081019050620019ff565b8381111562001a2c576000848401525b50505050565b600062001a3f82620019e3565b9150600082141562001a565762001a5562001a61565b5b600182039050919050565b7f4e487b7100000000000000000000000000000000000000000000000000000000600052601160045260246000fd5b7f4e487b7100000000000000000000000000000000000000000000000000000000600052604160045260246000fd5b6000601f19601f8301169050919050565b62001adb816200196d565b811462001ae757600080fd5b50565b62001af5816200198d565b811462001b0157600080fd5b50565b62001b0f8162001997565b811462001b1b57600080fd5b50565b62001b2981620019e3565b811462001b3557600080fd5b5056fe60806040523480156200001157600080fd5b5060405162003930380380620039308339818101604052810190620000379190620003cf565b6200004c6000801b866200011d60201b60201c565b6200007e7f5a3425ea67e73c95853ecfc0c443062de292a303c186bc2aac1178ae1b86c62a856200011d60201b60201c565b82600690805190602001906200009692919062000296565b5083600160006101000a81548173ffffffffffffffffffffffffffffffffffffffff021916908373ffffffffffffffffffffffffffffffffffffffff1602179055508160029080519060200190620000f092919062000296565b5080600390805190602001906200010992919062000296565b50600060058190555050505050506200061b565b6200012f82826200013360201b60201c565b5050565b6200014582826200022460201b60201c565b6200022057600160008084815260200190815260200160002060000160008373ffffffffffffffffffffffffffffffffffffffff1673ffffffffffffffffffffffffffffffffffffffff16815260200190815260200160002060006101000a81548160ff021916908315150217905550620001c56200028e60201b60201c565b73ffffffffffffffffffffffffffffffffffffffff168173ffffffffffffffffffffffffffffffffffffffff16837f2f8788117e7eff1d82e926ec794901d17c78024a50270940304540a733656f0d60405160405180910390a45b5050565b600080600084815260200190815260200160002060000160008373ffffffffffffffffffffffffffffffffffffffff1673ffffffffffffffffffffffffffffffffffffffff16815260200190815260200160002060009054906101000a900460ff16905092915050565b600033905090565b828054620002a4906200056d565b90600052602060002090601f016020900481019282620002c8576000855562000314565b82601f10620002e357805160ff191683800117855562000314565b8280016001018555821562000314579182015b8281111562000313578251825591602001919060010190620002f6565b5b50905062000323919062000327565b5090565b5b808211156200034257600081600090555060010162000328565b5090565b60006200035d6200035784620004d0565b6200049c565b9050828152602081018484840111156200037657600080fd5b6200038384828562000537565b509392505050565b6000815190506200039c8162000601565b92915050565b600082601f830112620003b457600080fd5b8151620003c684826020860162000346565b91505092915050565b600080600080600060a08688031215620003e857600080fd5b6000620003f8888289016200038b565b95505060206200040b888289016200038b565b945050604086015167ffffffffffffffff8111156200042957600080fd5b6200043788828901620003a2565b935050606086015167ffffffffffffffff8111156200045557600080fd5b6200046388828901620003a2565b925050608086015167ffffffffffffffff8111156200048157600080fd5b6200048f88828901620003a2565b9150509295509295909350565b6000604051905081810181811067ffffffffffffffff82111715620004c657620004c5620005d2565b5b8060405250919050565b600067ffffffffffffffff821115620004ee57620004ed620005d2565b5b601f19601f8301169050602081019050919050565b6000620005108262000517565b9050919050565b600073ffffffffffffffffffffffffffffffffffffffff82169050919050565b60005b83811015620005575780820151818401526020810190506200053a565b8381111562000567576000848401525b50505050565b600060028204905060018216806200058657607f821691505b602082108114156200059d576200059c620005a3565b5b50919050565b7f4e487b7100000000000000000000000000000000000000000000000000000000600052602260045260246000fd5b7f4e487b7100000000000000000000000000000000000000000000000000000000600052604160045260246000fd5b6200060c8162000503565b81146200061857600080fd5b50565b613305806200062b6000396000f3fe608060405234801561001057600080fd5b50600436106101735760003560e01c80637c067d8d116100de578063d547741f11610097578063f5e616a611610071578063f5e616a614610457578063fc017f2514610461578063fdb103611461047d578063fee7989e1461049957610173565b8063d547741f14610403578063d862ae871461041f578063eda3467c1461043b57610173565b80637c067d8d1461032a57806391d148541461035a578063a217fddf1461038a578063a3e3bf7d146103a8578063c07f7d16146103cb578063cf6431c6146103e757610173565b806336568abe1161013057806336568abe1461024c578063444fc6621461026857806344afd1341461029e5780636212fa02146102bc578063645f29a8146102da5780637b1d2d001461030e57610173565b806301ffc9a71461017857806305f53b29146101a85780632186879c146101c6578063248a9ca3146101e25780632a4cab90146102125780632f2ff15d14610230575b600080fd5b610192600480360381019061018d91906126f9565b6104cd565b60405161019f9190612d70565b60405180910390f35b6101b0610547565b6040516101bd9190612f66565b60405180910390f35b6101e060048036038101906101db9190612722565b610554565b005b6101fc60048036038101906101f79190612694565b6105c7565b6040516102099190612d8b565b60405180910390f35b61021a6105e6565b6040516102279190612d8b565b60405180910390f35b61024a600480360381019061024591906126bd565b61060a565b005b610266600480360381019061026191906126bd565b61062b565b005b610282600480360381019061027d919061294c565b6106ae565b6040516102959796959493929190612e22565b60405180910390f35b6102a66107a9565b6040516102b39190612f66565b60405180910390f35b6102c46107b6565b6040516102d19190612f66565b60405180910390f35b6102f460048036038101906102ef919061294c565b6107c3565b604051610305959493929190612c92565b60405180910390f35b61032860048036038101906103239190612763565b61084c565b005b610344600480360381019061033f919061294c565b6109db565b6040516103519190612f66565b60405180910390f35b610374600480360381019061036f91906126bd565b6109ff565b6040516103819190612d70565b60405180910390f35b610392610a69565b60405161039f9190612d8b565b60405180910390f35b6103b0610a70565b6040516103c296959493929190612cfa565b60405180910390f35b6103e560048036038101906103e091906125e9565b610c60565b005b61040160048036038101906103fc9190612722565b610e3f565b005b61041d600480360381019061041891906126bd565b610f2b565b005b610439600480360381019061043491906127ca565b610f4c565b005b61045560048036038101906104509190612722565b6110e6565b005b61045f611159565b005b61047b60048036038101906104769190612836565b611288565b005b610497600480360381019061049291906128cd565b6112da565b005b6104b360048036038101906104ae919061294c565b611481565b6040516104c4959493929190612dc8565b60405180910390f35b60007f7965db0b000000000000000000000000000000000000000000000000000000007bffffffffffffffffffffffffffffffffffffffffffffffffffffffff1916827bffffffffffffffffffffffffffffffffffffffffffffffffffffffff19161480610540575061053f82611571565b5b9050919050565b6000600880549050905090565b61055c6115db565b60098160405161056c9190612c41565b908152602001604051809103902060030160019054906101000a900460ff161560098260405161059c9190612c41565b908152602001604051809103902060030160016101000a81548160ff02191690831515021790555050565b6000806000838152602001908152602001600020600101549050919050565b7f5a3425ea67e73c95853ecfc0c443062de292a303c186bc2aac1178ae1b86c62a81565b610613826105c7565b61061c81611668565b610626838361167c565b505050565b61063361175c565b73ffffffffffffffffffffffffffffffffffffffff168173ffffffffffffffffffffffffffffffffffffffff16146106a0576040517f08c379a000000000000000000000000000000000000000000000000000000000815260040161069790612f46565b60405180910390fd5b6106aa8282611764565b5050565b60606000606060008060606000610790600889815481106106f8577f4e487b7100000000000000000000000000000000000000000000000000000000600052603260045260246000fd5b90600052602060002001805461070d906131a3565b80601f0160208091040260200160405190810160405280929190818152602001828054610739906131a3565b80156107865780601f1061075b57610100808354040283529160200191610786565b820191906000526020600020905b81548152906001019060200180831161076957829003601f168201915b5050505050611845565b9650965096509650965096509650919395979092949650565b6000600a80549050905090565b6000600c80549050905090565b600060608060006060610839600c8781548110610809577f4e487b7100000000000000000000000000000000000000000000000000000000600052603260045260246000fd5b9060005260206000200160009054906101000a900473ffffffffffffffffffffffffffffffffffffffff16611b34565b9450945094509450945091939590929450565b6108546115db565b61085c6123a3565b83816000018190525082816020019073ffffffffffffffffffffffffffffffffffffffff16908173ffffffffffffffffffffffffffffffffffffffff16815250508181604001818152505060008160600190151590811515815250506001816080019015159081151581525050806009856040516108da9190612c41565b908152602001604051809103902060008201518160000190805190602001906109049291906123ec565b5060208201518160010160006101000a81548173ffffffffffffffffffffffffffffffffffffffff021916908373ffffffffffffffffffffffffffffffffffffffff1602179055506040820151816002015560608201518160030160006101000a81548160ff02191690831515021790555060808201518160030160016101000a81548160ff021916908315150217905550905050600a849080600181540180825580915050600190039060005260206000200160009091909190915090805190602001906109d49291906123ec565b5050505050565b600481815481106109eb57600080fd5b906000526020600020016000915090505481565b600080600084815260200190815260200160002060000160008373ffffffffffffffffffffffffffffffffffffffff1673ffffffffffffffffffffffffffffffffffffffff16815260200190815260200160002060009054906101000a900460ff16905092915050565b6000801b81565b60006060806060600080600160009054906101000a900473ffffffffffffffffffffffffffffffffffffffff166006600260036000600554848054610ab4906131a3565b80601f0160208091040260200160405190810160405280929190818152602001828054610ae0906131a3565b8015610b2d5780601f10610b0257610100808354040283529160200191610b2d565b820191906000526020600020905b815481529060010190602001808311610b1057829003601f168201915b50505050509450838054610b40906131a3565b80601f0160208091040260200160405190810160405280929190818152602001828054610b6c906131a3565b8015610bb95780601f10610b8e57610100808354040283529160200191610bb9565b820191906000526020600020905b815481529060010190602001808311610b9c57829003601f168201915b50505050509350828054610bcc906131a3565b80601f0160208091040260200160405190810160405280929190818152602001828054610bf8906131a3565b8015610c455780601f10610c1a57610100808354040283529160200191610c45565b820191906000526020600020905b815481529060010190602001808311610c2857829003601f168201915b50505050509250955095509550955095509550909192939495565b610c686115db565b610c70612472565b84816000019073ffffffffffffffffffffffffffffffffffffffff16908173ffffffffffffffffffffffffffffffffffffffff1681525050838160200181905250828160400181905250600081606001901515908115158152505081816080018190525080600b60008773ffffffffffffffffffffffffffffffffffffffff1673ffffffffffffffffffffffffffffffffffffffff16815260200190815260200160002060008201518160000160006101000a81548173ffffffffffffffffffffffffffffffffffffffff021916908373ffffffffffffffffffffffffffffffffffffffff1602179055506020820151816001019080519060200190610d779291906123ec565b506040820151816002019080519060200190610d949291906123ec565b5060608201518160030160006101000a81548160ff0219169083151502179055506080820151816004019080519060200190610dd19291906123ec565b50905050600c859080600181540180825580915050600190039060005260206000200160009091909190916101000a81548173ffffffffffffffffffffffffffffffffffffffff021916908373ffffffffffffffffffffffffffffffffffffffff1602179055505050505050565b600981604051610e4f9190612c41565b908152602001604051809103902060010160009054906101000a900473ffffffffffffffffffffffffffffffffffffffff1673ffffffffffffffffffffffffffffffffffffffff163373ffffffffffffffffffffffffffffffffffffffff1614610eee576040517f08c379a0000000000000000000000000000000000000000000000000000000008152600401610ee590612f06565b60405180910390fd5b6001600982604051610f009190612c41565b908152602001604051809103902060030160006101000a81548160ff02191690831515021790555050565b610f34826105c7565b610f3d81611668565b610f478383611764565b505050565b610f546115db565b610f5c6124b9565b8281600001819052508181604001819052506000816020018181525050600081606001901515908115158152505060018160c001901515908115158152505080600784604051610fac9190612c41565b90815260200160405180910390206000820151816000019080519060200190610fd69291906123ec565b50602082015181600101556040820151816002019080519060200190610ffd9291906123ec565b5060608201518160030160006101000a81548160ff02191690831515021790555060808201518160030160016101000a81548173ffffffffffffffffffffffffffffffffffffffff021916908373ffffffffffffffffffffffffffffffffffffffff16021790555060a08201518160040190805190602001906110819291906123ec565b5060c08201518160050160006101000a81548160ff0219169083151502179055509050506008839080600181540180825580915050600190039060005260206000200160009091909190915090805190602001906110e09291906123ec565b50505050565b6110ee6115db565b6007816040516110fe9190612c41565b908152602001604051809103902060050160009054906101000a900460ff161560078260405161112e9190612c41565b908152602001604051809103902060050160006101000a81548160ff02191690831515021790555050565b600073ffffffffffffffffffffffffffffffffffffffff16600b60003373ffffffffffffffffffffffffffffffffffffffff1673ffffffffffffffffffffffffffffffffffffffff16815260200190815260200160002060000160009054906101000a900473ffffffffffffffffffffffffffffffffffffffff1673ffffffffffffffffffffffffffffffffffffffff16141561122b576040517f08c379a000000000000000000000000000000000000000000000000000000000815260040161122290612ee6565b60405180910390fd5b6001600b60003373ffffffffffffffffffffffffffffffffffffffff1673ffffffffffffffffffffffffffffffffffffffff16815260200190815260200160002060030160006101000a81548160ff021916908315150217905550565b6112906115db565b82600690805190602001906112a69291906123ec565b5081600290805190602001906112bd9291906123ec565b5080600390805190602001906112d49291906123ec565b50505050565b6007836040516112ea9190612c41565b908152602001604051809103902060050160009054906101000a900460ff16611348576040517f08c379a000000000000000000000000000000000000000000000000000000000815260040161133f90612ec6565b60405180910390fd5b816007846040516113599190612c41565b908152602001604051809103902060010181905550600482908060018154018082558091505060019003906000526020600020016000909190919091505560016005546113a69190613009565b60058190555060016007846040516113be9190612c41565b908152602001604051809103902060030160006101000a81548160ff021916908315150217905550336007846040516113f79190612c41565b908152602001604051809103902060030160016101000a81548173ffffffffffffffffffffffffffffffffffffffff021916908373ffffffffffffffffffffffffffffffffffffffff160217905550806007846040516114579190612c41565b9081526020016040518091039020600401908051906020019061147b9291906123ec565b50505050565b606060008060008061155e600a87815481106114c6577f4e487b7100000000000000000000000000000000000000000000000000000000600052603260045260246000fd5b9060005260206000200180546114db906131a3565b80601f0160208091040260200160405190810160405280929190818152602001828054611507906131a3565b80156115545780601f1061152957610100808354040283529160200191611554565b820191906000526020600020905b81548152906001019060200180831161153757829003601f168201915b5050505050611e6d565b9450945094509450945091939590929450565b60007f01ffc9a7000000000000000000000000000000000000000000000000000000007bffffffffffffffffffffffffffffffffffffffffffffffffffffffff1916827bffffffffffffffffffffffffffffffffffffffffffffffffffffffff1916149050919050565b6116277f5a3425ea67e73c95853ecfc0c443062de292a303c186bc2aac1178ae1b86c62a600160009054906101000a900473ffffffffffffffffffffffffffffffffffffffff166109ff565b611666576040517f08c379a000000000000000000000000000000000000000000000000000000000815260040161165d90612f26565b60405180910390fd5b565b6116798161167461175c565b611ff7565b50565b61168682826109ff565b61175857600160008084815260200190815260200160002060000160008373ffffffffffffffffffffffffffffffffffffffff1673ffffffffffffffffffffffffffffffffffffffff16815260200190815260200160002060006101000a81548160ff0219169083151502179055506116fd61175c565b73ffffffffffffffffffffffffffffffffffffffff168173ffffffffffffffffffffffffffffffffffffffff16837f2f8788117e7eff1d82e926ec794901d17c78024a50270940304540a733656f0d60405160405180910390a45b5050565b600033905090565b61176e82826109ff565b1561184157600080600084815260200190815260200160002060000160008373ffffffffffffffffffffffffffffffffffffffff1673ffffffffffffffffffffffffffffffffffffffff16815260200190815260200160002060006101000a81548160ff0219169083151502179055506117e661175c565b73ffffffffffffffffffffffffffffffffffffffff168173ffffffffffffffffffffffffffffffffffffffff16837ff6391f5c32d9c69d2a47ea670b442974b53935d1edc7fd64eb21e047a839171b60405160405180910390a45b5050565b606060006060600080606060006007886040516118629190612c41565b90815260200160405180910390206000016007896040516118839190612c41565b90815260200160405180910390206001015460078a6040516118a59190612c41565b908152602001604051809103902060020160078b6040516118c69190612c41565b908152602001604051809103902060030160009054906101000a900460ff1660078c6040516118f59190612c41565b908152602001604051809103902060030160019054906101000a900473ffffffffffffffffffffffffffffffffffffffff1660078d6040516119379190612c41565b908152602001604051809103902060040160078e6040516119589190612c41565b908152602001604051809103902060050160009054906101000a900460ff16868054611983906131a3565b80601f01602080910402602001604051908101604052809291908181526020018280546119af906131a3565b80156119fc5780601f106119d1576101008083540402835291602001916119fc565b820191906000526020600020905b8154815290600101906020018083116119df57829003601f168201915b50505050509650848054611a0f906131a3565b80601f0160208091040260200160405190810160405280929190818152602001828054611a3b906131a3565b8015611a885780601f10611a5d57610100808354040283529160200191611a88565b820191906000526020600020905b815481529060010190602001808311611a6b57829003601f168201915b50505050509450818054611a9b906131a3565b80601f0160208091040260200160405190810160405280929190818152602001828054611ac7906131a3565b8015611b145780601f10611ae957610100808354040283529160200191611b14565b820191906000526020600020905b815481529060010190602001808311611af757829003601f168201915b505050505091509650965096509650965096509650919395979092949650565b600060608060006060600b60008773ffffffffffffffffffffffffffffffffffffffff1673ffffffffffffffffffffffffffffffffffffffff16815260200190815260200160002060000160009054906101000a900473ffffffffffffffffffffffffffffffffffffffff16600b60008873ffffffffffffffffffffffffffffffffffffffff1673ffffffffffffffffffffffffffffffffffffffff168152602001908152602001600020600101600b60008973ffffffffffffffffffffffffffffffffffffffff1673ffffffffffffffffffffffffffffffffffffffff168152602001908152602001600020600201600b60008a73ffffffffffffffffffffffffffffffffffffffff1673ffffffffffffffffffffffffffffffffffffffff16815260200190815260200160002060030160009054906101000a900460ff16600b60008b73ffffffffffffffffffffffffffffffffffffffff1673ffffffffffffffffffffffffffffffffffffffff168152602001908152602001600020600401838054611cc2906131a3565b80601f0160208091040260200160405190810160405280929190818152602001828054611cee906131a3565b8015611d3b5780601f10611d1057610100808354040283529160200191611d3b565b820191906000526020600020905b815481529060010190602001808311611d1e57829003601f168201915b50505050509350828054611d4e906131a3565b80601f0160208091040260200160405190810160405280929190818152602001828054611d7a906131a3565b8015611dc75780601f10611d9c57610100808354040283529160200191611dc7565b820191906000526020600020905b815481529060010190602001808311611daa57829003601f168201915b50505050509250808054611dda906131a3565b80601f0160208091040260200160405190810160405280929190818152602001828054611e06906131a3565b8015611e535780601f10611e2857610100808354040283529160200191611e53565b820191906000526020600020905b815481529060010190602001808311611e3657829003601f168201915b505050505090509450945094509450945091939590929450565b6060600080600080600986604051611e859190612c41565b9081526020016040518091039020600001600987604051611ea69190612c41565b908152602001604051809103902060010160009054906101000a900473ffffffffffffffffffffffffffffffffffffffff16600988604051611ee89190612c41565b908152602001604051809103902060020154600989604051611f0a9190612c41565b908152602001604051809103902060030160009054906101000a900460ff1660098a604051611f399190612c41565b908152602001604051809103902060030160019054906101000a900460ff16848054611f64906131a3565b80601f0160208091040260200160405190810160405280929190818152602001828054611f90906131a3565b8015611fdd5780601f10611fb257610100808354040283529160200191611fdd565b820191906000526020600020905b815481529060010190602001808311611fc057829003601f168201915b505050505094509450945094509450945091939590929450565b61200182826109ff565b6120785761200e8161207c565b61201c8360001c60206120a9565b60405160200161202d929190612c58565b6040516020818303038152906040526040517f08c379a000000000000000000000000000000000000000000000000000000000815260040161206f9190612da6565b60405180910390fd5b5050565b60606120a28273ffffffffffffffffffffffffffffffffffffffff16601460ff166120a9565b9050919050565b6060600060028360026120bc919061305f565b6120c69190613009565b67ffffffffffffffff811115612105577f4e487b7100000000000000000000000000000000000000000000000000000000600052604160045260246000fd5b6040519080825280601f01601f1916602001820160405280156121375781602001600182028036833780820191505090505b5090507f300000000000000000000000000000000000000000000000000000000000000081600081518110612195577f4e487b7100000000000000000000000000000000000000000000000000000000600052603260045260246000fd5b60200101907effffffffffffffffffffffffffffffffffffffffffffffffffffffffffffff1916908160001a9053507f78000000000000000000000000000000000000000000000000000000000000008160018151811061221f577f4e487b7100000000000000000000000000000000000000000000000000000000600052603260045260246000fd5b60200101907effffffffffffffffffffffffffffffffffffffffffffffffffffffffffffff1916908160001a9053506000600184600261225f919061305f565b6122699190613009565b90505b6001811115612355577f3031323334353637383961626364656600000000000000000000000000000000600f8616601081106122d1577f4e487b7100000000000000000000000000000000000000000000000000000000600052603260045260246000fd5b1a60f81b82828151811061230e577f4e487b7100000000000000000000000000000000000000000000000000000000600052603260045260246000fd5b60200101907effffffffffffffffffffffffffffffffffffffffffffffffffffffffffffff1916908160001a905350600485901c94508061234e90613179565b905061226c565b5060008414612399576040517f08c379a000000000000000000000000000000000000000000000000000000000815260040161239090612ea6565b60405180910390fd5b8091505092915050565b6040518060a0016040528060608152602001600073ffffffffffffffffffffffffffffffffffffffff168152602001600081526020016000151581526020016000151581525090565b8280546123f8906131a3565b90600052602060002090601f01602090048101928261241a5760008555612461565b82601f1061243357805160ff1916838001178555612461565b82800160010185558215612461579182015b82811115612460578251825591602001919060010190612445565b5b50905061246e9190612510565b5090565b6040518060a00160405280600073ffffffffffffffffffffffffffffffffffffffff1681526020016060815260200160608152602001600015158152602001606081525090565b6040518060e00160405280606081526020016000815260200160608152602001600015158152602001600073ffffffffffffffffffffffffffffffffffffffff168152602001606081526020016000151581525090565b5b80821115612529576000816000905550600101612511565b5090565b600061254061253b84612fb2565b612f81565b90508281526020810184848401111561255857600080fd5b612563848285613137565b509392505050565b60008135905061257a81613273565b92915050565b60008135905061258f8161328a565b92915050565b6000813590506125a4816132a1565b92915050565b600082601f8301126125bb57600080fd5b81356125cb84826020860161252d565b91505092915050565b6000813590506125e3816132b8565b92915050565b600080600080608085870312156125ff57600080fd5b600061260d8782880161256b565b945050602085013567ffffffffffffffff81111561262a57600080fd5b612636878288016125aa565b935050604085013567ffffffffffffffff81111561265357600080fd5b61265f878288016125aa565b925050606085013567ffffffffffffffff81111561267c57600080fd5b612688878288016125aa565b91505092959194509250565b6000602082840312156126a657600080fd5b60006126b484828501612580565b91505092915050565b600080604083850312156126d057600080fd5b60006126de85828601612580565b92505060206126ef8582860161256b565b9150509250929050565b60006020828403121561270b57600080fd5b600061271984828501612595565b91505092915050565b60006020828403121561273457600080fd5b600082013567ffffffffffffffff81111561274e57600080fd5b61275a848285016125aa565b91505092915050565b60008060006060848603121561277857600080fd5b600084013567ffffffffffffffff81111561279257600080fd5b61279e868287016125aa565b93505060206127af8682870161256b565b92505060406127c0868287016125d4565b9150509250925092565b600080604083850312156127dd57600080fd5b600083013567ffffffffffffffff8111156127f757600080fd5b612803858286016125aa565b925050602083013567ffffffffffffffff81111561282057600080fd5b61282c858286016125aa565b9150509250929050565b60008060006060848603121561284b57600080fd5b600084013567ffffffffffffffff81111561286557600080fd5b612871868287016125aa565b935050602084013567ffffffffffffffff81111561288e57600080fd5b61289a868287016125aa565b925050604084013567ffffffffffffffff8111156128b757600080fd5b6128c3868287016125aa565b9150509250925092565b6000806000606084860312156128e257600080fd5b600084013567ffffffffffffffff8111156128fc57600080fd5b612908868287016125aa565b9350506020612919868287016125d4565b925050604084013567ffffffffffffffff81111561293657600080fd5b612942868287016125aa565b9150509250925092565b60006020828403121561295e57600080fd5b600061296c848285016125d4565b91505092915050565b61297e816130b9565b82525050565b61298d816130cb565b82525050565b61299c816130d7565b82525050565b60006129ad82612fe2565b6129b78185612fed565b93506129c7818560208601613146565b6129d081613262565b840191505092915050565b60006129e682612fe2565b6129f08185612ffe565b9350612a00818560208601613146565b80840191505092915050565b6000612a19602083612fed565b91507f537472696e67733a20686578206c656e67746820696e73756666696369656e746000830152602082019050919050565b6000612a59601583612fed565b91507f536b696c6c206973206e6f742076697369626c652100000000000000000000006000830152602082019050919050565b6000612a99601983612fed565b91507f696e7374697475746520646f6573206e6f7420657869737421000000000000006000830152602082019050919050565b6000612ad9601a83612fed565b91507f43616c6c6572206973206e6f74206f7267616e697a6174696f6e0000000000006000830152602082019050919050565b6000612b19601983612fed565b91507f43616c6c6572206973206e6f7420616e20656d706c6f796565000000000000006000830152602082019050919050565b6000612b59601783612ffe565b91507f416363657373436f6e74726f6c3a206163636f756e74200000000000000000006000830152601782019050919050565b6000612b99601183612ffe565b91507f206973206d697373696e6720726f6c65200000000000000000000000000000006000830152601182019050919050565b6000612bd9602f83612fed565b91507f416363657373436f6e74726f6c3a2063616e206f6e6c792072656e6f756e636560008301527f20726f6c657320666f722073656c6600000000000000000000000000000000006020830152604082019050919050565b612c3b8161312d565b82525050565b6000612c4d82846129db565b915081905092915050565b6000612c6382612b4c565b9150612c6f82856129db565b9150612c7a82612b8c565b9150612c8682846129db565b91508190509392505050565b600060a082019050612ca76000830188612975565b8181036020830152612cb981876129a2565b90508181036040830152612ccd81866129a2565b9050612cdc6060830185612984565b8181036080830152612cee81846129a2565b90509695505050505050565b600060c082019050612d0f6000830189612975565b8181036020830152612d2181886129a2565b90508181036040830152612d3581876129a2565b90508181036060830152612d4981866129a2565b9050612d586080830185612c32565b612d6560a0830184612c32565b979650505050505050565b6000602082019050612d856000830184612984565b92915050565b6000602082019050612da06000830184612993565b92915050565b60006020820190508181036000830152612dc081846129a2565b905092915050565b600060a0820190508181036000830152612de281886129a2565b9050612df16020830187612975565b612dfe6040830186612c32565b612e0b6060830185612984565b612e186080830184612984565b9695505050505050565b600060e0820190508181036000830152612e3c818a6129a2565b9050612e4b6020830189612c32565b8181036040830152612e5d81886129a2565b9050612e6c6060830187612984565b612e796080830186612975565b81810360a0830152612e8b81856129a2565b9050612e9a60c0830184612984565b98975050505050505050565b60006020820190508181036000830152612ebf81612a0c565b9050919050565b60006020820190508181036000830152612edf81612a4c565b9050919050565b60006020820190508181036000830152612eff81612a8c565b9050919050565b60006020820190508181036000830152612f1f81612acc565b9050919050565b60006020820190508181036000830152612f3f81612b0c565b9050919050565b60006020820190508181036000830152612f5f81612bcc565b9050919050565b6000602082019050612f7b6000830184612c32565b92915050565b6000604051905081810181811067ffffffffffffffff82111715612fa857612fa7613233565b5b8060405250919050565b600067ffffffffffffffff821115612fcd57612fcc613233565b5b601f19601f8301169050602081019050919050565b600081519050919050565b600082825260208201905092915050565b600081905092915050565b60006130148261312d565b915061301f8361312d565b9250827fffffffffffffffffffffffffffffffffffffffffffffffffffffffffffffffff03821115613054576130536131d5565b5b828201905092915050565b600061306a8261312d565b91506130758361312d565b9250817fffffffffffffffffffffffffffffffffffffffffffffffffffffffffffffffff04831182151516156130ae576130ad6131d5565b5b828202905092915050565b60006130c48261310d565b9050919050565b60008115159050919050565b6000819050919050565b60007fffffffff0000000000000000000000000000000000000000000000000000000082169050919050565b600073ffffffffffffffffffffffffffffffffffffffff82169050919050565b6000819050919050565b82818337600083830152505050565b60005b83811015613164578082015181840152602081019050613149565b83811115613173576000848401525b50505050565b60006131848261312d565b91506000821415613198576131976131d5565b5b600182039050919050565b600060028204905060018216806131bb57607f821691505b602082108114156131cf576131ce613204565b5b50919050565b7f4e487b7100000000000000000000000000000000000000000000000000000000600052601160045260246000fd5b7f4e487b7100000000000000000000000000000000000000000000000000000000600052602260045260246000fd5b7f4e487b7100000000000000000000000000000000000000000000000000000000600052604160045260246000fd5b6000601f19601f8301169050919050565b61327c816130b9565b811461328757600080fd5b50565b613293816130d7565b811461329e57600080fd5b50565b6132aa816130e1565b81146132b557600080fd5b50565b6132c18161312d565b81146132cc57600080fd5b5056fea2646970667358221220865400e79189dccc1f3e4f639ef5a471e8756f6e7eb7c17a98143110501b55a264736f6c63430008000033a2646970667358221220479eede6dd928e53f941a18272c6c33aec36d336f9dd94c3aeb68e964366821464736f6c63430008000033",
  "immutableReferences": {},
  "source": "// SPDX-License-Identifier: MIT\npragma solidity >=0.5.0 <0.9.0;\nimport \"@openzeppelin/contracts/access/AccessControl.sol\";\nimport \"@openzeppelin/contracts/access/Ownable.sol\";\nimport \"../Employee.sol\";\n\ncontract EmployeeRegistry is AccessControl, Ownable {\n    address public admin;\n    bytes32 public constant EMPLOYEE_ROLE = keccak256(\"EMPLOYEE_ROLE\");\n\n    constructor() {\n        admin = msg.sender;\n        _setupRole(DEFAULT_ADMIN_ROLE, admin);\n    }\n\n    mapping(address => address) registeredEmployeesmap;\n    address[] registeredEmployees;\n\n    function registerEmployee(\n        address EthAddress,\n        string memory Name,\n        string memory Location,\n        string memory Description\n    ) public onlyOwner {\n        Employee newEmployee = new Employee(admin, EthAddress, Name, Location, Description);\n        registeredEmployeesmap[EthAddress] = address(newEmployee);\n        registeredEmployees.push(EthAddress);\n        grantRole(EMPLOYEE_ROLE, address(newEmployee));\n    }\n\n    function isEmployee(address _employeeAddress) public view returns (bool) {\n        return hasRole(EMPLOYEE_ROLE, registeredEmployeesmap[_employeeAddress]);\n    }\n\n    function employeeCount() public view returns (uint256) {\n        return registeredEmployees.length;\n    }\n\n    function getEmployeeContractByAddress(address _employee) public view returns (address) {\n        return registeredEmployeesmap[_employee];\n    }\n\n    function getEmployeeContractByIndex(uint256 index) public view returns (address) {\n        return getEmployeeContractByAddress(registeredEmployees[index]);\n    }\n}",
  "sourcePath": "/Users/mobilelive/Work/mobileLIVE/hrms-blockchain-app/src/contracts/Registry/EmployeeRegistry.sol",
  "compiler": {
    "name": "solc",
    "version": "0.8.0+commit.c7dfd78e.Emscripten.clang"
  },
  "schemaVersion": "3.4.3",
  "updatedAt": "2023-04-20T20:55:27.441Z",
  "devdoc": {
    "kind": "dev",
    "methods": {
      "getRoleAdmin(bytes32)": {
        "details": "Returns the admin role that controls `role`. See {grantRole} and {revokeRole}. To change a role's admin, use {_setRoleAdmin}."
      },
      "grantRole(bytes32,address)": {
        "details": "Grants `role` to `account`. If `account` had not been already granted `role`, emits a {RoleGranted} event. Requirements: - the caller must have ``role``'s admin role. May emit a {RoleGranted} event."
      },
      "hasRole(bytes32,address)": {
        "details": "Returns `true` if `account` has been granted `role`."
      },
      "owner()": {
        "details": "Returns the address of the current owner."
      },
      "renounceOwnership()": {
        "details": "Leaves the contract without owner. It will not be possible to call `onlyOwner` functions anymore. Can only be called by the current owner. NOTE: Renouncing ownership will leave the contract without an owner, thereby removing any functionality that is only available to the owner."
      },
      "renounceRole(bytes32,address)": {
        "details": "Revokes `role` from the calling account. Roles are often managed via {grantRole} and {revokeRole}: this function's purpose is to provide a mechanism for accounts to lose their privileges if they are compromised (such as when a trusted device is misplaced). If the calling account had been revoked `role`, emits a {RoleRevoked} event. Requirements: - the caller must be `account`. May emit a {RoleRevoked} event."
      },
      "revokeRole(bytes32,address)": {
        "details": "Revokes `role` from `account`. If `account` had been granted `role`, emits a {RoleRevoked} event. Requirements: - the caller must have ``role``'s admin role. May emit a {RoleRevoked} event."
      },
      "supportsInterface(bytes4)": {
        "details": "See {IERC165-supportsInterface}."
      },
      "transferOwnership(address)": {
        "details": "Transfers ownership of the contract to a new account (`newOwner`). Can only be called by the current owner."
      }
    },
    "version": 1
  },
  "userdoc": {
    "kind": "user",
    "methods": {},
    "version": 1
  }
}