{
  "contractName": "OrganizationEndorser",
  "abi": [
    {
      "inputs": [
        {
          "internalType": "address",
          "name": "_admin",
          "type": "address"
        },
        {
          "internalType": "address",
          "name": "_organization_address",
          "type": "address"
        },
        {
          "internalType": "string",
          "name": "_name",
          "type": "string"
        },
        {
          "internalType": "string",
          "name": "_description",
          "type": "string"
        },
        {
          "internalType": "string",
          "name": "_location",
          "type": "string"
        }
      ],
      "stateMutability": "nonpayable",
      "type": "constructor"
    },
    {
      "anonymous": false,
      "inputs": [
        {
          "indexed": true,
          "internalType": "bytes32",
          "name": "role",
          "type": "bytes32"
        },
        {
          "indexed": true,
          "internalType": "bytes32",
          "name": "previousAdminRole",
          "type": "bytes32"
        },
        {
          "indexed": true,
          "internalType": "bytes32",
          "name": "newAdminRole",
          "type": "bytes32"
        }
      ],
      "name": "RoleAdminChanged",
      "type": "event"
    },
    {
      "anonymous": false,
      "inputs": [
        {
          "indexed": true,
          "internalType": "bytes32",
          "name": "role",
          "type": "bytes32"
        },
        {
          "indexed": true,
          "internalType": "address",
          "name": "account",
          "type": "address"
        },
        {
          "indexed": true,
          "internalType": "address",
          "name": "sender",
          "type": "address"
        }
      ],
      "name": "RoleGranted",
      "type": "event"
    },
    {
      "anonymous": false,
      "inputs": [
        {
          "indexed": true,
          "internalType": "bytes32",
          "name": "role",
          "type": "bytes32"
        },
        {
          "indexed": true,
          "internalType": "address",
          "name": "account",
          "type": "address"
        },
        {
          "indexed": true,
          "internalType": "address",
          "name": "sender",
          "type": "address"
        }
      ],
      "name": "RoleRevoked",
      "type": "event"
    },
    {
      "inputs": [],
      "name": "DEFAULT_ADMIN_ROLE",
      "outputs": [
        {
          "internalType": "bytes32",
          "name": "",
          "type": "bytes32"
        }
      ],
      "stateMutability": "view",
      "type": "function"
    },
    {
      "inputs": [],
      "name": "ORGANIZATION_ROLE",
      "outputs": [
        {
          "internalType": "bytes32",
          "name": "",
          "type": "bytes32"
        }
      ],
      "stateMutability": "view",
      "type": "function"
    },
    {
      "inputs": [
        {
          "internalType": "bytes32",
          "name": "role",
          "type": "bytes32"
        }
      ],
      "name": "getRoleAdmin",
      "outputs": [
        {
          "internalType": "bytes32",
          "name": "",
          "type": "bytes32"
        }
      ],
      "stateMutability": "view",
      "type": "function"
    },
    {
      "inputs": [
        {
          "internalType": "bytes32",
          "name": "role",
          "type": "bytes32"
        },
        {
          "internalType": "address",
          "name": "account",
          "type": "address"
        }
      ],
      "name": "grantRole",
      "outputs": [],
      "stateMutability": "nonpayable",
      "type": "function"
    },
    {
      "inputs": [
        {
          "internalType": "bytes32",
          "name": "role",
          "type": "bytes32"
        },
        {
          "internalType": "address",
          "name": "account",
          "type": "address"
        }
      ],
      "name": "hasRole",
      "outputs": [
        {
          "internalType": "bool",
          "name": "",
          "type": "bool"
        }
      ],
      "stateMutability": "view",
      "type": "function"
    },
    {
      "inputs": [
        {
          "internalType": "bytes32",
          "name": "role",
          "type": "bytes32"
        },
        {
          "internalType": "address",
          "name": "account",
          "type": "address"
        }
      ],
      "name": "renounceRole",
      "outputs": [],
      "stateMutability": "nonpayable",
      "type": "function"
    },
    {
      "inputs": [
        {
          "internalType": "bytes32",
          "name": "role",
          "type": "bytes32"
        },
        {
          "internalType": "address",
          "name": "account",
          "type": "address"
        }
      ],
      "name": "revokeRole",
      "outputs": [],
      "stateMutability": "nonpayable",
      "type": "function"
    },
    {
      "inputs": [
        {
          "internalType": "bytes4",
          "name": "interfaceId",
          "type": "bytes4"
        }
      ],
      "name": "supportsInterface",
      "outputs": [
        {
          "internalType": "bool",
          "name": "",
          "type": "bool"
        }
      ],
      "stateMutability": "view",
      "type": "function"
    },
    {
      "inputs": [],
      "name": "getOrganizationInfo",
      "outputs": [
        {
          "internalType": "string",
          "name": "",
          "type": "string"
        },
        {
          "internalType": "address",
          "name": "",
          "type": "address"
        },
        {
          "internalType": "string",
          "name": "",
          "type": "string"
        },
        {
          "internalType": "string",
          "name": "",
          "type": "string"
        }
      ],
      "stateMutability": "view",
      "type": "function"
    },
    {
      "inputs": [
        {
          "internalType": "address",
          "name": "employee_address",
          "type": "address"
        }
      ],
      "name": "addEmployees",
      "outputs": [],
      "stateMutability": "nonpayable",
      "type": "function"
    },
    {
      "inputs": [],
      "name": "totalEmployees",
      "outputs": [
        {
          "internalType": "uint256",
          "name": "",
          "type": "uint256"
        }
      ],
      "stateMutability": "view",
      "type": "function"
    },
    {
      "inputs": [
        {
          "internalType": "uint256",
          "name": "index",
          "type": "uint256"
        }
      ],
      "name": "getEmployeeByIndex",
      "outputs": [
        {
          "internalType": "address",
          "name": "",
          "type": "address"
        }
      ],
      "stateMutability": "view",
      "type": "function"
    }
  ],
  "bytecode": "0x60806040523480156200001157600080fd5b5060405162001b6b38038062001b6b8339818101604052810190620000379190620003c7565b6200004c6000801b866200011560201b60201c565b6200007e7fe0ae735793555d3fe7bb9c3f6f29e053c01c45cee237096b99b73ac619531dfb856200011560201b60201c565b8260019080519060200190620000969291906200028e565b5083600260006101000a81548173ffffffffffffffffffffffffffffffffffffffff021916908373ffffffffffffffffffffffffffffffffffffffff1602179055508160039080519060200190620000f09291906200028e565b508060049080519060200190620001099291906200028e565b50505050505062000613565b6200012782826200012b60201b60201c565b5050565b6200013d82826200021c60201b60201c565b6200021857600160008084815260200190815260200160002060000160008373ffffffffffffffffffffffffffffffffffffffff1673ffffffffffffffffffffffffffffffffffffffff16815260200190815260200160002060006101000a81548160ff021916908315150217905550620001bd6200028660201b60201c565b73ffffffffffffffffffffffffffffffffffffffff168173ffffffffffffffffffffffffffffffffffffffff16837f2f8788117e7eff1d82e926ec794901d17c78024a50270940304540a733656f0d60405160405180910390a45b5050565b600080600084815260200190815260200160002060000160008373ffffffffffffffffffffffffffffffffffffffff1673ffffffffffffffffffffffffffffffffffffffff16815260200190815260200160002060009054906101000a900460ff16905092915050565b600033905090565b8280546200029c9062000565565b90600052602060002090601f016020900481019282620002c057600085556200030c565b82601f10620002db57805160ff19168380011785556200030c565b828001600101855582156200030c579182015b828111156200030b578251825591602001919060010190620002ee565b5b5090506200031b91906200031f565b5090565b5b808211156200033a57600081600090555060010162000320565b5090565b6000620003556200034f84620004c8565b62000494565b9050828152602081018484840111156200036e57600080fd5b6200037b8482856200052f565b509392505050565b6000815190506200039481620005f9565b92915050565b600082601f830112620003ac57600080fd5b8151620003be8482602086016200033e565b91505092915050565b600080600080600060a08688031215620003e057600080fd5b6000620003f08882890162000383565b9550506020620004038882890162000383565b945050604086015167ffffffffffffffff8111156200042157600080fd5b6200042f888289016200039a565b935050606086015167ffffffffffffffff8111156200044d57600080fd5b6200045b888289016200039a565b925050608086015167ffffffffffffffff8111156200047957600080fd5b62000487888289016200039a565b9150509295509295909350565b6000604051905081810181811067ffffffffffffffff82111715620004be57620004bd620005ca565b5b8060405250919050565b600067ffffffffffffffff821115620004e657620004e5620005ca565b5b601f19601f8301169050602081019050919050565b600062000508826200050f565b9050919050565b600073ffffffffffffffffffffffffffffffffffffffff82169050919050565b60005b838110156200054f57808201518184015260208101905062000532565b838111156200055f576000848401525b50505050565b600060028204905060018216806200057e57607f821691505b602082108114156200059557620005946200059b565b5b50919050565b7f4e487b7100000000000000000000000000000000000000000000000000000000600052602260045260246000fd5b7f4e487b7100000000000000000000000000000000000000000000000000000000600052604160045260246000fd5b6200060481620004fb565b81146200061057600080fd5b50565b61154880620006236000396000f3fe608060405234801561001057600080fd5b50600436106100b35760003560e01c806359420e481161007157806359420e481461018a5780638c948342146101ba57806391d14854146101d8578063a217fddf14610208578063d547741f14610226578063e894d0a214610242576100b3565b8062ac8095146100b857806301ffc9a7146100d4578063248a9ca3146101045780632f2ff15d1461013457806336568abe1461015057806352b9b9731461016c575b600080fd5b6100d260048036038101906100cd9190610df5565b610263565b005b6100ee60048036038101906100e99190610e83565b6102d1565b6040516100fb9190611136565b60405180910390f35b61011e60048036038101906101199190610e1e565b61034b565b60405161012b9190611151565b60405180910390f35b61014e60048036038101906101499190610e47565b61036a565b005b61016a60048036038101906101659190610e47565b61038b565b005b61017461040e565b6040516101819190611248565b60405180910390f35b6101a4600480360381019061019f9190610eac565b61041b565b6040516101b1919061111b565b60405180910390f35b6101c2610489565b6040516101cf9190611151565b60405180910390f35b6101f260048036038101906101ed9190610e47565b6104ad565b6040516101ff9190611136565b60405180910390f35b610210610517565b60405161021d9190611151565b60405180910390f35b610240600480360381019061023b9190610e47565b61051e565b005b61024a61053f565b60405161025a949392919061118e565b60405180910390f35b61026b610721565b6005819080600181540180825580915050600190039060005260206000200160009091909190916101000a81548173ffffffffffffffffffffffffffffffffffffffff021916908373ffffffffffffffffffffffffffffffffffffffff16021790555050565b60007f7965db0b000000000000000000000000000000000000000000000000000000007bffffffffffffffffffffffffffffffffffffffffffffffffffffffff1916827bffffffffffffffffffffffffffffffffffffffffffffffffffffffff191614806103445750610343826107ae565b5b9050919050565b6000806000838152602001908152602001600020600101549050919050565b6103738261034b565b61037c81610818565b610386838361082c565b505050565b61039361090c565b73ffffffffffffffffffffffffffffffffffffffff168173ffffffffffffffffffffffffffffffffffffffff1614610400576040517f08c379a00000000000000000000000000000000000000000000000000000000081526004016103f790611228565b60405180910390fd5b61040a8282610914565b5050565b6000600580549050905090565b600060058281548110610457577f4e487b7100000000000000000000000000000000000000000000000000000000600052603260045260246000fd5b9060005260206000200160009054906101000a900473ffffffffffffffffffffffffffffffffffffffff169050919050565b7fe0ae735793555d3fe7bb9c3f6f29e053c01c45cee237096b99b73ac619531dfb81565b600080600084815260200190815260200160002060000160008373ffffffffffffffffffffffffffffffffffffffff1673ffffffffffffffffffffffffffffffffffffffff16815260200190815260200160002060009054906101000a900460ff16905092915050565b6000801b81565b6105278261034b565b61053081610818565b61053a8383610914565b505050565b606060006060806001600260009054906101000a900473ffffffffffffffffffffffffffffffffffffffff166003600483805461057b90611415565b80601f01602080910402602001604051908101604052809291908181526020018280546105a790611415565b80156105f45780601f106105c9576101008083540402835291602001916105f4565b820191906000526020600020905b8154815290600101906020018083116105d757829003601f168201915b5050505050935081805461060790611415565b80601f016020809104026020016040519081016040528092919081815260200182805461063390611415565b80156106805780601f1061065557610100808354040283529160200191610680565b820191906000526020600020905b81548152906001019060200180831161066357829003601f168201915b5050505050915080805461069390611415565b80601f01602080910402602001604051908101604052809291908181526020018280546106bf90611415565b801561070c5780601f106106e15761010080835404028352916020019161070c565b820191906000526020600020905b8154815290600101906020018083116106ef57829003601f168201915b50505050509050935093509350935090919293565b61076d7fe0ae735793555d3fe7bb9c3f6f29e053c01c45cee237096b99b73ac619531dfb600260009054906101000a900473ffffffffffffffffffffffffffffffffffffffff166104ad565b6107ac576040517f08c379a00000000000000000000000000000000000000000000000000000000081526004016107a390611208565b60405180910390fd5b565b60007f01ffc9a7000000000000000000000000000000000000000000000000000000007bffffffffffffffffffffffffffffffffffffffffffffffffffffffff1916827bffffffffffffffffffffffffffffffffffffffffffffffffffffffff1916149050919050565b6108298161082461090c565b6109f5565b50565b61083682826104ad565b61090857600160008084815260200190815260200160002060000160008373ffffffffffffffffffffffffffffffffffffffff1673ffffffffffffffffffffffffffffffffffffffff16815260200190815260200160002060006101000a81548160ff0219169083151502179055506108ad61090c565b73ffffffffffffffffffffffffffffffffffffffff168173ffffffffffffffffffffffffffffffffffffffff16837f2f8788117e7eff1d82e926ec794901d17c78024a50270940304540a733656f0d60405160405180910390a45b5050565b600033905090565b61091e82826104ad565b156109f157600080600084815260200190815260200160002060000160008373ffffffffffffffffffffffffffffffffffffffff1673ffffffffffffffffffffffffffffffffffffffff16815260200190815260200160002060006101000a81548160ff02191690831515021790555061099661090c565b73ffffffffffffffffffffffffffffffffffffffff168173ffffffffffffffffffffffffffffffffffffffff16837ff6391f5c32d9c69d2a47ea670b442974b53935d1edc7fd64eb21e047a839171b60405160405180910390a45b5050565b6109ff82826104ad565b610a7657610a0c81610a7a565b610a1a8360001c6020610aa7565b604051602001610a2b9291906110e1565b6040516020818303038152906040526040517f08c379a0000000000000000000000000000000000000000000000000000000008152600401610a6d919061116c565b60405180910390fd5b5050565b6060610aa08273ffffffffffffffffffffffffffffffffffffffff16601460ff16610aa7565b9050919050565b606060006002836002610aba91906112e0565b610ac4919061128a565b67ffffffffffffffff811115610b03577f4e487b7100000000000000000000000000000000000000000000000000000000600052604160045260246000fd5b6040519080825280601f01601f191660200182016040528015610b355781602001600182028036833780820191505090505b5090507f300000000000000000000000000000000000000000000000000000000000000081600081518110610b93577f4e487b7100000000000000000000000000000000000000000000000000000000600052603260045260246000fd5b60200101907effffffffffffffffffffffffffffffffffffffffffffffffffffffffffffff1916908160001a9053507f780000000000000000000000000000000000000000000000000000000000000081600181518110610c1d577f4e487b7100000000000000000000000000000000000000000000000000000000600052603260045260246000fd5b60200101907effffffffffffffffffffffffffffffffffffffffffffffffffffffffffffff1916908160001a90535060006001846002610c5d91906112e0565b610c67919061128a565b90505b6001811115610d53577f3031323334353637383961626364656600000000000000000000000000000000600f861660108110610ccf577f4e487b7100000000000000000000000000000000000000000000000000000000600052603260045260246000fd5b1a60f81b828281518110610d0c577f4e487b7100000000000000000000000000000000000000000000000000000000600052603260045260246000fd5b60200101907effffffffffffffffffffffffffffffffffffffffffffffffffffffffffffff1916908160001a905350600485901c945080610d4c906113eb565b9050610c6a565b5060008414610d97576040517f08c379a0000000000000000000000000000000000000000000000000000000008152600401610d8e906111e8565b60405180910390fd5b8091505092915050565b600081359050610db0816114b6565b92915050565b600081359050610dc5816114cd565b92915050565b600081359050610dda816114e4565b92915050565b600081359050610def816114fb565b92915050565b600060208284031215610e0757600080fd5b6000610e1584828501610da1565b91505092915050565b600060208284031215610e3057600080fd5b6000610e3e84828501610db6565b91505092915050565b60008060408385031215610e5a57600080fd5b6000610e6885828601610db6565b9250506020610e7985828601610da1565b9150509250929050565b600060208284031215610e9557600080fd5b6000610ea384828501610dcb565b91505092915050565b600060208284031215610ebe57600080fd5b6000610ecc84828501610de0565b91505092915050565b610ede8161133a565b82525050565b610eed8161134c565b82525050565b610efc81611358565b82525050565b6000610f0d82611263565b610f17818561126e565b9350610f278185602086016113b8565b610f30816114a5565b840191505092915050565b6000610f4682611263565b610f50818561127f565b9350610f608185602086016113b8565b80840191505092915050565b6000610f7960208361126e565b91507f537472696e67733a20686578206c656e67746820696e73756666696369656e746000830152602082019050919050565b6000610fb960178361127f565b91507f416363657373436f6e74726f6c3a206163636f756e74200000000000000000006000830152601782019050919050565b6000610ff9601d8361126e565b91507f43616c6c6572206973206e6f7420616e206f7267616e697a6174696f6e0000006000830152602082019050919050565b600061103960118361127f565b91507f206973206d697373696e6720726f6c65200000000000000000000000000000006000830152601182019050919050565b6000611079602f8361126e565b91507f416363657373436f6e74726f6c3a2063616e206f6e6c792072656e6f756e636560008301527f20726f6c657320666f722073656c6600000000000000000000000000000000006020830152604082019050919050565b6110db816113ae565b82525050565b60006110ec82610fac565b91506110f88285610f3b565b91506111038261102c565b915061110f8284610f3b565b91508190509392505050565b60006020820190506111306000830184610ed5565b92915050565b600060208201905061114b6000830184610ee4565b92915050565b60006020820190506111666000830184610ef3565b92915050565b600060208201905081810360008301526111868184610f02565b905092915050565b600060808201905081810360008301526111a88187610f02565b90506111b76020830186610ed5565b81810360408301526111c98185610f02565b905081810360608301526111dd8184610f02565b905095945050505050565b6000602082019050818103600083015261120181610f6c565b9050919050565b6000602082019050818103600083015261122181610fec565b9050919050565b600060208201905081810360008301526112418161106c565b9050919050565b600060208201905061125d60008301846110d2565b92915050565b600081519050919050565b600082825260208201905092915050565b600081905092915050565b6000611295826113ae565b91506112a0836113ae565b9250827fffffffffffffffffffffffffffffffffffffffffffffffffffffffffffffffff038211156112d5576112d4611447565b5b828201905092915050565b60006112eb826113ae565b91506112f6836113ae565b9250817fffffffffffffffffffffffffffffffffffffffffffffffffffffffffffffffff048311821515161561132f5761132e611447565b5b828202905092915050565b60006113458261138e565b9050919050565b60008115159050919050565b6000819050919050565b60007fffffffff0000000000000000000000000000000000000000000000000000000082169050919050565b600073ffffffffffffffffffffffffffffffffffffffff82169050919050565b6000819050919050565b60005b838110156113d65780820151818401526020810190506113bb565b838111156113e5576000848401525b50505050565b60006113f6826113ae565b9150600082141561140a57611409611447565b5b600182039050919050565b6000600282049050600182168061142d57607f821691505b6020821081141561144157611440611476565b5b50919050565b7f4e487b7100000000000000000000000000000000000000000000000000000000600052601160045260246000fd5b7f4e487b7100000000000000000000000000000000000000000000000000000000600052602260045260246000fd5b6000601f19601f8301169050919050565b6114bf8161133a565b81146114ca57600080fd5b50565b6114d681611358565b81146114e157600080fd5b50565b6114ed81611362565b81146114f857600080fd5b50565b611504816113ae565b811461150f57600080fd5b5056fea264697066735822122057d5074b24b340ecb125b8e112d44a827ccacc6642955c4b1821cabb1900c76b64736f6c63430008000033",
  "immutableReferences": {},
  "source": "//SPDX-License-Identifier: MIT\npragma solidity >=0.5.0 <0.9.0;\nimport \"@openzeppelin/contracts/access/AccessControl.sol\";\n\ncontract OrganizationEndorser is AccessControl {\n  bytes32 public constant ORGANIZATION_ROLE = keccak256(\"ORGANIZATION_ROLE\");\n\n  // address admin;\n  string name;\n  address organization_address;\n  string description;\n  string location;\n\n  function _isOrganization() private view{\n    require(hasRole(ORGANIZATION_ROLE, organization_address), \"Caller is not an organization\");\n  }\n\n  modifier onlyOrganization() {\n    _isOrganization();\n    _;\n  }\n\n  constructor(\n    address _admin,\n    address _organization_address,\n    string memory _name,\n    string memory _description,\n    string memory _location\n  ) {\n    _setupRole(DEFAULT_ADMIN_ROLE, _admin);\n    _setupRole(ORGANIZATION_ROLE, _organization_address);\n    name = _name;\n    organization_address = _organization_address;\n    description = _description;\n    location = _location;\n  }\n\n  function getOrganizationInfo()\n    public\n    view\n    returns (\n      string memory,\n      address,\n      string memory,\n      string memory\n    )\n  {\n    return (name, organization_address, description, location);\n  }\n\n  address[] allEmployees;\n\n  function addEmployees(address employee_address) public onlyOrganization {\n    allEmployees.push(employee_address);\n  }\n\n  function totalEmployees() public view returns (uint256) {\n    return allEmployees.length;\n  }\n\n  function getEmployeeByIndex(uint256 index) public view returns (address) {\n    return allEmployees[index];\n  }\n}\n",
  "sourcePath": "/Users/mobilelive/Work/mobileLIVE/hrms-blockchain-app/src/contracts/OrganizationEndorser.sol",
  "compiler": {
    "name": "solc",
    "version": "0.8.0+commit.c7dfd78e.Emscripten.clang"
  },
  "schemaVersion": "3.4.3",
  "updatedAt": "2023-04-20T20:55:27.422Z",
  "devdoc": {
    "kind": "dev",
    "methods": {
      "getRoleAdmin(bytes32)": {
        "details": "Returns the admin role that controls `role`. See {grantRole} and {revokeRole}. To change a role's admin, use {_setRoleAdmin}."
      },
      "grantRole(bytes32,address)": {
        "details": "Grants `role` to `account`. If `account` had not been already granted `role`, emits a {RoleGranted} event. Requirements: - the caller must have ``role``'s admin role. May emit a {RoleGranted} event."
      },
      "hasRole(bytes32,address)": {
        "details": "Returns `true` if `account` has been granted `role`."
      },
      "renounceRole(bytes32,address)": {
        "details": "Revokes `role` from the calling account. Roles are often managed via {grantRole} and {revokeRole}: this function's purpose is to provide a mechanism for accounts to lose their privileges if they are compromised (such as when a trusted device is misplaced). If the calling account had been revoked `role`, emits a {RoleRevoked} event. Requirements: - the caller must be `account`. May emit a {RoleRevoked} event."
      },
      "revokeRole(bytes32,address)": {
        "details": "Revokes `role` from `account`. If `account` had been granted `role`, emits a {RoleRevoked} event. Requirements: - the caller must have ``role``'s admin role. May emit a {RoleRevoked} event."
      },
      "supportsInterface(bytes4)": {
        "details": "See {IERC165-supportsInterface}."
      }
    },
    "version": 1
  },
  "userdoc": {
    "kind": "user",
    "methods": {},
    "version": 1
  }
}