{
  "contractName": "OrganizationEndorser",
  "abi": [
    {
      "inputs": [
        {
          "internalType": "address",
          "name": "_admin",
          "type": "address"
        },
        {
          "internalType": "address",
          "name": "_organization_address",
          "type": "address"
        },
        {
          "internalType": "string",
          "name": "_name",
          "type": "string"
        },
        {
          "internalType": "string",
          "name": "_description",
          "type": "string"
        },
        {
          "internalType": "string",
          "name": "_location",
          "type": "string"
        }
      ],
      "stateMutability": "nonpayable",
      "type": "constructor"
    },
    {
      "anonymous": false,
      "inputs": [
        {
          "indexed": true,
          "internalType": "bytes32",
          "name": "role",
          "type": "bytes32"
        },
        {
          "indexed": true,
          "internalType": "bytes32",
          "name": "previousAdminRole",
          "type": "bytes32"
        },
        {
          "indexed": true,
          "internalType": "bytes32",
          "name": "newAdminRole",
          "type": "bytes32"
        }
      ],
      "name": "RoleAdminChanged",
      "type": "event"
    },
    {
      "anonymous": false,
      "inputs": [
        {
          "indexed": true,
          "internalType": "bytes32",
          "name": "role",
          "type": "bytes32"
        },
        {
          "indexed": true,
          "internalType": "address",
          "name": "account",
          "type": "address"
        },
        {
          "indexed": true,
          "internalType": "address",
          "name": "sender",
          "type": "address"
        }
      ],
      "name": "RoleGranted",
      "type": "event"
    },
    {
      "anonymous": false,
      "inputs": [
        {
          "indexed": true,
          "internalType": "bytes32",
          "name": "role",
          "type": "bytes32"
        },
        {
          "indexed": true,
          "internalType": "address",
          "name": "account",
          "type": "address"
        },
        {
          "indexed": true,
          "internalType": "address",
          "name": "sender",
          "type": "address"
        }
      ],
      "name": "RoleRevoked",
      "type": "event"
    },
    {
      "inputs": [],
      "name": "DEFAULT_ADMIN_ROLE",
      "outputs": [
        {
          "internalType": "bytes32",
          "name": "",
          "type": "bytes32"
        }
      ],
      "stateMutability": "view",
      "type": "function"
    },
    {
      "inputs": [],
      "name": "ORGANIZATION_ROLE",
      "outputs": [
        {
          "internalType": "bytes32",
          "name": "",
          "type": "bytes32"
        }
      ],
      "stateMutability": "view",
      "type": "function"
    },
    {
      "inputs": [
        {
          "internalType": "bytes32",
          "name": "role",
          "type": "bytes32"
        }
      ],
      "name": "getRoleAdmin",
      "outputs": [
        {
          "internalType": "bytes32",
          "name": "",
          "type": "bytes32"
        }
      ],
      "stateMutability": "view",
      "type": "function"
    },
    {
      "inputs": [
        {
          "internalType": "bytes32",
          "name": "role",
          "type": "bytes32"
        },
        {
          "internalType": "address",
          "name": "account",
          "type": "address"
        }
      ],
      "name": "grantRole",
      "outputs": [],
      "stateMutability": "nonpayable",
      "type": "function"
    },
    {
      "inputs": [
        {
          "internalType": "bytes32",
          "name": "role",
          "type": "bytes32"
        },
        {
          "internalType": "address",
          "name": "account",
          "type": "address"
        }
      ],
      "name": "hasRole",
      "outputs": [
        {
          "internalType": "bool",
          "name": "",
          "type": "bool"
        }
      ],
      "stateMutability": "view",
      "type": "function"
    },
    {
      "inputs": [
        {
          "internalType": "bytes32",
          "name": "role",
          "type": "bytes32"
        },
        {
          "internalType": "address",
          "name": "account",
          "type": "address"
        }
      ],
      "name": "renounceRole",
      "outputs": [],
      "stateMutability": "nonpayable",
      "type": "function"
    },
    {
      "inputs": [
        {
          "internalType": "bytes32",
          "name": "role",
          "type": "bytes32"
        },
        {
          "internalType": "address",
          "name": "account",
          "type": "address"
        }
      ],
      "name": "revokeRole",
      "outputs": [],
      "stateMutability": "nonpayable",
      "type": "function"
    },
    {
      "inputs": [
        {
          "internalType": "bytes4",
          "name": "interfaceId",
          "type": "bytes4"
        }
      ],
      "name": "supportsInterface",
      "outputs": [
        {
          "internalType": "bool",
          "name": "",
          "type": "bool"
        }
      ],
      "stateMutability": "view",
      "type": "function"
    },
    {
      "inputs": [],
      "name": "getOrganizationInfo",
      "outputs": [
        {
          "internalType": "string",
          "name": "",
          "type": "string"
        },
        {
          "internalType": "address",
          "name": "",
          "type": "address"
        },
        {
          "internalType": "string",
          "name": "",
          "type": "string"
        },
        {
          "internalType": "string",
          "name": "",
          "type": "string"
        }
      ],
      "stateMutability": "view",
      "type": "function"
    },
    {
      "inputs": [
        {
          "internalType": "address",
          "name": "employee_address",
          "type": "address"
        }
      ],
      "name": "addEmployees",
      "outputs": [],
      "stateMutability": "nonpayable",
      "type": "function"
    },
    {
      "inputs": [],
      "name": "totalEmployees",
      "outputs": [
        {
          "internalType": "uint256",
          "name": "",
          "type": "uint256"
        }
      ],
      "stateMutability": "view",
      "type": "function"
    },
    {
      "inputs": [
        {
          "internalType": "uint256",
          "name": "index",
          "type": "uint256"
        }
      ],
      "name": "getEmployeeByIndex",
      "outputs": [
        {
          "internalType": "address",
          "name": "",
          "type": "address"
        }
      ],
      "stateMutability": "view",
      "type": "function"
    }
  ],
  "bytecode": "0x60806040523480156200001157600080fd5b5060405162001d6038038062001d60833981810160405281019062000037919062000471565b6200004c6000801b866200010060201b60201c565b6200007e7fe0ae735793555d3fe7bb9c3f6f29e053c01c45cee237096b99b73ac619531dfb856200010060201b60201c565b82600190816200008f9190620007a1565b5083600260006101000a81548173ffffffffffffffffffffffffffffffffffffffff021916908373ffffffffffffffffffffffffffffffffffffffff1602179055508160039081620000e29190620007a1565b508060049081620000f49190620007a1565b50505050505062000888565b6200011282826200011660201b60201c565b5050565b6200012882826200020760201b60201c565b6200020357600160008084815260200190815260200160002060000160008373ffffffffffffffffffffffffffffffffffffffff1673ffffffffffffffffffffffffffffffffffffffff16815260200190815260200160002060006101000a81548160ff021916908315150217905550620001a86200027160201b60201c565b73ffffffffffffffffffffffffffffffffffffffff168173ffffffffffffffffffffffffffffffffffffffff16837f2f8788117e7eff1d82e926ec794901d17c78024a50270940304540a733656f0d60405160405180910390a45b5050565b600080600084815260200190815260200160002060000160008373ffffffffffffffffffffffffffffffffffffffff1673ffffffffffffffffffffffffffffffffffffffff16815260200190815260200160002060009054906101000a900460ff16905092915050565b600033905090565b6000604051905090565b600080fd5b600080fd5b600073ffffffffffffffffffffffffffffffffffffffff82169050919050565b6000620002ba826200028d565b9050919050565b620002cc81620002ad565b8114620002d857600080fd5b50565b600081519050620002ec81620002c1565b92915050565b600080fd5b600080fd5b6000601f19601f8301169050919050565b7f4e487b7100000000000000000000000000000000000000000000000000000000600052604160045260246000fd5b6200034782620002fc565b810181811067ffffffffffffffff821117156200036957620003686200030d565b5b80604052505050565b60006200037e62000279565b90506200038c82826200033c565b919050565b600067ffffffffffffffff821115620003af57620003ae6200030d565b5b620003ba82620002fc565b9050602081019050919050565b60005b83811015620003e7578082015181840152602081019050620003ca565b60008484015250505050565b60006200040a620004048462000391565b62000372565b905082815260208101848484011115620004295762000428620002f7565b5b62000436848285620003c7565b509392505050565b600082601f830112620004565762000455620002f2565b5b815162000468848260208601620003f3565b91505092915050565b600080600080600060a0868803121562000490576200048f62000283565b5b6000620004a088828901620002db565b9550506020620004b388828901620002db565b945050604086015167ffffffffffffffff811115620004d757620004d662000288565b5b620004e5888289016200043e565b935050606086015167ffffffffffffffff81111562000509576200050862000288565b5b62000517888289016200043e565b925050608086015167ffffffffffffffff8111156200053b576200053a62000288565b5b62000549888289016200043e565b9150509295509295909350565b600081519050919050565b7f4e487b7100000000000000000000000000000000000000000000000000000000600052602260045260246000fd5b60006002820490506001821680620005a957607f821691505b602082108103620005bf57620005be62000561565b5b50919050565b60008190508160005260206000209050919050565b60006020601f8301049050919050565b600082821b905092915050565b600060088302620006297fffffffffffffffffffffffffffffffffffffffffffffffffffffffffffffffff82620005ea565b620006358683620005ea565b95508019841693508086168417925050509392505050565b6000819050919050565b6000819050919050565b6000620006826200067c62000676846200064d565b62000657565b6200064d565b9050919050565b6000819050919050565b6200069e8362000661565b620006b6620006ad8262000689565b848454620005f7565b825550505050565b600090565b620006cd620006be565b620006da81848462000693565b505050565b5b818110156200070257620006f6600082620006c3565b600181019050620006e0565b5050565b601f82111562000751576200071b81620005c5565b6200072684620005da565b8101602085101562000736578190505b6200074e6200074585620005da565b830182620006df565b50505b505050565b600082821c905092915050565b6000620007766000198460080262000756565b1980831691505092915050565b600062000791838362000763565b9150826002028217905092915050565b620007ac8262000556565b67ffffffffffffffff811115620007c857620007c76200030d565b5b620007d4825462000590565b620007e182828562000706565b600060209050601f83116001811462000819576000841562000804578287015190505b62000810858262000783565b86555062000880565b601f1984166200082986620005c5565b60005b8281101562000853578489015182556001820191506020850194506020810190506200082c565b868310156200087357848901516200086f601f89168262000763565b8355505b6001600288020188555050505b505050505050565b6114c880620008986000396000f3fe608060405234801561001057600080fd5b50600436106100b35760003560e01c806359420e481161007157806359420e481461018a5780638c948342146101ba57806391d14854146101d8578063a217fddf14610208578063d547741f14610226578063e894d0a214610242576100b3565b8062ac8095146100b857806301ffc9a7146100d4578063248a9ca3146101045780632f2ff15d1461013457806336568abe1461015057806352b9b9731461016c575b600080fd5b6100d260048036038101906100cd9190610d16565b610263565b005b6100ee60048036038101906100e99190610d9b565b610354565b6040516100fb9190610de3565b60405180910390f35b61011e60048036038101906101199190610e34565b6103ce565b60405161012b9190610e70565b60405180910390f35b61014e60048036038101906101499190610e8b565b6103ed565b005b61016a60048036038101906101659190610e8b565b61040e565b005b610174610491565b6040516101819190610ee4565b60405180910390f35b6101a4600480360381019061019f9190610f2b565b61049e565b6040516101b19190610f67565b60405180910390f35b6101c26104e6565b6040516101cf9190610e70565b60405180910390f35b6101f260048036038101906101ed9190610e8b565b61050a565b6040516101ff9190610de3565b60405180910390f35b610210610574565b60405161021d9190610e70565b60405180910390f35b610240600480360381019061023b9190610e8b565b61057b565b005b61024a61059c565b60405161025a9493929190611012565b60405180910390f35b6102af7fe0ae735793555d3fe7bb9c3f6f29e053c01c45cee237096b99b73ac619531dfb600260009054906101000a900473ffffffffffffffffffffffffffffffffffffffff1661050a565b6102ee576040517f08c379a00000000000000000000000000000000000000000000000000000000081526004016102e5906110b8565b60405180910390fd5b6005819080600181540180825580915050600190039060005260206000200160009091909190916101000a81548173ffffffffffffffffffffffffffffffffffffffff021916908373ffffffffffffffffffffffffffffffffffffffff16021790555050565b60007f7965db0b000000000000000000000000000000000000000000000000000000007bffffffffffffffffffffffffffffffffffffffffffffffffffffffff1916827bffffffffffffffffffffffffffffffffffffffffffffffffffffffff191614806103c757506103c68261077e565b5b9050919050565b6000806000838152602001908152602001600020600101549050919050565b6103f6826103ce565b6103ff816107e8565b61040983836107fc565b505050565b6104166108dc565b73ffffffffffffffffffffffffffffffffffffffff168173ffffffffffffffffffffffffffffffffffffffff1614610483576040517f08c379a000000000000000000000000000000000000000000000000000000000815260040161047a9061114a565b60405180910390fd5b61048d82826108e4565b5050565b6000600580549050905090565b6000600582815481106104b4576104b361116a565b5b9060005260206000200160009054906101000a900473ffffffffffffffffffffffffffffffffffffffff169050919050565b7fe0ae735793555d3fe7bb9c3f6f29e053c01c45cee237096b99b73ac619531dfb81565b600080600084815260200190815260200160002060000160008373ffffffffffffffffffffffffffffffffffffffff1673ffffffffffffffffffffffffffffffffffffffff16815260200190815260200160002060009054906101000a900460ff16905092915050565b6000801b81565b610584826103ce565b61058d816107e8565b61059783836108e4565b505050565b606060006060806001600260009054906101000a900473ffffffffffffffffffffffffffffffffffffffff16600360048380546105d8906111c8565b80601f0160208091040260200160405190810160405280929190818152602001828054610604906111c8565b80156106515780601f1061062657610100808354040283529160200191610651565b820191906000526020600020905b81548152906001019060200180831161063457829003601f168201915b50505050509350818054610664906111c8565b80601f0160208091040260200160405190810160405280929190818152602001828054610690906111c8565b80156106dd5780601f106106b2576101008083540402835291602001916106dd565b820191906000526020600020905b8154815290600101906020018083116106c057829003601f168201915b505050505091508080546106f0906111c8565b80601f016020809104026020016040519081016040528092919081815260200182805461071c906111c8565b80156107695780601f1061073e57610100808354040283529160200191610769565b820191906000526020600020905b81548152906001019060200180831161074c57829003601f168201915b50505050509050935093509350935090919293565b60007f01ffc9a7000000000000000000000000000000000000000000000000000000007bffffffffffffffffffffffffffffffffffffffffffffffffffffffff1916827bffffffffffffffffffffffffffffffffffffffffffffffffffffffff1916149050919050565b6107f9816107f46108dc565b6109c5565b50565b610806828261050a565b6108d857600160008084815260200190815260200160002060000160008373ffffffffffffffffffffffffffffffffffffffff1673ffffffffffffffffffffffffffffffffffffffff16815260200190815260200160002060006101000a81548160ff02191690831515021790555061087d6108dc565b73ffffffffffffffffffffffffffffffffffffffff168173ffffffffffffffffffffffffffffffffffffffff16837f2f8788117e7eff1d82e926ec794901d17c78024a50270940304540a733656f0d60405160405180910390a45b5050565b600033905090565b6108ee828261050a565b156109c157600080600084815260200190815260200160002060000160008373ffffffffffffffffffffffffffffffffffffffff1673ffffffffffffffffffffffffffffffffffffffff16815260200190815260200160002060006101000a81548160ff0219169083151502179055506109666108dc565b73ffffffffffffffffffffffffffffffffffffffff168173ffffffffffffffffffffffffffffffffffffffff16837ff6391f5c32d9c69d2a47ea670b442974b53935d1edc7fd64eb21e047a839171b60405160405180910390a45b5050565b6109cf828261050a565b610a46576109dc81610a4a565b6109ea8360001c6020610a77565b6040516020016109fb9291906112cd565b6040516020818303038152906040526040517f08c379a0000000000000000000000000000000000000000000000000000000008152600401610a3d9190611307565b60405180910390fd5b5050565b6060610a708273ffffffffffffffffffffffffffffffffffffffff16601460ff16610a77565b9050919050565b606060006002836002610a8a9190611358565b610a94919061139a565b67ffffffffffffffff811115610aad57610aac6113ce565b5b6040519080825280601f01601f191660200182016040528015610adf5781602001600182028036833780820191505090505b5090507f300000000000000000000000000000000000000000000000000000000000000081600081518110610b1757610b1661116a565b5b60200101907effffffffffffffffffffffffffffffffffffffffffffffffffffffffffffff1916908160001a9053507f780000000000000000000000000000000000000000000000000000000000000081600181518110610b7b57610b7a61116a565b5b60200101907effffffffffffffffffffffffffffffffffffffffffffffffffffffffffffff1916908160001a90535060006001846002610bbb9190611358565b610bc5919061139a565b90505b6001811115610c65577f3031323334353637383961626364656600000000000000000000000000000000600f861660108110610c0757610c0661116a565b5b1a60f81b828281518110610c1e57610c1d61116a565b5b60200101907effffffffffffffffffffffffffffffffffffffffffffffffffffffffffffff1916908160001a905350600485901c945080610c5e906113fd565b9050610bc8565b5060008414610ca9576040517f08c379a0000000000000000000000000000000000000000000000000000000008152600401610ca090611472565b60405180910390fd5b8091505092915050565b600080fd5b600073ffffffffffffffffffffffffffffffffffffffff82169050919050565b6000610ce382610cb8565b9050919050565b610cf381610cd8565b8114610cfe57600080fd5b50565b600081359050610d1081610cea565b92915050565b600060208284031215610d2c57610d2b610cb3565b5b6000610d3a84828501610d01565b91505092915050565b60007fffffffff0000000000000000000000000000000000000000000000000000000082169050919050565b610d7881610d43565b8114610d8357600080fd5b50565b600081359050610d9581610d6f565b92915050565b600060208284031215610db157610db0610cb3565b5b6000610dbf84828501610d86565b91505092915050565b60008115159050919050565b610ddd81610dc8565b82525050565b6000602082019050610df86000830184610dd4565b92915050565b6000819050919050565b610e1181610dfe565b8114610e1c57600080fd5b50565b600081359050610e2e81610e08565b92915050565b600060208284031215610e4a57610e49610cb3565b5b6000610e5884828501610e1f565b91505092915050565b610e6a81610dfe565b82525050565b6000602082019050610e856000830184610e61565b92915050565b60008060408385031215610ea257610ea1610cb3565b5b6000610eb085828601610e1f565b9250506020610ec185828601610d01565b9150509250929050565b6000819050919050565b610ede81610ecb565b82525050565b6000602082019050610ef96000830184610ed5565b92915050565b610f0881610ecb565b8114610f1357600080fd5b50565b600081359050610f2581610eff565b92915050565b600060208284031215610f4157610f40610cb3565b5b6000610f4f84828501610f16565b91505092915050565b610f6181610cd8565b82525050565b6000602082019050610f7c6000830184610f58565b92915050565b600081519050919050565b600082825260208201905092915050565b60005b83811015610fbc578082015181840152602081019050610fa1565b60008484015250505050565b6000601f19601f8301169050919050565b6000610fe482610f82565b610fee8185610f8d565b9350610ffe818560208601610f9e565b61100781610fc8565b840191505092915050565b6000608082019050818103600083015261102c8187610fd9565b905061103b6020830186610f58565b818103604083015261104d8185610fd9565b905081810360608301526110618184610fd9565b905095945050505050565b7f43616c6c6572206973206e6f7420616e206f7267616e697a6174696f6e000000600082015250565b60006110a2601d83610f8d565b91506110ad8261106c565b602082019050919050565b600060208201905081810360008301526110d181611095565b9050919050565b7f416363657373436f6e74726f6c3a2063616e206f6e6c792072656e6f756e636560008201527f20726f6c657320666f722073656c660000000000000000000000000000000000602082015250565b6000611134602f83610f8d565b915061113f826110d8565b604082019050919050565b6000602082019050818103600083015261116381611127565b9050919050565b7f4e487b7100000000000000000000000000000000000000000000000000000000600052603260045260246000fd5b7f4e487b7100000000000000000000000000000000000000000000000000000000600052602260045260246000fd5b600060028204905060018216806111e057607f821691505b6020821081036111f3576111f2611199565b5b50919050565b600081905092915050565b7f416363657373436f6e74726f6c3a206163636f756e7420000000000000000000600082015250565b600061123a6017836111f9565b915061124582611204565b601782019050919050565b600061125b82610f82565b61126581856111f9565b9350611275818560208601610f9e565b80840191505092915050565b7f206973206d697373696e6720726f6c6520000000000000000000000000000000600082015250565b60006112b76011836111f9565b91506112c282611281565b601182019050919050565b60006112d88261122d565b91506112e48285611250565b91506112ef826112aa565b91506112fb8284611250565b91508190509392505050565b600060208201905081810360008301526113218184610fd9565b905092915050565b7f4e487b7100000000000000000000000000000000000000000000000000000000600052601160045260246000fd5b600061136382610ecb565b915061136e83610ecb565b925082820261137c81610ecb565b9150828204841483151761139357611392611329565b5b5092915050565b60006113a582610ecb565b91506113b083610ecb565b92508282019050808211156113c8576113c7611329565b5b92915050565b7f4e487b7100000000000000000000000000000000000000000000000000000000600052604160045260246000fd5b600061140882610ecb565b91506000820361141b5761141a611329565b5b600182039050919050565b7f537472696e67733a20686578206c656e67746820696e73756666696369656e74600082015250565b600061145c602083610f8d565b915061146782611426565b602082019050919050565b6000602082019050818103600083015261148b8161144f565b905091905056fea26469706673582212201c7d9362522ee6fb5db7d2fb24d65efe86b947e0ecf5e3455d2657cd6c3044c564736f6c63430008130033",
  "immutableReferences": {},
  "source": "//SPDX-License-Identifier: MIT\npragma solidity >=0.5.0 <0.9.0;\nimport \"@openzeppelin/contracts/access/AccessControl.sol\";\n\ncontract OrganizationEndorser is AccessControl {\n  bytes32 public constant ORGANIZATION_ROLE = keccak256(\"ORGANIZATION_ROLE\");\n\n  // address admin;\n  string name;\n  address organization_address;\n  string description;\n  string location;\n\n  modifier onlyOrganization() {\n    require(hasRole(ORGANIZATION_ROLE, organization_address), \"Caller is not an organization\");\n    _;\n  }\n\n  constructor(\n    address _admin,\n    address _organization_address,\n    string memory _name,\n    string memory _description,\n    string memory _location\n  ) public {\n    // admin = _admin;\n    _setupRole(DEFAULT_ADMIN_ROLE, _admin);\n    _setupRole(ORGANIZATION_ROLE, _organization_address);\n    name = _name;\n    organization_address = _organization_address;\n    description = _description;\n    location = _location;\n  }\n\n  function getOrganizationInfo()\n    public\n    view\n    returns (\n      string memory,\n      address,\n      string memory,\n      string memory\n    )\n  {\n    return (name, organization_address, description, location);\n  }\n\n  address[] allEmployees;\n\n  function addEmployees(address employee_address) public onlyOrganization {\n    // require(msg.sender == organization_address);\n    allEmployees.push(employee_address);\n  }\n\n  function totalEmployees() public view returns (uint256) {\n    return allEmployees.length;\n  }\n\n  function getEmployeeByIndex(uint256 index) public view returns (address) {\n    return allEmployees[index];\n  }\n}\n",
  "sourcePath": "/Users/mobilelive/Work/mobileLIVE/hrms-blockchain-app/src/contracts/OrganizationEndorser.sol",
  "compiler": {
    "name": "solc",
    "version": "0.8.19+commit.7dd6d404.Emscripten.clang"
  },
  "schemaVersion": "3.4.13",
  "updatedAt": "2023-04-06T21:31:26.758Z",
  "devdoc": {
    "events": {
      "RoleAdminChanged(bytes32,bytes32,bytes32)": {
        "details": "Emitted when `newAdminRole` is set as ``role``'s admin role, replacing `previousAdminRole` `DEFAULT_ADMIN_ROLE` is the starting admin for all roles, despite {RoleAdminChanged} not being emitted signaling this. _Available since v3.1._"
      },
      "RoleGranted(bytes32,address,address)": {
        "details": "Emitted when `account` is granted `role`. `sender` is the account that originated the contract call, an admin role bearer except when using {AccessControl-_setupRole}."
      },
      "RoleRevoked(bytes32,address,address)": {
        "details": "Emitted when `account` is revoked `role`. `sender` is the account that originated the contract call:   - if using `revokeRole`, it is the admin role bearer   - if using `renounceRole`, it is the role bearer (i.e. `account`)"
      }
    },
    "kind": "dev",
    "methods": {
      "getRoleAdmin(bytes32)": {
        "details": "Returns the admin role that controls `role`. See {grantRole} and {revokeRole}. To change a role's admin, use {_setRoleAdmin}."
      },
      "grantRole(bytes32,address)": {
        "details": "Grants `role` to `account`. If `account` had not been already granted `role`, emits a {RoleGranted} event. Requirements: - the caller must have ``role``'s admin role. May emit a {RoleGranted} event."
      },
      "hasRole(bytes32,address)": {
        "details": "Returns `true` if `account` has been granted `role`."
      },
      "renounceRole(bytes32,address)": {
        "details": "Revokes `role` from the calling account. Roles are often managed via {grantRole} and {revokeRole}: this function's purpose is to provide a mechanism for accounts to lose their privileges if they are compromised (such as when a trusted device is misplaced). If the calling account had been revoked `role`, emits a {RoleRevoked} event. Requirements: - the caller must be `account`. May emit a {RoleRevoked} event."
      },
      "revokeRole(bytes32,address)": {
        "details": "Revokes `role` from `account`. If `account` had been granted `role`, emits a {RoleRevoked} event. Requirements: - the caller must have ``role``'s admin role. May emit a {RoleRevoked} event."
      },
      "supportsInterface(bytes4)": {
        "details": "See {IERC165-supportsInterface}."
      }
    },
    "version": 1
  },
  "userdoc": {
    "kind": "user",
    "methods": {},
    "version": 1
  }
}