{
  "contractName": "PayrollAdminRegistry",
  "abi": [
    {
      "inputs": [],
      "stateMutability": "nonpayable",
      "type": "constructor"
    },
    {
      "anonymous": false,
      "inputs": [
        {
          "indexed": true,
          "internalType": "address",
          "name": "previousOwner",
          "type": "address"
        },
        {
          "indexed": true,
          "internalType": "address",
          "name": "newOwner",
          "type": "address"
        }
      ],
      "name": "OwnershipTransferred",
      "type": "event"
    },
    {
      "anonymous": false,
      "inputs": [
        {
          "indexed": true,
          "internalType": "bytes32",
          "name": "role",
          "type": "bytes32"
        },
        {
          "indexed": true,
          "internalType": "bytes32",
          "name": "previousAdminRole",
          "type": "bytes32"
        },
        {
          "indexed": true,
          "internalType": "bytes32",
          "name": "newAdminRole",
          "type": "bytes32"
        }
      ],
      "name": "RoleAdminChanged",
      "type": "event"
    },
    {
      "anonymous": false,
      "inputs": [
        {
          "indexed": true,
          "internalType": "bytes32",
          "name": "role",
          "type": "bytes32"
        },
        {
          "indexed": true,
          "internalType": "address",
          "name": "account",
          "type": "address"
        },
        {
          "indexed": true,
          "internalType": "address",
          "name": "sender",
          "type": "address"
        }
      ],
      "name": "RoleGranted",
      "type": "event"
    },
    {
      "anonymous": false,
      "inputs": [
        {
          "indexed": true,
          "internalType": "bytes32",
          "name": "role",
          "type": "bytes32"
        },
        {
          "indexed": true,
          "internalType": "address",
          "name": "account",
          "type": "address"
        },
        {
          "indexed": true,
          "internalType": "address",
          "name": "sender",
          "type": "address"
        }
      ],
      "name": "RoleRevoked",
      "type": "event"
    },
    {
      "inputs": [],
      "name": "DEFAULT_ADMIN_ROLE",
      "outputs": [
        {
          "internalType": "bytes32",
          "name": "",
          "type": "bytes32"
        }
      ],
      "stateMutability": "view",
      "type": "function"
    },
    {
      "inputs": [],
      "name": "PAYROLL_ADMIN_ROLE",
      "outputs": [
        {
          "internalType": "bytes32",
          "name": "",
          "type": "bytes32"
        }
      ],
      "stateMutability": "view",
      "type": "function"
    },
    {
      "inputs": [],
      "name": "admin",
      "outputs": [
        {
          "internalType": "address",
          "name": "",
          "type": "address"
        }
      ],
      "stateMutability": "view",
      "type": "function"
    },
    {
      "inputs": [
        {
          "internalType": "bytes32",
          "name": "role",
          "type": "bytes32"
        }
      ],
      "name": "getRoleAdmin",
      "outputs": [
        {
          "internalType": "bytes32",
          "name": "",
          "type": "bytes32"
        }
      ],
      "stateMutability": "view",
      "type": "function"
    },
    {
      "inputs": [
        {
          "internalType": "bytes32",
          "name": "role",
          "type": "bytes32"
        },
        {
          "internalType": "address",
          "name": "account",
          "type": "address"
        }
      ],
      "name": "grantRole",
      "outputs": [],
      "stateMutability": "nonpayable",
      "type": "function"
    },
    {
      "inputs": [
        {
          "internalType": "bytes32",
          "name": "role",
          "type": "bytes32"
        },
        {
          "internalType": "address",
          "name": "account",
          "type": "address"
        }
      ],
      "name": "hasRole",
      "outputs": [
        {
          "internalType": "bool",
          "name": "",
          "type": "bool"
        }
      ],
      "stateMutability": "view",
      "type": "function"
    },
    {
      "inputs": [],
      "name": "owner",
      "outputs": [
        {
          "internalType": "address",
          "name": "",
          "type": "address"
        }
      ],
      "stateMutability": "view",
      "type": "function"
    },
    {
      "inputs": [
        {
          "internalType": "uint256",
          "name": "",
          "type": "uint256"
        }
      ],
      "name": "payrollAdmins",
      "outputs": [
        {
          "internalType": "address",
          "name": "",
          "type": "address"
        }
      ],
      "stateMutability": "view",
      "type": "function"
    },
    {
      "inputs": [
        {
          "internalType": "address",
          "name": "",
          "type": "address"
        }
      ],
      "name": "registeredPayrollAdminmap",
      "outputs": [
        {
          "internalType": "address",
          "name": "",
          "type": "address"
        }
      ],
      "stateMutability": "view",
      "type": "function"
    },
    {
      "inputs": [],
      "name": "renounceOwnership",
      "outputs": [],
      "stateMutability": "nonpayable",
      "type": "function"
    },
    {
      "inputs": [
        {
          "internalType": "bytes32",
          "name": "role",
          "type": "bytes32"
        },
        {
          "internalType": "address",
          "name": "account",
          "type": "address"
        }
      ],
      "name": "renounceRole",
      "outputs": [],
      "stateMutability": "nonpayable",
      "type": "function"
    },
    {
      "inputs": [
        {
          "internalType": "bytes32",
          "name": "role",
          "type": "bytes32"
        },
        {
          "internalType": "address",
          "name": "account",
          "type": "address"
        }
      ],
      "name": "revokeRole",
      "outputs": [],
      "stateMutability": "nonpayable",
      "type": "function"
    },
    {
      "inputs": [
        {
          "internalType": "bytes4",
          "name": "interfaceId",
          "type": "bytes4"
        }
      ],
      "name": "supportsInterface",
      "outputs": [
        {
          "internalType": "bool",
          "name": "",
          "type": "bool"
        }
      ],
      "stateMutability": "view",
      "type": "function"
    },
    {
      "inputs": [
        {
          "internalType": "address",
          "name": "newOwner",
          "type": "address"
        }
      ],
      "name": "transferOwnership",
      "outputs": [],
      "stateMutability": "nonpayable",
      "type": "function"
    },
    {
      "inputs": [
        {
          "internalType": "address",
          "name": "ethAddress",
          "type": "address"
        },
        {
          "internalType": "string",
          "name": "name",
          "type": "string"
        }
      ],
      "name": "registerPayrollAdmin",
      "outputs": [],
      "stateMutability": "nonpayable",
      "type": "function"
    },
    {
      "inputs": [
        {
          "internalType": "address",
          "name": "ethAddress",
          "type": "address"
        }
      ],
      "name": "isPayrollAdmin",
      "outputs": [
        {
          "internalType": "bool",
          "name": "",
          "type": "bool"
        }
      ],
      "stateMutability": "view",
      "type": "function"
    },
    {
      "inputs": [],
      "name": "payrollAdminCount",
      "outputs": [
        {
          "internalType": "uint256",
          "name": "",
          "type": "uint256"
        }
      ],
      "stateMutability": "view",
      "type": "function"
    },
    {
      "inputs": [
        {
          "internalType": "address",
          "name": "ethAddress",
          "type": "address"
        }
      ],
      "name": "getPayrollAdminContractByAddress",
      "outputs": [
        {
          "internalType": "address",
          "name": "",
          "type": "address"
        }
      ],
      "stateMutability": "view",
      "type": "function"
    },
    {
      "inputs": [
        {
          "internalType": "uint256",
          "name": "index",
          "type": "uint256"
        }
      ],
      "name": "getPayrollAdminContractByIndex",
      "outputs": [
        {
          "internalType": "address",
          "name": "",
          "type": "address"
        }
      ],
      "stateMutability": "view",
      "type": "function"
    }
  ],
  "bytecode": "0x60806040523480156200001157600080fd5b506200003262000026620000b060201b60201c565b620000b860201b60201c565b33600260006101000a81548173ffffffffffffffffffffffffffffffffffffffff021916908373ffffffffffffffffffffffffffffffffffffffff160217905550620000aa6000801b600260009054906101000a900473ffffffffffffffffffffffffffffffffffffffff166200017e60201b60201c565b620002ef565b600033905090565b6000600160009054906101000a900473ffffffffffffffffffffffffffffffffffffffff16905081600160006101000a81548173ffffffffffffffffffffffffffffffffffffffff021916908373ffffffffffffffffffffffffffffffffffffffff1602179055508173ffffffffffffffffffffffffffffffffffffffff168173ffffffffffffffffffffffffffffffffffffffff167f8be0079c531659141344cd1fd0a4f28419497f9722a3daafe3b4186f6b6457e060405160405180910390a35050565b6200019082826200019460201b60201c565b5050565b620001a682826200028560201b60201c565b6200028157600160008084815260200190815260200160002060000160008373ffffffffffffffffffffffffffffffffffffffff1673ffffffffffffffffffffffffffffffffffffffff16815260200190815260200160002060006101000a81548160ff02191690831515021790555062000226620000b060201b60201c565b73ffffffffffffffffffffffffffffffffffffffff168173ffffffffffffffffffffffffffffffffffffffff16837f2f8788117e7eff1d82e926ec794901d17c78024a50270940304540a733656f0d60405160405180910390a45b5050565b600080600084815260200190815260200160002060000160008373ffffffffffffffffffffffffffffffffffffffff1673ffffffffffffffffffffffffffffffffffffffff16815260200190815260200160002060009054906101000a900460ff16905092915050565b61355c80620002ff6000396000f3fe60806040523480156200001157600080fd5b50600436106200013c5760003560e01c80638da5cb5b11620000bd578063d547741f116200007b578063d547741f1462000379578063ead3a9ed1462000399578063f07466e214620003cf578063f2fde38b1462000405578063f851a4401462000425576200013c565b80638da5cb5b14620002a757806391d1485414620002c9578063a217fddf14620002ff578063c25f66f61462000321578063d462d1b21462000343576200013c565b806336568abe116200010b57806336568abe146200020357806354f17b21146200022357806369d784411462000243578063715018a614620002655780638059c5d51462000271576200013c565b806301ffc9a71462000141578063107016581462000177578063248a9ca314620001ad5780632f2ff15d14620001e3575b600080fd5b6200015f6004803603810190620001599190620013f5565b62000447565b6040516200016e919062001784565b60405180910390f35b6200019560048036038101906200018f919062001302565b620004c4565b604051620001a4919062001723565b60405180910390f35b620001cb6004803603810190620001c5919062001388565b6200052d565b604051620001da9190620017a1565b60405180910390f35b620002016004803603810190620001fb9190620013b4565b6200054c565b005b6200022160048036038101906200021b9190620013b4565b62000573565b005b6200024160048036038101906200023b91906200132e565b620005fd565b005b6200024d6200077c565b6040516200025c91906200186a565b60405180910390f35b6200026f62000789565b005b6200028f600480360381019062000289919062001302565b620007a1565b6040516200029e919062001723565b60405180910390f35b620002b1620007d4565b604051620002c0919062001723565b60405180910390f35b620002e76004803603810190620002e19190620013b4565b620007fe565b604051620002f6919062001784565b60405180910390f35b6200030962000868565b604051620003189190620017a1565b60405180910390f35b6200032b6200086f565b6040516200033a9190620017a1565b60405180910390f35b6200036160048036038101906200035b919062001421565b62000893565b60405162000370919062001723565b60405180910390f35b620003976004803603810190620003919190620013b4565b620008d3565b005b620003b76004803603810190620003b1919062001421565b620008fa565b604051620003c6919062001723565b60405180910390f35b620003ed6004803603810190620003e7919062001302565b62000973565b604051620003fc919062001784565b60405180910390f35b6200042360048036038101906200041d919062001302565b62000a07565b005b6200042f62000a92565b6040516200043e919062001723565b60405180910390f35b60007f7965db0b000000000000000000000000000000000000000000000000000000007bffffffffffffffffffffffffffffffffffffffffffffffffffffffff1916827bffffffffffffffffffffffffffffffffffffffffffffffffffffffff19161480620004bd5750620004bc8262000ab8565b5b9050919050565b6000600360008373ffffffffffffffffffffffffffffffffffffffff1673ffffffffffffffffffffffffffffffffffffffff16815260200190815260200160002060009054906101000a900473ffffffffffffffffffffffffffffffffffffffff169050919050565b6000806000838152602001908152602001600020600101549050919050565b62000557826200052d565b620005628162000b22565b6200056e838362000b3a565b505050565b6200057d62000c1f565b73ffffffffffffffffffffffffffffffffffffffff168173ffffffffffffffffffffffffffffffffffffffff1614620005ed576040517f08c379a0000000000000000000000000000000000000000000000000000000008152600401620005e49062001848565b60405180910390fd5b620005f9828262000c27565b5050565b6200060762000d0d565b6000600260009054906101000a900473ffffffffffffffffffffffffffffffffffffffff1683836040516200063c9062001226565b6200064a9392919062001740565b604051809103906000f08015801562000667573d6000803e3d6000fd5b50905080600360008573ffffffffffffffffffffffffffffffffffffffff1673ffffffffffffffffffffffffffffffffffffffff16815260200190815260200160002060006101000a81548173ffffffffffffffffffffffffffffffffffffffff021916908373ffffffffffffffffffffffffffffffffffffffff1602179055506004839080600181540180825580915050600190039060005260206000200160009091909190916101000a81548173ffffffffffffffffffffffffffffffffffffffff021916908373ffffffffffffffffffffffffffffffffffffffff160217905550620007777f351c518a63f302fd3436c2d47c197d41df314c9a32018c5ae62e6d78e0688592826200054c565b505050565b6000600480549050905090565b6200079362000d0d565b6200079f600062000d92565b565b60036020528060005260406000206000915054906101000a900473ffffffffffffffffffffffffffffffffffffffff1681565b6000600160009054906101000a900473ffffffffffffffffffffffffffffffffffffffff16905090565b600080600084815260200190815260200160002060000160008373ffffffffffffffffffffffffffffffffffffffff1673ffffffffffffffffffffffffffffffffffffffff16815260200190815260200160002060009054906101000a900460ff16905092915050565b6000801b81565b7f351c518a63f302fd3436c2d47c197d41df314c9a32018c5ae62e6d78e068859281565b60048181548110620008a457600080fd5b906000526020600020016000915054906101000a900473ffffffffffffffffffffffffffffffffffffffff1681565b620008de826200052d565b620008e98162000b22565b620008f5838362000c27565b505050565b60006200096c600483815481106200093b577f4e487b7100000000000000000000000000000000000000000000000000000000600052603260045260246000fd5b9060005260206000200160009054906101000a900473ffffffffffffffffffffffffffffffffffffffff16620004c4565b9050919050565b600062000a007f351c518a63f302fd3436c2d47c197d41df314c9a32018c5ae62e6d78e0688592600360008573ffffffffffffffffffffffffffffffffffffffff1673ffffffffffffffffffffffffffffffffffffffff16815260200190815260200160002060009054906101000a900473ffffffffffffffffffffffffffffffffffffffff16620007fe565b9050919050565b62000a1162000d0d565b600073ffffffffffffffffffffffffffffffffffffffff168173ffffffffffffffffffffffffffffffffffffffff16141562000a84576040517f08c379a000000000000000000000000000000000000000000000000000000000815260040162000a7b9062001804565b60405180910390fd5b62000a8f8162000d92565b50565b600260009054906101000a900473ffffffffffffffffffffffffffffffffffffffff1681565b60007f01ffc9a7000000000000000000000000000000000000000000000000000000007bffffffffffffffffffffffffffffffffffffffffffffffffffffffff1916827bffffffffffffffffffffffffffffffffffffffffffffffffffffffff1916149050919050565b62000b378162000b3162000c1f565b62000e58565b50565b62000b468282620007fe565b62000c1b57600160008084815260200190815260200160002060000160008373ffffffffffffffffffffffffffffffffffffffff1673ffffffffffffffffffffffffffffffffffffffff16815260200190815260200160002060006101000a81548160ff02191690831515021790555062000bc062000c1f565b73ffffffffffffffffffffffffffffffffffffffff168173ffffffffffffffffffffffffffffffffffffffff16837f2f8788117e7eff1d82e926ec794901d17c78024a50270940304540a733656f0d60405160405180910390a45b5050565b600033905090565b62000c338282620007fe565b1562000d0957600080600084815260200190815260200160002060000160008373ffffffffffffffffffffffffffffffffffffffff1673ffffffffffffffffffffffffffffffffffffffff16815260200190815260200160002060006101000a81548160ff02191690831515021790555062000cae62000c1f565b73ffffffffffffffffffffffffffffffffffffffff168173ffffffffffffffffffffffffffffffffffffffff16837ff6391f5c32d9c69d2a47ea670b442974b53935d1edc7fd64eb21e047a839171b60405160405180910390a45b5050565b62000d1762000c1f565b73ffffffffffffffffffffffffffffffffffffffff1662000d37620007d4565b73ffffffffffffffffffffffffffffffffffffffff161462000d90576040517f08c379a000000000000000000000000000000000000000000000000000000000815260040162000d879062001826565b60405180910390fd5b565b6000600160009054906101000a900473ffffffffffffffffffffffffffffffffffffffff16905081600160006101000a81548173ffffffffffffffffffffffffffffffffffffffff021916908373ffffffffffffffffffffffffffffffffffffffff1602179055508173ffffffffffffffffffffffffffffffffffffffff168173ffffffffffffffffffffffffffffffffffffffff167f8be0079c531659141344cd1fd0a4f28419497f9722a3daafe3b4186f6b6457e060405160405180910390a35050565b62000e648282620007fe565b62000ee45762000e748162000ee8565b62000e848360001c602062000f17565b60405160200162000e97929190620016e1565b6040516020818303038152906040526040517f08c379a000000000000000000000000000000000000000000000000000000000815260040162000edb9190620017be565b60405180910390fd5b5050565b606062000f108273ffffffffffffffffffffffffffffffffffffffff16601460ff1662000f17565b9050919050565b60606000600283600262000f2c919062001972565b62000f38919062001915565b67ffffffffffffffff81111562000f78577f4e487b7100000000000000000000000000000000000000000000000000000000600052604160045260246000fd5b6040519080825280601f01601f19166020018201604052801562000fab5781602001600182028036833780820191505090505b5090507f3000000000000000000000000000000000000000000000000000000000000000816000815181106200100a577f4e487b7100000000000000000000000000000000000000000000000000000000600052603260045260246000fd5b60200101907effffffffffffffffffffffffffffffffffffffffffffffffffffffffffffff1916908160001a9053507f78000000000000000000000000000000000000000000000000000000000000008160018151811062001095577f4e487b7100000000000000000000000000000000000000000000000000000000600052603260045260246000fd5b60200101907effffffffffffffffffffffffffffffffffffffffffffffffffffffffffffff1916908160001a90535060006001846002620010d7919062001972565b620010e3919062001915565b90505b6001811115620011d5577f3031323334353637383961626364656600000000000000000000000000000000600f8616601081106200114d577f4e487b7100000000000000000000000000000000000000000000000000000000600052603260045260246000fd5b1a60f81b8282815181106200118b577f4e487b7100000000000000000000000000000000000000000000000000000000600052603260045260246000fd5b60200101907effffffffffffffffffffffffffffffffffffffffffffffffffffffffffffff1916908160001a905350600485901c945080620011cd9062001a98565b9050620010e6565b50600084146200121c576040517f08c379a00000000000000000000000000000000000000000000000000000000081526004016200121390620017e2565b60405180910390fd5b8091505092915050565b6119888062001b9f83390190565b60006200124b6200124584620018bb565b62001887565b9050828152602081018484840111156200126457600080fd5b6200127184828562001a53565b509392505050565b6000813590506200128a8162001b36565b92915050565b600081359050620012a18162001b50565b92915050565b600081359050620012b88162001b6a565b92915050565b600082601f830112620012d057600080fd5b8135620012e284826020860162001234565b91505092915050565b600081359050620012fc8162001b84565b92915050565b6000602082840312156200131557600080fd5b6000620013258482850162001279565b91505092915050565b600080604083850312156200134257600080fd5b6000620013528582860162001279565b925050602083013567ffffffffffffffff8111156200137057600080fd5b6200137e85828601620012be565b9150509250929050565b6000602082840312156200139b57600080fd5b6000620013ab8482850162001290565b91505092915050565b60008060408385031215620013c857600080fd5b6000620013d88582860162001290565b9250506020620013eb8582860162001279565b9150509250929050565b6000602082840312156200140857600080fd5b60006200141884828501620012a7565b91505092915050565b6000602082840312156200143457600080fd5b60006200144484828501620012eb565b91505092915050565b6200145881620019d3565b82525050565b6200146981620019e7565b82525050565b6200147a81620019f3565b82525050565b60006200148d82620018ee565b620014998185620018f9565b9350620014ab81856020860162001a62565b620014b68162001b25565b840191505092915050565b6000620014ce82620018ee565b620014da81856200190a565b9350620014ec81856020860162001a62565b80840191505092915050565b600062001507602083620018f9565b91507f537472696e67733a20686578206c656e67746820696e73756666696369656e746000830152602082019050919050565b600062001549602683620018f9565b91507f4f776e61626c653a206e6577206f776e657220697320746865207a65726f206160008301527f64647265737300000000000000000000000000000000000000000000000000006020830152604082019050919050565b6000620015b1602083620018f9565b91507f4f776e61626c653a2063616c6c6572206973206e6f7420746865206f776e65726000830152602082019050919050565b6000620015f36017836200190a565b91507f416363657373436f6e74726f6c3a206163636f756e74200000000000000000006000830152601782019050919050565b6000620016356011836200190a565b91507f206973206d697373696e6720726f6c65200000000000000000000000000000006000830152601182019050919050565b600062001677602f83620018f9565b91507f416363657373436f6e74726f6c3a2063616e206f6e6c792072656e6f756e636560008301527f20726f6c657320666f722073656c6600000000000000000000000000000000006020830152604082019050919050565b620016db8162001a49565b82525050565b6000620016ee82620015e4565b9150620016fc8285620014c1565b9150620017098262001626565b9150620017178284620014c1565b91508190509392505050565b60006020820190506200173a60008301846200144d565b92915050565b60006060820190506200175760008301866200144d565b6200176660208301856200144d565b81810360408301526200177a818462001480565b9050949350505050565b60006020820190506200179b60008301846200145e565b92915050565b6000602082019050620017b860008301846200146f565b92915050565b60006020820190508181036000830152620017da818462001480565b905092915050565b60006020820190508181036000830152620017fd81620014f8565b9050919050565b600060208201905081810360008301526200181f816200153a565b9050919050565b600060208201905081810360008301526200184181620015a2565b9050919050565b60006020820190508181036000830152620018638162001668565b9050919050565b6000602082019050620018816000830184620016d0565b92915050565b6000604051905081810181811067ffffffffffffffff82111715620018b157620018b062001af6565b5b8060405250919050565b600067ffffffffffffffff821115620018d957620018d862001af6565b5b601f19601f8301169050602081019050919050565b600081519050919050565b600082825260208201905092915050565b600081905092915050565b6000620019228262001a49565b91506200192f8362001a49565b9250827fffffffffffffffffffffffffffffffffffffffffffffffffffffffffffffffff0382111562001967576200196662001ac7565b5b828201905092915050565b60006200197f8262001a49565b91506200198c8362001a49565b9250817fffffffffffffffffffffffffffffffffffffffffffffffffffffffffffffffff0483118215151615620019c857620019c762001ac7565b5b828202905092915050565b6000620019e08262001a29565b9050919050565b60008115159050919050565b6000819050919050565b60007fffffffff0000000000000000000000000000000000000000000000000000000082169050919050565b600073ffffffffffffffffffffffffffffffffffffffff82169050919050565b6000819050919050565b82818337600083830152505050565b60005b8381101562001a8257808201518184015260208101905062001a65565b8381111562001a92576000848401525b50505050565b600062001aa58262001a49565b9150600082141562001abc5762001abb62001ac7565b5b600182039050919050565b7f4e487b7100000000000000000000000000000000000000000000000000000000600052601160045260246000fd5b7f4e487b7100000000000000000000000000000000000000000000000000000000600052604160045260246000fd5b6000601f19601f8301169050919050565b62001b4181620019d3565b811462001b4d57600080fd5b50565b62001b5b81620019f3565b811462001b6757600080fd5b50565b62001b7581620019fd565b811462001b8157600080fd5b50565b62001b8f8162001a49565b811462001b9b57600080fd5b5056fe60806040523480156200001157600080fd5b506040516200198838038062001988833981810160405281019062000037919062000393565b6200004c6000801b84620000e160201b60201c565b6200007e7f351c518a63f302fd3436c2d47c197d41df314c9a32018c5ae62e6d78e068859283620000e160201b60201c565b8060019080519060200190620000969291906200025a565b5081600260006101000a81548173ffffffffffffffffffffffffffffffffffffffff021916908373ffffffffffffffffffffffffffffffffffffffff16021790555050505062000581565b620000f38282620000f760201b60201c565b5050565b620001098282620001e860201b60201c565b620001e457600160008084815260200190815260200160002060000160008373ffffffffffffffffffffffffffffffffffffffff1673ffffffffffffffffffffffffffffffffffffffff16815260200190815260200160002060006101000a81548160ff021916908315150217905550620001896200025260201b60201c565b73ffffffffffffffffffffffffffffffffffffffff168173ffffffffffffffffffffffffffffffffffffffff16837f2f8788117e7eff1d82e926ec794901d17c78024a50270940304540a733656f0d60405160405180910390a45b5050565b600080600084815260200190815260200160002060000160008373ffffffffffffffffffffffffffffffffffffffff1673ffffffffffffffffffffffffffffffffffffffff16815260200190815260200160002060009054906101000a900460ff16905092915050565b600033905090565b8280546200026890620004d3565b90600052602060002090601f0160209004810192826200028c5760008555620002d8565b82601f10620002a757805160ff1916838001178555620002d8565b82800160010185558215620002d8579182015b82811115620002d7578251825591602001919060010190620002ba565b5b509050620002e79190620002eb565b5090565b5b8082111562000306576000816000905550600101620002ec565b5090565b6000620003216200031b8462000436565b62000402565b9050828152602081018484840111156200033a57600080fd5b620003478482856200049d565b509392505050565b600081519050620003608162000567565b92915050565b600082601f8301126200037857600080fd5b81516200038a8482602086016200030a565b91505092915050565b600080600060608486031215620003a957600080fd5b6000620003b9868287016200034f565b9350506020620003cc868287016200034f565b925050604084015167ffffffffffffffff811115620003ea57600080fd5b620003f88682870162000366565b9150509250925092565b6000604051905081810181811067ffffffffffffffff821117156200042c576200042b62000538565b5b8060405250919050565b600067ffffffffffffffff82111562000454576200045362000538565b5b601f19601f8301169050602081019050919050565b600062000476826200047d565b9050919050565b600073ffffffffffffffffffffffffffffffffffffffff82169050919050565b60005b83811015620004bd578082015181840152602081019050620004a0565b83811115620004cd576000848401525b50505050565b60006002820490506001821680620004ec57607f821691505b6020821081141562000503576200050262000509565b5b50919050565b7f4e487b7100000000000000000000000000000000000000000000000000000000600052602260045260246000fd5b7f4e487b7100000000000000000000000000000000000000000000000000000000600052604160045260246000fd5b620005728162000469565b81146200057e57600080fd5b50565b6113f780620005916000396000f3fe608060405234801561001057600080fd5b50600436106100b35760003560e01c806352b9b9731161007157806352b9b9731461018b57806359420e48146101a957806391d14854146101d9578063a217fddf14610209578063c25f66f614610227578063d547741f14610245576100b3565b8062ac8095146100b857806301ffc9a7146100d45780632352b7b314610104578063248a9ca3146101235780632f2ff15d1461015357806336568abe1461016f575b600080fd5b6100d260048036038101906100cd9190610cce565b610261565b005b6100ee60048036038101906100e99190610d5c565b6102cf565b6040516100fb919061100f565b60405180910390f35b61010c610349565b60405161011a929190611067565b60405180910390f35b61013d60048036038101906101389190610cf7565b610406565b60405161014a919061102a565b60405180910390f35b61016d60048036038101906101689190610d20565b610425565b005b61018960048036038101906101849190610d20565b610446565b005b6101936104c9565b6040516101a091906110f7565b60405180910390f35b6101c360048036038101906101be9190610d85565b6104d6565b6040516101d09190610ff4565b60405180910390f35b6101f360048036038101906101ee9190610d20565b610544565b604051610200919061100f565b60405180910390f35b6102116105ae565b60405161021e919061102a565b60405180910390f35b61022f6105b5565b60405161023c919061102a565b60405180910390f35b61025f600480360381019061025a9190610d20565b6105d9565b005b6102696105fa565b6003819080600181540180825580915050600190039060005260206000200160009091909190916101000a81548173ffffffffffffffffffffffffffffffffffffffff021916908373ffffffffffffffffffffffffffffffffffffffff16021790555050565b60007f7965db0b000000000000000000000000000000000000000000000000000000007bffffffffffffffffffffffffffffffffffffffffffffffffffffffff1916827bffffffffffffffffffffffffffffffffffffffffffffffffffffffff19161480610342575061034182610687565b5b9050919050565b606060006001600260009054906101000a900473ffffffffffffffffffffffffffffffffffffffff1681805461037e906112c4565b80601f01602080910402602001604051908101604052809291908181526020018280546103aa906112c4565b80156103f75780601f106103cc576101008083540402835291602001916103f7565b820191906000526020600020905b8154815290600101906020018083116103da57829003601f168201915b50505050509150915091509091565b6000806000838152602001908152602001600020600101549050919050565b61042e82610406565b610437816106f1565b6104418383610705565b505050565b61044e6107e5565b73ffffffffffffffffffffffffffffffffffffffff168173ffffffffffffffffffffffffffffffffffffffff16146104bb576040517f08c379a00000000000000000000000000000000000000000000000000000000081526004016104b2906110d7565b60405180910390fd5b6104c582826107ed565b5050565b6000600380549050905090565b600060038281548110610512577f4e487b7100000000000000000000000000000000000000000000000000000000600052603260045260246000fd5b9060005260206000200160009054906101000a900473ffffffffffffffffffffffffffffffffffffffff169050919050565b600080600084815260200190815260200160002060000160008373ffffffffffffffffffffffffffffffffffffffff1673ffffffffffffffffffffffffffffffffffffffff16815260200190815260200160002060009054906101000a900460ff16905092915050565b6000801b81565b7f351c518a63f302fd3436c2d47c197d41df314c9a32018c5ae62e6d78e068859281565b6105e282610406565b6105eb816106f1565b6105f583836107ed565b505050565b6106467f351c518a63f302fd3436c2d47c197d41df314c9a32018c5ae62e6d78e0688592600260009054906101000a900473ffffffffffffffffffffffffffffffffffffffff16610544565b610685576040517f08c379a000000000000000000000000000000000000000000000000000000000815260040161067c906110b7565b60405180910390fd5b565b60007f01ffc9a7000000000000000000000000000000000000000000000000000000007bffffffffffffffffffffffffffffffffffffffffffffffffffffffff1916827bffffffffffffffffffffffffffffffffffffffffffffffffffffffff1916149050919050565b610702816106fd6107e5565b6108ce565b50565b61070f8282610544565b6107e157600160008084815260200190815260200160002060000160008373ffffffffffffffffffffffffffffffffffffffff1673ffffffffffffffffffffffffffffffffffffffff16815260200190815260200160002060006101000a81548160ff0219169083151502179055506107866107e5565b73ffffffffffffffffffffffffffffffffffffffff168173ffffffffffffffffffffffffffffffffffffffff16837f2f8788117e7eff1d82e926ec794901d17c78024a50270940304540a733656f0d60405160405180910390a45b5050565b600033905090565b6107f78282610544565b156108ca57600080600084815260200190815260200160002060000160008373ffffffffffffffffffffffffffffffffffffffff1673ffffffffffffffffffffffffffffffffffffffff16815260200190815260200160002060006101000a81548160ff02191690831515021790555061086f6107e5565b73ffffffffffffffffffffffffffffffffffffffff168173ffffffffffffffffffffffffffffffffffffffff16837ff6391f5c32d9c69d2a47ea670b442974b53935d1edc7fd64eb21e047a839171b60405160405180910390a45b5050565b6108d88282610544565b61094f576108e581610953565b6108f38360001c6020610980565b604051602001610904929190610fba565b6040516020818303038152906040526040517f08c379a00000000000000000000000000000000000000000000000000000000081526004016109469190611045565b60405180910390fd5b5050565b60606109798273ffffffffffffffffffffffffffffffffffffffff16601460ff16610980565b9050919050565b606060006002836002610993919061118f565b61099d9190611139565b67ffffffffffffffff8111156109dc577f4e487b7100000000000000000000000000000000000000000000000000000000600052604160045260246000fd5b6040519080825280601f01601f191660200182016040528015610a0e5781602001600182028036833780820191505090505b5090507f300000000000000000000000000000000000000000000000000000000000000081600081518110610a6c577f4e487b7100000000000000000000000000000000000000000000000000000000600052603260045260246000fd5b60200101907effffffffffffffffffffffffffffffffffffffffffffffffffffffffffffff1916908160001a9053507f780000000000000000000000000000000000000000000000000000000000000081600181518110610af6577f4e487b7100000000000000000000000000000000000000000000000000000000600052603260045260246000fd5b60200101907effffffffffffffffffffffffffffffffffffffffffffffffffffffffffffff1916908160001a90535060006001846002610b36919061118f565b610b409190611139565b90505b6001811115610c2c577f3031323334353637383961626364656600000000000000000000000000000000600f861660108110610ba8577f4e487b7100000000000000000000000000000000000000000000000000000000600052603260045260246000fd5b1a60f81b828281518110610be5577f4e487b7100000000000000000000000000000000000000000000000000000000600052603260045260246000fd5b60200101907effffffffffffffffffffffffffffffffffffffffffffffffffffffffffffff1916908160001a905350600485901c945080610c259061129a565b9050610b43565b5060008414610c70576040517f08c379a0000000000000000000000000000000000000000000000000000000008152600401610c6790611097565b60405180910390fd5b8091505092915050565b600081359050610c8981611365565b92915050565b600081359050610c9e8161137c565b92915050565b600081359050610cb381611393565b92915050565b600081359050610cc8816113aa565b92915050565b600060208284031215610ce057600080fd5b6000610cee84828501610c7a565b91505092915050565b600060208284031215610d0957600080fd5b6000610d1784828501610c8f565b91505092915050565b60008060408385031215610d3357600080fd5b6000610d4185828601610c8f565b9250506020610d5285828601610c7a565b9150509250929050565b600060208284031215610d6e57600080fd5b6000610d7c84828501610ca4565b91505092915050565b600060208284031215610d9757600080fd5b6000610da584828501610cb9565b91505092915050565b610db7816111e9565b82525050565b610dc6816111fb565b82525050565b610dd581611207565b82525050565b6000610de682611112565b610df0818561111d565b9350610e00818560208601611267565b610e0981611354565b840191505092915050565b6000610e1f82611112565b610e29818561112e565b9350610e39818560208601611267565b80840191505092915050565b6000610e5260208361111d565b91507f537472696e67733a20686578206c656e67746820696e73756666696369656e746000830152602082019050919050565b6000610e92601e8361111d565b91507f43616c6c6572206973206e6f7420616e20706179726f6c6c2061646d696e00006000830152602082019050919050565b6000610ed260178361112e565b91507f416363657373436f6e74726f6c3a206163636f756e74200000000000000000006000830152601782019050919050565b6000610f1260118361112e565b91507f206973206d697373696e6720726f6c65200000000000000000000000000000006000830152601182019050919050565b6000610f52602f8361111d565b91507f416363657373436f6e74726f6c3a2063616e206f6e6c792072656e6f756e636560008301527f20726f6c657320666f722073656c6600000000000000000000000000000000006020830152604082019050919050565b610fb48161125d565b82525050565b6000610fc582610ec5565b9150610fd18285610e14565b9150610fdc82610f05565b9150610fe88284610e14565b91508190509392505050565b60006020820190506110096000830184610dae565b92915050565b60006020820190506110246000830184610dbd565b92915050565b600060208201905061103f6000830184610dcc565b92915050565b6000602082019050818103600083015261105f8184610ddb565b905092915050565b600060408201905081810360008301526110818185610ddb565b90506110906020830184610dae565b9392505050565b600060208201905081810360008301526110b081610e45565b9050919050565b600060208201905081810360008301526110d081610e85565b9050919050565b600060208201905081810360008301526110f081610f45565b9050919050565b600060208201905061110c6000830184610fab565b92915050565b600081519050919050565b600082825260208201905092915050565b600081905092915050565b60006111448261125d565b915061114f8361125d565b9250827fffffffffffffffffffffffffffffffffffffffffffffffffffffffffffffffff03821115611184576111836112f6565b5b828201905092915050565b600061119a8261125d565b91506111a58361125d565b9250817fffffffffffffffffffffffffffffffffffffffffffffffffffffffffffffffff04831182151516156111de576111dd6112f6565b5b828202905092915050565b60006111f48261123d565b9050919050565b60008115159050919050565b6000819050919050565b60007fffffffff0000000000000000000000000000000000000000000000000000000082169050919050565b600073ffffffffffffffffffffffffffffffffffffffff82169050919050565b6000819050919050565b60005b8381101561128557808201518184015260208101905061126a565b83811115611294576000848401525b50505050565b60006112a58261125d565b915060008214156112b9576112b86112f6565b5b600182039050919050565b600060028204905060018216806112dc57607f821691505b602082108114156112f0576112ef611325565b5b50919050565b7f4e487b7100000000000000000000000000000000000000000000000000000000600052601160045260246000fd5b7f4e487b7100000000000000000000000000000000000000000000000000000000600052602260045260246000fd5b6000601f19601f8301169050919050565b61136e816111e9565b811461137957600080fd5b50565b61138581611207565b811461139057600080fd5b50565b61139c81611211565b81146113a757600080fd5b50565b6113b38161125d565b81146113be57600080fd5b5056fea2646970667358221220fe702ce9f45e7ce08e3b62aa48395307fa58af6efd399f174d69a036ec9886e864736f6c63430008000033a2646970667358221220eada08d8394aade361bb352e9883b23153d849b05c2e744aa606b6452aece15f64736f6c63430008000033",
  "immutableReferences": {},
  "source": "// SPDX-License-Identifier: MIT\npragma solidity >=0.5.0 <0.9.0;\nimport \"@openzeppelin/contracts/access/AccessControl.sol\";\nimport \"@openzeppelin/contracts/access/Ownable.sol\";\nimport \"../PayrollAdmin.sol\";\n\ncontract PayrollAdminRegistry is AccessControl, Ownable  {\n    address public admin;\n    bytes32 public constant PAYROLL_ADMIN_ROLE = keccak256(\"PAYROLL_ADMIN_ROLE\");\n    constructor() {\n        admin = msg.sender;\n        _setupRole(DEFAULT_ADMIN_ROLE, admin);\n    }\n\n    mapping(address => address) public registeredPayrollAdminmap;\n    address[] public payrollAdmins;\n\n    function registerPayrollAdmin(address ethAddress, string memory name) public onlyOwner {\n        PayrollAdmin newPayrollAdmin = new PayrollAdmin(admin, ethAddress, name);\n        registeredPayrollAdminmap[ethAddress] = address(newPayrollAdmin);\n        payrollAdmins.push(ethAddress);\n        grantRole(PAYROLL_ADMIN_ROLE, address(newPayrollAdmin));\n    }\n\n    function isPayrollAdmin(address ethAddress) public view returns (bool) {\n        return hasRole(PAYROLL_ADMIN_ROLE, registeredPayrollAdminmap[ethAddress]);\n    }\n\n    function payrollAdminCount() public view returns (uint256) {\n        return payrollAdmins.length;\n    }\n\n    function getPayrollAdminContractByAddress(address ethAddress) public view returns (address) {\n        return registeredPayrollAdminmap[ethAddress];\n    }\n\n    function getPayrollAdminContractByIndex(uint256 index) public view returns (address) {\n        return getPayrollAdminContractByAddress(payrollAdmins[index]);\n    }\n}",
  "sourcePath": "/Users/mobilelive/Work/mobileLIVE/hrms-blockchain-app/src/contracts/Registry/PayrollAdminRegistry.sol",
  "compiler": {
    "name": "solc",
    "version": "0.8.0+commit.c7dfd78e.Emscripten.clang"
  },
  "schemaVersion": "3.4.3",
  "updatedAt": "2023-04-20T20:55:27.457Z",
  "devdoc": {
    "kind": "dev",
    "methods": {
      "getRoleAdmin(bytes32)": {
        "details": "Returns the admin role that controls `role`. See {grantRole} and {revokeRole}. To change a role's admin, use {_setRoleAdmin}."
      },
      "grantRole(bytes32,address)": {
        "details": "Grants `role` to `account`. If `account` had not been already granted `role`, emits a {RoleGranted} event. Requirements: - the caller must have ``role``'s admin role. May emit a {RoleGranted} event."
      },
      "hasRole(bytes32,address)": {
        "details": "Returns `true` if `account` has been granted `role`."
      },
      "owner()": {
        "details": "Returns the address of the current owner."
      },
      "renounceOwnership()": {
        "details": "Leaves the contract without owner. It will not be possible to call `onlyOwner` functions anymore. Can only be called by the current owner. NOTE: Renouncing ownership will leave the contract without an owner, thereby removing any functionality that is only available to the owner."
      },
      "renounceRole(bytes32,address)": {
        "details": "Revokes `role` from the calling account. Roles are often managed via {grantRole} and {revokeRole}: this function's purpose is to provide a mechanism for accounts to lose their privileges if they are compromised (such as when a trusted device is misplaced). If the calling account had been revoked `role`, emits a {RoleRevoked} event. Requirements: - the caller must be `account`. May emit a {RoleRevoked} event."
      },
      "revokeRole(bytes32,address)": {
        "details": "Revokes `role` from `account`. If `account` had been granted `role`, emits a {RoleRevoked} event. Requirements: - the caller must have ``role``'s admin role. May emit a {RoleRevoked} event."
      },
      "supportsInterface(bytes4)": {
        "details": "See {IERC165-supportsInterface}."
      },
      "transferOwnership(address)": {
        "details": "Transfers ownership of the contract to a new account (`newOwner`). Can only be called by the current owner."
      }
    },
    "version": 1
  },
  "userdoc": {
    "kind": "user",
    "methods": {},
    "version": 1
  }
}