{
  "contractName": "PayrollAdmin",
  "abi": [
    {
      "inputs": [
        {
          "internalType": "address",
          "name": "_admin",
          "type": "address"
        },
        {
          "internalType": "address",
          "name": "_payroll_admin_address",
          "type": "address"
        },
        {
          "internalType": "string",
          "name": "_name",
          "type": "string"
        }
      ],
      "stateMutability": "nonpayable",
      "type": "constructor"
    },
    {
      "anonymous": false,
      "inputs": [
        {
          "indexed": true,
          "internalType": "bytes32",
          "name": "role",
          "type": "bytes32"
        },
        {
          "indexed": true,
          "internalType": "bytes32",
          "name": "previousAdminRole",
          "type": "bytes32"
        },
        {
          "indexed": true,
          "internalType": "bytes32",
          "name": "newAdminRole",
          "type": "bytes32"
        }
      ],
      "name": "RoleAdminChanged",
      "type": "event"
    },
    {
      "anonymous": false,
      "inputs": [
        {
          "indexed": true,
          "internalType": "bytes32",
          "name": "role",
          "type": "bytes32"
        },
        {
          "indexed": true,
          "internalType": "address",
          "name": "account",
          "type": "address"
        },
        {
          "indexed": true,
          "internalType": "address",
          "name": "sender",
          "type": "address"
        }
      ],
      "name": "RoleGranted",
      "type": "event"
    },
    {
      "anonymous": false,
      "inputs": [
        {
          "indexed": true,
          "internalType": "bytes32",
          "name": "role",
          "type": "bytes32"
        },
        {
          "indexed": true,
          "internalType": "address",
          "name": "account",
          "type": "address"
        },
        {
          "indexed": true,
          "internalType": "address",
          "name": "sender",
          "type": "address"
        }
      ],
      "name": "RoleRevoked",
      "type": "event"
    },
    {
      "inputs": [],
      "name": "DEFAULT_ADMIN_ROLE",
      "outputs": [
        {
          "internalType": "bytes32",
          "name": "",
          "type": "bytes32"
        }
      ],
      "stateMutability": "view",
      "type": "function"
    },
    {
      "inputs": [],
      "name": "PAYROLL_ADMIN_ROLE",
      "outputs": [
        {
          "internalType": "bytes32",
          "name": "",
          "type": "bytes32"
        }
      ],
      "stateMutability": "view",
      "type": "function"
    },
    {
      "inputs": [
        {
          "internalType": "bytes32",
          "name": "role",
          "type": "bytes32"
        }
      ],
      "name": "getRoleAdmin",
      "outputs": [
        {
          "internalType": "bytes32",
          "name": "",
          "type": "bytes32"
        }
      ],
      "stateMutability": "view",
      "type": "function"
    },
    {
      "inputs": [
        {
          "internalType": "bytes32",
          "name": "role",
          "type": "bytes32"
        },
        {
          "internalType": "address",
          "name": "account",
          "type": "address"
        }
      ],
      "name": "grantRole",
      "outputs": [],
      "stateMutability": "nonpayable",
      "type": "function"
    },
    {
      "inputs": [
        {
          "internalType": "bytes32",
          "name": "role",
          "type": "bytes32"
        },
        {
          "internalType": "address",
          "name": "account",
          "type": "address"
        }
      ],
      "name": "hasRole",
      "outputs": [
        {
          "internalType": "bool",
          "name": "",
          "type": "bool"
        }
      ],
      "stateMutability": "view",
      "type": "function"
    },
    {
      "inputs": [
        {
          "internalType": "bytes32",
          "name": "role",
          "type": "bytes32"
        },
        {
          "internalType": "address",
          "name": "account",
          "type": "address"
        }
      ],
      "name": "renounceRole",
      "outputs": [],
      "stateMutability": "nonpayable",
      "type": "function"
    },
    {
      "inputs": [
        {
          "internalType": "bytes32",
          "name": "role",
          "type": "bytes32"
        },
        {
          "internalType": "address",
          "name": "account",
          "type": "address"
        }
      ],
      "name": "revokeRole",
      "outputs": [],
      "stateMutability": "nonpayable",
      "type": "function"
    },
    {
      "inputs": [
        {
          "internalType": "bytes4",
          "name": "interfaceId",
          "type": "bytes4"
        }
      ],
      "name": "supportsInterface",
      "outputs": [
        {
          "internalType": "bool",
          "name": "",
          "type": "bool"
        }
      ],
      "stateMutability": "view",
      "type": "function"
    },
    {
      "inputs": [],
      "name": "getPayrollAdminInfo",
      "outputs": [
        {
          "internalType": "string",
          "name": "",
          "type": "string"
        },
        {
          "internalType": "address",
          "name": "",
          "type": "address"
        }
      ],
      "stateMutability": "view",
      "type": "function"
    },
    {
      "inputs": [
        {
          "internalType": "address",
          "name": "employee_address",
          "type": "address"
        }
      ],
      "name": "addEmployees",
      "outputs": [],
      "stateMutability": "nonpayable",
      "type": "function"
    },
    {
      "inputs": [],
      "name": "totalEmployees",
      "outputs": [
        {
          "internalType": "uint256",
          "name": "",
          "type": "uint256"
        }
      ],
      "stateMutability": "view",
      "type": "function"
    },
    {
      "inputs": [
        {
          "internalType": "uint256",
          "name": "index",
          "type": "uint256"
        }
      ],
      "name": "getEmployeeByIndex",
      "outputs": [
        {
          "internalType": "address",
          "name": "",
          "type": "address"
        }
      ],
      "stateMutability": "view",
      "type": "function"
    }
  ],
  "bytecode": "0x60806040523480156200001157600080fd5b506040516200198838038062001988833981810160405281019062000037919062000393565b6200004c6000801b84620000e160201b60201c565b6200007e7f351c518a63f302fd3436c2d47c197d41df314c9a32018c5ae62e6d78e068859283620000e160201b60201c565b8060019080519060200190620000969291906200025a565b5081600260006101000a81548173ffffffffffffffffffffffffffffffffffffffff021916908373ffffffffffffffffffffffffffffffffffffffff16021790555050505062000581565b620000f38282620000f760201b60201c565b5050565b620001098282620001e860201b60201c565b620001e457600160008084815260200190815260200160002060000160008373ffffffffffffffffffffffffffffffffffffffff1673ffffffffffffffffffffffffffffffffffffffff16815260200190815260200160002060006101000a81548160ff021916908315150217905550620001896200025260201b60201c565b73ffffffffffffffffffffffffffffffffffffffff168173ffffffffffffffffffffffffffffffffffffffff16837f2f8788117e7eff1d82e926ec794901d17c78024a50270940304540a733656f0d60405160405180910390a45b5050565b600080600084815260200190815260200160002060000160008373ffffffffffffffffffffffffffffffffffffffff1673ffffffffffffffffffffffffffffffffffffffff16815260200190815260200160002060009054906101000a900460ff16905092915050565b600033905090565b8280546200026890620004d3565b90600052602060002090601f0160209004810192826200028c5760008555620002d8565b82601f10620002a757805160ff1916838001178555620002d8565b82800160010185558215620002d8579182015b82811115620002d7578251825591602001919060010190620002ba565b5b509050620002e79190620002eb565b5090565b5b8082111562000306576000816000905550600101620002ec565b5090565b6000620003216200031b8462000436565b62000402565b9050828152602081018484840111156200033a57600080fd5b620003478482856200049d565b509392505050565b600081519050620003608162000567565b92915050565b600082601f8301126200037857600080fd5b81516200038a8482602086016200030a565b91505092915050565b600080600060608486031215620003a957600080fd5b6000620003b9868287016200034f565b9350506020620003cc868287016200034f565b925050604084015167ffffffffffffffff811115620003ea57600080fd5b620003f88682870162000366565b9150509250925092565b6000604051905081810181811067ffffffffffffffff821117156200042c576200042b62000538565b5b8060405250919050565b600067ffffffffffffffff82111562000454576200045362000538565b5b601f19601f8301169050602081019050919050565b600062000476826200047d565b9050919050565b600073ffffffffffffffffffffffffffffffffffffffff82169050919050565b60005b83811015620004bd578082015181840152602081019050620004a0565b83811115620004cd576000848401525b50505050565b60006002820490506001821680620004ec57607f821691505b6020821081141562000503576200050262000509565b5b50919050565b7f4e487b7100000000000000000000000000000000000000000000000000000000600052602260045260246000fd5b7f4e487b7100000000000000000000000000000000000000000000000000000000600052604160045260246000fd5b620005728162000469565b81146200057e57600080fd5b50565b6113f780620005916000396000f3fe608060405234801561001057600080fd5b50600436106100b35760003560e01c806352b9b9731161007157806352b9b9731461018b57806359420e48146101a957806391d14854146101d9578063a217fddf14610209578063c25f66f614610227578063d547741f14610245576100b3565b8062ac8095146100b857806301ffc9a7146100d45780632352b7b314610104578063248a9ca3146101235780632f2ff15d1461015357806336568abe1461016f575b600080fd5b6100d260048036038101906100cd9190610cce565b610261565b005b6100ee60048036038101906100e99190610d5c565b6102cf565b6040516100fb919061100f565b60405180910390f35b61010c610349565b60405161011a929190611067565b60405180910390f35b61013d60048036038101906101389190610cf7565b610406565b60405161014a919061102a565b60405180910390f35b61016d60048036038101906101689190610d20565b610425565b005b61018960048036038101906101849190610d20565b610446565b005b6101936104c9565b6040516101a091906110f7565b60405180910390f35b6101c360048036038101906101be9190610d85565b6104d6565b6040516101d09190610ff4565b60405180910390f35b6101f360048036038101906101ee9190610d20565b610544565b604051610200919061100f565b60405180910390f35b6102116105ae565b60405161021e919061102a565b60405180910390f35b61022f6105b5565b60405161023c919061102a565b60405180910390f35b61025f600480360381019061025a9190610d20565b6105d9565b005b6102696105fa565b6003819080600181540180825580915050600190039060005260206000200160009091909190916101000a81548173ffffffffffffffffffffffffffffffffffffffff021916908373ffffffffffffffffffffffffffffffffffffffff16021790555050565b60007f7965db0b000000000000000000000000000000000000000000000000000000007bffffffffffffffffffffffffffffffffffffffffffffffffffffffff1916827bffffffffffffffffffffffffffffffffffffffffffffffffffffffff19161480610342575061034182610687565b5b9050919050565b606060006001600260009054906101000a900473ffffffffffffffffffffffffffffffffffffffff1681805461037e906112c4565b80601f01602080910402602001604051908101604052809291908181526020018280546103aa906112c4565b80156103f75780601f106103cc576101008083540402835291602001916103f7565b820191906000526020600020905b8154815290600101906020018083116103da57829003601f168201915b50505050509150915091509091565b6000806000838152602001908152602001600020600101549050919050565b61042e82610406565b610437816106f1565b6104418383610705565b505050565b61044e6107e5565b73ffffffffffffffffffffffffffffffffffffffff168173ffffffffffffffffffffffffffffffffffffffff16146104bb576040517f08c379a00000000000000000000000000000000000000000000000000000000081526004016104b2906110d7565b60405180910390fd5b6104c582826107ed565b5050565b6000600380549050905090565b600060038281548110610512577f4e487b7100000000000000000000000000000000000000000000000000000000600052603260045260246000fd5b9060005260206000200160009054906101000a900473ffffffffffffffffffffffffffffffffffffffff169050919050565b600080600084815260200190815260200160002060000160008373ffffffffffffffffffffffffffffffffffffffff1673ffffffffffffffffffffffffffffffffffffffff16815260200190815260200160002060009054906101000a900460ff16905092915050565b6000801b81565b7f351c518a63f302fd3436c2d47c197d41df314c9a32018c5ae62e6d78e068859281565b6105e282610406565b6105eb816106f1565b6105f583836107ed565b505050565b6106467f351c518a63f302fd3436c2d47c197d41df314c9a32018c5ae62e6d78e0688592600260009054906101000a900473ffffffffffffffffffffffffffffffffffffffff16610544565b610685576040517f08c379a000000000000000000000000000000000000000000000000000000000815260040161067c906110b7565b60405180910390fd5b565b60007f01ffc9a7000000000000000000000000000000000000000000000000000000007bffffffffffffffffffffffffffffffffffffffffffffffffffffffff1916827bffffffffffffffffffffffffffffffffffffffffffffffffffffffff1916149050919050565b610702816106fd6107e5565b6108ce565b50565b61070f8282610544565b6107e157600160008084815260200190815260200160002060000160008373ffffffffffffffffffffffffffffffffffffffff1673ffffffffffffffffffffffffffffffffffffffff16815260200190815260200160002060006101000a81548160ff0219169083151502179055506107866107e5565b73ffffffffffffffffffffffffffffffffffffffff168173ffffffffffffffffffffffffffffffffffffffff16837f2f8788117e7eff1d82e926ec794901d17c78024a50270940304540a733656f0d60405160405180910390a45b5050565b600033905090565b6107f78282610544565b156108ca57600080600084815260200190815260200160002060000160008373ffffffffffffffffffffffffffffffffffffffff1673ffffffffffffffffffffffffffffffffffffffff16815260200190815260200160002060006101000a81548160ff02191690831515021790555061086f6107e5565b73ffffffffffffffffffffffffffffffffffffffff168173ffffffffffffffffffffffffffffffffffffffff16837ff6391f5c32d9c69d2a47ea670b442974b53935d1edc7fd64eb21e047a839171b60405160405180910390a45b5050565b6108d88282610544565b61094f576108e581610953565b6108f38360001c6020610980565b604051602001610904929190610fba565b6040516020818303038152906040526040517f08c379a00000000000000000000000000000000000000000000000000000000081526004016109469190611045565b60405180910390fd5b5050565b60606109798273ffffffffffffffffffffffffffffffffffffffff16601460ff16610980565b9050919050565b606060006002836002610993919061118f565b61099d9190611139565b67ffffffffffffffff8111156109dc577f4e487b7100000000000000000000000000000000000000000000000000000000600052604160045260246000fd5b6040519080825280601f01601f191660200182016040528015610a0e5781602001600182028036833780820191505090505b5090507f300000000000000000000000000000000000000000000000000000000000000081600081518110610a6c577f4e487b7100000000000000000000000000000000000000000000000000000000600052603260045260246000fd5b60200101907effffffffffffffffffffffffffffffffffffffffffffffffffffffffffffff1916908160001a9053507f780000000000000000000000000000000000000000000000000000000000000081600181518110610af6577f4e487b7100000000000000000000000000000000000000000000000000000000600052603260045260246000fd5b60200101907effffffffffffffffffffffffffffffffffffffffffffffffffffffffffffff1916908160001a90535060006001846002610b36919061118f565b610b409190611139565b90505b6001811115610c2c577f3031323334353637383961626364656600000000000000000000000000000000600f861660108110610ba8577f4e487b7100000000000000000000000000000000000000000000000000000000600052603260045260246000fd5b1a60f81b828281518110610be5577f4e487b7100000000000000000000000000000000000000000000000000000000600052603260045260246000fd5b60200101907effffffffffffffffffffffffffffffffffffffffffffffffffffffffffffff1916908160001a905350600485901c945080610c259061129a565b9050610b43565b5060008414610c70576040517f08c379a0000000000000000000000000000000000000000000000000000000008152600401610c6790611097565b60405180910390fd5b8091505092915050565b600081359050610c8981611365565b92915050565b600081359050610c9e8161137c565b92915050565b600081359050610cb381611393565b92915050565b600081359050610cc8816113aa565b92915050565b600060208284031215610ce057600080fd5b6000610cee84828501610c7a565b91505092915050565b600060208284031215610d0957600080fd5b6000610d1784828501610c8f565b91505092915050565b60008060408385031215610d3357600080fd5b6000610d4185828601610c8f565b9250506020610d5285828601610c7a565b9150509250929050565b600060208284031215610d6e57600080fd5b6000610d7c84828501610ca4565b91505092915050565b600060208284031215610d9757600080fd5b6000610da584828501610cb9565b91505092915050565b610db7816111e9565b82525050565b610dc6816111fb565b82525050565b610dd581611207565b82525050565b6000610de682611112565b610df0818561111d565b9350610e00818560208601611267565b610e0981611354565b840191505092915050565b6000610e1f82611112565b610e29818561112e565b9350610e39818560208601611267565b80840191505092915050565b6000610e5260208361111d565b91507f537472696e67733a20686578206c656e67746820696e73756666696369656e746000830152602082019050919050565b6000610e92601e8361111d565b91507f43616c6c6572206973206e6f7420616e20706179726f6c6c2061646d696e00006000830152602082019050919050565b6000610ed260178361112e565b91507f416363657373436f6e74726f6c3a206163636f756e74200000000000000000006000830152601782019050919050565b6000610f1260118361112e565b91507f206973206d697373696e6720726f6c65200000000000000000000000000000006000830152601182019050919050565b6000610f52602f8361111d565b91507f416363657373436f6e74726f6c3a2063616e206f6e6c792072656e6f756e636560008301527f20726f6c657320666f722073656c6600000000000000000000000000000000006020830152604082019050919050565b610fb48161125d565b82525050565b6000610fc582610ec5565b9150610fd18285610e14565b9150610fdc82610f05565b9150610fe88284610e14565b91508190509392505050565b60006020820190506110096000830184610dae565b92915050565b60006020820190506110246000830184610dbd565b92915050565b600060208201905061103f6000830184610dcc565b92915050565b6000602082019050818103600083015261105f8184610ddb565b905092915050565b600060408201905081810360008301526110818185610ddb565b90506110906020830184610dae565b9392505050565b600060208201905081810360008301526110b081610e45565b9050919050565b600060208201905081810360008301526110d081610e85565b9050919050565b600060208201905081810360008301526110f081610f45565b9050919050565b600060208201905061110c6000830184610fab565b92915050565b600081519050919050565b600082825260208201905092915050565b600081905092915050565b60006111448261125d565b915061114f8361125d565b9250827fffffffffffffffffffffffffffffffffffffffffffffffffffffffffffffffff03821115611184576111836112f6565b5b828201905092915050565b600061119a8261125d565b91506111a58361125d565b9250817fffffffffffffffffffffffffffffffffffffffffffffffffffffffffffffffff04831182151516156111de576111dd6112f6565b5b828202905092915050565b60006111f48261123d565b9050919050565b60008115159050919050565b6000819050919050565b60007fffffffff0000000000000000000000000000000000000000000000000000000082169050919050565b600073ffffffffffffffffffffffffffffffffffffffff82169050919050565b6000819050919050565b60005b8381101561128557808201518184015260208101905061126a565b83811115611294576000848401525b50505050565b60006112a58261125d565b915060008214156112b9576112b86112f6565b5b600182039050919050565b600060028204905060018216806112dc57607f821691505b602082108114156112f0576112ef611325565b5b50919050565b7f4e487b7100000000000000000000000000000000000000000000000000000000600052601160045260246000fd5b7f4e487b7100000000000000000000000000000000000000000000000000000000600052602260045260246000fd5b6000601f19601f8301169050919050565b61136e816111e9565b811461137957600080fd5b50565b61138581611207565b811461139057600080fd5b50565b61139c81611211565b81146113a757600080fd5b50565b6113b38161125d565b81146113be57600080fd5b5056fea2646970667358221220fe702ce9f45e7ce08e3b62aa48395307fa58af6efd399f174d69a036ec9886e864736f6c63430008000033",
  "immutableReferences": {},
  "source": "//SPDX-License-Identifier: MIT\npragma solidity >=0.5.0 <0.9.0;\nimport \"@openzeppelin/contracts/access/AccessControl.sol\";\n\ncontract PayrollAdmin  is AccessControl {\n  bytes32 public constant PAYROLL_ADMIN_ROLE = keccak256(\"PAYROLL_ADMIN_ROLE\");\n  string name;\n  address payroll_admin_address;\n\n  constructor(\n    address _admin,\n    address _payroll_admin_address,\n    string memory _name\n  )  {\n    _setupRole(DEFAULT_ADMIN_ROLE,_admin);\n    _setupRole(PAYROLL_ADMIN_ROLE,_payroll_admin_address);\n    name = _name;\n    payroll_admin_address = _payroll_admin_address;\n  }\n\n  function _isPayrollAdmin() private view{\n    require(hasRole(PAYROLL_ADMIN_ROLE, payroll_admin_address), \"Caller is not an payroll admin\");\n  }\n\n  modifier OnlyPayrollAdmin() {\n    _isPayrollAdmin();\n    _;\n  }\n\n  function getPayrollAdminInfo()\n    public\n    view\n    returns (\n      string memory,\n      address\n    )\n  {\n    return (name, payroll_admin_address);\n  }\n\n  address[] allEmployees;\n\n  function addEmployees(address employee_address) public OnlyPayrollAdmin {\n    allEmployees.push(employee_address);\n  }\n\n  function totalEmployees() public view returns (uint256) {\n    return allEmployees.length;\n  }\n\n  function getEmployeeByIndex(uint256 index) public view returns (address) {\n    return allEmployees[index];\n  }\n}",
  "sourcePath": "/Users/mobilelive/Work/mobileLIVE/hrms-blockchain-app/src/contracts/PayrollAdmin.sol",
  "compiler": {
    "name": "solc",
    "version": "0.8.0+commit.c7dfd78e.Emscripten.clang"
  },
  "schemaVersion": "3.4.3",
  "updatedAt": "2023-04-20T20:55:27.431Z",
  "devdoc": {
    "kind": "dev",
    "methods": {
      "getRoleAdmin(bytes32)": {
        "details": "Returns the admin role that controls `role`. See {grantRole} and {revokeRole}. To change a role's admin, use {_setRoleAdmin}."
      },
      "grantRole(bytes32,address)": {
        "details": "Grants `role` to `account`. If `account` had not been already granted `role`, emits a {RoleGranted} event. Requirements: - the caller must have ``role``'s admin role. May emit a {RoleGranted} event."
      },
      "hasRole(bytes32,address)": {
        "details": "Returns `true` if `account` has been granted `role`."
      },
      "renounceRole(bytes32,address)": {
        "details": "Revokes `role` from the calling account. Roles are often managed via {grantRole} and {revokeRole}: this function's purpose is to provide a mechanism for accounts to lose their privileges if they are compromised (such as when a trusted device is misplaced). If the calling account had been revoked `role`, emits a {RoleRevoked} event. Requirements: - the caller must be `account`. May emit a {RoleRevoked} event."
      },
      "revokeRole(bytes32,address)": {
        "details": "Revokes `role` from `account`. If `account` had been granted `role`, emits a {RoleRevoked} event. Requirements: - the caller must have ``role``'s admin role. May emit a {RoleRevoked} event."
      },
      "supportsInterface(bytes4)": {
        "details": "See {IERC165-supportsInterface}."
      }
    },
    "version": 1
  },
  "userdoc": {
    "kind": "user",
    "methods": {},
    "version": 1
  }
}