{
  "contractName": "PayrollAdmin",
  "abi": [
    {
      "inputs": [
        {
          "internalType": "address",
          "name": "_admin",
          "type": "address"
        },
        {
          "internalType": "address",
          "name": "_payroll_admin_address",
          "type": "address"
        },
        {
          "internalType": "string",
          "name": "_name",
          "type": "string"
        }
      ],
      "stateMutability": "nonpayable",
      "type": "constructor"
    },
    {
      "anonymous": false,
      "inputs": [
        {
          "indexed": true,
          "internalType": "bytes32",
          "name": "role",
          "type": "bytes32"
        },
        {
          "indexed": true,
          "internalType": "bytes32",
          "name": "previousAdminRole",
          "type": "bytes32"
        },
        {
          "indexed": true,
          "internalType": "bytes32",
          "name": "newAdminRole",
          "type": "bytes32"
        }
      ],
      "name": "RoleAdminChanged",
      "type": "event"
    },
    {
      "anonymous": false,
      "inputs": [
        {
          "indexed": true,
          "internalType": "bytes32",
          "name": "role",
          "type": "bytes32"
        },
        {
          "indexed": true,
          "internalType": "address",
          "name": "account",
          "type": "address"
        },
        {
          "indexed": true,
          "internalType": "address",
          "name": "sender",
          "type": "address"
        }
      ],
      "name": "RoleGranted",
      "type": "event"
    },
    {
      "anonymous": false,
      "inputs": [
        {
          "indexed": true,
          "internalType": "bytes32",
          "name": "role",
          "type": "bytes32"
        },
        {
          "indexed": true,
          "internalType": "address",
          "name": "account",
          "type": "address"
        },
        {
          "indexed": true,
          "internalType": "address",
          "name": "sender",
          "type": "address"
        }
      ],
      "name": "RoleRevoked",
      "type": "event"
    },
    {
      "inputs": [],
      "name": "DEFAULT_ADMIN_ROLE",
      "outputs": [
        {
          "internalType": "bytes32",
          "name": "",
          "type": "bytes32"
        }
      ],
      "stateMutability": "view",
      "type": "function"
    },
    {
      "inputs": [],
      "name": "PAYROLL_ADMIN_ROLE",
      "outputs": [
        {
          "internalType": "bytes32",
          "name": "",
          "type": "bytes32"
        }
      ],
      "stateMutability": "view",
      "type": "function"
    },
    {
      "inputs": [
        {
          "internalType": "bytes32",
          "name": "role",
          "type": "bytes32"
        }
      ],
      "name": "getRoleAdmin",
      "outputs": [
        {
          "internalType": "bytes32",
          "name": "",
          "type": "bytes32"
        }
      ],
      "stateMutability": "view",
      "type": "function"
    },
    {
      "inputs": [
        {
          "internalType": "bytes32",
          "name": "role",
          "type": "bytes32"
        },
        {
          "internalType": "address",
          "name": "account",
          "type": "address"
        }
      ],
      "name": "grantRole",
      "outputs": [],
      "stateMutability": "nonpayable",
      "type": "function"
    },
    {
      "inputs": [
        {
          "internalType": "bytes32",
          "name": "role",
          "type": "bytes32"
        },
        {
          "internalType": "address",
          "name": "account",
          "type": "address"
        }
      ],
      "name": "hasRole",
      "outputs": [
        {
          "internalType": "bool",
          "name": "",
          "type": "bool"
        }
      ],
      "stateMutability": "view",
      "type": "function"
    },
    {
      "inputs": [
        {
          "internalType": "bytes32",
          "name": "role",
          "type": "bytes32"
        },
        {
          "internalType": "address",
          "name": "account",
          "type": "address"
        }
      ],
      "name": "renounceRole",
      "outputs": [],
      "stateMutability": "nonpayable",
      "type": "function"
    },
    {
      "inputs": [
        {
          "internalType": "bytes32",
          "name": "role",
          "type": "bytes32"
        },
        {
          "internalType": "address",
          "name": "account",
          "type": "address"
        }
      ],
      "name": "revokeRole",
      "outputs": [],
      "stateMutability": "nonpayable",
      "type": "function"
    },
    {
      "inputs": [
        {
          "internalType": "bytes4",
          "name": "interfaceId",
          "type": "bytes4"
        }
      ],
      "name": "supportsInterface",
      "outputs": [
        {
          "internalType": "bool",
          "name": "",
          "type": "bool"
        }
      ],
      "stateMutability": "view",
      "type": "function"
    },
    {
      "inputs": [],
      "name": "getPayrollAdminInfo",
      "outputs": [
        {
          "internalType": "string",
          "name": "",
          "type": "string"
        },
        {
          "internalType": "address",
          "name": "",
          "type": "address"
        }
      ],
      "stateMutability": "view",
      "type": "function"
    },
    {
      "inputs": [
        {
          "internalType": "address",
          "name": "employee_address",
          "type": "address"
        }
      ],
      "name": "addEmployees",
      "outputs": [],
      "stateMutability": "nonpayable",
      "type": "function"
    },
    {
      "inputs": [],
      "name": "totalEmployees",
      "outputs": [
        {
          "internalType": "uint256",
          "name": "",
          "type": "uint256"
        }
      ],
      "stateMutability": "view",
      "type": "function"
    },
    {
      "inputs": [
        {
          "internalType": "uint256",
          "name": "index",
          "type": "uint256"
        }
      ],
      "name": "getEmployeeByIndex",
      "outputs": [
        {
          "internalType": "address",
          "name": "",
          "type": "address"
        }
      ],
      "stateMutability": "view",
      "type": "function"
    }
  ],
  "bytecode": "0x60806040523480156200001157600080fd5b5060405162001b7f38038062001b7f83398181016040528101906200003791906200044b565b6200004c6000801b84620000da60201b60201c565b6200007e7f351c518a63f302fd3436c2d47c197d41df314c9a32018c5ae62e6d78e068859283620000da60201b60201c565b80600190816200008f919062000711565b5081600260006101000a81548173ffffffffffffffffffffffffffffffffffffffff021916908373ffffffffffffffffffffffffffffffffffffffff160217905550505050620007f8565b620000ec8282620000f060201b60201c565b5050565b620001028282620001e160201b60201c565b620001dd57600160008084815260200190815260200160002060000160008373ffffffffffffffffffffffffffffffffffffffff1673ffffffffffffffffffffffffffffffffffffffff16815260200190815260200160002060006101000a81548160ff021916908315150217905550620001826200024b60201b60201c565b73ffffffffffffffffffffffffffffffffffffffff168173ffffffffffffffffffffffffffffffffffffffff16837f2f8788117e7eff1d82e926ec794901d17c78024a50270940304540a733656f0d60405160405180910390a45b5050565b600080600084815260200190815260200160002060000160008373ffffffffffffffffffffffffffffffffffffffff1673ffffffffffffffffffffffffffffffffffffffff16815260200190815260200160002060009054906101000a900460ff16905092915050565b600033905090565b6000604051905090565b600080fd5b600080fd5b600073ffffffffffffffffffffffffffffffffffffffff82169050919050565b6000620002948262000267565b9050919050565b620002a68162000287565b8114620002b257600080fd5b50565b600081519050620002c6816200029b565b92915050565b600080fd5b600080fd5b6000601f19601f8301169050919050565b7f4e487b7100000000000000000000000000000000000000000000000000000000600052604160045260246000fd5b6200032182620002d6565b810181811067ffffffffffffffff82111715620003435762000342620002e7565b5b80604052505050565b60006200035862000253565b905062000366828262000316565b919050565b600067ffffffffffffffff821115620003895762000388620002e7565b5b6200039482620002d6565b9050602081019050919050565b60005b83811015620003c1578082015181840152602081019050620003a4565b60008484015250505050565b6000620003e4620003de846200036b565b6200034c565b905082815260208101848484011115620004035762000402620002d1565b5b62000410848285620003a1565b509392505050565b600082601f83011262000430576200042f620002cc565b5b815162000442848260208601620003cd565b91505092915050565b6000806000606084860312156200046757620004666200025d565b5b60006200047786828701620002b5565b93505060206200048a86828701620002b5565b925050604084015167ffffffffffffffff811115620004ae57620004ad62000262565b5b620004bc8682870162000418565b9150509250925092565b600081519050919050565b7f4e487b7100000000000000000000000000000000000000000000000000000000600052602260045260246000fd5b600060028204905060018216806200051957607f821691505b6020821081036200052f576200052e620004d1565b5b50919050565b60008190508160005260206000209050919050565b60006020601f8301049050919050565b600082821b905092915050565b600060088302620005997fffffffffffffffffffffffffffffffffffffffffffffffffffffffffffffffff826200055a565b620005a586836200055a565b95508019841693508086168417925050509392505050565b6000819050919050565b6000819050919050565b6000620005f2620005ec620005e684620005bd565b620005c7565b620005bd565b9050919050565b6000819050919050565b6200060e83620005d1565b620006266200061d82620005f9565b84845462000567565b825550505050565b600090565b6200063d6200062e565b6200064a81848462000603565b505050565b5b8181101562000672576200066660008262000633565b60018101905062000650565b5050565b601f821115620006c1576200068b8162000535565b62000696846200054a565b81016020851015620006a6578190505b620006be620006b5856200054a565b8301826200064f565b50505b505050565b600082821c905092915050565b6000620006e660001984600802620006c6565b1980831691505092915050565b6000620007018383620006d3565b9150826002028217905092915050565b6200071c82620004c6565b67ffffffffffffffff811115620007385762000737620002e7565b5b62000744825462000500565b6200075182828562000676565b600060209050601f83116001811462000789576000841562000774578287015190505b620007808582620006f3565b865550620007f0565b601f198416620007998662000535565b60005b82811015620007c3578489015182556001820191506020850194506020810190506200079c565b86831015620007e35784890151620007df601f891682620006d3565b8355505b6001600288020188555050505b505050505050565b61137780620008086000396000f3fe608060405234801561001057600080fd5b50600436106100b35760003560e01c806352b9b9731161007157806352b9b9731461018b57806359420e48146101a957806391d14854146101d9578063a217fddf14610209578063c25f66f614610227578063d547741f14610245576100b3565b8062ac8095146100b857806301ffc9a7146100d45780632352b7b314610104578063248a9ca3146101235780632f2ff15d1461015357806336568abe1461016f575b600080fd5b6100d260048036038101906100cd9190610bef565b610261565b005b6100ee60048036038101906100e99190610c74565b610352565b6040516100fb9190610cbc565b60405180910390f35b61010c6103cc565b60405161011a929190610d76565b60405180910390f35b61013d60048036038101906101389190610ddc565b610489565b60405161014a9190610e18565b60405180910390f35b61016d60048036038101906101689190610e33565b6104a8565b005b61018960048036038101906101849190610e33565b6104c9565b005b61019361054c565b6040516101a09190610e8c565b60405180910390f35b6101c360048036038101906101be9190610ed3565b610559565b6040516101d09190610f00565b60405180910390f35b6101f360048036038101906101ee9190610e33565b6105a1565b6040516102009190610cbc565b60405180910390f35b61021161060b565b60405161021e9190610e18565b60405180910390f35b61022f610612565b60405161023c9190610e18565b60405180910390f35b61025f600480360381019061025a9190610e33565b610636565b005b6102ad7f351c518a63f302fd3436c2d47c197d41df314c9a32018c5ae62e6d78e0688592600260009054906101000a900473ffffffffffffffffffffffffffffffffffffffff166105a1565b6102ec576040517f08c379a00000000000000000000000000000000000000000000000000000000081526004016102e390610f67565b60405180910390fd5b6003819080600181540180825580915050600190039060005260206000200160009091909190916101000a81548173ffffffffffffffffffffffffffffffffffffffff021916908373ffffffffffffffffffffffffffffffffffffffff16021790555050565b60007f7965db0b000000000000000000000000000000000000000000000000000000007bffffffffffffffffffffffffffffffffffffffffffffffffffffffff1916827bffffffffffffffffffffffffffffffffffffffffffffffffffffffff191614806103c557506103c482610657565b5b9050919050565b606060006001600260009054906101000a900473ffffffffffffffffffffffffffffffffffffffff1681805461040190610fb6565b80601f016020809104026020016040519081016040528092919081815260200182805461042d90610fb6565b801561047a5780601f1061044f5761010080835404028352916020019161047a565b820191906000526020600020905b81548152906001019060200180831161045d57829003601f168201915b50505050509150915091509091565b6000806000838152602001908152602001600020600101549050919050565b6104b182610489565b6104ba816106c1565b6104c483836106d5565b505050565b6104d16107b5565b73ffffffffffffffffffffffffffffffffffffffff168173ffffffffffffffffffffffffffffffffffffffff161461053e576040517f08c379a000000000000000000000000000000000000000000000000000000000815260040161053590611059565b60405180910390fd5b61054882826107bd565b5050565b6000600380549050905090565b60006003828154811061056f5761056e611079565b5b9060005260206000200160009054906101000a900473ffffffffffffffffffffffffffffffffffffffff169050919050565b600080600084815260200190815260200160002060000160008373ffffffffffffffffffffffffffffffffffffffff1673ffffffffffffffffffffffffffffffffffffffff16815260200190815260200160002060009054906101000a900460ff16905092915050565b6000801b81565b7f351c518a63f302fd3436c2d47c197d41df314c9a32018c5ae62e6d78e068859281565b61063f82610489565b610648816106c1565b61065283836107bd565b505050565b60007f01ffc9a7000000000000000000000000000000000000000000000000000000007bffffffffffffffffffffffffffffffffffffffffffffffffffffffff1916827bffffffffffffffffffffffffffffffffffffffffffffffffffffffff1916149050919050565b6106d2816106cd6107b5565b61089e565b50565b6106df82826105a1565b6107b157600160008084815260200190815260200160002060000160008373ffffffffffffffffffffffffffffffffffffffff1673ffffffffffffffffffffffffffffffffffffffff16815260200190815260200160002060006101000a81548160ff0219169083151502179055506107566107b5565b73ffffffffffffffffffffffffffffffffffffffff168173ffffffffffffffffffffffffffffffffffffffff16837f2f8788117e7eff1d82e926ec794901d17c78024a50270940304540a733656f0d60405160405180910390a45b5050565b600033905090565b6107c782826105a1565b1561089a57600080600084815260200190815260200160002060000160008373ffffffffffffffffffffffffffffffffffffffff1673ffffffffffffffffffffffffffffffffffffffff16815260200190815260200160002060006101000a81548160ff02191690831515021790555061083f6107b5565b73ffffffffffffffffffffffffffffffffffffffff168173ffffffffffffffffffffffffffffffffffffffff16837ff6391f5c32d9c69d2a47ea670b442974b53935d1edc7fd64eb21e047a839171b60405160405180910390a45b5050565b6108a882826105a1565b61091f576108b581610923565b6108c38360001c6020610950565b6040516020016108d492919061117c565b6040516020818303038152906040526040517f08c379a000000000000000000000000000000000000000000000000000000000815260040161091691906111b6565b60405180910390fd5b5050565b60606109498273ffffffffffffffffffffffffffffffffffffffff16601460ff16610950565b9050919050565b6060600060028360026109639190611207565b61096d9190611249565b67ffffffffffffffff8111156109865761098561127d565b5b6040519080825280601f01601f1916602001820160405280156109b85781602001600182028036833780820191505090505b5090507f3000000000000000000000000000000000000000000000000000000000000000816000815181106109f0576109ef611079565b5b60200101907effffffffffffffffffffffffffffffffffffffffffffffffffffffffffffff1916908160001a9053507f780000000000000000000000000000000000000000000000000000000000000081600181518110610a5457610a53611079565b5b60200101907effffffffffffffffffffffffffffffffffffffffffffffffffffffffffffff1916908160001a90535060006001846002610a949190611207565b610a9e9190611249565b90505b6001811115610b3e577f3031323334353637383961626364656600000000000000000000000000000000600f861660108110610ae057610adf611079565b5b1a60f81b828281518110610af757610af6611079565b5b60200101907effffffffffffffffffffffffffffffffffffffffffffffffffffffffffffff1916908160001a905350600485901c945080610b37906112ac565b9050610aa1565b5060008414610b82576040517f08c379a0000000000000000000000000000000000000000000000000000000008152600401610b7990611321565b60405180910390fd5b8091505092915050565b600080fd5b600073ffffffffffffffffffffffffffffffffffffffff82169050919050565b6000610bbc82610b91565b9050919050565b610bcc81610bb1565b8114610bd757600080fd5b50565b600081359050610be981610bc3565b92915050565b600060208284031215610c0557610c04610b8c565b5b6000610c1384828501610bda565b91505092915050565b60007fffffffff0000000000000000000000000000000000000000000000000000000082169050919050565b610c5181610c1c565b8114610c5c57600080fd5b50565b600081359050610c6e81610c48565b92915050565b600060208284031215610c8a57610c89610b8c565b5b6000610c9884828501610c5f565b91505092915050565b60008115159050919050565b610cb681610ca1565b82525050565b6000602082019050610cd16000830184610cad565b92915050565b600081519050919050565b600082825260208201905092915050565b60005b83811015610d11578082015181840152602081019050610cf6565b60008484015250505050565b6000601f19601f8301169050919050565b6000610d3982610cd7565b610d438185610ce2565b9350610d53818560208601610cf3565b610d5c81610d1d565b840191505092915050565b610d7081610bb1565b82525050565b60006040820190508181036000830152610d908185610d2e565b9050610d9f6020830184610d67565b9392505050565b6000819050919050565b610db981610da6565b8114610dc457600080fd5b50565b600081359050610dd681610db0565b92915050565b600060208284031215610df257610df1610b8c565b5b6000610e0084828501610dc7565b91505092915050565b610e1281610da6565b82525050565b6000602082019050610e2d6000830184610e09565b92915050565b60008060408385031215610e4a57610e49610b8c565b5b6000610e5885828601610dc7565b9250506020610e6985828601610bda565b9150509250929050565b6000819050919050565b610e8681610e73565b82525050565b6000602082019050610ea16000830184610e7d565b92915050565b610eb081610e73565b8114610ebb57600080fd5b50565b600081359050610ecd81610ea7565b92915050565b600060208284031215610ee957610ee8610b8c565b5b6000610ef784828501610ebe565b91505092915050565b6000602082019050610f156000830184610d67565b92915050565b7f43616c6c6572206973206e6f7420616e20706179726f6c6c2061646d696e0000600082015250565b6000610f51601e83610ce2565b9150610f5c82610f1b565b602082019050919050565b60006020820190508181036000830152610f8081610f44565b9050919050565b7f4e487b7100000000000000000000000000000000000000000000000000000000600052602260045260246000fd5b60006002820490506001821680610fce57607f821691505b602082108103610fe157610fe0610f87565b5b50919050565b7f416363657373436f6e74726f6c3a2063616e206f6e6c792072656e6f756e636560008201527f20726f6c657320666f722073656c660000000000000000000000000000000000602082015250565b6000611043602f83610ce2565b915061104e82610fe7565b604082019050919050565b6000602082019050818103600083015261107281611036565b9050919050565b7f4e487b7100000000000000000000000000000000000000000000000000000000600052603260045260246000fd5b600081905092915050565b7f416363657373436f6e74726f6c3a206163636f756e7420000000000000000000600082015250565b60006110e96017836110a8565b91506110f4826110b3565b601782019050919050565b600061110a82610cd7565b61111481856110a8565b9350611124818560208601610cf3565b80840191505092915050565b7f206973206d697373696e6720726f6c6520000000000000000000000000000000600082015250565b60006111666011836110a8565b915061117182611130565b601182019050919050565b6000611187826110dc565b915061119382856110ff565b915061119e82611159565b91506111aa82846110ff565b91508190509392505050565b600060208201905081810360008301526111d08184610d2e565b905092915050565b7f4e487b7100000000000000000000000000000000000000000000000000000000600052601160045260246000fd5b600061121282610e73565b915061121d83610e73565b925082820261122b81610e73565b91508282048414831517611242576112416111d8565b5b5092915050565b600061125482610e73565b915061125f83610e73565b9250828201905080821115611277576112766111d8565b5b92915050565b7f4e487b7100000000000000000000000000000000000000000000000000000000600052604160045260246000fd5b60006112b782610e73565b9150600082036112ca576112c96111d8565b5b600182039050919050565b7f537472696e67733a20686578206c656e67746820696e73756666696369656e74600082015250565b600061130b602083610ce2565b9150611316826112d5565b602082019050919050565b6000602082019050818103600083015261133a816112fe565b905091905056fea2646970667358221220cae8264e69cc26694a51cd8e6ded64251e5930b361e97a30761e67e278cf68e064736f6c63430008130033",
  "immutableReferences": {},
  "source": "//SPDX-License-Identifier: MIT\npragma solidity >=0.5.0 <0.9.0;\nimport \"@openzeppelin/contracts/access/AccessControl.sol\";\n\ncontract PayrollAdmin  is AccessControl {\n  bytes32 public constant PAYROLL_ADMIN_ROLE = keccak256(\"PAYROLL_ADMIN_ROLE\");\n  // address admin;\n  string name;\n  address payroll_admin_address;\n\n  constructor(\n    address _admin,\n    address _payroll_admin_address,\n    string memory _name\n  ) public {\n    // admin = _admin;\n    _setupRole(DEFAULT_ADMIN_ROLE,_admin);\n    _setupRole(PAYROLL_ADMIN_ROLE,_payroll_admin_address);\n    name = _name;\n    payroll_admin_address = _payroll_admin_address;\n  }\n\n  modifier OnlyPayrollAdmin() {\n    // require(msg.sender == employee_address);\n    require(hasRole(PAYROLL_ADMIN_ROLE, payroll_admin_address), \"Caller is not an payroll admin\");\n    _;\n  }\n\n  function getPayrollAdminInfo()\n    public\n    view\n    returns (\n      string memory,\n      address\n    )\n  {\n    return (name, payroll_admin_address);\n  }\n\n  address[] allEmployees;\n\n  function addEmployees(address employee_address) public OnlyPayrollAdmin {\n    // require(msg.sender == payroll_admin_address, \"Only owner can perform this action\");\n    allEmployees.push(employee_address);\n  }\n\n  function totalEmployees() public view returns (uint256) {\n    return allEmployees.length;\n  }\n\n  function getEmployeeByIndex(uint256 index) public view returns (address) {\n    return allEmployees[index];\n  }\n}",
  "sourcePath": "/Users/mobilelive/Work/mobileLIVE/hrms-blockchain-app/src/contracts/PayrollAdmin.sol",
  "compiler": {
    "name": "solc",
    "version": "0.8.19+commit.7dd6d404.Emscripten.clang"
  },
  "schemaVersion": "3.4.13",
  "updatedAt": "2023-04-11T20:40:04.638Z",
  "devdoc": {
    "events": {
      "RoleAdminChanged(bytes32,bytes32,bytes32)": {
        "details": "Emitted when `newAdminRole` is set as ``role``'s admin role, replacing `previousAdminRole` `DEFAULT_ADMIN_ROLE` is the starting admin for all roles, despite {RoleAdminChanged} not being emitted signaling this. _Available since v3.1._"
      },
      "RoleGranted(bytes32,address,address)": {
        "details": "Emitted when `account` is granted `role`. `sender` is the account that originated the contract call, an admin role bearer except when using {AccessControl-_setupRole}."
      },
      "RoleRevoked(bytes32,address,address)": {
        "details": "Emitted when `account` is revoked `role`. `sender` is the account that originated the contract call:   - if using `revokeRole`, it is the admin role bearer   - if using `renounceRole`, it is the role bearer (i.e. `account`)"
      }
    },
    "kind": "dev",
    "methods": {
      "getRoleAdmin(bytes32)": {
        "details": "Returns the admin role that controls `role`. See {grantRole} and {revokeRole}. To change a role's admin, use {_setRoleAdmin}."
      },
      "grantRole(bytes32,address)": {
        "details": "Grants `role` to `account`. If `account` had not been already granted `role`, emits a {RoleGranted} event. Requirements: - the caller must have ``role``'s admin role. May emit a {RoleGranted} event."
      },
      "hasRole(bytes32,address)": {
        "details": "Returns `true` if `account` has been granted `role`."
      },
      "renounceRole(bytes32,address)": {
        "details": "Revokes `role` from the calling account. Roles are often managed via {grantRole} and {revokeRole}: this function's purpose is to provide a mechanism for accounts to lose their privileges if they are compromised (such as when a trusted device is misplaced). If the calling account had been revoked `role`, emits a {RoleRevoked} event. Requirements: - the caller must be `account`. May emit a {RoleRevoked} event."
      },
      "revokeRole(bytes32,address)": {
        "details": "Revokes `role` from `account`. If `account` had been granted `role`, emits a {RoleRevoked} event. Requirements: - the caller must have ``role``'s admin role. May emit a {RoleRevoked} event."
      },
      "supportsInterface(bytes4)": {
        "details": "See {IERC165-supportsInterface}."
      }
    },
    "version": 1
  },
  "userdoc": {
    "kind": "user",
    "methods": {},
    "version": 1
  }
}