{
  "contractName": "Skills",
  "abi": [
    {
      "inputs": [
        {
          "internalType": "string",
          "name": "_name",
          "type": "string"
        },
        {
          "internalType": "address",
          "name": "_employee",
          "type": "address"
        }
      ],
      "name": "addEmployeeToSkill",
      "outputs": [],
      "stateMutability": "nonpayable",
      "type": "function"
    },
    {
      "inputs": [],
      "name": "getSkillLength",
      "outputs": [
        {
          "internalType": "uint256",
          "name": "",
          "type": "uint256"
        }
      ],
      "stateMutability": "view",
      "type": "function",
      "constant": true
    },
    {
      "inputs": [
        {
          "internalType": "uint256",
          "name": "index",
          "type": "uint256"
        }
      ],
      "name": "getSkillsByIndex",
      "outputs": [
        {
          "internalType": "string",
          "name": "",
          "type": "string"
        }
      ],
      "stateMutability": "view",
      "type": "function",
      "constant": true
    },
    {
      "inputs": [
        {
          "internalType": "uint256",
          "name": "index",
          "type": "uint256"
        }
      ],
      "name": "getTotalEmployeeInSkillByIndex",
      "outputs": [
        {
          "internalType": "uint256",
          "name": "",
          "type": "uint256"
        }
      ],
      "stateMutability": "view",
      "type": "function",
      "constant": true
    },
    {
      "inputs": [
        {
          "internalType": "string",
          "name": "_name",
          "type": "string"
        }
      ],
      "name": "getTotalEmployeeInSkillByName",
      "outputs": [
        {
          "internalType": "uint256",
          "name": "",
          "type": "uint256"
        }
      ],
      "stateMutability": "view",
      "type": "function",
      "constant": true
    },
    {
      "inputs": [
        {
          "internalType": "uint256",
          "name": "skill_index",
          "type": "uint256"
        },
        {
          "internalType": "uint256",
          "name": "emp_index",
          "type": "uint256"
        }
      ],
      "name": "getEmployeeInSkillByIndex",
      "outputs": [
        {
          "internalType": "address",
          "name": "",
          "type": "address"
        }
      ],
      "stateMutability": "view",
      "type": "function",
      "constant": true
    },
    {
      "inputs": [
        {
          "internalType": "string",
          "name": "_name",
          "type": "string"
        },
        {
          "internalType": "uint256",
          "name": "emp_index",
          "type": "uint256"
        }
      ],
      "name": "getEmployeeBySkillName",
      "outputs": [
        {
          "internalType": "address",
          "name": "",
          "type": "address"
        }
      ],
      "stateMutability": "view",
      "type": "function",
      "constant": true
    }
  ],
  "bytecode": "0x608060405234801561001057600080fd5b50610b96806100206000396000f3fe608060405234801561001057600080fd5b506004361061007d5760003560e01c80638673de531161005b5780638673de53146100ec578063bb50d7721461011c578063e518dc3c1461014c578063f4cee6171461017c5761007d565b80632e2acc4c14610082578063359c410f1461009e5780633dc1a6bc146100ce575b600080fd5b61009c600480360381019061009791906106dc565b6101ac565b005b6100b860048036038101906100b39190610784565b610295565b6040516100c5919061095b565b60405180910390f35b6100d6610302565b6040516100e3919061095b565b60405180910390f35b61010660048036038101906101019190610784565b61030f565b6040516101139190610939565b60405180910390f35b610136600480360381019061013191906107ad565b6103e5565b604051610143919061091e565b60405180910390f35b6101666004803603810190610161919061069b565b6104b2565b604051610173919061095b565b60405180910390f35b61019660048036038101906101919190610730565b6104dc565b6040516101a3919061091e565b60405180910390f35b600080836040516101bd91906108f0565b908152602001604051809103902080549050141561021257600182908060018154018082558091505060019003906000526020600020016000909190919091509080519060200190610210929190610566565b505b60008260405161022291906108f0565b9081526020016040518091039020819080600181540180825580915050600190039060005260206000200160009091909190916101000a81548173ffffffffffffffffffffffffffffffffffffffff021916908373ffffffffffffffffffffffffffffffffffffffff1602179055505050565b600080600183815481106102d2577f4e487b7100000000000000000000000000000000000000000000000000000000600052603260045260246000fd5b906000526020600020016040516102e99190610907565b9081526020016040518091039020805490509050919050565b6000600180549050905090565b60606001828154811061034b577f4e487b7100000000000000000000000000000000000000000000000000000000600052603260045260246000fd5b90600052602060002001805461036090610a91565b80601f016020809104026020016040519081016040528092919081815260200182805461038c90610a91565b80156103d95780601f106103ae576101008083540402835291602001916103d9565b820191906000526020600020905b8154815290600101906020018083116103bc57829003601f168201915b50505050509050919050565b60008060018481548110610422577f4e487b7100000000000000000000000000000000000000000000000000000000600052603260045260246000fd5b906000526020600020016040516104399190610907565b9081526020016040518091039020828154811061047f577f4e487b7100000000000000000000000000000000000000000000000000000000600052603260045260246000fd5b9060005260206000200160009054906101000a900473ffffffffffffffffffffffffffffffffffffffff16905092915050565b600080826040516104c391906108f0565b9081526020016040518091039020805490509050919050565b600080836040516104ed91906108f0565b90815260200160405180910390208281548110610533577f4e487b7100000000000000000000000000000000000000000000000000000000600052603260045260246000fd5b9060005260206000200160009054906101000a900473ffffffffffffffffffffffffffffffffffffffff16905092915050565b82805461057290610a91565b90600052602060002090601f01602090048101928261059457600085556105db565b82601f106105ad57805160ff19168380011785556105db565b828001600101855582156105db579182015b828111156105da5782518255916020019190600101906105bf565b5b5090506105e891906105ec565b5090565b5b808211156106055760008160009055506001016105ed565b5090565b600061061c610617846109a7565b610976565b90508281526020810184848401111561063457600080fd5b61063f848285610a4f565b509392505050565b60008135905061065681610b32565b92915050565b600082601f83011261066d57600080fd5b813561067d848260208601610609565b91505092915050565b60008135905061069581610b49565b92915050565b6000602082840312156106ad57600080fd5b600082013567ffffffffffffffff8111156106c757600080fd5b6106d38482850161065c565b91505092915050565b600080604083850312156106ef57600080fd5b600083013567ffffffffffffffff81111561070957600080fd5b6107158582860161065c565b925050602061072685828601610647565b9150509250929050565b6000806040838503121561074357600080fd5b600083013567ffffffffffffffff81111561075d57600080fd5b6107698582860161065c565b925050602061077a85828601610686565b9150509250929050565b60006020828403121561079657600080fd5b60006107a484828501610686565b91505092915050565b600080604083850312156107c057600080fd5b60006107ce85828601610686565b92505060206107df85828601610686565b9150509250929050565b6107f281610a13565b82525050565b6000610803826109ec565b61080d81856109f7565b935061081d818560208601610a5e565b61082681610b21565b840191505092915050565b600061083c826109ec565b6108468185610a08565b9350610856818560208601610a5e565b80840191505092915050565b6000815461086f81610a91565b6108798186610a08565b9450600182166000811461089457600181146108a5576108d8565b60ff198316865281860193506108d8565b6108ae856109d7565b60005b838110156108d0578154818901526001820191506020810190506108b1565b838801955050505b50505092915050565b6108ea81610a45565b82525050565b60006108fc8284610831565b915081905092915050565b60006109138284610862565b915081905092915050565b600060208201905061093360008301846107e9565b92915050565b6000602082019050818103600083015261095381846107f8565b905092915050565b600060208201905061097060008301846108e1565b92915050565b6000604051905081810181811067ffffffffffffffff8211171561099d5761099c610af2565b5b8060405250919050565b600067ffffffffffffffff8211156109c2576109c1610af2565b5b601f19601f8301169050602081019050919050565b60008190508160005260206000209050919050565b600081519050919050565b600082825260208201905092915050565b600081905092915050565b6000610a1e82610a25565b9050919050565b600073ffffffffffffffffffffffffffffffffffffffff82169050919050565b6000819050919050565b82818337600083830152505050565b60005b83811015610a7c578082015181840152602081019050610a61565b83811115610a8b576000848401525b50505050565b60006002820490506001821680610aa957607f821691505b60208210811415610abd57610abc610ac3565b5b50919050565b7f4e487b7100000000000000000000000000000000000000000000000000000000600052602260045260246000fd5b7f4e487b7100000000000000000000000000000000000000000000000000000000600052604160045260246000fd5b6000601f19601f8301169050919050565b610b3b81610a13565b8114610b4657600080fd5b50565b610b5281610a45565b8114610b5d57600080fd5b5056fea2646970667358221220687ba1f7ad3905352325b3178a275da30cf8c030f331e8e7b11cfbb4b90545d764736f6c63430008000033",
  "immutableReferences": {},
  "source": "//SPDX-License-Identifier: MIT\npragma solidity >=0.5.0 <0.9.0;\n\ncontract Skills {\n  mapping(string => address[]) skillmap;\n  string[] skill;\n\n  function addEmployeeToSkill(string memory _name, address _employee) public {\n    if (skillmap[_name].length == 0) {\n      skill.push(_name);\n    }\n    skillmap[_name].push(_employee);\n  }\n\n  function getSkillLength() public view returns (uint256) {\n    return skill.length;\n  }\n\n  function getSkillsByIndex(uint256 index) public view returns (string memory) {\n    return skill[index];\n  }\n\n  function getTotalEmployeeInSkillByIndex(uint256 index)\n    public\n    view\n    returns (uint256)\n  {\n    return skillmap[skill[index]].length;\n  }\n\n  function getTotalEmployeeInSkillByName(string memory _name)\n    public\n    view\n    returns (uint256)\n  {\n    return skillmap[_name].length;\n  }\n\n  function getEmployeeInSkillByIndex(uint256 skill_index, uint256 emp_index)\n    public\n    view\n    returns (address)\n  {\n    return skillmap[skill[skill_index]][emp_index];\n  }\n\n  function getEmployeeBySkillName(string memory _name, uint256 emp_index)\n    public\n    view\n    returns (address)\n  {\n    return skillmap[_name][emp_index];\n  }\n}\n",
  "sourcePath": "/Users/mobilelive/Work/mobileLIVE/hrms-blockchain-app/src/contracts/Skills.sol",
  "compiler": {
    "name": "solc",
    "version": "0.8.0+commit.c7dfd78e.Emscripten.clang"
  },
  "schemaVersion": "3.4.3",
  "updatedAt": "2023-04-20T20:55:29.675Z",
  "networkType": "ethereum",
  "devdoc": {
    "kind": "dev",
    "methods": {},
    "version": 1
  },
  "userdoc": {
    "kind": "user",
    "methods": {},
    "version": 1
  }
}