{
  "contractName": "WorkExperience",
  "abi": [
    {
      "inputs": [
        {
          "internalType": "string",
          "name": "_role",
          "type": "string"
        },
        {
          "internalType": "address",
          "name": "_organization",
          "type": "address"
        },
        {
          "internalType": "string",
          "name": "_startdate",
          "type": "string"
        },
        {
          "internalType": "string",
          "name": "_enddate",
          "type": "string"
        },
        {
          "internalType": "string",
          "name": "_description",
          "type": "string"
        }
      ],
      "name": "addWorkExp",
      "outputs": [],
      "stateMutability": "nonpayable",
      "type": "function"
    },
    {
      "inputs": [],
      "name": "endorseWorkExp",
      "outputs": [],
      "stateMutability": "nonpayable",
      "type": "function"
    },
    {
      "inputs": [],
      "name": "getWorkExpCount",
      "outputs": [
        {
          "internalType": "uint256",
          "name": "",
          "type": "uint256"
        }
      ],
      "stateMutability": "view",
      "type": "function",
      "constant": true
    },
    {
      "inputs": [
        {
          "internalType": "uint256",
          "name": "_index",
          "type": "uint256"
        }
      ],
      "name": "getWorkExpByIndex",
      "outputs": [
        {
          "internalType": "string",
          "name": "",
          "type": "string"
        },
        {
          "internalType": "address",
          "name": "",
          "type": "address"
        },
        {
          "internalType": "string",
          "name": "",
          "type": "string"
        },
        {
          "internalType": "string",
          "name": "",
          "type": "string"
        },
        {
          "internalType": "bool",
          "name": "",
          "type": "bool"
        },
        {
          "internalType": "string",
          "name": "",
          "type": "string"
        },
        {
          "internalType": "bool",
          "name": "",
          "type": "bool"
        }
      ],
      "stateMutability": "view",
      "type": "function",
      "constant": true
    },
    {
      "inputs": [
        {
          "internalType": "address",
          "name": "org",
          "type": "address"
        }
      ],
      "name": "deleteWorkExp",
      "outputs": [],
      "stateMutability": "nonpayable",
      "type": "function"
    }
  ],
  "bytecode": "0x608060405234801561001057600080fd5b50610fdb806100206000396000f3fe608060405234801561001057600080fd5b50600436106100575760003560e01c806344f034ae1461005c57806394fb3da714610066578063d57e0ad614610084578063e2601751146100ba578063f1d9efb2146100d6575b600080fd5b6100646100f2565b005b61006e610156565b60405161007b9190610db4565b60405180910390f35b61009e60048036038101906100999190610c3a565b610163565b6040516100b19796959493929190610d09565b60405180910390f35b6100d460048036038101906100cf9190610b3a565b6101f6565b005b6100f060048036038101906100eb9190610b63565b610253565b005b6100fa610481565b60016000803373ffffffffffffffffffffffffffffffffffffffff1673ffffffffffffffffffffffffffffffffffffffff16815260200190815260200160002060040160006101000a81548160ff021916908315150217905550565b6000600180549050905090565b606060006060806000606060006101dd600189815481106101ad577f4e487b7100000000000000000000000000000000000000000000000000000000600052603260045260246000fd5b9060005260206000200160009054906101000a900473ffffffffffffffffffffffffffffffffffffffff16610554565b9650965096509650965096509650919395979092949650565b60008060008373ffffffffffffffffffffffffffffffffffffffff1673ffffffffffffffffffffffffffffffffffffffff16815260200190815260200160002060060160006101000a81548160ff02191690831515021790555050565b61025b6109ae565b85816000018190525084816020019073ffffffffffffffffffffffffffffffffffffffff16908173ffffffffffffffffffffffffffffffffffffffff1681525050838160400181905250828160600181905250600081608001901515908115158152505060018160c0019015159081151581525050818160a00181905250806000808773ffffffffffffffffffffffffffffffffffffffff1673ffffffffffffffffffffffffffffffffffffffff1681526020019081526020016000206000820151816000019080519060200190610334929190610a05565b5060208201518160010160006101000a81548173ffffffffffffffffffffffffffffffffffffffff021916908373ffffffffffffffffffffffffffffffffffffffff1602179055506040820151816002019080519060200190610398929190610a05565b5060608201518160030190805190602001906103b5929190610a05565b5060808201518160040160006101000a81548160ff02191690831515021790555060a08201518160050190805190602001906103f2929190610a05565b5060c08201518160060160006101000a81548160ff0219169083151502179055509050506001859080600181540180825580915050600190039060005260206000200160009091909190916101000a81548173ffffffffffffffffffffffffffffffffffffffff021916908373ffffffffffffffffffffffffffffffffffffffff160217905550505050505050565b600073ffffffffffffffffffffffffffffffffffffffff166000803373ffffffffffffffffffffffffffffffffffffffff1673ffffffffffffffffffffffffffffffffffffffff16815260200190815260200160002060010160009054906101000a900473ffffffffffffffffffffffffffffffffffffffff1673ffffffffffffffffffffffffffffffffffffffff161415610552576040517f08c379a000000000000000000000000000000000000000000000000000000000815260040161054990610d94565b60405180910390fd5b565b606060006060806000606060008060008973ffffffffffffffffffffffffffffffffffffffff1673ffffffffffffffffffffffffffffffffffffffff1681526020019081526020016000206000016000808a73ffffffffffffffffffffffffffffffffffffffff1673ffffffffffffffffffffffffffffffffffffffff16815260200190815260200160002060010160009054906101000a900473ffffffffffffffffffffffffffffffffffffffff166000808b73ffffffffffffffffffffffffffffffffffffffff1673ffffffffffffffffffffffffffffffffffffffff1681526020019081526020016000206002016000808c73ffffffffffffffffffffffffffffffffffffffff1673ffffffffffffffffffffffffffffffffffffffff1681526020019081526020016000206003016000808d73ffffffffffffffffffffffffffffffffffffffff1673ffffffffffffffffffffffffffffffffffffffff16815260200190815260200160002060040160009054906101000a900460ff166000808e73ffffffffffffffffffffffffffffffffffffffff1673ffffffffffffffffffffffffffffffffffffffff1681526020019081526020016000206005016000808f73ffffffffffffffffffffffffffffffffffffffff1673ffffffffffffffffffffffffffffffffffffffff16815260200190815260200160002060060160009054906101000a900460ff1686805461077190610ed6565b80601f016020809104026020016040519081016040528092919081815260200182805461079d90610ed6565b80156107ea5780601f106107bf576101008083540402835291602001916107ea565b820191906000526020600020905b8154815290600101906020018083116107cd57829003601f168201915b505050505096508480546107fd90610ed6565b80601f016020809104026020016040519081016040528092919081815260200182805461082990610ed6565b80156108765780601f1061084b57610100808354040283529160200191610876565b820191906000526020600020905b81548152906001019060200180831161085957829003601f168201915b5050505050945083805461088990610ed6565b80601f01602080910402602001604051908101604052809291908181526020018280546108b590610ed6565b80156109025780601f106108d757610100808354040283529160200191610902565b820191906000526020600020905b8154815290600101906020018083116108e557829003601f168201915b5050505050935081805461091590610ed6565b80601f016020809104026020016040519081016040528092919081815260200182805461094190610ed6565b801561098e5780601f106109635761010080835404028352916020019161098e565b820191906000526020600020905b81548152906001019060200180831161097157829003601f168201915b505050505091509650965096509650965096509650919395979092949650565b6040518060e0016040528060608152602001600073ffffffffffffffffffffffffffffffffffffffff1681526020016060815260200160608152602001600015158152602001606081526020016000151581525090565b828054610a1190610ed6565b90600052602060002090601f016020900481019282610a335760008555610a7a565b82601f10610a4c57805160ff1916838001178555610a7a565b82800160010185558215610a7a579182015b82811115610a79578251825591602001919060010190610a5e565b5b509050610a879190610a8b565b5090565b5b80821115610aa4576000816000905550600101610a8c565b5090565b6000610abb610ab684610e00565b610dcf565b905082815260208101848484011115610ad357600080fd5b610ade848285610e94565b509392505050565b600081359050610af581610f77565b92915050565b600082601f830112610b0c57600080fd5b8135610b1c848260208601610aa8565b91505092915050565b600081359050610b3481610f8e565b92915050565b600060208284031215610b4c57600080fd5b6000610b5a84828501610ae6565b91505092915050565b600080600080600060a08688031215610b7b57600080fd5b600086013567ffffffffffffffff811115610b9557600080fd5b610ba188828901610afb565b9550506020610bb288828901610ae6565b945050604086013567ffffffffffffffff811115610bcf57600080fd5b610bdb88828901610afb565b935050606086013567ffffffffffffffff811115610bf857600080fd5b610c0488828901610afb565b925050608086013567ffffffffffffffff811115610c2157600080fd5b610c2d88828901610afb565b9150509295509295909350565b600060208284031215610c4c57600080fd5b6000610c5a84828501610b25565b91505092915050565b610c6c81610e4c565b82525050565b610c7b81610e5e565b82525050565b6000610c8c82610e30565b610c968185610e3b565b9350610ca6818560208601610ea3565b610caf81610f66565b840191505092915050565b6000610cc7601c83610e3b565b91507f4f7267616e697a6174696f6e20646f6573206e6f7420657869737421000000006000830152602082019050919050565b610d0381610e8a565b82525050565b600060e0820190508181036000830152610d23818a610c81565b9050610d326020830189610c63565b8181036040830152610d448188610c81565b90508181036060830152610d588187610c81565b9050610d676080830186610c72565b81810360a0830152610d798185610c81565b9050610d8860c0830184610c72565b98975050505050505050565b60006020820190508181036000830152610dad81610cba565b9050919050565b6000602082019050610dc96000830184610cfa565b92915050565b6000604051905081810181811067ffffffffffffffff82111715610df657610df5610f37565b5b8060405250919050565b600067ffffffffffffffff821115610e1b57610e1a610f37565b5b601f19601f8301169050602081019050919050565b600081519050919050565b600082825260208201905092915050565b6000610e5782610e6a565b9050919050565b60008115159050919050565b600073ffffffffffffffffffffffffffffffffffffffff82169050919050565b6000819050919050565b82818337600083830152505050565b60005b83811015610ec1578082015181840152602081019050610ea6565b83811115610ed0576000848401525b50505050565b60006002820490506001821680610eee57607f821691505b60208210811415610f0257610f01610f08565b5b50919050565b7f4e487b7100000000000000000000000000000000000000000000000000000000600052602260045260246000fd5b7f4e487b7100000000000000000000000000000000000000000000000000000000600052604160045260246000fd5b6000601f19601f8301169050919050565b610f8081610e4c565b8114610f8b57600080fd5b50565b610f9781610e8a565b8114610fa257600080fd5b5056fea2646970667358221220f06f66337802d424429ef9bade10831d47cbb7501e2822f714590a1cbf8656f264736f6c63430008000033",
  "immutableReferences": {},
  "source": "//SPDX-License-Identifier: MIT\npragma solidity >=0.5.0 <0.9.0;\n// import \"@openzeppelin/contracts/access/AccessControl.sol\";\n\ncontract WorkExperience  {\n  /* bytes32 public constant EMPLOYEE_ROLE = keccak256(\"EMPLOYEE_ROLE\");\n  address employee_address;\n  constructor(address _employee_address) {\n    // _setupRole(DEFAULT_ADMIN_ROLE,_admin);\n    employee_address = _employee_address;\n    _setupRole(EMPLOYEE_ROLE,employee_address);\n  }\n\n  function _isEmployee() private view {\n    require(hasRole(EMPLOYEE_ROLE, employee_address), \"Caller is not an employee\");\n  }\n\n  modifier OnlyEmployee() {\n    _isEmployee();\n    _;\n  } */\n\n  struct workexpInfo {\n    string role;\n    address organization;\n    string startdate;\n    string enddate;\n    bool endorsed;\n    string description;\n    bool visible;\n  }\n\n  mapping(address => workexpInfo) workexpmap;\n  address[] workexps;\n\n  function addWorkExp(\n    string memory _role,\n    address _organization,\n    string memory _startdate,\n    string memory _enddate,\n    string memory _description\n  ) public {\n    workexpInfo memory newworkexp;\n    newworkexp.role = _role;\n    newworkexp.organization = _organization;\n    newworkexp.startdate = _startdate;\n    newworkexp.enddate = _enddate;\n    newworkexp.endorsed = false;\n    newworkexp.visible = true;\n    newworkexp.description = _description;\n    workexpmap[_organization] = newworkexp;\n    workexps.push(_organization);\n  }\n\n  function _isOrgExist() private view {\n    require(workexpmap[msg.sender].organization != address(0x0), 'Organization does not exist!');\n  }\n\n  function endorseWorkExp() public {\n    _isOrgExist();\n    workexpmap[msg.sender].endorsed = true;\n  }\n\n  function getWorkExpByAddress(address _organization)\n    private\n    view\n    returns (\n      string memory,\n      address,\n      string memory,\n      string memory,\n      bool,\n      string memory,\n      bool\n    )\n  {\n    return (\n      workexpmap[_organization].role,\n      workexpmap[_organization].organization,\n      workexpmap[_organization].startdate,\n      workexpmap[_organization].enddate,\n      workexpmap[_organization].endorsed,\n      workexpmap[_organization].description,\n      workexpmap[_organization].visible\n    );\n  }\n\n  function getWorkExpCount() public view returns (uint256) {\n    return workexps.length;\n  }\n\n  function getWorkExpByIndex(uint256 _index)\n    public\n    view\n    returns (\n      string memory,\n      address,\n      string memory,\n      string memory,\n      bool,\n      string memory,\n      bool\n    )\n  {\n    return getWorkExpByAddress(workexps[_index]);\n  }\n\n  function deleteWorkExp(address org) public {\n    workexpmap[org].visible = false;\n  }\n}",
  "sourcePath": "/Users/mobilelive/Work/mobileLIVE/hrms-blockchain-app/src/contracts/WorkExperience.sol",
  "compiler": {
    "name": "solc",
    "version": "0.8.0+commit.c7dfd78e.Emscripten.clang"
  },
  "schemaVersion": "3.4.3",
  "updatedAt": "2023-04-20T20:55:29.683Z",
  "networkType": "ethereum",
  "devdoc": {
    "kind": "dev",
    "methods": {},
    "version": 1
  },
  "userdoc": {
    "kind": "user",
    "methods": {},
    "version": 1
  }
}